:1010000000000420813F0000A93F0000291A0000D1
:10101000AD3F0000AF3F0000B13F00000000000006
:10102000000000000000000000000000B33F0000CE
:10103000B53F000000000000B73F0000B93F0000CE
:10104000B9380000594B020051300200153600003B
:10105000BB3F0000BB3F00009D3200004D3400004C
:10106000B1350000BB3F0000BB3F0000BB3F0000AC
:10107000BB3F000031240200BB3F0000BB3F00002B
:10108000BB3F000059160000BB3F0000BB3F000003
:10109000F5160000BB3F0000BB3F0000BB3F000057
:1010A000BB3F0000BB3F0000BB3F0000BB3F000058
:1010B000BB3F0000BB3F000000000000000000003C
:1010C000BB3F0000BB3F0000BB3F0000BB3F000038
:1010D000C9210200BB3F0000BB3F0000BB3F000036
:1010E000BB3F0000BB3F0000E92C030000000000F4
:1010F00000000000BB3F000000000000BB3F0000FC
:1011000000000000000000000000000000000000DF
:1011100000000000000000000000000000000000CF
:1011200000000000000000000000000000000000BF
:1011300000000000000000000000000000000000AF
:10114000000000000000000000000000000000009F
:10115000000000000000000000000000000000008F
:10116000000000000000000000000000000000007F
:10117000000000000000000000000000000000006F
:10118000000000000000000000000000000000005F
:10119000000000000000000000000000000000004F
:1011A000000000000000000000000000000000003F
:1011B000000000000000000000000000000000002F
:1011C000000000000000000000000000000000001F
:1011D000000000000000000000000000000000000F
:1011E00000000000000000000000000000000000FF
:1011F00000000000000000000000000000000000EF
:1012000010B5054C237833B9044B13B10448AFF340
:1012100000800123237010BD400A00200000000060
:10122000E078040008B5034B1BB103490348AFF352
:10123000008008BD00000000440A0020E07804009F
:10124000154B002B08BF134B9D46A3F5803A002198
:101250008B460F461348144A121A32F0EBFF0F4B1D
:10126000002B00D098470E4B002B00D09847002051
:10127000002104000D000D48002802D00C4838F071
:101280004DFB32F09DFB2000290000F08FF832F07A
:1012900073FB00BF000008000000042000000000F5
:1012A00000000000400A0020041001201D990300E6
:1012B000EDAA030010B503682F2B044604D9074993
:1012C0004FF4F37000F04CFC23681F2B83BF03F036
:1012D0001F03236002484FF0A04010BDAB0704007D
:1012E0000003005007B502AB43F8040D1846FFF7A2
:1012F000E1FF019A01239340C0F8083503B05DF87F
:1013000004FB07B502AB43F8040D1846FFF7D2FF04
:10131000019A01239340C0F80C3503B05DF804FB3B
:1013200007B502AB43F8040D1846FFF7C3FF019B56
:1013300003F5E073032240F8232003B05DF804FBBB
:1013400070B5064608460C4617F0D2FE0546204604
:1013500017F0CEFE124C134B1349E41AE408240490
:101360000346324644F0030001F02AFA0820FFF752
:10137000B9FF2920FFF7B6FF0C20FFF7B3FF022DBE
:1013800004D10820BDE87040FFF7BBBF032D01D199
:101390002920F7E7042D01D10C20F3E770BD00BF31
:1013A0000C790400E4780400EC0704007FB54FF0EA
:1013B00080430122C3F878254FF40041002001F05A
:1013C0001BF818B1194A362100F031F900F046FF38
:1013D0000620FFF7A5FF0820FFF7A2FF2920FFF74F
:1013E0009FFF0C20FFF79CFF0820FFF77BFF2920C1
:1013F000FFF778FF0C20FFF775FF0620FFF781FF4E
:101400001022002102A832F015FF094B019301A818
:1014100001238DF8143002F08FFB02F0B1FC01F0D3
:1014200045F80028F9D102F097FCF6E7A40704007C
:101430001908CEFA38B5054D044645F001054FF4BC
:101440007A40A847013CFAD138BD00BFA00804008B
:101450007FB506460D46144672B601F0FFF901F05D
:1014600025F80028FBD13F4832F03AFF44F201034F
:101470009E4264D044F202039E426ED1228861688B
:10148000394832F02DFF01F015FE08B901F0DCFDFE
:101490000123002403A90420ADF80C408DF80E4070
:1014A0008DF80D3001F010FE03A9052001F00CFEAF
:1014B00003A9062001F008FE03A9204601F004FE5E
:1014C000042001F0BDFE052001F0BAFE062001F067
:1014D000B7FE002001F0B4FE4FF4FA70FFF7AAFF48
:1014E000042001F07FFE052001F07CFE062001F0C3
:1014F00079FE002001F076FE3220FFF79BFF0420EA
:1015000001F09EFE052001F09BFE062001F098FEF2
:10151000002001F095FE4FF4FA70FFF78BFF0420D6
:1015200001F060FE052001F05DFE062001F05AFE8C
:10153000002001F057FEFA20FFF77CFFC0E7A66805
:10154000304601F0C1FB01952368009302466368B1
:101550000648314632F0C4FE95E72946044832F089
:10156000BFFE90E71D08040036080400510804007F
:101570007B08040013B501F09DFD08B901F064FD7E
:101580000123002401A90420ADF804408DF8064091
:101590008DF8053001F098FD01A9052001F094FDBA
:1015A00001A9062001F090FD01A9204601F08CFD63
:1015B000042001F045FE052001F042FE062001F066
:1015C0003FFE002001F03CFE4FF4FA70FFF732FFBF
:1015D000042001F007FE052001F004FE062001F0C2
:1015E00001FE002001F0FEFD3220FFF723FF042062
:1015F00001F026FE052001F023FE062001F020FE6A
:10160000002001F01DFE4FF4FA70FFF713FF0420D5
:1016100001F0E8FD052001F0E5FD062001F0E2FD06
:10162000002001F0DFFDFA20FFF704FFC0E700B55E
:1016300083B002900091019244F2010071466A4623
:10164000FFF706FF03B000BD024B4FF43C6043F0D0
:1016500001031847B0080400F8B51F491F4B0025C7
:10166000C1F84051C1F84451C1F84851C1F84C513A
:10167000C1F80051C1F804511B684BB3D1F80445BF
:1016800017490968641A24F07F442F461A68A24259
:1016900009D8A41A15441A7CDE691AB11F74D3E95B
:1016A00005209047AEB90F4B0F4A197813788B423B
:1016B00005D10133DBB2022B08BF0023137012786F
:1016C0000A4B43F822500A4B4FF48012C3F8002112
:1016D000F8BD3346DAE700BF001001407C0B002064
:1016E000780B0020740B0020750B00206C0B002081
:1016F00000E100E02DE9F74F9C4A9D4913780978F5
:101700009C4D99423CD00133DBB2022B08BF002331
:10171000137099491278994B0F6853F822003B18BF
:1017200023F07F4300220B602B6816461446944634
:1017300013B942B12B6006E0196881420ED902B19B
:101740002B60091A19604FF001082B68DFF834A2EA
:1017500000930027BEB9DFF834B260E0401A0C44B1
:10176000D968C3F800C0D3F81CE031B13A1922F0AF
:101770007F42C3E90121DE611E4601227346D7E79D
:101780000026B046E1E73446F6697B4A6368126892
:10179000DFF8FCC1A068991A21F07F41614500F291
:1017A000A58001442160012222742A680023C4E933
:1017B0000133E361002A40F0A2802C60CAE75A1C82
:1017C0009BF80210D2B291428BF8002004BF002295
:1017D0008BF80020182202FB03B32A6819799C6851
:1017E000022974D003297ED0012918D1217CB1B9F6
:1017F000DA6862601A69A2605A69E2609B69A36153
:101800005F4B1B78002BC0D06160BEE79C4200F0AC
:1018100090809946DB69002BF8D1002323749BF854
:1018200000309BF801209A42C9D12B682FB9009A49
:10183000934202D1B8F1000F43D0002B41D0D3F82E
:1018400000A0504D4C4BD5F804751C68DFF844815E
:101850003E1B98F8003026F07F4603369BB94FF4C4
:101860008033C5F84433C5F80433474B4FF4003296
:101870004FF00109C3F880211A60C5F80090FFF706
:10188000E3FE88F80090B2452CBF5444A41924F01C
:101890007F44C5F84045D5F80435DB1B23F07F4372
:1018A000E41B033324F07F44A3420AD9D5F804355E
:1018B000C5F84035FFF7C8FE334B4FF40032C3F88C
:1018C00000212F4B00221A7003B0BDE8F08F1346A1
:1018D0009146A0E71174D2690123002AFAD1002BA6
:1018E0009DD02A609BE700231946F6E7D31A23F020
:1018F0007F43834234BFC31A0023236053E7216828
:101900001368994213D8591A1160E26155E7091A10
:10191000D8691A4638B1034618688842F7D3401A86
:101920001860184613462160E061DC6112E7134637
:10193000F2E74C450DD1D3692B6053B90E480192A3
:101940000121CAF8081003600D4B1970FFF77CFEE7
:10195000019AE1692368C9F81C1011B108680344B1
:101960000B602B689A4218BF012756E7740B0020C2
:10197000750B00207C0B0020780B00206C0B0020E6
:10198000680B00200010014000E100E05C0A00202C
:10199000FEFF7F00690B002072B6024A1368013314
:1019A00013607047800B0020034A1368013B1360EB
:1019B00003B962B6704700BF800B0020EFF30583C8
:1019C000C3F308032BB9EFF31480C04300F0010008
:1019D000704701207047000008B5FFF7EFFF0128AE
:1019E00003D00449432000F0BBF8BDE80840FFF7EE
:1019F000D3BF00BFB608040008B5FFF7DFFF01281A
:101A000003D00449512000F0ABF8BDE80840FFF7CF
:101A1000CBBF00BFB6080400024B1B6800219868CA
:101A200032F058BE7C0000201EF0040F1CBFEFF304
:101A300009800AE0EFF308800549064A884201D888
:101A4000904202D88D464FF00000034B184700002B
:101A50000000042000E003205D1A00002DE9F34798
:101A6000054600F0FBFE00F021FD0028FBD12F4BC6
:101A70002F4C9F6A2F4BE41AE408240444F001041D
:101A8000002D4ED0AA692C49204600F08FFEEB684D
:101A90000193AB6800932949D5E90023204600F063
:101AA000A5FEEB6900932649D5E90423204600F002
:101AB00091FE1E4BDB6A980703D52249204600F0B1
:101AC00071FEDFF89490DFF894A000264FF0010833
:101AD00008FA06F33B4206D059F826201AB15146BF
:101AE000204600F063FE01361A2EF1D1390605D5E5
:101AF0000E4B15495A6B204600F058FE3A0405D5A6
:101B00000A4B12499A6B204600F050FE104B1B689E
:101B1000DB0700D500BE2846FFF72CFD02B0BDE86C
:101B2000F0870C49204600F03DFEC2E700ED00E0E2
:101B30001C790400E4780400090904001E0904006B
:101B400053090400AE090400FD0904001D0A040045
:101B5000F0ED00E07B090400380A0400F2090400FB
:101B600007B5ADF8000001916A46002144F2020079
:101B7000FFF76EFC03B05DF804FB50E8002F0B4646
:101B800040E8003C9CF0000FF7D11046704750E849
:101B9000003F43EA010240E8002C9CF0000FF6D120
:101BA0001046704750E8002F02EA010340E8003C6D
:101BB0009CF0000FF6D11046704750E8003F03EB51
:101BC000010240E8002C9CF0000FF6D1104670474F
:101BD00050E8003FA3EB010240E8002C9CF0000F0E
:101BE000F6D1104670470121FFF7D1BF0021FFF762
:101BF000D9BF000010B50446002834D003681BB9D3
:101C00001A49FF20FFF7ACFF636823B917494FF467
:101C10008070FFF7A5FFA36823B9144940F20110B3
:101C2000FFF79EFFE36823B910494FF48170FFF777
:101C300097FF238A23B90D4940F20310FFF790FF65
:101C4000D4E9012321689B1ADBB20A60013BDBB2B5
:101C5000FF2B226802D10020107110BD1168481CB2
:101C600010600B70F2E70E20F7E700BF600F040072
:101C700038B5044620B912494FF49270FFF770FF4F
:101C80000020FFF7A9FE2268616813688B4215D90E
:101C9000591E116013F8015C228AE36802FB0535C6
:101CA0002268A36811685B1A1179DBB2994200D2ED
:101CB00013710020FFF7A0FE284638BD0025F8E785
:101CC000600F040038B50C46054620B90E4940F2B5
:101CD0004710FFF745FF24B90B494FF4A470FFF7F5
:101CE0003FFF0020FFF778FE2A681368591C116037
:101CF000EA68A41A2A8AB4FBF2F41C700020BDE83A
:101D00003840FFF779BE00BF600F040010B50446ED
:101D100018B906493120FFF723FFA2682AB1636989
:101D20002168206998470023A36010BDAE0F04000E
:101D30000EB433B5059D044618B912494220FFF789
:101D40000FFF63691BB90F494320FFF709FF2368A1
:101D50001BB90C494420FFF703FF63681BB909490D
:101D60004520FFF7FDFE3DB102AA06AB42F8043D57
:101D70002946204600F06EF802B0BDE8304003B0BE
:101D8000704700BFAE0F0400826830B40468551C71
:101D90008560A154D0E901329A4202D330BCFFF7EA
:101DA000B5BF30BC704700002DE9F84F9946DDE91A
:101DB0000A431746824688460A460126BA420FD28F
:101DC0004E4538BF4E4613F0010B01D164B90024D3
:101DD0000125B9F1010F1AD909F1FF397D43F8E75F
:101DE000B2FBF7F20136E9E79B070ED5B9F1000F18
:101DF0000CBF30252025A642EAD2013C2946504698
:101E0000FFF7C2FF002CF6D1E1E72025F3E7B8FB8E
:101E1000F5F39F42E2D9DFF83890B8FBF5F350466E
:101E200019F8031005FB1388FFF7AEFFB5FBF7F5B4
:101E3000002DF2D1BBF1000F02D00CB1A64201D3AC
:101E4000BDE8F88F20215046013CFFF79DFFF4E7E5
:101E5000F20F04002DE9F74F0E469046054620B9D3
:101E6000AC494FF4A270FFF77BFE6B6923B9A94917
:101E70004FF4A370FFF774FE2B6823B9A54940F215
:101E80004710FFF76DFE6B6823B9A2494FF4A470A9
:101E9000FFF766FE002E00F03A8116F8011B0029BC
:101EA00058D0252940F0D180002702E047F00107F3
:101EB0001646324612F8013B2D2BF7D0302B04D0BA
:101EC0002B2B05D147F00407F2E747F00207EFE7B5
:101ED00000242A2B06F101021BD1D8F80030191D6D
:101EE000C8F800101B6816461C4433782E2B1CD1F2
:101EF00001364FF0000A314611F8012BA2F13000F3
:101F0000092814D80A2303FB0A23A3F1300A0E463A
:101F1000F1E712F8013CA3F130010929E5D80A21C3
:101F200001FB0434303C1646D3E74FF0000A32463A
:101F300012F8011B01F0FB0068281646F8D0692949
:101F400016D054D8582970D00ED825297DD0337892
:101F5000002BA2D12B7B002B00F0D980284603B0A8
:101F6000BDE8F04FFFF7D2BE632968D06429EED1F7
:101F7000D8F80020111DC8F80010D2F8009089EAA6
:101F8000E972A2EBE9724FF0010B092A61DCD3453B
:101F900038BFD3462CB1B9F1000F01DB790700D56A
:101FA000013CBA0702D5BAF1000F04D0FB0702D4F6
:101FB000002C54D10024B9F1000F58DAC9F10009FE
:101FC0002D212846FFF7E0FE07F00302022A05D183
:101FD000BAF1000F02D1002C4DD10024CDE9004709
:101FE00053460A2249462846FFF7DEFEAFE773292B
:101FF00054D016D87029AAD1D8F800301A1DC8F8C4
:102000000020302128461C68FFF7BEFE78212846B4
:10201000FFF7BAFE00220823CDE900322146102244
:10202000E1E775292FD0782991D1D8F800100A1D41
:10203000C8F80020CDE90047534610222CE0D8F81C
:1020400000301A1DC8F8002019782846FFF79CFEBA
:102050007DE70A230BF1010B92FBF3F295E7A34511
:10206000A9D220212846013CFFF78EFEA0E7780781
:10207000AAD52B21A5E7A345B0D230212846013CA3
:10208000FFF782FEA7E7D8F80010CDE900470A1D48
:10209000C8F8002053460A220968A4E7D8F800309F
:1020A0001A1DC8F80020F907D3F8009012D54F4642
:1020B000A7EB090B17F8011B41B9A345BFF447AFC4
:1020C00020212846013CFFF75FFEF6E72846FFF790
:1020D0005BFEEDE7B9F1000F17D0484632F050FE35
:1020E0000746BC4200D954B909F1FF3919F8011F5C
:1020F00000293FF42CAF2846FFF746FEF6E72021E3
:102100002846013CFFF740FEEBE74F46E9E703B006
:10211000BDE8F08F021004007047000007B5044BC3
:102120000093044A402300F032F803B05DF804FB4A
:1021300039210000850B00202DE9F843894614461B
:10214000B2B10F4B0F4E0325002743F00108224682
:1021500009EB0701002001F065FC0744241A48B987
:1021600033782BB14FF47A40C047013D02D135702E
:10217000BDE8F88301233370002CE8D1F8E700BFF5
:1021800050100400840B0020704701F0C9BCF0B56A
:1021900095B01C46164608460D4600F02AFD1A9BCF
:1021A0000D93CDE9086400242346082205A928469A
:1021B0000A948DF82C400C9400F044FD079B029388
:1021C000BDF81830ADF80C30BDF81A30ADF80E304F
:1021D0009DF814308DF8114003F00302012A1DD13F
:1021E000BDF81440059EC3F3C203C4F383148DF8F5
:1021F0001030A20008230EA9284600F023FDC6F3E4
:10220000952608AB0093224602AB0EA9304600F09B
:1022100095FB284600F0F1FC15B0F0BD022AF8D17C
:10222000BDF81640C3F3C203A4098DF81030082787
:10223000082C264628BF08263B4632460EA92846CB
:1022400000F000FDA41B08AB02AA31460EA83744DB
:1022500000F0D8FB002CEBD1DBE7000008B5FFF75E
:1022600094FF0421064800F0CFFA002803DA05495C
:102270004120FFF775FC044B01225A7108BD00BFD5
:10228000407904006410040008000020037813F073
:10229000040216D003F00303012B03D0022B09D054
:1022A000012070470A6800880232C0F3831002449C
:1022B0000A60F5E70B684288023303EB92130B6068
:1022C000EEE71046704700002DE9F04F484C87B00C
:1022D0000D460646871C00200092FFF77DFB236811
:1022E0002B60D4E901231344226801339B1A04F2C2
:1022F0001C4804F5836B04F21449BB4219D3009ABD
:102300000023002A6CD0012262F3010343F004038E
:1023100066F389132168A2680A4003320F44002043
:1023200044F822302760FFF767FB012007B0BDE8C3
:10233000F08F01214046FFF740FC5846FFF753FC61
:102340000DF1180A4846FFF74EFC60684AF8100D78
:10235000A5682840033004EB80005146FFF796FF44
:1023600002460298002AF4D105EA000304EB830335
:10237000811CDB6803930130054004EB850503F005
:102380000303012B0291ED6823D0022B08D01949D9
:1023900001924FF4BF70FFF7E3FB019A154607E087
:1023A000BDF80E309B0903332D0C01EB9303029310
:1023B0004846FFF71BFC08B1029B63602946404674
:1023C000FFF7FBFBD4E901231344226801339B1A76
:1023D00093E7BDF80C30C3F383132D0C0B44E6E7F1
:1023E000022262F3010343F0040366F39F5391E773
:1023F000980C0020D11004000B4B0C48FF2210B5A4
:102400009A600022C3F81824C3E90022C3F81424F8
:10241000012283F8202400F0A5FB044610B90448EB
:1024200000F026FC204610BD980C00202C790400FA
:102430002811040030B50A4C71B10A4A0A49121B2E
:10244000D20800239A4201D1002030BD31F8235038
:10245000854202D00133F5E7034654F83300F4E730
:10246000E47804002C7904003C0A0020094B01396F
:1024700003EBC000032909D8DFE801F00A020406D3
:1024800004207047007970474079704700207047FA
:1024900002207047E4780400034BD3E90030C31AEC
:1024A00058425841704700BF980C00202DE9F04376
:1024B00085B0FFF7F1FF0646002840F0F9807D4D1A
:1024C000C5F81804BFF34F8F6868AC6804AF47F8CD
:1024D000100D2040033005EB80003946FFF7D6FE93
:1024E000009B18B1D5F81824002A5FD004EA030233
:1024F000991C013305EB8202234005EB8303D2686C
:10250000DB68029302F00303022B0192009162D177
:10251000BDF8063068484FEA9318B8F1500FC1462D
:1025200028BF4FF0500969F38F1309F10801ADF886
:10253000063000F02FFB0746002800F0A48000F0D2
:1025400058FB01A900230822384600F065FB0099DA
:1025500024EA01060136B600B14535D95FFA89F99A
:102560007EB3F6B2A9EB0609214003315FFA89F484
:10257000B146524E05EB810108234A46384600F029
:102580004BFB36B109F1080322463146384600F0CC
:1025900043FB009B08F1030803EB98030093D5F875
:1025A0001834002B4BD1D5F810445BE02A689A42CE
:1025B00004D86A60304605B0BDE8F08304EA030041
:1025C00088E73E493446D7E72140033108234A468D
:1025D00005EB8101DAE7012B55D1BDF8043036480F
:1025E000C3F38311062928BF062161F38913023141
:1025F0008900ADF8043000F0CDFA0746002842D03B
:1026000000F0F7FA0023082201A9384600F004FB85
:102610000026BDF80420C2F38312B31C96424FEA91
:102620008303BCD200994A1C21400331009205EB80
:1026300081010422384600F0EFFA0136E9E7384616
:1026400000F0DBFAFFF728FF80F00100C6B2B1E727
:10265000E3685B7923B1236839461B6820469847B5
:10266000E3681C68002CF3D1384600F0C6FA204617
:10267000FFF7B2F9D5F818340BB9009B6B60002056
:10268000FFF7BAF9DEE7D5F8104454B90C4B0D4802
:102690000D49C01AC008000440F0020000F082F8A2
:1026A000D0E7236820469B689847E3681C68ECE7FE
:1026B00000267FE7980C00202C790400A40C002051
:1026C000E47804000C790400341104002DE9F74F7C
:1026D0002F4C80460F46914601A9012218469B4681
:1026E000D4F808A0FFF7F0FD00283DD0019D00269A
:1026F000A91C5E4506EB010240D100212548FFF7E9
:102700003CFA80F3100B244B244A4FEA18499B1AD9
:10271000B9EBD30F04D3224940F2A310FFF720FAFC
:102720006B1C03EA0A0304EB830349EA0B42DA60F9
:1027300005EA0A030333012114F8232068F3C502D4
:1027400004F8232034F8232066F3891224F8232088
:1027500054F8232067F39F2244F8232061F30102F9
:102760006FF3820204F8232094F820341BB1FFF7A2
:102770009DFE0028FBD103B0BDE8F08F0AEA0202FB
:1027800004EB820259F82630D3600136B1E700BF6E
:10279000980C0020B41000202C790400E478040088
:1027A000D110040000231A46FFF790BF13B502AC06
:1027B000012344F8042D2246FFF788FF02B010BD24
:1027C00007B5CDE9002302236A46FFF77FFF03B078
:1027D0005DF804FB1FB5CDE90123069B039301AA15
:1027E0000323FFF773FF05B05DF804FB1FB5CDE9C8
:1027F0000023069B0293079B03936A460423FFF77B
:1028000065FF05B05DF804FB30B5134AD2F81044FB
:102810000023214651B9C4682371D2F810445CB931
:10282000C2F81004C2681160184630BDC9680D793D
:102830009D420AD00968EDE7E468C16824680C602D
:10284000D2F81024D2681060EEE701330A2BE0D1F1
:102850004FF0FF33E8E700BF980C002038B5094A75
:102860000123D2F8104482F820341D4604B938BD43
:10287000E3685D71236820465B689847E3681C68DD
:10288000F4E700BF980C002010B5037A052B0C4626
:102890000FD0437A23B1084A08492046FFF748FA87
:1028A00007492046FFF744FA2046BDE81040FFF7ED
:1028B0002DBA002AF8D0F3E77F110400DA180400DB
:1028C0001A08040073B5C38804460D4633B1144A90
:1028D00000921449144A2846FFF72AFA217A05295A
:1028E0001CD0637A4BB1A088FFF7C0FD0F4B104995
:1028F00053F820202846FFF71BFA227A0D4BA088B8
:1029000053F822600021FFF795FD0B49034632463C
:10291000284602B0BDE87040FFF70ABA02B070BDA9
:102920007F1104008C110400841104004C11040078
:10293000DA180400B0110400A41104002DE9F043DA
:1029400085B01F460C9D002306460C46904695F820
:102950000C902B7329463846FFF7B4FFB8F1060FE9
:1029600009D8DFE808F00412181F28334000314668
:102970002846FFF7DDF9002229463846FFF784FF95
:1029800085F80C9005B0BDE8F083226831462846F2
:10299000FFF7CEF9EFE7D4E9002331462846FFF7E9
:1029A000C7F9E8E7A36800933146D4E90023284635
:1029B000FFF7BEF9DFE7E3680193A36800933146B0
:1029C000D4E900232846FFF7B3F9D4E7236902933B
:1029D000E3680193A36800933146D4E900232846B5
:1029E000FFF7A6F9C7E76369039323690293E368D6
:1029F0000193A36800933146D4E900232846FFF7EA
:102A000097F9B8E708292DE9F84F80460E46174692
:102A10001C4635D8002593F80C901D7319461046B6
:102A2000FFF750FFDFF88CA0DFF88CB0AE4229D959
:102A300018F8052059462046FFF77AF90135082D88
:102A4000F4D11A49DFF874B02046FFF771F94FF05E
:102A5000000A564524D918F80A507E2D17D92E227F
:102A600059462046FFF764F90AF1010ABAF1080F46
:102A7000EFD1012221463846FFF706FF84F80C907B
:102A8000BDE8F88F51462046FFF752F9D6E730F0FF
:102A9000C9FF2844427812F0970FE0D02A46DFE7BA
:102AA00003492046FFF744F9DEE700BF7A1104002E
:102AB0007811040076110400701104007C110400E8
:102AC0002DE9F74F99469DF8303001938846174617
:102AD000054618B92249B620FFF742F8EA8895F86A
:102AE00005B00BFB02FBABF1040BCB4503D81C4933
:102AF000C420FFF735F83E68B5F806A006EB0902DA
:102B00005A4509F1040188BFABEB0906B1FBFAF4A1
:102B10003E600AFB141144B9AAEB0107B74228BF73
:102B200037462EB903B0BDE8F08F2D68013CF2E7BF
:102B3000019A043108EB0403681872B101463A4661
:102B40001846F61B31F078FAB2453C442D685746DA
:102B50004FF0000128BF3746E3E73A461946F0E751
:102B600018120400FFF746B8F8B546790146721E00
:102B70000546002393422D6803D30024A64202D8C1
:102B8000F8BD0133F6E70F682846FFF79BF80134DC
:102B90003946F3E72DE9F843CD1C068A0746FFF7CF
:102BA00067F8043E35440446B5FBF6F5F0B14FF442
:102BB0008073EDB28380C680013D076081464FF08F
:102BC0000008A84512D23846FFF752F8064648B129
:102BD00063790133637108F10108C9F800000760E7
:102BE0008146EEE72046FFF7BFFF34462046BDE8AA
:102BF000F88301210430FEF7E0BF10B5012104463F
:102C00000430FEF7E5FF10F0FF0F04D12046BDE8C9
:102C10001040FFF7A9BF10BD30B585B0144604AA17
:102C2000002542F8044D0095FFF74AFF039BA3429D
:102C300003D00349F620FEF793FF05B030BD00BF77
:102C40001812040030B585B0144604AA012542F8D4
:102C5000044D0095FFF734FF039BA34204D00349C2
:102C60004FF48070FEF77CFF05B030BD18120400F1
:102C7000826800239360826813618268536182686E
:102C8000D360826853608268136070470D4930B525
:102C9000A1F58C720225914201D800200EE08B1A1A
:102CA000DB1093FBF5F302EBC30452F8333083429D
:102CB00005D802D204F10802EDE7606830BD214674
:102CC000E9E700BF9413040008B5FFF7DFFF024BEC
:102CD000002808BF184608BD6612040038B5084C25
:102CE00004F108030546002818BF1C4623682BB1D1
:102CF0001A6822605B6828469847F7E738BD00BF2E
:102D0000FC10002020B9054B01225A70FFF7E6BFE6
:102D1000012802D1014A9070F8E77047F4100020B2
:102D200038B5094C23786BB908486360A360236108
:102D3000E36000F01BFD054600F02EFD012323702B
:102D4000284638BD8525FBE7F4100020052D00003E
:102D500038B51A4C237805461BB91949E920FEF706
:102D6000FFFEA37803F0FF00ABB115B16B68012043
:102D700098470020FEF730FEE36800200133E3604F
:102D8000FEF73AFEE368C3B90D4940F20510BDE80D
:102D90003840FEF7E5BEFEF71FFE25B12269134657
:102DA0003BB92A602561E368002BE5D100F012FDF4
:102DB000E2E79D42F7D01B68F2E738BDF41000202F
:102DC0002517040038B50F4C237823B90E494FF46A
:102DD0008570FEF7C5FEE36823B90B4940F20B107E
:102DE000FEF7BEFE0020FEF7F7FDE368013BE3605F
:102DF000E56815B900F00CFDA5700020BDE838406D
:102E0000FEF7FABDF41000202517040008B5074BA3
:102E10001B7823B906494FF48C70FEF7A1FE4FF0E2
:102E20008043D3F81804C0F3004008BDF41000201C
:102E30002517040038B51B4C2378054623B91A49D9
:102E40004FF49370FEF78CFE637803F0FF00ABB194
:102E500015B16B68002098470020FEF7BDFD636840
:102E6000002001336360FEF7C7FD6368C3B90E49F4
:102E70004FF4A170BDE83840FEF772BEFEF7ACFD1E
:102E800025B1A26813463BB92A60A5606368002B90
:102E9000E5D100F0D5FCE2E79D42F7D01B68F2E7F0
:102EA00038BD00BFF41000202517040038B50F4CC2
:102EB000237823B90E4940F24710FEF751FE6368AC
:102EC00023B90B494FF4A470FEF74AFE0020FEF729
:102ED00083FD6368013B6360656815B900F0CEFC53
:102EE00065700020BDE83840FEF786BDF410002074
:102EF00025170400024AD2F80034002BFBD070479B
:102F000000E001400A4908B50223C1F80435BFF3C7
:102F10006F8FBFF34F8FC1F80805FFF7EBFF00235A
:102F2000C1F80435BFF36F8FBFF34F8F08BD00BFEB
:102F300000E0014038B520F00305C00000F01800A3
:102F4000FF2303FA00F22B680B4C23EA0203012251
:102F5000C4F80425BFF36F8FBFF34F8F01FA00F061
:102F600018442860FFF7C6FF0023C4F80435BFF3F8
:102F70006F8FBFF34F8F38BD00E0014070B58D18E3
:102F80000C46461AAC4200D170BD301914F8011B32
:102F9000FFF7D0FFF6E700F1804000F5C0400023C6
:102FA00082B0036003680193019B02B07047000088
:102FB000054B4FF0FF32072843F8202084BF1B1831
:102FC00083F85820704700BF0811002010B503682F
:102FD0002F2B044604D907494FF4F370FEF7C0FDC8
:102FE00023681F2B83BF03F01F03236002484FF0A9
:102FF000A04010BDAB0704000003005013B502ABA6
:103000000C4643F8040D1846FFF7E0FF019B00EB68
:103010008300D0F8003723F44033C0F80037D0F8ED
:10302000003743EA0443C0F8003702B010BD000087
:103030004FF0A043D3F810350360024BD3F810359E
:10304000436070470003005010B5164C94F86A3086
:1030500033BBFF21E2180133302B82F83010F9D155
:103060000021C8B2FFF7A4FF01310C29F9D10622D3
:1030700000210D4831F0DEF80C4BE02283F80623E6
:1030800040221A604FF4BE70FFF785FF084B4FF0E7
:103090000042C3F80423012384F86A30002010BDE5
:1030A0000820FCE7081100206C11002000E100E07E
:1030B00000600040034B93F86A00003018BF012005
:1030C000704700BF081100202F287FB504460D4629
:1030D00004D941494FF49870FEF742FD3F4E96F8EF
:1030E0006A30012B04D03C4940F23110FEF738FD24
:1030F00025B939494FF49970FEF732FD331993F928
:103100003020013265D1AA78002A54D0002356F825
:10311000231001314FEA830247D1311902F1804275
:1031200081F83030002102F5C04246F82310D2F871
:1031300010052B78697820F499101B04090520F4F8
:10314000F85001F4801103F44033C2F810050B432A
:103150002102D2F8100501F47C510B430343C2F85D
:1031600010356D78012D04A829D140F80C4DFFF7DA
:103170002DFF019B9D40C0F8085504A840F8044D60
:10318000FFF724FF039B164903F5E073032240F881
:10319000232024FA02F2012304F0070403FA04F4C2
:1031A0008B5C1C438C54002003E00133082BAED110
:1031B000042004B070BDFE2283F83020D1E740F82F
:1031C000084DFFF703FF029A01239340C0F80C3526
:1031D000D3E70820EDE700BF7817040008110020AE
:1031E0006C1100202F2837B5054604D912494FF439
:1031F000BE70FEF7B5FC114C621992F93020013215
:1032000004D10D4940F27D10FEF7AAFC631993F832
:103210003030072B04D808494FF4BF70FEF7A0FCEC
:1032200002A840F8045DFFF7D1FE019A0123934004
:10323000C0F8083503B030BD78170400081100202D
:103240002F2837B5054604D912494FF4C370FEF74D
:1032500087FC114C621992F93020013204D10D49DA
:1032600040F28710FEF77CFC631993F83030072B8F
:1032700004D808494FF4C470FEF772FC02A840F865
:10328000045DFFF7A3FE019A01239340C0F80C35BB
:1032900003B030BD78170400081100202DE9F04F6D
:1032A00000248DB0CDE904445D4A5E4E5E4D01219F
:1032B0001368A2F5C040012B80B206D1D6F80433C2
:1032C0000B4202D0FFF767FE0C430432AA424FEADA
:1032D0004101EDD1554B1B68012B08D14FF4BE7055
:1032E000FFF759FE04A844F00044FFF7A1FE14F0D4
:1032F000FF0F1AD04E4F00250126344210D0AB00EC
:1033000003F1804303F5C043D3F81005D3F810153B
:1033100057F82530C0F30520C1F3014103B19847A8
:103320000135082D4FEA4606E7D1002C75DA06AFC5
:10333000002306937B604FF0FF33CDE90833DFF8BD
:10334000F0804FF0000A554608EB0A0393F96040FD
:10335000631C4AD0E4B2012324F0C00604F0070B3A
:1033600003FA0BFBF1080CAB5A1812F8103C13EAE5
:103370000B0F3AD008EB0603A40993F9303058F844
:103380002390B9F1000F06D1032C2ED1785C40EACE
:103390000B00785401E0032CF8D003A801920396A7
:1033A000FFF714FE0399019A01F5E07112F8202C41
:1033B00050F8211012EA0B0FC1F3014105D0022988
:1033C00013D1032C0BD1214604E003290DD1032C8A
:1033D00005D102213046FFF711FE0135EDB2B9F1FA
:1033E000000F02D021463046C8470AF1010ABAF15F
:1033F000040FA9D18DB10AA8FFF71AFE049B0A9AFF
:103400009A420B9B02D105998B4206D004920593F8
:10341000069A079B0892099393E70DB0BDE8F08FD9
:103420000061004000600040206100407C6100407D
:103430000811002000F1804000F5E040002382B038
:10344000036003680193019B02B07047F0B5514BD4
:10345000514C1B6885B0DBB14FF4827094F82E207C
:10346000FFF7E8FF12B194F82F30A3B1636802931D
:103470002389ADF80C30E36800218DF80410002B8F
:1034800044D12374236801A89847002384F82F307F
:1034900094F82E3003B3414B1B68EBB14FF48070AE
:1034A000FFF7C8FF94F82D20638B91B28B4238D977
:1034B0005B1A21899BB26383CB1A616801EB4301DC
:1034C000374BC3F82C16C3F830264FF48270FFF741
:1034D000B1FF344B01221A60334B1B685BB14FF4D0
:1034E0008870FFF7A7FF002304A82374022300F8C5
:1034F0000C3D236898472D4B1B6813B34FF48A701B
:10350000FFF798FF0023237405B0F0BD208B608384
:1035100063602081E160002AB4D1214B01221A604E
:10352000B0E7D2D1E368012184F82F103BB100212C
:1035300061831B49C1F82C36C1F83026C5E7638387
:10354000C3E766694FF000470125002EDCD0B6FACC
:1035500086F227FA02F34632920026EA030602F1C7
:10356000804303F5E0431B68002BEED01046FFF7C5
:1035700061FFA2F58C72D30882F00402C2F38002CC
:103580008DF808308DF804508DF80920236801A8C3
:103590009847DAE704710040741100200071004080
:1035A0000070004004700040107100401471004031
:1035B0002DE9F341104C114F114E00254FF4803886
:1035C0002368A4F5004080B26BB1D7F8043308FA41
:1035D00005F21A4207D00023236023680193019B60
:1035E000D6E9003198470135042D04F10404E7D1F0
:1035F00002B0BDE8F08100BF408100400080004083
:10360000A41100200023435082B043580193019B32
:1036100002B07047F0B5504C236887B023B94F49CA
:1036200040F24520FEF79CFA4D4AD2F82431154667
:10363000A3B14FF492711046FFF7E4FFD2F80431C2
:1036400063B9A368C2F808330223A360A368C2F871
:10365000043301231362536107B0F0BDD5F8043180
:10366000002B49D03F4F3E484FF48271FFF7CAFF0D
:103670000FCF01AE0FC63B68336094F82E307BB19C
:10368000237B012B0CBFD5F83C25D5F84C250292A5
:10369000022B334B0CBFD3F83C35D3F84C35039396
:1036A0004FF4B0712E48FFF7ADFF4FF4AE712C48C8
:1036B000FFF7A8FF94F8303013B194F82E303BB1E7
:1036C000274B0022C3F80022A260274AC3F8082330
:1036D000234AD2F8C434C2F8C4349A0736D5012339
:1036E0008DF8003094F830300BB984F82F30D4E9DD
:1036F000003168469847AFE74FF4A4711848FFF7C8
:1037000081FF237B83B9174F0FCF01AE0FC63B68F4
:10371000336094F83030002BDAD1C5F80032A36062
:10372000114BC5F80833D3E74FF40073C5F80032E6
:1037300040F20223A36003F1CE73C5F80833A368F7
:10374000C5F804330123AB602B6285E713F0040353
:1037500018BF0223C4E700BFB0110020D717040030
:1037600000300040BC11002002029C0110B504464C
:1037700018B90749A020FEF7F3F9064B187920B9CC
:1037800001221C601A71587110BD8520FCE700BF32
:1037900026180400E411002008B50B4B1B791BB957
:1037A0000A49B920FEF7DCF9094B1A68D2075FBF56
:1037B000E02283F8002301221A604FF080430122A7
:1037C000C3F8182508BD00BFE41100202618040026
:1037D00000E100E007B50B4B1B791BB90A49E62055
:1037E000FEF7BEF9094B00221A601B680193019B8A
:1037F0004FF080430222C3F8042301229A6003B0F1
:103800005DF804FBE41100202618040004010040C8
:1038100008B5084B1B791BB90749F320FEF7A0F93F
:10382000064B01221A604FF08042D2F81834DB03B5
:10383000FBD408BDE4110020261804000C00004051
:1038400007B50B4B1B791BB90A49FB20FEF788F91A
:10385000094B00221A601B680193019B4FF08043C3
:103860000122C3F804231A6003B05DF804FB00BF13
:10387000E4110020261804000001004010B50B4C94
:10388000227922B90A4940F20310FEF769F9094B7F
:1038900001221A604FF08042D2F80C3403F0011379
:1038A000B3F1011FF8D00023637110BDE4110020B3
:1038B000261804000400004007B5154B1A687AB1B9
:1038C00000221A601B680093009B4FF08043012286
:1038D000C3F808230F4B587910B95A711B689847E1
:1038E0000D4B1A6882B100221A601B680193019B7C
:1038F0004FF080430222C3F80823064B1B680120C7
:1039000003B05DF804EB184703B05DF804FB00BF9B
:1039100000010040E4110020040100400369C16877
:103920008B429DBF8268D21802F1FF3203F1FF3350
:1039300094BF501A581A70472DE9F041D0E9026738
:103940000446F61B4068964288461546384405D919
:1039500030F072FB3D44E560BDE8F0813246AD1BBE
:1039600030F06AFB2A4608EB0601606830F064FB21
:10397000F1E72DE9F843C5680646894617464FF03A
:1039800000083469B3687068A54228BFE418013C98
:10399000621B5C1BBC4228BF3C46944228BF1446B5
:1039A00049462844224630F047FBB3682544AB42E1
:1039B00008BF00253F1BA044A144F560E1D140466B
:1039C000BDE8F88310B5114C114AA2610223C4E985
:1039D0000433104BE361A2644FF400730E4A236278
:1039E000E264002310220D49A362E01D6362E362DA
:1039F000A3656365E365226531F060F908492046F7
:103A000031F05CF92023A37110BD00BF74EE0020DB
:103A100077180400FC110020EC110020801804002D
:103A200084180400F8B5184C182300FB033503FB79
:103A300000402544C46A012C0F46164611D003D31A
:103A4000022C1BD000240AE02846FFF767FF8642BD
:103A500005D8324639462846FFF76EFF34462046E1
:103A6000F8BD2846FFF75AFF8642344628BF044671
:103A7000224639462846FFF75FFFF0E72846BDE8B3
:103A8000F840FFF776BF00BF74EE002070B50B4B17
:103A90001B7804460D4616460BB9FFF793FF00202E
:103AA000FDF79AFF324629462046FFF7BBFF044642
:103AB0000020FDF7A1FF204670BD00BF74EE00207E
:103AC0002DE9F041154C1E462378054688461746D9
:103AD0000BB9FFF777FF2369AB421BD90020FDF735
:103AE0007BFF65B1182305FB0332A11803FB0543D7
:103AF00044F8028000224F601E629A625A621823C4
:103B000003FB0544069BE3620020FDF775FF0020E0
:103B1000BDE8F0814FF0FF30FAE700BF74EE0020FF
:103B2000FFF750BF10B511461C461A460020FFF79C
:103B3000ADFF204610BD000073B5002106460846C3
:103B40001FF0C0F901F0AAFF614C206018B961496B
:103B50001B20FEF705F8604B604DED1AED0801F0F3
:103B6000A7FF2D0445F0030502465D492846FEF7F0
:103B70001DFE206815F0B8FA5A4902462846FEF79D
:103B800015FE206800F04CFC10B1337C002B35D0C2
:103B90003178206804F0B1F918B14E492520FDF7BD
:103BA000DFFF206804F09EF94F4902462846FEF7E1
:103BB000FDFD96F9011020681EF04AFF18B1454935
:103BC0002920FDF7CDFF01A920681EF037FF4749E6
:103BD0009DF904202846FEF7E9FD7188206804F06D
:103BE000B4F918B13B492F20FDF7BAFF206804F063
:103BF000A8F93F4902462846FEF7D8FD01220021D8
:103C000001A830F017FB3379002B5AD09DF804300F
:103C1000B168206843F002036FF300038DF80430AD
:103C200004F0ACF99DF80410206815F046FA18B1BC
:103C300028494520FDF794FFF16811B1206815F07F
:103C40000AFA0121206802F03DFE18B121494C20FA
:103C5000FDF786FF206800F0E3FB08B9337C4BB327
:103C60000121206815F048FA18B11A495120FDF7D2
:103C700077FF20492846FEF795FD206804F032F9C9
:103C80001D4902462846FEF791FD206804F059F9C7
:103C90001A4902462846FEF789FD206815F0E0F92A
:103CA000174B184A184910F0010F18BF1A4628463A
:103CB000FEF77CFD22681549104601F0F5FE02B0C2
:103CC00070BD9DF8043043F00F038DF80430A9E770
:103CD000FC1300208B180400E47804000C79040025
:103CE000B7180400CA180400DD180400F018040016
:103CF0000119040015190400381904004D190400B5
:103D0000661904006E1904007719040041130000BD
:103D100010B50E4C20681EF0AFFD01280FD10C4BE2
:103D200001221A60F1EE103A23F09F03E1EE103AFF
:103D3000F1EE103A074B4022C3F8842110BD2068F1
:103D40001EF09AFD0028EAD0ECE700BFFC1300202B
:103D50001090004000E100E010B5074C22681AB94D
:103D600006497220FDF7FCFE206815F069F910B9CC
:103D7000FFF7CEFF20BF10BDFC1300208B180400FE
:103D800010B5074C23681BB906498420FDF7E8FEEF
:103D9000206815F049F92068BDE810401FF0BAB856
:103DA000FC1300208B180400054B1B68082B01BF77
:103DB000044B1868B0FA80F0400918BF0020704723
:103DC000300100103401001008B54FF0804300228C
:103DD000C3F80C21C3F81021C3F838254FF08052E6
:103DE00003F54043D2F80414C3F82015D2F80814A0
:103DF000C3F82415D2F80C14C3F82815D2F81014FF
:103E0000C3F82C15D2F81414C3F83015D2F81814CE
:103E1000C3F83415D2F81C14C3F84015D2F8201496
:103E2000C3F84415D2F82414C3F84815D2F828145E
:103E3000C3F84C15D2F82C14C3F85015D2F830142E
:103E4000C3F85415D2F83414C3F86015D2F83814F6
:103E5000C3F86415D2F83C14C3F86815D2F84014BE
:103E6000C3F86C15D2F84424C3F87025FFF79CFF03
:103E700010B1384B384A1A60FFF796FF18B1374B2C
:103E8000FB22C3F81825FFF78FFF48B13449354BA3
:103E90000A681B6822F00F0203F00F0313430B6044
:103EA000FFF782FF18B1304B4FF400721A604FF0E9
:103EB0008043D3F80024D20744BF6FF00102C3F857
:103EC00000242A4AD2F8883043F47003C2F88830BC
:103ED000BFF34F8FBFF36F8F4FF01023D3F8002243
:103EE000002A03DBD3F80432002B2FDA204B012207
:103EF000C3F80425D3F80024002AFBD04FF0102289
:103F00001221C2F80012D3F80024002AFBD04FF08F
:103F100010231222C3F80422154B1A46D3F80014BA
:103F20000029FBD00021C3F80415D2F80034002B7F
:103F3000FBD0BFF34F8F0D490E4BCA6802F4E0620D
:103F40001343CB60BFF34F8F00BFFDE70A4B0B4A13
:103F50001A6008BD8C5600404881030000F0004004
:103F6000E40E0040580200104096024000ED00E0D0
:103F700000E001400400FA05100000200090D0038A
:103F80000649074A074B9B1A03DD043BC858D0502B
:103F9000FBDCFFF719FFFDF753F900005879040027
:103FA00008000020400A0020FEE7FEE7FEE7FEE7EB
:103FB000FEE7FEE7FEE7FEE7FEE7FEE738B500F1C5
:103FC000350424F00104054618220021204630F073
:103FD00031F9237803F03F0343F0400323700021BD
:103FE000284608F0E5FA0421E1822846BDE8384079
:103FF00008F09BBA70B504460D461646FFF7DEFF83
:1040000004F1350020F001000178467021F0300104
:104010000D43057070BD00F1350323F0010300214D
:104020001A7802F00F02043208F03FBB2DE9F34189
:1040300000F1350525F0010514466A8A0F466946E8
:104040009846BA424FF00003064600930B7173D8AE
:10405000BA1A92B2601C0C2A80B204D9B2F5867FDB
:104060008CBF0223012303440C2C9BB22BD9B4F543
:10407000867F8CBF02200120B6F81EC003441CFAC4
:1040800083F3B3F5007F59DA0C2A1ED812018DF89C
:1040900000200DF101020C2C9DF8003030D8234394
:1040A0008DF80030521A92B2304608F089FB224651
:1040B0004146304608F084FB6F82F38BEB82002090
:1040C00002B0BDE8F0810020D6E7B2F5867F08D8BF
:1040D0000D3AD0238DF801208DF800300DF1020249
:1040E000D9E76FF48670024492B2E0238DF8003075
:1040F00013128DF802208DF801300DF10302CAE78A
:10410000B4F5867F08D843F00D038DF80030A4F194
:104110000D0313700132C5E743F00E038DF8003034
:104120006FF48673E3189BB210464FEA232C00F815
:1041300002CB53700246B5E70720C1E70320BFE773
:1041400070B50546104614460E4630F019FE23465B
:1041500082B231462846BDE87040FFF767BF70B5B0
:1041600006460C462F21204630F0C4FB054648B1D8
:10417000021B234692B20B213046FFF757FF40B98E
:104180006C1CEFE7224630460B21BDE87040FFF77C
:10419000D7BF70BDF7B500F1350424F00104C38B1F
:1041A000218A8B42054602D8002003B0F0BD6B4641
:1041B000052208F028FA9DF80010208A0E11471CED
:1041C00001F00F010C2EB2B28BB2278234DD0D2E1E
:1041D0001DD19DF80120023020820D320DF1020028
:1041E0000C2906D90D292AD10378218A0D330131F2
:1041F0002182218AE88B401A83421ADCA589E38157
:104200002A440B4404F10C00A2812382CDE70E2A3C
:104210000DD19DF801609DF8022042EA062203308C
:1042200002F20D12208292B20DF10300D8E70F299D
:10423000BAD000202082B8E70DF10100D0E70E2BA4
:10424000F7D10178437843EA0123218A03F20D1361
:104250009BB20231CCE738B500F1350424F00104FB
:1042600005460422002104F10C002FF0E3FF227820
:10427000A38AE98B02F00F020432C91A91420ADBC9
:1042800013449BB22382EA8B9A4204D92846BDE8A4
:104290003840FFF77FBF002038BD38B500F1350446
:1042A00024F001040B46258A55B1E289AD1AA9B262
:1042B00008F0A9F9E389834214BF0620002038BD25
:1042C0001720FCE713B5FF238DF80730C38BB3F538
:1042D000007F04460DD201220DF1070108F070FAAB
:1042E000353434F8173C24F001040020E38202B096
:1042F00010BD0320FBE770B500F1350424F0010484
:10430000828B231A1C3B9A42054600D2FEE71822F4
:10431000002120462FF08EFF298CA18223460C22FB
:10432000284608F070F92846FFF795FF064618B1B1
:104330002846FFF72FFFF9E7218A41B1A38AC91A5E
:1043400089B2E182284608F026F9304670BD062081
:10435000FCE770B500F1350525F0010506462B7820
:1043600002F00F0023F00F0303432846144600F821
:10437000043B2FF061FEE98A214489B2E98230468C
:10438000BDE8704008F0D1B8082973B506460D465F
:1043900000D9FEE70024CDE90044AC4205D013F07B
:1043A0002FFA0DF804000134F7E72246694630463B
:1043B000FFF7CFFF02B070BD38B544220C46202174
:1043C0000546FFF717FE04F1350121F0010105F163
:1043D000350323F001034A885A8011F8042B28463C
:1043E00002F00F02BDE83840FFF7B3BF38B505460D
:1043F00008F0B3FC044648B105F135013530182208
:1044000021F0010120F001002FF016FE204638BDFA
:1044100021B100F586406C3000F0AAB80720704743
:1044200000B59BB06946FFF7F3FF9DF86430C3F316
:10443000800058B1C3F3C00040B1C3F3001028B1ED
:10444000D8091CBF9DF8650000F001001BB05DF8A5
:1044500004FB00BA704738B5437B0273002504465D
:1044600065F3000385604373062229462FF0E2FEC0
:10447000A571E571204638BD10B5017BA1F10E0391
:10448000594204465941094813F096FE062200217C
:1044900020462FF0CFFE637B002203F0FE0362F381
:1044A0004103A271E271637310BD00BF4C14002080
:1044B000F8B50E46017BA1F10E035942074632467C
:1044C00059411B4813F056FE054620B10023A6F8BB
:1044D00004312846F8BD3B7B0E2B0CD133213046EE
:1044E00019F04FFC3421304619F04BFC1DF087FDCC
:1044F000C6F80001EDE73421304619F067FA0446AA
:104500000028E6D0BF681DF07AFDC71BD4F8020072
:10451000FFF79FFF874205D2C01BFFF79AFFC4F841
:104520000200E3E7A570E57025716571DEE700BF65
:104530004C14002070B5437B6FF3000343730446B3
:104540000E46FFF7B5FF054680B9637B43F00203D3
:104550006373304619F042FB024638B10068516877
:10456000234603C3637B43F001036373284670BD96
:1045700030B5C3B004460D46017B684619F0FAF920
:104580006822002128462FF055FE20466946FFF795
:104590008FFF044618B92946684619F025FA2046C7
:1045A00043B030BD70B50D46017BB5F80461A1F193
:1045B0000E03594204465941C6B9144813F0FCFD94
:1045C000637B66F341036373284619F007FB0346D8
:1045D000B0B159680068224603C2637B43F001030F
:1045E00063731DF00CFDA060002070BD2A460748D3
:1045F00013F000FD0028F8D1637B43F00203E2E7EB
:10460000627B60F300026273EBE700BF4C14002092
:10461000437B03F0010309B9584270470BB114F012
:10462000F3BF0120704738B50D4604461DF0E7FC86
:104630002A4601462046BDE8384014F085BF10B533
:104640000622044600212FF0F5FD0023A371E3713B
:1046500010BD000007B5054B01A91B88ADF804305B
:1046600017F0D4FB03B05DF804FB00BF8C19040005
:1046700038B5044604301D46FFF7EDFE059B227F4A
:1046800023620023636204F120036FF30002C4E994
:104690000A35049B227704F114002363FFF7CFFF50
:1046A000204638BD037F13F0010314BF14301846B1
:1046B0007047037FDB0702D5143014F0A5BF01203B
:1046C0007047000030B5C3B00446017C684619F05D
:1046D00051F904F1200014F001FF237F6FF3000370
:1046E00023776946201DFFF725FF0546A8B96846D0
:1046F00019F074FA024640B10068516804F11403DD
:1047000003C3237F43F001032377237C0E2B04D1C3
:1047100000220349684619F043FB284643B030BDE8
:104720000014002010B5C2B0017C0446684619F0A0
:1047300021F96946201DFFF7BBFE20B90246034957
:10474000684619F02DFB42B010BD00BF00140020D8
:1047500010B504461430FFF772FF237F6FF3000398
:10476000201D2377FFF788FE04F12000BDE81040EC
:1047700014F0B4BEFFF7A6BFF7B500230546084600
:104780000E468DF8073019F029FA044698B92F1D06
:1047900021463846FFF73CFF9DF807400CB33146F1
:1047A0003846FFF7FFFE184A44F60303D35C042B98
:1047B00022D0002013E00068616805F1140303C3F0
:1047C0002B7F43F001032B772B7C0E2BDFD10DF1D8
:1047D00007020D49304619F0E3FA0028D7D003B09C
:1047E000F0BD0028DBDCE4D005F120004FF47A7145
:1047F000FFF719FF2046F2E7044811F0C9FC03480F
:1048000011F0DAFCD5E700BF00140020B4770020D7
:1048100030B5C3B004460D46017C684619F0AAF8CD
:10482000201D6946FFF744FE044678B935216846E5
:1048300019F0CCF848B107F09DFD38B1054A44F2B3
:10484000DC43D3581840286000B91724204643B0F1
:1048500030BD00BF00140020F0B5D1B0044603AD58
:104860002C22002128462FF0E5FC217C0EA819F00F
:1048700081F82048FFF7EEFE0646B8B30222002179
:10488000FFF7B8FB02213046FFF77EFD216B304673
:10489000FFF765FC3046FFF715FD0EA9201DFFF759
:1048A00007FEBDF83C210EA9304607F089FF0446FB
:1048B000C0B9114F97E80F0085E80F004FF47C4214
:1048C00007A9A7F5C67008F095FF4FF2BF036B84E8
:1048D0002A46009423463146A7F5F46017F0E0FD20
:1048E000044620B1304607F01CFE00E003242046B9
:1048F00051B0F0BDE4550020845D002070B5044641
:10490000C2B0184808F00CFC48B3217F251D11F0F7
:10491000010118BF04F114012846FFF779FE0028B1
:104920001DDA267C0E2E11D13321684619F022F8AB
:1049300069460D48FFF7BCFD3146684619F046F858
:1049400020B1811C2846FFF763FE40B12046FFF7E7
:1049500083FF4FF47A7104F12000FFF764FE42B048
:1049600070BD00BFF85B0020C057002008B501F003
:104970005DF800F586406830BDE80840FFF7BEBF2F
:1049800008B501F053F800F587403C30BDE8084019
:10499000FFF7B4BF2DE9F041C4B004468846017C5E
:1049A0009DF8286102A817461D4618F0E3FF02A9EA
:1049B000201DFFF77DFD2D48FFF74CFE0446002823
:1049C00050D04146FFF7F8FC2046FFF77BFCCEB104
:1049D000013DDFF89C802E44AE4231D015F8011F16
:1049E000052903D198F90030002BF5DA02A818F058
:1049F000EDFF01460028EFD0204607F0F9FE002821
:104A0000EAD019E0BDF80C61DFF8648002AB1E4407
:104A10001D46B54214D22B78052B07D198F90030EA
:104A2000002B03DB6B7802331D44F2E72946204656
:104A300007F0DEFE0028F5D0204607F072FD11E0F9
:104A4000E38B218C994204D1013989B2204607F0C9
:104A50006CFD002300933A462146044817F020FDE0
:104A60000028E9D144B0BDE8F08100BFE455002042
:104A7000C85800202DE9F04FB1F820B0C5B08046ED
:104A80000D469246EB8B5B450AD80026009604AB98
:104A9000524629464046FFF77DFF45B0BDE8F08FFE
:104AA00003AB02225946284607F0ADFD9DF80C30B5
:104AB0009DF80D400D2B1ED11FFA84F904AF0BF1A8
:104AC00002013B464A4689B22846264607F09BFD2E
:104AD000002CDAD00D49D8F82C002FF085FF0028E3
:104AE000D4D183B299450BD901303B1813F8013C5E
:104AF000342BF6D1CAE70234A3441FFA8BFBC1E77B
:104B000001BF661C34233B55F6B2BFE79D19040074
:104B1000FFF7B0BFFFF7AEBF73B50E4E0E4D0F4B94
:104B20000193009533460E220446FFF7A1FD0C4B7E
:104B30000C4A6663C4E90E340023C4E91035C4E9A5
:104B40001224236504F13401074817F041F9204687
:104B500002B070BD8E190400931904006D49000065
:104B6000114B000003550000E4550020437CC3F3C3
:104B7000400323B1037FC3F3000383F0010318460E
:104B80007047F0B5C3B014461F4605460E46017C7B
:104B9000684618F0EFFE21469DF820313A466846F7
:104BA00019F024F8044638B93146684619F0C9F8B6
:104BB00069462846FFF7E0FD204643B0F0BD0000FF
:104BC00073B5114E114D124B0193044633460095B7
:104BD0003322FFF74DFD04F13402C4E90F260D4ADC
:104BE0000D4B6363C4E911240C4A0D480023A363F1
:104BF000C4E91335C4E91524E36504F1400117F055
:104C0000E7F8204602B070BD9D1904009819040011
:104C100081490000154B0000454D00001D55000066
:104C2000E455002010B50446FFF792FD04F134006E
:104C3000BDE8104014F052BC10B5C2B00446017C6F
:104C4000684618F097FE04F11400FFF7F8FC237F84
:104C50006FF30003237769462046FFF78DFD42B0CE
:104C600010BD10B5C2B00446017C684618F082FE43
:104C70006946201D3434FFF71BFC204614F02EFC3F
:104C80003421684618F0A2FE58B1D0F80200FFF7B0
:104C9000E0FB021EB8BF6FF000424099204614F0BE
:104CA00053FC42B010BDF0B5C3B015461F460446D4
:104CB0000E46017C684618F05DFE29469DF82031BD
:104CC0003A46684618F092FF054650B931466846A4
:104CD00019F037F869462046FFF74EFD2046FFF7EA
:104CE000C0FF284643B0F0BD70B5C2B0017C044699
:104CF000684618F03FFE6946201DFFF7D9FB3421B6
:104D0000684618F063FE80B1D0F80200A66B409DA3
:104D1000FFF79FFB751B854207D2421B314604F10A
:104D2000340014F011FC42B070BD684619F0AFF8C1
:104D300069460348FFF720FD2046FFF773FFF2E7BF
:104D40006857002008B500F071FE00F587403C3040
:104D5000BDE80840FFF7C8BF30B5C3B004460D46F4
:104D6000017C684618F006FE6946201DFFF7A0FB8F
:104D70002946684618F050FF43B030BDF0B51E46D6
:104D8000174B18481B8885B00F4603A91546ADF888
:104D90000C3017F03BF80446B0B13946FFF70CFB76
:104DA0002046FFF78FFA10238DF80C3003A901235A
:104DB00020468DF80D308DF80E6007F019FD034682
:104DC00020B1204607F0ADFB05B0F0BD00902A46AB
:104DD0002146044817F064FB0028F5D0F1E700BF36
:104DE000A2190400E4550020F0B5CDB0017C0646C0
:104DF0000AA818F0BFFD974808F092F9002800F0C3
:104E00002681371D0AA93846FFF752FB0E210AA852
:104E100018F0DCFD0446B8B90E2301468DF81430B5
:104E2000062208230DF116008DF815302FF002FA36
:104E300005A90AA8ADF81640ADF81840ADF81A401B
:104E4000ADF81C4018F04AFF00210AA818F0BEFD7A
:104E500078B903238DF815307F4A8DF8140044F299
:104E6000D84305A8D15C07F058FA05A90AA818F09C
:104E700035FF35210AA818F0A9FD0146A0B9352350
:104E800006220DF116008DF814308DF815202FF044
:104E9000D1F9714A44F2DC4305A8D15807F050FA21
:104EA00005A90AA818F01AFF02210AA818F08EFD19
:104EB00078B902238DF8143008238DF81530674B2C
:104EC00003CBCDF81600CDF81A100AA805A918F0E2
:104ED00005FF07210AA818F079FD78B907238DF896
:104EE000143008238DF815305D4B03CBCDF8160038
:104EF000CDF81A100AA805A918F0F0FE05210AA895
:104F000018F064FDB0B905238DF81430554810230E
:104F10008DF8153002F046FC0DF1160300F1100279
:104F200050F8041B43F8041B9042F9D105A90AA8C4
:104F300018F0D4FE03210AA818F048FDA8B90323ED
:104F4000102149488DF814308DF815102FF0D2FF3C
:104F50004549044602460DF116002FF06DF805A9EB
:104F60000AA88DF8154018F0B9FE01210AA818F01A
:104F70002DFD80B901238DF8143002238DF81530F2
:104F8000354A44F2D64305A9D35A0AA85BBAADF80C
:104F9000163018F0A3FE04210AA818F017FDE0B996
:104FA00005AD04232B7010212B4A697044F2C943CC
:104FB000D35CDB0738D52D4C0DF1160204EB010C48
:104FC000234603CB6345106051601C4602F1080282
:104FD000F6D129460AA818F081FE0C210AA818F07B
:104FE000F5FCA8B90C238DF8143003238DF8153087
:104FF000194A44F28C4305A9D3585BBAADF8163070
:1050000044F2C8430AA8D35C8DF8183018F066FE45
:105010000AA93846FFF7C6FA044610B93046FFF72A
:1050200051FB20464DB0F0BD01A812F0C5FB04466F
:105030000028F6D101AB0DF116041A4603CAAA42A4
:1050400020606160134604F10804F6D1C1E70D2425
:10505000E7E700BFF85B002000140020E0580020C4
:10506000845D002024580020E8580020A458002027
:1050700010B50446FFF7B8FE04F144010248BDE84C
:10508000104016F0A5BE00BFE455002000F1440119
:10509000014816F0AABE00BFE455002010B5044632
:1050A000FFF7DFFD04F150010248BDE8104016F0A3
:1050B0008FBE00BFE455002000F15001014816F0FA
:1050C00094BE00BFE4550020F0B5C9B006460F46B7
:1050D000017C148C06A8154618F04CFC1F4808F0FB
:1050E0001FF8002837D0EB8BA34218D9214601AB1B
:1050F0000222284607F087FAA11C0DF106039DF84D
:10510000052089B2284607F07EFA01A906A818F002
:10511000E5FD9DF8053002331C44A4B2E3E73423D7
:105120008DF804300E4804238DF8053002F0BCFDE4
:10513000FFF78FF901A9CDF8060006A818F0CEFDFB
:10514000394606A818F0FDFD06A93046FFF714FB06
:105150003046FFF786FD49B0F0BD00BFF85B002088
:10516000E48100202DE9F04FDDB00D8C06460C46A1
:10517000017C1AA8924618F0FDFB00238DF81D3023
:105180008DF829308DF815308DF841308DF8353097
:105190008DF811308DF80D3044F60302AE4B9A5C59
:1051A000042A9B4614D04FF0FF3544F603031BF846
:1051B0000330042B05D12B46524621463046FFF7DB
:1051C000DDFD012D14BF022000205DB0BDE8F08F91
:1051D000E38BAB420DD902AB02222946204607F0F1
:1051E00012FA9DF80930102BDDD802331D44ADB200
:1051F000EEE7238CED1AB5F5807FD4DC9749306B50
:105200002FF0F2FB07AB00284FF00A024FF00E011F
:10521000204614BF4FF033094FF00E0914F072FA14
:105220000028C0D19DF81D30082BBCD10AAB0A2242
:105230003321204614F066FA18B99DF82930082B5E
:10524000B1D1B9F10E0F0CBF0DF11E010DF12A0104
:10525000301DFFF7DDF90028A5DD05AB0522002193
:10526000204614F04FFA002840F09C8005A807F073
:105270001EF8002897D0BDF81770774A44F2D8433B
:105280007FBAD35CBFB2FF1A18BF012704AB042258
:105290000121204614F036FA70B99DF81130022B26
:1052A0000AD1BDF812306C4944F2D6425BBA8A5A30
:1052B0009BB2934218BF01270DAB0A22072120465B
:1052C00014F020FA58B99DF83520082A07D164490E
:1052D0000DF136002EF07EFE002818BF012710AB1E
:1052E00012220521204614F00DFA00285CD19DF809
:1052F0004150102D58D15B4802F054FA2A4601461D
:105300000DF142002EF066FE00284FD001273D46E9
:10531000B9F1330F4CD003AB04220B21204614F01B
:10532000F1F900285FD04FF00008B9F1330F02D037
:10533000002F40F0CB80278CDFF83C91E38BBB4201
:1053400040F29C80022215AB3946204607F05BF9FB
:105350009DF85520102A3FF626AFB91C0DF15603D3
:1053600089B2204607F04FF99DF854300B2B6CD0D2
:10537000342B63D1DDF85600FFF76BF8034615B107
:10538000394A904252D94846019302F08DFC019B64
:10539000984253D9484602F087FCFFF75AF8CDF8F7
:1053A00056004BE0002771E70025B1E70546AFE75F
:1053B0009DF841305BB92D48FFF774F90028AAD059
:1053C0000DF11E0114F020F90028A4DCEBE62548BD
:1053D00002F0E8F9102201460DF142002EF0FAFD2C
:1053E0000028E8D097E70B21214810F092FD9DF8A6
:1053F0000D30022B7FF4D7AE00283FF4D4AEBDF8B9
:105400000E20438852BA5BBA92B29BB29A427FF4A2
:10541000CAAEB9F1330F02D0002F7FF4C4AE1AA97F
:105420001448FFF745F84FF001087EE74FF480631A
:10543000ADF856304EF29303ADF8583015A91AA8BE
:1054400018F04CFC00287FF4AEAE9DF855300233C6
:105450001F44BFB272E700BF00140020931904007C
:10546000845D002024580020DF930400685700204A
:10547000B47700206C570020E48100201AA9304640
:10548000FFF77AF900287FF48EAE144810F080FE02
:10549000124810F091FEB8F1000F15D109210F4804
:1054A00010F037FD074678B115AD10224146284669
:1054B0002EF0C0FE0A4B0FCB85E80F0029467B88F3
:1054C0000848EB8102F0AAFB01256EE622460DF1A9
:1054D0001E010548FFF7F8FDDDE700BFB4770020A7
:1054E000845D0020E4810020BC57002010B50446F4
:1054F000FFF738FE20B92046BDE81040FFF712B98B
:1055000010BDFFF7F3BF10B50446FFF72BFE20B91F
:105510002046BDE81040FFF7A4BB10BDFFF7F3BF66
:1055200010B50C46C98B33390346332289B2204665
:1055300007F069F8332800D0FEE710BD38B50446FF
:105540000849002514F07DFB258704F13C0007F095
:105550000DFA054BC4E9103504F14003A36420465D
:1055600038BD00BF845400207558000010B586B0C7
:1055700004461422002101A82EF05CFE22460549B3
:10558000204614F093FB18B901A9204614F0D8FB6B
:1055900006B010BD9B590000F8B5044600F13C066A
:1055A00030460F4607F001FBA36C04F140059D4215
:1055B00006D0304607F019FA10B9284613F08EFFCE
:1055C0003846BDE8F84006F0ACBF70B50446084662
:1055D000C98B333989B2164607F0BFFB054640B187
:1055E00001463246204614F00FFC044618B9204606
:1055F00070BD0324FBE7284606F093FFF7E72DE98B
:10560000F047D48B158C3F3C641B0C3588B0894621
:1056100090461F46A4B2ADB22CB3102C22466B4666
:1056200028BF10222946404606F0EDFF824618B9F1
:10563000062008B0BDE8F087024604AB398848462A
:1056400006F0E1FF50450646F2D10246694604A83D
:105650002EF0C0FC48B93B8835443344A41B3B8042
:10566000ADB2A4B2D8E72046E3E71720E1E7F0B5F2
:105670001688CC8BA41B85B00F461546A4B204B384
:105680006B4610223146384606F0BDFFC8B10021F6
:105690008AB2B31890429BB20FD91DF8012022B9EB
:1056A00001332B80002005B0F0BD02F0C002C02AFB
:1056B00001F10101ECD10233F3E7241AA4B21E4632
:1056C000DDE70620EFE773B53C300D46164607F0E0
:1056D0008CF90446A8B10DF106030222018C06F0F4
:1056E00092FF022800D0FEE72A88BDF8063052BAA1
:1056F0005BBA92B29BB29A4206D121463046FFF77E
:105700000FFF204602B070BD204607F0C0F9E0E769
:105710002DE9F04114461E46069F9DF81C80FFF7B8
:105720003BFF65684DB12168A068CDF818803B4605
:105730003246AC46BDE8F0416047BDE8F0812DE956
:10574000F041054690B03C3007F04FF93322044653
:10575000002103A82EF06EFD4FF00B0800278CB13E
:10576000204607F094F92146064603A8FFF7D8FE25
:105770002146CDE90078002303AA2846FFF7C8FF99
:105780003446ECE7284614F0BBFA10B0BDE8F081CF
:105790002DE9F04F9BB007461CF031FC332200216D
:1057A00080460DA82EF046FD07F13C0007F01DF9DC
:1057B00002AE04462C22002130462EF03BFD4FF075
:1057C000FF354FF01C0908F6B83B002C48D02046A6
:1057D00007F05DF9214682460DA8FFF7A1FE109B58
:1057E000A8EB0302002A06DAA3EB08039D4228BFB8
:1057F0001D465446E9E79DF86630012B26D8013353
:105800008DF86630E18BCDF840B033390DAB3322E3
:1058100089B2204606F049FF109BA3EB08039D4286
:1058200028BF1D4615AB0FCB0DF1180C8CE80F00EF
:10583000BDF86430ADF82A3011AB0FCB86E80F000D
:10584000324621463846FFF7C0FED2E70023CDF8A6
:10585000049000930DAA21463846FFF759FFC8E788
:105860006B1C04D0294607F14000FEF7DCFE1BB09C
:10587000BDE8F08F08B500F0D9F800F5854050304C
:10588000BDE80840FFF784BF2DE9F0410C229AB033
:105890000D46064600210DEB02002EF0CBFC332214
:1058A00000210DA82EF0C6FC298C03AB0C22284643
:1058B00006F0A9FE0C28014659D19DF80E30DA09F0
:1058C00055D0BDF8104064BAA4B2012C4FD19A074C
:1058D0004DD4284606F05FFE2B8CADF80A300DAA99
:1058E00003A93046FFF7EFFE074600283FD09DF89A
:1058F0000F301B074BD102460DF10A0329463046F3
:10590000FFF77DFE0446002841D18046BDF81230E5
:105910005BBA9BB2434539D90DF10A02294630469C
:10592000FFF7A5FE044690BBBDF80A10EB8B01F112
:105930000A029A422FD806AB1A22284606F063FEC6
:105940001A2817D1BDF81830B3F5E05F12D1BDF8B1
:105950001A30B3F5807F0DD1079B1BBACDE9003417
:105960000DF122030DAA39463046FFF7D1FE1AB0D9
:10597000BDE8F081BDF820305ABABDF80A300A33CC
:105980001344ADF80A3008F10108BFE717240023DB
:1059900001940093E6E70624F9E7FFF775BF38B5F1
:1059A00000250446C0E90055083013F0F9FA2146F5
:1059B000C4E90455C4E9065504F1200011F06EFE57
:1059C00004F14D0004F0AAF804F14E0011F006FFB6
:1059D00004F1500019F034F904F5804021465030AC
:1059E00000F07AF804F582402146403013F0E0FBE5
:1059F00004F5E8402146083016F022FF04F5E9409E
:105A000001222146083016F05BFF04F5F4402146E0
:105A1000183006F0F4FF04F54A402146303002F019
:105A20005AFB4CF644232046E55438BD00487047E5
:105A3000001400204CF6442370B501250446C554DB
:105A40004C3012F0D1FA04F58F40783007F03EFA6E
:105A5000204613F06DFB80B12946204600F032FF4E
:105A6000064650B92946204613F046FB28B1314678
:105A70002046BDE8704000F025BF70BD10B54CF663
:105A80004423054CE35C2BB92046FFF788FF2046F2
:105A9000FFF7D0FF004810BD00140020FFF7EEBF55
:105AA0004CF64423C05C7047203011F00DBE00005E
:105AB00000487047A4190400437C5A0701D400F041
:105AC00098BEC3F3C30070478A1E0123037042705F
:105AD000002102302EF0AEBB38B5002304460D463F
:105AE00003704370C0E90133C360103006F081FFDA
:105AF00023460E4A294604F1200013F04DFA2946A8
:105B000004F1280001F0E2F9294604F12C0019F013
:105B10000AFA294604F1340014F0A8F8294604F1E1
:105B2000480000F0A5FF204638BD00BF69660000B0
:105B30003031134602488AB2002107F0FDB800BF99
:105B4000188E0020024B00F03800185C704700BF30
:105B5000E819040020B102280CBF20200020704763
:105B600008207047102206F0B1BE70B51E460546EB
:105B70000C460020114606F0A2FE314606F09FFEBC
:105B80002946FFF7EFFF2146BDE87040FFF7EABF67
:105B900030B587B0144692798DF8042000230D4665
:105BA00004F1080202A94830ADF80830ADF8103011
:105BB0008DF8053000F07CFF9DF8093004335B0759
:105BC00015D19DF809200232D2B202A9284606F06A
:105BD000BBFDD0B9022201A9284606F0B5FDA0B947
:105BE000A388A0715BBA08335BBAA3800DE00221E1
:105BF00004A8FFF769FF9DF811200232D2B204A970
:105C0000284606F0A1FD0028DBD007B030BD2DE905
:105C1000F04F0E468FB004AB28220021304606F02C
:105C2000F2FC9DF816400CB100200FE001AB0222FF
:105C30002821304606F0E7FC9DF80570F38B01370C
:105C4000FF0007F1280A534503D206200FB0BDE834
:105C5000F08FA046A1462A25A34602AB0222294680
:105C60003046ADF808B006F0CEFC9DF80830012BA8
:105C700050D04CD36D2B52D1B9F1000FE5D19DF826
:105C80000980B8F1040FE0D82A2D03D19DF8053022
:105C9000002B3AD005F10803534508BF012408F151
:105CA00002032B44A9469DB25545D6D3CDD1002C35
:105CB00048D02037A7F10805ADB202AB082229462B
:105CC000304606F0A0FC394602AB0822304606F00A
:105CD000ECFC072D2F46EDD80821304606F081FC5C
:105CE000B9F12A0F22D19DF804308DF81630BDF895
:105CF00014305BBA083B5BBAADF81430282204AB11
:105D00000021304606F0D1FC8EE70124C7E70135BB
:105D1000ADB2C9E79DF8093002331D44F8E79DF89C
:105D2000093002331D44ADB20024BDE79DF80530B3
:105D3000013B8DF80530022201AB2821304606F0E8
:105D4000B4FCD4E7B9F1000F3FF46EAF08F10201E3
:105D5000C9B202A8ADF80840FFF7B6FE9DF80920C9
:105D6000023202ABD2B24946304606F09EFC2046D3
:105D70006CE710B50446103006F038FF04F120003F
:105D8000BDE8104013F02AB92DE9F3410C469846BE
:105D90000023ADF80430098C074616466B460222F4
:105DA000204606F030FC0228014640D19DF8015003
:105DB0006B1C258C05EBC305E38BADB2AB4236D330
:105DC000204606F0E8FB0836218C8D4231D901AB24
:105DD0000222204606F017FC022828D19DF8043044
:105DE00023B90121204606F0D6FBEDE79DF80520FA
:105DF000218C02320A44AA4219D86D2B0BD198F893
:105E000000303246214607F1480000F052FF50B101
:105E100002B0BDE8F08103F0C003802B0BD0C02B93
:105E200009D0402B07D09DF805100231DAE7062093
:105E3000EEE70020ECE70220EAE737B50D466B46B7
:105E4000098C0822284606F0DEFB082801460ED100
:105E5000BDF802305BBA9BB2DA080AD113F0010434
:105E600007D1284606F097FB204603B030BD062038
:105E7000FBE70220F9E72DE9F3419DF8247006467F
:105E80000C4690461D460FB92B7873B901AB022220
:105E9000218C204606F0B7FB022821D12B782C2B31
:105EA00014D004D83BB12B2B0CD000200BE03B2BA3
:105EB00008D03C2BF9D108AB424621463046FFF7CB
:105EC00063FF07E0022002B0BDE8F08121463046C2
:105ED000FFF7B3FF0028F6D19DF804302B70D2E70E
:105EE0000620F0E7112B03D03A2B04D00020704796
:105EF000343014F031B82C3019F008B9F7B51C461D
:105F00009DF8203006460F4615460BB1042023E0CD
:105F10004368002BFAD04378002B47D0104600F09E
:105F2000DFFBD8B1284600F001FC0028EED0112C90
:105F30001AD03A2C3AD1294606F12C0019F04CF827
:105F4000A0B36B460822398C384606F05CFB9DF8FE
:105F50000030802B2AD1022003B0F0BD284600F08B
:105F6000D3FB0028DED1E2E76B460822398C3846A5
:105F700006F049FBBDF8024064BAA4B244F64C53A3
:105F80009C4209D04FF2BF039C421FD0134801F03E
:105F90002DF884420AD1B9E7284600F08EFB00288C
:105FA000B4D1284600F03BFC0028AFD1F98B38462D
:105FB00006F0D3FE044670B101463046FFF727FED7
:105FC0002046D6E9013198470020C5E72946044814
:105FD00013F014FAE8E70320BEE700BF7C8100203D
:105FE00040550020C3681BB9C1600020086170479C
:105FF0008B420AD093F90C0091F90C20904204D006
:106000001A69002AF4D11961EFE718207047C368B4
:106010008BB18B4204D10B69C360172008E0134693
:106020001A69002AF9D08A42F9D10A691A61002056
:1060300000230B61704717207047C06828B190F9A2
:106040000C308B4201D00069F8E7704738B5C4685E
:106050000D4634B1294620460EF067FE10B924697A
:10606000F7E7204638BD2DE9F04F01F1100A87B05F
:10607000044691F9243001915046039300F0B9FB96
:106080000026D4F80C90049035463446B9F1000F40
:1060900000F08780504699F90C7000F00EFB002844
:1060A00036D0039BBB4277D1D9F804B0BBF1000FC7
:1060B00072D05946504600F0F2FB9BF81020824205
:1060C00080462BD85846FFF7F7FC0290584600F060
:1060D0001BFBD0B9002C5BD05146584600F0E2FBC8
:1060E00000285CD15846FFF7E7FC05902046FFF7F3
:1060F000E3FC059A8242584613D2FFF7DDFC029B6F
:10610000984222BF46463D465C46DBF814B0CDE7D8
:10611000504600F0DFFA0028C3D1C5E7049B029384
:10612000D4E7FFF7C9FC05902046FFF7C5FC059AA8
:106130008242204608D9FFF7BFFC029B98423EBF2F
:1061400046463D465C46E0E7FFF7B6FC03280ED026
:106150009BF81120D20718D4019B93F924201AB17F
:10616000BA4201D1BD4213D14645CED210E05846C5
:10617000FFF7A2FC0328EBD1204600F0B1FA00287B
:106180001EBF46463D465C46BFE7627CD307E3D46C
:1061900046463D465C46B8E7D9F8109076E73D465E
:1061A0005C46019B204683F8245007B0BDE8F08F81
:1061B0002DE9F0411D46074690460E460FCD96B09C
:1061C0000BAC0FC40FCD0FC495E8070084E807009F
:1061D0000FAC1022002120462EF02CF840F2FF33A5
:1061E000ADF83C304FF47C43ADF84A306023019366
:1061F00040238DF80B30B8F804305BBA28335BBA13
:10620000ADF8083094E80F0007AD85E80F002923AA
:106210000BA938468DF80A30FFF725FFC8B10346B1
:1062200003AC00F1100518685968224603C2083310
:10623000AB421446F7D101AA31463846FFF7A8FC15
:1062400020B9282201A9304606F07EFA16B0BDE832
:10625000F0811420FAE700002DE9F04F074691F88D
:106260003300B1F81E908BB0984600F00300602315
:10627000154600930C46FFF76DFC06461846FEF7E0
:10628000E8F866F39B50FEF7E4F899FA99F3ADF855
:10629000043095F825300090002B08BF4023284695
:1062A0008DF806808DF8073000F0ECF930B1294602
:1062B0003846FFF7D8FE50BB142667E0284600F0AA
:1062C00009FA0028F3D12B4602AE05F1100C18682C
:1062D0005968324603C2083363451646F7D105F1C3
:1062E000100306AA05F1200C9B46924618685968CF
:1062F000164603C6083363453246F7D1504600F0D0
:10630000DCF988B195F924309BB902263EE00346BA
:1063100002AE00F1100C18685968324603C2083307
:1063200063451646F7D1DAE7504600F078FA0028C0
:10633000E8D1584600F07FFA00BB28226946204683
:1063400006F002FA064608BB4A464346514602A8F2
:10635000FFF70BFCB8F1110F02461BD0B8F13A0F52
:106360001ED0584600F073FA00BB95F9243084F82B
:106370002F3021463846FFF7FCFC07E06A462146ED
:106380003846FFF705FC06460028D6D030460BB04D
:10639000BDE8F08F214607F1340013F022FEE0E75C
:1063A000214607F12C0018F0F1FEDAE751460D48BE
:1063B0000EF0ACFA60B1E18B204606F0CEFC01464F
:1063C00030B195F9243080F82F303846FFF7D1FCF2
:1063D0002B466A4621463846FFF7EAFE0028C4D01D
:1063E0000646D3E7F85B002070B5C4680E467CB162
:1063F00065685DB13146284600F051FA2B7C834236
:1064000002D894F90C0070BD6D69F2E72469EEE7DB
:106410004FF0FF30F7E738B5054608460C4600F068
:1064200059F910B194F9240038BD204600F045F91F
:106430000028F7D121462846FFF7D6FF0028F3DCD5
:10644000224604F1100105F1280000F043FD20EA86
:10645000E07040B2E8E700002DE9F04F9DB00DF18B
:1064600044080C46039205932C229DF89C3004931B
:106470000021074640462DF0DDFE214607A800F02A
:10648000C8FA0546002840F0CA8009AB0FCB15AE0C
:106490000DF1340986E80F0099E80F0088E80F0035
:1064A000059B8DF868309DF823308DF8693048469B
:1064B000269B1B9300F00EF9064600284DD0039B47
:1064C000002B33D14FF0000B0126DA46059B84F8F0
:1064D0002F302821204606F06BF81CAB9DF82220B7
:1064E00003F8562D2146CDE9006A07AA3846FFF782
:1064F000C2FC0546002840F09280BAF1000F61D03E
:106500009DF81A30292B3BD1218C204606F069F8E2
:10651000049B0193269B0093039A059B21463846D2
:10652000FFF79AFF28461DB0BDE8F08F4946039853
:106530000EF032FA824670B9039B93F80DB04846CC
:1065400000F085F906460028C0D0494638480EF0CC
:10655000DDF90646BAE7AB46F1E749463846FFF7AC
:1065600075FD824650B9484600F0A7F80028A9D02A
:10657000039BB3FA83F67609D346A7E7B346A5E7AC
:10658000049A0092214642463846FFF7B7FC9DF830
:106590001A30424621463846FFF7A4FC80B9002E47
:1065A0003DD041463846FFF736FF0646B8B9049A53
:1065B00000929DF81A30424621463846FFF79EFC6D
:1065C00005462CE0BBF1000FE9D0049A00929DF83B
:1065D0001A30424621463846FFF790FCDFE7039B1E
:1065E00033B13B78DBB19DF82330013B8DF823308C
:1065F0009DF82320BAB11CAB072103F8552D204686
:10660000012206F052F831463846FFF716FD60B118
:10661000036821461B6898470546002882D020461B
:1066200005F07FFF7EE70225F9E70425F7E700BFC5
:10663000F85B0020F7B5054600F110070026384644
:1066400006F00BFA044668B10146384606F0E9FA4E
:1066500094F92F300022CDE9006621462846FFF745
:10666000FBFEECE703B0F0BD08B5FFF7DFF900F57E
:1066700080405030BDE80840FFF7DCBF1022002109
:106680002DF0D8BD026842B9436833B9826822B997
:10669000C068B0FA80F04009704700207047026877
:1066A0004AB943683BB982682AB9C06800F17F43A0
:1066B000584258417047002070470378FE2B07D19D
:1066C000407800F0C000A0F1800358425841704764
:1066D000002070470078A0F1FF03584258417047EE
:1066E0000346008970B95A89B2F57F4F0BD19A8958
:1066F000FE2A08D19B7BFB2B05D883F00200C0F358
:1067000040007047002070470346008960B95A89ED
:10671000B2F57F4F09D19A89FE2A06D1987BA0F164
:10672000FC035842584170470020704708B50146A5
:10673000FFF7EAFF40B1C889A0F587501C38B0F5D3
:10674000F85F8CBF0020012008BD836823B9C068B2
:10675000B0FA80F040097047002070478368033327
:106760000AD182894FF6FF739A4205D1837BFF2BB2
:1067700002D1C07BC00970470020704708B50146B0
:10678000FFF7E3FF40B90846FFF7E8FF20B90846E6
:10679000BDE80840FFF7B8BF08BD083070470830B3
:1067A0007047082210442DF047BC10B5082204465B
:1067B00010442DF041FC237A83F00203237210BDB4
:1067C00010B508220C46811820462DF035FC2378A0
:1067D00083F00203237010BD10B50C46002200F1B7
:1067E0000801204602F013FE237883F00203237091
:1067F00010BD08B50378FF2B024603D1407800F0A6
:106800000F0008BDFFF759FF38B91046FFF747FFE3
:10681000002814BF00200E20F3E70220F1E708B59E
:106820000378FF2B05D1FFF7E4FF831E5842584140
:1068300008BD0020FCE708B50378FF2B05D1FFF762
:10684000D8FFC31E5842584108BD0020FCE708B5D8
:106850000378FF2B06D1FFF7CCFF032894BF00205D
:10686000012008BD0020FCE7102A70B528BF1022C7
:1068700006460024E5B2EB00AA42D8B20ED9335D39
:1068800001340D1915F8015CAB42F3D06B401A06C8
:1068900004D401305B00C0B2DBB2F8E770BD102257
:1068A000FFF7E2BF08B510222DF094FBB0FA80F09C
:1068B000400908BD08B510222DF08CFB003018BF30
:1068C000012008BD38B54CF630230C46C55C5DB9D7
:1068D00000F58240403019B112F012FD284638BD53
:1068E00012F04AFD2046FAE70D20F8E710B5012323
:1068F00004460371042200212DF09CFC204610BDAB
:1069000070B591F83240E40992B006460D4603D0C6
:106910000124204612B070BD08AB2822214628462B
:1069200005F071FE2828F4D10EA8FFF7C6FE28B3A3
:106930009DF82630062B27D0112BEAD101AB082277
:106940002821284605F05FFE0828E2D1BDF8063070
:106950005BBA9BB244F64C529342D9D032791AB109
:106960004CF227029342D3D032880AB19342CFD05F
:106970007288002ACDD09342CBD1C9E70EA8FFF789
:106980004EFF0028D4D1C4E703AB142228212846A7
:1069900005F039FE1428BCD1BDF80E305BBA9BB2AD
:1069A000E2E70388994207D04288914204D00BB1B4
:1069B00022B9012320F813100020704703207047EC
:1069C000028843888A4203D08B4202D01720704746
:1069D0000380002343801846704700230B700B7818
:1069E000012B04D830F813200AB10133F6E77047C1
:1069F000037803F0F003602B09D1808840BA80B29D
:106A00002830B0F5A06F8CBF002001207047002017
:106A1000704738B50D460346044628220021284613
:106A200005F0F1FD28280DD12046FFF7E1FF48B120
:106A3000A088EB8B40BA80B22830984214BF062061
:106A4000002038BD0620FCE770B505460E4614460A
:106A50003AB110F0D5FEC0B290FBF4F204FB120282
:106A6000D2B22B7A99191144A41A69602C7270BDA4
:106A700038B50D4B0025C0E90135031DC3600B4B34
:106A80000560C0E9043500F110030446C0E906358D
:106A9000A03005F06BFF8022294604F120002DF084
:106AA000C9FB204638BD00BFB96E00004D6E000026
:106AB00038B56D230B7004234B7000238B70437823
:106AC0000C46591C4170E370C169054659B1104626
:106AD000FFF7E8FE38B1A37803F03F03A3706378B3
