:020000022000DC
:1060000000000120019C0200299C0200796B020023
:106010002D9C02002F9C0200319C02000000000019
:10602000000000000000000000000000339C02009F
:10603000359C020000000000379C0200399C0200E1
:10604000518402003B9C0200F9800200F9820200A8
:106050003B9C02003B9C02006D7F020031810200EC
:10606000958202003B9C02003B9C02003B9C02008C
:106070003B9C02003B9C02003B9C02003B9C0200BC
:106080003B9C0200196602003B9C02003B9C020004
:10609000B56602003B9C0200A57902003B9C020011
:1060A0003B9C02003B9C02003B9C02003B9C02008C
:1060B0003B9C02003B9C020000000000000000002E
:1060C0003B9C02003B9C02003B9C02003B9C02006C
:1060D0003B9C02003B9C02003B9C02000000000035
:1060E00000000000000000000000000000000000B0
:1060F00000000000000000000000000000000000A0
:10610000000000000000000000000000000000008F
:10611000000000000000000000000000000000007F
:10612000000000000000000000000000000000006F
:10613000000000000000000000000000000000005F
:10614000000000000000000000000000000000004F
:10615000000000000000000000000000000000003F
:10616000000000000000000000000000000000002F
:10617000000000000000000000000000000000001F
:10618000000000000000000000000000000000000F
:1061900000000000000000000000000000000000FF
:1061A00000000000000000000000000000000000EF
:1061B00000000000000000000000000000000000DF
:1061C00000000000000000000000000000000000CF
:1061D00000000000000000000000000000000000BF
:1061E00000000000000000000000000000000000AF
:1061F000000000000000000000000000000000009F
:1062000010B5054C237833B9044B13B10448AFF3F0
:1062100000800123237010BDB8A200200000000000
:106220002C13030008B5034B1BB103490348AFF31C
:10623000008008BD00000000BCA200202C13030059
:10624000154B002B08BF134B9D46A3F5803A002148
:106250008B460F461348144A121A03F0E1FD0F4B08
:10626000002B00D098470E4B002B00D09847002001
:10627000002104000D000D48002802D00C4805F054
:1062800041FE03F0EBFC2000290000F039F803F098
:10629000D5FC00BF00000800000001200000000045
:1062A00000000000B8A20020D0AF002005BF02000F
:1062B000D5D0020038B50D4903F0FAFA70B10C4898
:1062C00003F0F8FD0B4B1B784FF0A0444FF4003562
:1062D0002BB1094803F0EEFDC4F80C5538BD074852
:1062E00003F0E8FDC4F80855F8E700BFE098002087
:1062F000D4FB0200D4A20020F6FB020007FC02003F
:106300001FB54FF0A0430322C3F844270C480D4C9F
:1063100003F0DCF90C4B1860204603F01FFA0B4B1E
:10632000CDE902430A4B01930121002300911A4653
:10633000084603F037FA03F0C1FA03F0BBF9FCE7B3
:10634000A8980020B89800201CAF0020E0980020FA
:10635000D4A2002038B5054D044645F001054FF4A0
:106360007A40A847013CFAD138BD00BFE0FC0200EA
:106370007FB505460E46144672B601F055F900F099
:10638000A1FF0028FBD1464803F094FD41F2010330
:106390009D4274D006D8012D12D03146414803F0F9
:1063A00089FD10E044F201039D426AD044F20203E9
:1063B0009D42F2D1228861683B4803F07BFD02E0F8
:1063C0003A4803F077FD01F0DDFC08B901F0A4FCC8
:1063D0000023ADF80C308DF80E3003A901231120F5
:1063E0008DF80D3001F0D8FC03A9122001F0D4FC87
:1063F00003A9132001F0D0FC03A9142001F0CCFC68
:10640000112001F085FD122001F082FD132001F022
:106410007FFD142001F07CFD4FF4FA70FFF79AFF26
:10642000112001F047FD122001F044FD132001F07E
:1064300041FD142001F03EFD3220FFF78BFF1120BB
:1064400001F066FD122001F063FD132001F060FDF4
:10645000142001F05DFD4FF4FA70FFF77BFF11206F
:1064600001F028FD122001F025FD132001F022FD8E
:10647000142001F01FFDFA20FFF76CFFC0E70C4865
:106480009FE7A568284601F003FC23680196009366
:10649000024663680748294603F00CFD93E700BFF6
:1064A0001FFC0200BEFC020079FC020038FC020066
:1064B00056FC020094FC020007B501F063FC08B929
:1064C00001F02AFC0023ADF804308DF8063001A954
:1064D000012311208DF8053001F05EFC01A9122086
:1064E00001F05AFC01A9132001F056FC01A9142067
:1064F00001F052FC112001F00BFD122001F008FD0B
:10650000132001F005FD142001F002FD4FF4FA7094
:10651000FFF720FF112001F0CDFC122001F0CAFC92
:10652000132001F0C7FC142001F0C4FC3220FFF757
:1065300011FF112001F0ECFC122001F0E9FC132006
:1065400001F0E6FC142001F0E3FC4FF4FA70FFF7D1
:1065500001FF112001F0AEFC122001F0ABFC132072
:1065600001F0A8FC142001F0A5FCFA20FFF7F2FED0
:10657000C0E700B583B002900091019244F201009F
:1065800071466A46FFF7F4FE03B000BD094A53782E
:1065900091780133DBB2994208BF00231178994208
:1065A0001FBF03705078182303FB002014BF043072
:1065B00000207047D8A2002073B5054602A8002429
:1065C00000F8014D0E4600F07FFA0DF10600FFF7CE
:1065D000DDFF90B106700A4B9DF8062045605A70A9
:1065E0009DF8070000F0A0FA24B9064B4FF4801282
:1065F000C3F80021204602B070BD0424F0E700BFBC
:10660000D8A2002000E100E0024B4FF43C6043F0D0
:1066100001031847F0FC0200F8B51F491F4B002585
:10662000C1F84051C1F84451C1F84851C1F84C512A
:10663000C1F80051C1F804511B684BB3D1F80445AF
:1066400017490968641A24F07F442F461A68A24249
:1066500009D8A41A15441A7CDE691AB11F74D3E94B
:1066600005209047AEB90F4B0F4A197813788B422B
:1066700005D10133DBB2022B08BF0023137012785F
:106680000A4B43F822500A4B4FF48012C3F8002102
:10669000F8BD3346DAE700BF00100140F8A3002040
:1066A000F4A30020F0A30020F1A30020E8A3002021
:1066B00000E100E02DE9F74F9C4A9D4913780978E5
:1066C0009C4D99423CD00133DBB2022B08BF002322
:1066D000137099491278994B0F6853F822003B18B0
:1066E00023F07F4300220B602B6816461446944625
:1066F00013B942B12B6006E0196881420ED902B18C
:106700002B60091A19604FF001082B68DFF834A2DA
:1067100000930027BEB9DFF834B260E0401A0C44A1
:10672000D968C3F800C0D3F81CE031B13A1922F09F
:106730007F42C3E90121DE611E4601227346D7E78D
:106740000026B046E1E73446F6697B4A6368126882
:10675000DFF8FCC1A068991A21F07F41614500F281
:10676000A58001442160012222742A680023C4E923
:106770000133E361002A40F0A2802C60CAE75A1C72
:106780009BF80210D2B291428BF8002004BF002285
:106790008BF80020182202FB03B32A6819799C6841
:1067A000022974D003297ED0012918D1217CB1B9E6
:1067B000DA6862601A69A2605A69E2609B69A36143
:1067C0005F4B1B78002BC0D06160BEE79C4200F09D
:1067D00090809946DB69002BF8D1002323749BF845
:1067E00000309BF801209A42C9D12B682FB9009A3A
:1067F000934202D1B8F1000F43D0002B41D0D3F81F
:1068000000A0504D4C4BD5F804751C68DFF844814E
:106810003E1B98F8003026F07F4603369BB94FF4B4
:106820008033C5F84433C5F80433474B4FF4003286
:106830004FF00109C3F880211A60C5F80090FFF7F6
:10684000E3FE88F80090B2452CBF5444A41924F00C
:106850007F44C5F84045D5F80435DB1B23F07F4362
:10686000E41B033324F07F44A3420AD9D5F804354E
:10687000C5F84035FFF7C8FE334B4FF40032C3F87C
:1068800000212F4B00221A7003B0BDE8F08F134691
:106890009146A0E71174D2690123002AFAD1002B96
:1068A0009DD02A609BE700231946F6E7D31A23F010
:1068B0007F43834234BFC31A0023236053E7216818
:1068C0001368994213D8591A1160E26155E7091A01
:1068D000D8691A4638B1034618688842F7D3401A77
:1068E0001860184613462160E061DC6112E7134628
:1068F000F2E74C450DD1D3692B6053B90E48019294
:106900000121CAF8081003600D4B1970FFF77CFED7
:10691000019AE1692368C9F81C1011B108680344A1
:106920000B602B689A4218BF012756E7F0A300209E
:10693000F1A30020F8A30020F4A30020E8A3002086
:10694000E4A300200010014000E100E0D8A20020F4
:10695000FEFF7F00E5A30020F8B5194E194D1A4F30
:106960004FF40033C6F8803001244FF48033C5F86B
:106970004833C5F808336C60FFF746FEAC6000246E
:106980003C60FFF741FE114B1C70114B0B221C8029
:106990009A70104B1C60104B1C70104B4FF48012FF
:1069A0001C70E023C6F8802186F814333260C5F8E5
:1069B000084586F81133D5F804353B602046F8BD0C
:1069C00000E100E000100140F4A30020E5A3002056
:1069D000D8A20020F8A30020F0A30020F1A30020FB
:1069E000074B9B784BB132B128B10368187C20B9B2
:1069F00059745A617047072070470820704700BFDC
:106A0000D8A200202DE9F7431D4FBB7805460E465E
:106A100090469BB390B304292ED9436973B3437C4A
:106A200002A80024012B00F8014D0CBF8946A146A5
:106A300000F04AF80DF10600FFF7A8FDD0B10123E0
:106A40000370104B4560D3F80435C0E90498C0E9E1
:106A500002369DF806307B709DF8070000F064F860
:106A600024B9094B4FF48012C3F80021204603B02B
:106A7000BDE8F0830424EFE70724F7E70824F5E7EF
:106A8000D8A200200010014000E100E0064A927800
:106A90003AB130B1426922B1002202740221FFF7FB
:106AA0008BBD0820704700BFD8A20020EFF30583FC
:106AB000C3F308032BB9EFF31480C04300F00100C7
:106AC000704701207047000070B50446FFF7EEFFE5
:106AD000012803D01049432002F082FCEFF3108616
:106AE00072B60E4A9068012398B993600C4B0D4D15
:106AF000D3F8801029401160C3F88050D3F8841077
:106B000051604FF0FF32C3F88420207006B962B69E
:106B100070BD2370FAE700BFF6FC020020AF002032
:106B200000E100E0FC06FFBD10B50446FFF7BEFF24
:106B3000012803D00949512002F052FC084B9A6801
:106B40005AB154B9EFF3108172B6064A1868106052
:106B5000586850609C6001B962B610BDF6FC020036
:106B600020AF002000E100E0024B1B680021986884
:106B700003F0B4B9FC9800201EF0040F1CBFEFF323
:106B800009800AE0EFF308800549064A884201D8E7
:106B9000904202D88D464FF00000034B184700008A
:106BA0000000012000E00020AD6B02002DE9F3475A
:106BB000054600F039FD00F085FB0028FBD12F4B86
:106BC0002F4C9F6A2F4BE41AE408240444F001047C
:106BD000002D4ED0AA692C49204600F0F7FCEB6846
:106BE0000193AB6800932949D5E90023204600F0C2
:106BF0000DFDEB6900932649D5E90423204600F0FA
:106C0000F9FC1E4BDB6A980703D52249204600F0A9
:106C1000D9FCDFF89490DFF894A000264FF001082B
:106C200008FA06F33B4206D059F826201AB151461D
:106C3000204600F0CBFC01361A2EF1D1390605D5DD
:106C40000E4B15495A6B204600F0C0FC3A0405D59E
:106C50000A4B12499A6B204600F0B8FC104B1B6897
:106C6000DB0700D500BE2846FFF726FC02B0BDE8D2
:106C7000F0870C49204600F0A5FCC2E700ED00E0DB
:106C8000801303003813030042FD020057FD020089
:106C90008CFD0200E7FD020036FE020056FE0200F7
:106CA000F0ED00E0B4FD020070FE02002BFE0200D9
:106CB00050E8002F0B4640E8003C9CF0000FF7D155
:106CC0001046704750E8003F43EA010240E8002CBC
:106CD0009CF0000FF6D11046704750E8002F02EAF2
:106CE000010340E8003C9CF0000FF6D110467047CD
:106CF00050E8003F03EB010240E8002C9CF0000F3D
:106D0000F6D11046704750E8003FA3EB010240E87F
:106D1000002C9CF0000FF6D1104670470121FFF7C0
:106D2000D1BF0021FFF7D9BF37B5054620B91449B7
:106D30004FF4927002F054FB02A8002400F8014DB9
:106D4000FFF7C2FE2A68696813688B4210D9591E82
:106D5000116013F8014C2A8AEB6802FB04342A689C
:106D6000AB6811685B1A1179DBB2994238BF1371B5
:106D70009DF80700FFF7D8FE204603B030BD00BFE6
:106D80009803030037B50C46054620B9104940F278
:106D9000471002F025FB24B90D494FF4A47002F00E
:106DA0001FFB02A8002300F8013DFFF78DFE2A68B3
:106DB0001368591C1160EA68A41A2A8AB4FBF2F419
:106DC0001C709DF80700FFF7AFFE03B030BD00BF99
:106DD0009803030090DF7047A5DF7047B5DF704769
:106DE0007FB50023ADF80810ADF80A106A4602A975
:106DF000064603930093ADF80430FFF7EBFF05461A
:106E0000F8B1114B114CE41AE40800F041FF2404DE
:106E100044F00104034632460D49204600F0E0FBF1
:106E2000BDF80020BDF8023002B91BB10949204667
:106E300000F0D6FBBDF804201AB10749204600F047
:106E4000C5FB284604B070BD381303008813030047
:106E5000DF030300290403006804030088B14FF036
:106E6000F7130360FB230371F723C3801723038108
:106E700041F6FB32002301618372C372828118469E
:106E800070470E207047000013B5034680880C46FB
:106E9000A0B91A88232A00F0AF8011D8102A25D073
:106EA000112A54D0A37A4BB1E1880020FFF794FF58
:106EB000002840F0A7800123A072E37202B010BD49
:106EC0003A2A4ED0552A68D0242AEBD11A7A0B6977
:106ED0004A73002BE6D04DF67A21ADF80400ADF8E8
:106EE0000010ADF802008DF8042081E00A790A73E1
:106EF000DB7B012B13D0022B14D0E18823898B423A
:106F000005D20020FFF768FF70B90123E372217BEF
:106F1000637B8B42C6D20020FFF762FFC2E70B887B
:106F2000E380EAE74B88FBE7112802D10123A37233
:106F3000EDE700F0ADFE3C4A3C4B3D499B1ADB08B7
:106F40001B04024643F0010000F040FBDFE7F7239B
:106F5000CB8017230B8141F6FB338872C8728B817B
:106F6000A0E75B89CA88934228BF1346172B0A699A
:106F700038BF17230B8162B1C97A51B140F677212E
:106F8000ADF80010ADF80200ADF8043069462046B7
:106F900090470023E372A37284E7DB88C988A0725C
:106FA000172B38BF17238B4228BF0B462381FFF7CF
:106FB00015FF60B100F06CFE1B4A1C4B1D499B1A6B
:106FC000DB081B04024643F0010000F0FFFAE27AFE
:106FD000002A7FF467AF2369002B3FF463AF40F6CC
:106FE0007721ADF802202289ADF80010ADF8042019
:106FF00069462046984755E7197A237B994228BF6E
:10700000194689E711283FF459AF00F041FE064ABE
:10701000064B07499B1ADB081B04024643F001009C
:1070200000F0D4FA4AE700BF3813030088130300C6
:10703000BE040300EF040300B0DF704766DF704753
:1070400010B5034600214088FFF7F8FF024608B953
:107050001A7210BD112801D10122F9E75B68BDE861
:107060001040184760B159B10378DE2B0AD00B6885
:107070004360DE2303704FF6FF73438000207047A8
:107080000E2070470820704728B10378DE2B04D10A
:107090004180002070470E20704708207047F0B5EF
:1070A000054685B00C46F1B1E8B10B78DE2B1AD15C
:1070B00082884B889A4204D10B7A13B10846FFF7B5
:1070C000BFFF2B88112B32D0512B0ED0012B0AD1B0
:1070D0002B7A012B07D1A9886288914203D12372B0
:1070E0002046FFF7ADFF05B0F0BDAE886388B34220
:1070F000F9D1AF79022FF6D1AD7B2B1F022BF2D83D
:1071000000211022684602F08BFE052D14BF4FF4BB
:10711000C0730023694630468DF80070ADF8043026
:10712000FFF78AFF0028DED063689847DBE76388B3
:10713000AA889A4204BF4FF6FF736380D3E70378AF
:1071400013F0040216D003F00303012B03D0022B2B
:1071500009D0012070470A6800880232C0F383100A
:1071600002440A60F5E70B684288023303EB92138E
:107170000B60EEE7104670472DE9F04F89B00646E8
:10718000871C08A8484C009200230D4600F8113DCA
:10719000FFF79AFC23682B60D4E90123134422688B
:1071A00001339B1A04F21C4804F5836B04F2144962
:1071B000BB421AD3009A0023002A6DD0012262F349
:1071C000010343F0040366F389132168A2689DF864
:1071D0000F000A4003320F4444F822302760FFF7C3
:1071E000A3FC012009B0BDE8F08F01214046FFF764
:1071F0007FFD5846FFF792FD0DF1200A4846FFF744
:107200008DFD60684AF8100DA5682840033004EB36
:1072100080005146FFF793FF02460498002AF4D1FC
:1072200005EA000304EB8303811CDB68059301304E
:10723000054004EB850503F00303012B0491ED6881
:1072400023D0022B08D0194901924FF4BF7002F0ED
:10725000C7F8019A154607E0BDF816309B090333BD
:107260002D0C01EB930304934846FFF75AFD08B138
:10727000049B636029464046FFF73AFDD4E90123A9
:107280001344226801339B1A92E7BDF81430C3F30C
:1072900083132D0C0B44E6E7022262F3010343F053
:1072A000040366F39F5390E7CCA400203805030045
:1072B000034BD3E90030C31A58425841704700BF0E
:1072C000CCA400202DE9F04387B0FFF7F1FF06467C
:1072D000002840F0FC807F4DC5F81804BFF34F8FA5
:1072E0006868AC6806AF47F8100D2040033005EB26
:1072F00080003946FFF723FF029B18B1D5F8182408
:10730000002A5FD004EA0302991C013305EB8202D4
:10731000234005EB8303D268DB68049302F0030388
:10732000022B0392029162D1BDF80E306A484FEAF7
:107330009318B8F1500FC14628BF4FF0500969F3B8
:107340008F1309F10801ADF80E3000F001FA07467D
:10735000002800F0A78000F02AFA03A900230822E1
:10736000384600F037FA029924EA01060136B600E1
:10737000B14535D95FFA89F97EB3F6B2A9EB0609B2
:10738000214003315FFA89F4B146544E05EB810187
:1073900008234A46384600F01DFA36B109F10803C1
:1073A00022463146384600F015FA029B08F10308E0
:1073B00003EB98030293D5F81834002B4BD1D5F882
:1073C00010445BE02A689A4204D86A60304607B0ED
:1073D000BDE8F08304EA030088E740493446D7E774
:1073E0002140033108234A4605EB8101DAE7012BEE
:1073F00058D1BDF80C303848C3F38311062928BF93
:10740000062161F3891302318900ADF80C3000F0D8
:107410009FF90746002845D000F0C9F9002308224B
:1074200003A9384600F0D6F90026BDF80C20C2F3B7
:107430008312B31C96424FEA8303BCD202994A1CC2
:1074400021400331029205EB81010422384600F00D
:10745000C1F90136E9E7384600F0ADF9FFF728FF3A
:1074600080F00100C6B2B1E7E3685B7923B123681D
:1074700039461B6820469847E3681C68002CF3D106
:10748000384600F098F906A800F8114DFFF71CFBEC
:10749000D5F818340BB9029B6B609DF80700FFF715
:1074A00043FBDBE7D5F8104454B90D4B0D480E49AA
:1074B000C01AC008000440F0020000F083F8CDE7D5
:1074C000236820469B689847E3681C68ECE7002621
:1074D0007CE700BFCCA40020B0130300D8A4002098
:1074E0003813030078130300860503002DE9F74FD6
:1074F0002F4C80460F46914601A9012218469B4613
:10750000D4F808A0FFF738FE00283DD0019D0026E2
:10751000A91C5E4506EB010240D100212548FFF77A
:10752000C7FB80F3100B244B244A4FEA18499B1ADF
:10753000B9EBD30F04D3224940F2A31001F050FF5E
:107540006B1C03EA0A0304EB830349EA0B42DA608B
:1075500005EA0A030333012114F8232068F3C50266
:1075600004F8232034F8232066F3891224F823201A
:1075700054F8232067F39F2244F8232061F301028B
:107580006FF3820204F8232094F820341BB1FFF734
:1075900099FE0028FBD103B0BDE8F08F0AEA020291
:1075A00004EB820259F82630D3600136B1E700BF00
:1075B000CCA40020E8A80020B01303003813030077
:1075C0003805030000231A46FFF790BF13B502AC3D
:1075D000012344F8042D2246FFF788FF02B010BDB6
:1075E00007B5CDE9002302236A46FFF77FFF03B00A
:1075F0005DF804FB1FB5CDE90123069B039301AAA7
:107600000323FFF773FF05B05DF804FB1FB5CDE959
:107610000023069B0293079B03936A460423FFF70C
:1076200065FF05B05DF804FB38B5094A0123D2F8BF
:10763000104482F820341D4604B938BDE3685D71FA
:10764000236820465B689847E3681C68F4E700BF3E
:10765000CCA40020064B10B500241C70054B1C6008
:10766000BFF35F8F0449054800F0CAF8204610BDFB
:10767000F8A80020FCA800209C050300F0A800202A
:107680002DE9F74F99469DF830300193884617460B
:10769000054618B92249B62001F0A2FEEA8895F8FD
:1076A00005B00BFB02FBABF1040BCB4503D81C4927
:1076B000C42001F095FE3E68B5F806A006EB09026D
:1076C0005A4509F1040188BFABEB0906B1FBFAF496
:1076D0003E600AFB141144B9AAEB0107B74228BF68
:1076E00037462EB903B0BDE8F08F2D68013CF2E7B4
:1076F000019A043108EB0403681872B101463A4656
:107700001846F61B02F0F2FAB2453C442D68574683
:107710004FF0000128BF3746E3E73A461946F0E745
:10772000B1050300F8B546790146721E05460023EF
:1077300093422D6803D30024A64202D8F8BD01333A
:10774000F6E70F682846FFF71DFB01343946F3E7DB
:107750002DE9F843CD1C068A0746FFF7E5FA043EFB
:1077600035440446B5FBF6F5F0B14FF48073EDB245
:107770008380C680013D076081464FF00008A84520
:1077800012D23846FFF7D0FA064648B16379013382
:10779000637108F10108C9F8000007608146EEE74F
:1077A0002046FFF7BFFF34462046BDE8F88301219D
:1077B0000430FFF79DBA10B5012104460430FFF7ED
:1077C000A2FA10F0FF0F04D12046BDE81040FFF7E9
:1077D000A9BF10BD30B585B0144604AA002542F8F3
:1077E000044D0095FFF74CFF039BA34203D00349D0
:1077F000F62001F0F5FD05B030BD00BFB105030076
:1078000038B50D46044618B90849502001F0E8FD86
:107810001DB90649512001F0E3FD25602B68636026
:107820006A68934204BF0023636038BDF805030013
:1078300010B5044618B90B49632001F0D1FD236847
:107840001BB90849642001F0CBFD636843B122688D
:1078500091680B4463605268934204BF00236360E5
:1078600010BD00BFF805030010DF704713B50446D4
:1078700009496846FFF7C4FF019808B902B010BD76
:10788000D0E900312046984718B16846FFF7D0FF8D
:10789000F2E71120F2E700BF5C06030013B50446CF
:1078A00007496846FFF7ACFF019B0BB902B010BD5A
:1078B0002046D3E9002190476846FFF7B9FFF3E778
:1078C000740603000C4991F816335A09EC2313414E
:1078D000DB0706D5094B9A684AB94FF480030B6061
:1078E0007047074AA12142F20200FEF742BE1A6821
:1078F00042F480021A60704700E100E020AF0020EF
:1079000080060300F7B5184F3C785CBB174E012585
:1079100020463570FFF7AAFF112820D02046FFF738
:10792000BDFF134B1868019002A800F8054DFFF742
:10793000CBF8104901A8FFF797FF0446B0FA80F092
:10794000400938709DF80300FFF7EEF83CB90A4B88
:1079500034701C70FFF7B6FF2846FFF79FFF2046E4
:1079600003B0F0BD0824FAE701A9002000A9002017
:10797000580603007163020002A9002007B50849F8
:107980006846FFF73DFF019B13B903B05DF804FBA8
:10799000D3E9002090476846FFF74AFFF3E700BFAE
:1079A00068060300FFF7EABF60DF704769DF7047D2
:1079B00061DF704730B5134DADF5017D4FF4FA74BA
:1079C0000DF1020103A8ADF80240FFF7F1FF70B915
:1079D000294601A8FFF714FF029B002BF0D003A853
:1079E000D3E90021904701A8FFF722FFF4E705281B
:1079F00004D0054A40F23911FEF7BBFD0DF5017DBB
:107A000030BD00BF880903003D090300024B1B780D
:107A10000BB1FFF7CFBF704703A9002030B5054673
:107A200085B00C46002900F0B6805C4B0B600C2240
:107A3000002101A802F0F4F901238DF80630226834
:107A40008DF80450062301A92020ADF80830FFF777
:107A5000ADFF60B100F01CF9514A524B52499B1ADC
:107A6000DB081B04024643F00100FFF7AFFD0C22C8
:107A7000002101A802F0D4F901238DF80530226815
:107A8000002301A940208DF806308DF80730FFF75C
:107A90008DFF60B100F0FCF8414A424B43499B1A0C
:107AA000DB081B04024643F00100FFF78FFD0C22A8
:107AB000002101A802F0B4F9F72322688DF80450E0
:107AC00001A92320ADF80630FFF770FF60B100F088
:107AD000DFF8334A334B36499B1ADB081B04024656
:107AE00043F00100FFF772FD0C22002101A802F013
:107AF00097F90A2322688DF8043001A90120FFF7C5
:107B000055FF60B100F0C4F8254A264B29499B1A5D
:107B1000DB081B04024643F00100FFF757FD0C226F
:107B2000002101A802F07CF94FF4B06322680193B0
:107B300001A9A120FFF73AFF60B100F0A9F8184AA7
:107B4000184B1D499B1ADB081B04024643F0010039
:107B5000FFF73CFD0C22002101A802F061F99DF81D
:107B6000043022686FF3000301A9A0208DF80430CF
:107B7000FFF71CFF68B100F08BF8094A094B0F4969
:107B80009B1ADB081B04024643F00100FFF71EFDB1
:107B9000002005B030BD0E20FBE700BFA8980020F4
:107BA00038130300A0130300CD06030013070300DE
:107BB0005F070300A6070300F20703004308030062
:107BC000F8B506460768FFF7EFFE3368BB42054687
:107BD0001DD9194B194C1A49E41AE408240444F03D
:107BE00002042046FFF7EEFC336816493A46204669
:107BF000FFF7F6FC4FF080533268D3F80C3112498E
:107C00009B0203F100539A1A2046FFF7DFFC25B9C7
:107C10000E4B01221A702846F8BD284600F038F8AD
:107C2000054A064B0A499B1ADB081B04024643F02F
:107C30000100FFF7CBFCEEE738130300A0130300AD
:107C400096080300C5080300F608030003A90020F6
:107C5000200903000D4930B5A1F594720225914227
:107C600001D800200EE08B1ADB1093FBF5F302EB3A
:107C7000C30452F83330834205D802D204F108021B
:107C8000EDE7606830BD2146E9E700BFDC0A03008C
:107C900008B5FFF7DFFF024B002808BF184608BDF4
:107CA000A009030000F1804000F5C040002382B02D
:107CB000036003680193019B02B07047054B4FF0CE
:107CC000FF32072843F8202084BF1B1883F8482080
:107CD000704700BF04A9002002494FF4F37001F07F
:107CE0007FBB00BF960E03001F2838B504460D4623
:107CF00001D9FFF7F1FFA00000F1A040D0F8003754
:107D000023F44033C0F80037D0F8003743EA054386
:107D1000C0F8003738BD000010B5164C94F8583044
:107D200033BBFF21E2180133202B82F83010F9D148
:107D30000021C8B2FFF7C2FF01310C29F9D104229A
:107D400000210D4802F06CF80C4BE02283F806236A
:107D500040221A604FF4BE70FFF7A4FF084B4FF0AB
:107D60000042C3F80423012384F85830002010BDDA
:107D70000820FCE704A9002058A9002000E100E049
:107D800000600040034B93F85800003018BF0120FA
:107D9000704700BF04A900201F2870B504460D4697
:107DA00004D941494FF4987001F01AFB3F4E96F800
:107DB0005830012B04D03C4940F2311001F010FB47
:107DC00025B939494FF4997001F00AFB331993F939
:107DD0003020013265D1AA78002A54D0002356F809
:107DE000231001314FEA830248D1311902F1804258
:107DF00081F83030002102F5C04246F82310D2F855
:107E000010052B78697820F498101B04090520F4DC
:107E1000F85001F4801103F44033C2F810050B430D
:107E20002102D2F8100501F4F8510B430343C2F8C4
:107E300010356B78012B4FF0010528D11F2C01D98B
:107E4000FFF74AFF4FF0A043A540C3F808551F2C89
:107E500001D9FFF741FF04F5E0724FF0A043032181
:107E600043F82210E2081249012304F0070403FA40
:107E700004F48B5C1C438C54002003E00133082B7A
:107E8000ADD1042070BDFE2283F83020D1E71F2C35
:107E900001D9FFF721FF4FF0A043A540C3F80C55CF
:107EA000D5E70820EEE700BFD00E030004A90020AC
:107EB00058A900201F2838B5054604D912494FF4A7
:107EC000BE7001F08DFA114C621992F93020013226
:107ED00004D10D4940F27D1001F082FA631993F844
:107EE0003030072B04D808494FF4BF7001F078FAFE
:107EF0001F2D01D9FFF7F0FE012303FA05F54FF01E
:107F0000A043C3F8085538BDD00E030004A90020D3
:107F10001F2838B5054604D912494FF4C37001F043
:107F20005FFA114C621992F93020013204D10D49E7
:107F300040F2871001F054FA631993F83030072BA0
:107F400004D808494FF4C47001F04AFA1F2D01D932
:107F5000FFF7C2FE012303FA05F54FF0A043C3F873
:107F60000C5538BDD00E030004A900202DE9F04FB8
:107F700087B000245B4A5C4E5C4D0394012113687A
:107F8000A2F5C040012B80B206D1D6F804330B42D3
:107F900002D0FFF787FE0C430432AA424FEA4101A8
:107FA000EDD1534B1B68012B0AD14FF4BE70FFF784
:107FB00079FE4FF0A04344F00044D3F8103503930A
:107FC00014F0FF0F1AD04B4F00250126344210D079
:107FD000AB0003F1804303F5C043D3F81005D3F899
:107FE000101557F82530C0F30420C1F3014103B147
:107FF00098470135082D4FEA4606E7D1002C6EDA86
:1080000000224FF0FF33CDE904233A4F4FF0000A2E
:1080100056464FF0A04907EB0A0393F95040631C02
:1080200046D0E4B2012224F0C00504F0070B02FAA6
:108030000BFBEB0806AAD11811F8042C12EA0B0F5F
:1080400036D07A19A40992F9302057F82280B8F175
:10805000000F0AD1032C2BD10DF1100C1CF80300DA
:1080600040EA0B000CF8030001E0032CF4D01F2DB4
:1080700003D90191FFF730FE019911F80C1C05F5A9
:10808000E07311EA0B0F59F82330C3F3014320D0FA
:10809000022B0DD1032C05D121462846FFF724FEE3
:1080A0000136F6B2B8F1000F02D021462846C0478B
:1080B0000AF1010ABAF1040FADD186B14FF0A04325
:1080C000039AD3F810359A4209D00393049B059381
:1080D0009CE7032BECD1032CE4D10221DDE707B0B0
:1080E000BDE8F08F0061004000600040206100406A
:1080F0007C61004004A9002010B5054C22681AB923
:108100000449512001F06CF92368BDE8104018477C
:1081100060A900201C0F030000F1804000F5E04042
:10812000002382B0036003680193019B02B0704793
:10813000F0B5514B514C1B6885B0DBB14FF48270E8
:1081400094F82E20FFF7E8FF12B194F82F30A3B176
:10815000636802932389ADF80C30E36800218DF841
:108160000410002B44D12374236801A898470023EE
:1081700084F82F3094F82E3003B3414B1B68EBB1D9
:108180004FF48070FFF7C8FF94F82D20638B91B2F5
:108190008B4238D95B1A21899BB26383CB1A616801
:1081A00001EB4301374BC3F82C16C3F830264FF4CC
:1081B0008270FFF7B1FF344B01221A60334B1B680A
:1081C0005BB14FF48870FFF7A7FF002304A8237466
:1081D000022300F80C3D236898472D4B1B6813B30E
:1081E0004FF48A70FFF798FF0023237405B0F0BDA9
:1081F000208B608363602081E160002AB4D1214B31
:1082000001221A60B0E7D2D1E368012184F82F106F
:108210003BB1002161831B49C1F82C36C1F83026DF
:10822000C5E76383C3E766694FF000470125002E69
:10823000DCD0B6FA86F227FA02F34632920026EA3A
:10824000030602F1804303F5E0431B68002BEED0E8
:108250001046FFF761FFA2F58C72D30882F004028A
:10826000C2F380028DF808308DF804508DF8092093
:10827000236801A89847DAE70471004068A9002044
:108280000071004000700040047000401071004018
:10829000147100402DE9F341104C114F114E00258F
:1082A0004FF480382368A4F5004080B26BB1D7F852
:1082B000043308FA05F21A4207D00023236023682A
:1082C0000193019BD6E9003198470135042D04F153
:1082D0000404E7D102B0BDE8F08100BF4081004056
:1082E0000080004098A900200023435082B04358EA
:1082F0000193019B02B07047F0B5504C236887B0E2
:1083000023B94F4940F2452001F06AF84D4AD2F8AE
:1083100024311546A3B14FF492711046FFF7E4FFE4
:10832000D2F8043163B9A368C2F808330223A3600A
:10833000A368C2F8043301231362536107B0F0BD90
:10834000D5F80431002B49D03F4F3E484FF482719D
:10835000FFF7CAFF0FCF01AE0FC63B68336094F83A
:108360002E307BB1237B012B0CBFD5F83C25D5F8F3
:108370004C250292022B334B0CBFD3F83C35D3F87B
:108380004C3503934FF4B0712E48FFF7ADFF4FF417
:10839000AE712C48FFF7A8FF94F8303013B194F871
:1083A0002E303BB1274B0022C3F80022A260274A9F
:1083B000C3F80823234AD2F8C434C2F8C4349A0755
:1083C00036D501238DF8003094F830300BB984F89D
:1083D0002F30D4E9003168469847AFE74FF4A471D5
:1083E0001848FFF781FF237B83B9174F0FCF01AEEA
:1083F0000FC63B68336094F83030002BDAD1C5F8F3
:108400000032A360114BC5F80833D3E74FF4007373
:10841000C5F8003240F20223A36003F1CE73C5F821
:108420000833A368C5F804330123AB602B6285E7EA
:1084300013F0040318BF0223C4E700BFA4A900205F
:10844000720F030000300040B0A9002002029C011E
:1084500007B5154B1A687AB100221A601B680093A1
:10846000009B4FF080430122C3F808230F4B58793B
:1084700010B95A711B6898470D4B1A6882B10022D7
:108480001A601B680193019B4FF080430222C3F8DE
:108490000823064B1B68012003B05DF804EB184766
:1084A00003B05DF804FB00BF00010040D8A9002024
:1084B000040100400369C1688B429DBF8268D218E5
:1084C00002F1FF3203F1FF3394BF501A581A70477C
:1084D0002DE9F041D0E902670446F61B4068964258
:1084E00088461546384405D901F000FC3D44E56056
:1084F000BDE8F0813246AD1B01F0F8FB2A4608EBDF
:108500000601606801F0F2FBF1E72DE9F843C56868
:108510000646894617464FF000083469B36870680C
:10852000A54228BFE418013C621B5C1BBC4228BF6B
:108530003C46944228BF144649462844224601F04E
:10854000D5FBB3682544AB4208BF00253F1BA044C0
:10855000A144F560E1D14046BDE8F88310B5114C67
:10856000114AA2610223C4E90433104BE361A264FF
:108570004FF400730E4A2362E264002310220D4977
:10858000A362E01D6362E362A3656365E365226540
:1085900001F06CFD0849204601F068FD2023A3711D
:1085A00010BD00BF2CAF0020CB0F0300F0A90020AE
:1085B000E0A90020D40F0300D80F0300F8B5184C31
:1085C000182300FB033503FB00402544C46A012C3B
:1085D0000F46164611D003D3022C1BD000240AE00C
:1085E0002846FFF767FF864205D8324639462846B7
:1085F000FFF76EFF34462046F8BD2846FFF75AFFC6
:108600008642344628BF0446224639462846FFF7AC
:108610005FFFF0E72846BDE8F840FFF776BF00BFF0
:108620002CAF002073B50D4B1B7804460D46164643
:108630000BB9FFF793FF02A8002300F8013DFEF7F6
:1086400043FA324629462046FFF7B8FF04469DF814
:108650000700FEF769FA204602B070BD2CAF00207B
:1086600010B511461C461A460020FFF7DBFF2046D6
:1086700010BD72DF704773DF704738B501220446C2
:108680000D46B0F83812D0F8340200F02BFC00B1DF
:10869000057004F13C0204F50D7104F15400BDE8CD
:1086A0003840FFF7E6BF80F830107047F8B5044651
:1086B0000F46002975D0002873D091F87A301BB18D
:1086C00091F89830002B6ED1D7F8A030042B6AD0E7
:1086D000D7F89C30042B66D04FF0000C84F802C011
:1086E00007F178060FCE251D0FC50FCE0FC596E8F2
:1086F000070085E8070084F830C0D7F8A43063632A
:10870000D7F8A830A3634FF6FF7504F50D73C4F8CE
:108710004432A4F848520722614604F24A2001F08C
:108720007FFB23780BB984F8545094F8243004F17B
:108730005501C4F8341283B3EE23A4F8383204F59B
:108740000E72384600F0E9F930BB94F8243004F298
:108750004311C4F83C1213B3EE23A4F8403204F5DD
:10876000107207F13C0000F0D8F9A8B9A269A4F88A
:10877000482001236269206484F850006264014645
:1087800084F8513084F83C3004F13C0204F1540088
:10879000FFF76FFF00B92370F8BD1F23CDE71F233C
:1087A000DBE70E20F8E70720F6E7F8B50778044680
:1087B0000D46002F00F0058100F24A26A170072225
:1087C0000021304601F02CFBE38813B1A378012B84
:1087D00004D0E3794BB1A378022B06D1636BA3B12C
:1087E000012284F8512208209847334604F5147179
:1087F00013F8012F12B99942FAD117466B1E032BB9
:1088000053D8DFE803F0050B0F1284F85132ECE780
:10881000A3791BB194F8243003B95FB9E3790BB1A4
:10882000002F44D1237A002B43D1637A002B0CBF55
:1088300000250425636BA570002B3CD0033D012D62
:1088400039D86279002A36D094F85222002A32D1DF
:1088500084F85422012284F853220720984704F117
:108860003C0518220021284601F0DAFAE36A94F860
:1088700024200121581E884288BF0B4684F83C10F2
:1088800084F8513032B1884296BFA36A84F85210FE
:1088900084F85230A178002384F8503004291BD882
:1088A000DFE801F0770D223559000025C2E70225E7
:1088B000C0E70325BEE7002384F85332CFE7C4F8AE
:1088C0004432C4E910630223012284F83C3080233F
:1088D00084F83120A4F84830A378002B5CD1636B76
:1088E000002B6AD1002067E0022384F8313062B1A6
:1088F000072384F83C302369A4F848300023C4F8E7
:108900004432E36826646364E6E70323F1E76369BE
:108910006364A369A4F8483012B1062384F83C309C
:108920006379B3B194F852329BB994F8543283B15D
:10893000022384F8503004212046FFF79EFE0028D1
:10894000CAD1052384F8313004F50D73C4F84432DC
:10895000C2E70323F6E7E3696364236AA4F84830B7
:1089600012B1062384F83C30637983B194F8523213
:108970006BB994F8543253B1022384F85030042177
:108980002046FFF77AFE0028A6D10623DAE7042363
:10899000D8E784F831309FE72A46D4F8441204F12E
:1089A0005400FFF766FE38B994F8301094F854007C
:1089B000FFF761FE002892D0F8BD94F83100984787
:1089C00090E70820F8E710B50388112B0C460AD071
:1089D000262B1FD0102B05D1C37B012B02D18388FE
:1089E000A1F8483210BD002381F852328288B1F8D4
:1089F00048329A42F6D10B79002BF3D1012120465F
:108A0000FFF7D3FE0028EDD0A36B002BEAD0BDE822
:108A100010401847037A013B012BE3D889780523DE
:108A2000013191FBF3F303EB8303C91AC9B2E6E703
:108A300070476DDF704779DF70477DDF704764DF17
:108A400070472DE9F74F0C9CBDF834B027880025FE
:108A500080468A4691462E46B8F80020B2420BDC8A
:108A600035B12288013AD21B92B2FF2A39D8DA55A1
:108A7000002003B0BDE8F08FD8F8042052F826009B
:108A8000019000220DF1030101A8FFF7D8FF002893
:108A9000EFD19DF803204A4521D12288002D14BF33
:108AA0000020022002EB09010144594519DC3DB9BF
:108AB000013292B2228003F802A022880132228081
:108AC00022880DF103011A4401A8FFF7B8FF00281E
:108AD000CFD121889DF803200A4422800125013648
:108AE000BAE70C20C5E72DE9F341089CBDF82450F6
:108AF0001746CDE9004502220646FFF7A2FF48B916
:108B0000102239463046CDE9084502B0BDE8F041B3
:108B1000FFF797BF02B0BDE8F0812DE9F04F0023C9
:108B20001688138090F82D3085B007460D46144600
:108B300053B3082E01D80C2026E102A8FFF779FFD5
:108B4000002840F0218113880822CA542388013369
:108B50009BB21B222380CA542088013080B220801F
:108B600006220DF10901284401F0C0F823889DF880
:108B7000082006339BB212F0FE0218BF01222380A8
:108B8000EA54238801332380BB78FBB12388043364
:108B9000B342D0D802A8FFF74EFF002840F0F4807F
:108BA00023880322EA54238801339BB219222380AD
:108BB000EA542388BDF8082001339BB2E9182380CA
:108BC000EA54120A4A70238802332380FA789AB151
:108BD0002388D91CB142AED80221E954238801333D
:108BE0009BB201212380E95423880B449BB223804C
:108BF000EA5423880B4423807A68AAB12388D91CBD
:108C0000B14298D8022192F90020E9542388013317
:108C10009BB20A212380E954238801339BB223802D
:108C2000EA542388013323803B89002B40F0A08045
:108C30003B8A5BB1CDE900462B460722032107F1B1
:108C40001000FFF750FF002840F09E803B8B5BB187
:108C5000CDE900462B461522142107F11800FFF735
:108C600042FF002840F090803A6A002A40F08F804E
:108C7000D7F82480B8F1000F30D0B8F8043021883C
:108C8000981C8A1C0244B2423FF655AFFE283FF6BC
:108C900052AF03336B54238801339BB2FF222380EE
:108CA000EA54238801339BB22380B8F80020EA54A9
:108CB000E918120A4A702088023080B22080B8F881
:108CC00004205AB1D8F8081000296AD0284401F0CD
:108CD0000DF82388B8F804201344238097F82C302B
:108CE000002B40F09980387800284DD03B88012B2C
:108CF00057D021888A1CB2423FF61DAF012805D10A
:108D00007B7802330B449E42FFF415AF023E761A85
:108D100004A9B6B221F8086DA818FFF78EFE98BB1B
:108D20003978BDF80820022900F0BB807B78934297
:108D300002D3B24240F2B380012940F0B4809BB22A
:108D40009E42C0F0B080ADF808300821BDF8083070
:108D5000FE2B3FF6F0AE22880133AB54228801325D
:108D600092B22280A95422881344238000200BE071
:108D7000CDE900462B460622022107F10800FFF745
:108D8000B2FE00283FF454AF05B0BDE8F08FB4F850
:108D900000C00CF10603B3423FF6CDAE11880529A1
:108DA00001D80720F0E76FF4486E01EB0E039BB289
:108DB0004FF27D3E7345F4D95388052BF1D96FF4FA
:108DC0004860181880B27045EBD94FF6FF708142A9
:108DD00003D0834201D09942E3D8052305F80C3033
:108DE000238801339BB212212380E9542388013365
:108DF0009BB223801188E954E818090A417023883E
:108E000002339BB223805288EA54E918120A4A704E
:108E10002388023323802BE7BB6A002BC1D04FF09D
:108E200000094FF00C0A4FF0160B97F82C305FFA40
:108E300089F293427FF657AFB96A0AFB02F201EB5F
:108E40000208B8F80430981CFE283FF674AE20885B
:108E500003332B54238801339BB2238005F803B0DE
:108E6000238801339BB223808A5AEA54E918120AF4
:108E70004A702088023080B22080B8F804205AB1AD
:108E8000D8F8081000298CD0284400F02FFF238840
:108E9000B8F804201344238009F10109C5E709212A
:108EA00054E7B242FBD9ADF808604EE770B5C0B1E7
:108EB0004AB116880024B44203D305196D789D4247
:108EC00008D0A14201D800200BE0055D01352C44FB
:108ED000A4B2F0E7A142F6D9A31C1380005D0138CB
:108EE00080B270BD37B502AC002324F8023D1346B2
:108EF00022460546FFF7DAFF10B1BDF80600284408
:108F000003B030BD75DF704776DF70477ADF70479A
:108F10007BDF7047034B1A8882420CBF1846002043
:108F2000704700BF0CAC0020024B9B6903B118478F
:108F3000704700BFF0AB002037B585B22846FFF779
:108F4000E9FF034670B1164C017A227B91420BD2A5
:108F500000F10A012846FFF7D5FFE8B1112801D03A
:108F6000FFF7E2FF03B030BD237C0022027243B161
:108F70003B212846FFF7C8FF30F0080301D0FFF778
:108F8000D3FF6369002BEDD000228DF80420ADF8EB
:108F9000065001A89847E5E71A7A01321A72E1E70C
:108FA000F0AB002013B50B46497A0F4C024669B965
:108FB000D4E901101C7A002C18BF01465868FDF74F
:108FC00021FD08B1FFF7B0FF02B010BD00211972FA
:108FD0006369002BF8D00121ADF806008DF804106C
:108FE00001A89847F0E700BFF0AB002030B58388B8
:108FF0000588B3F5FA7F24BF6FF4F9729C184A888C
:1090000038BF002495420CD84088904209D38A8802
:10901000A24206D303F2F310904234BF0020012095
:1090200030BD0020FCE7000070B50388112B01461D
:1090300048D002D8102B1ED070BD122B52D0502B0E
:10904000FAD12F4BC288DB899A42F5D1038A022BD1
:10905000F2D186883046FFF75DFF05460028EBD049
:1090600001F1120000F08AF830BB6868FDF70EFDD0
:109070000028E1D009E0C37B012BDDD14FF6FF7062
:10908000FFF748FF054620B90420BDE87040FFF710
:109090004BBF8E881B4A0680002303721368C5F8F5
:1090A0000A300A30536843601031FFF79FFF144BBA
:1090B0006872DB89002BBFD129463046BDE870407D
:1090C000FFF770BF8088FFF725FF04460028B3D064
:1090D0004068FDF7DBFC08B1FFF726FF4FF6FF7392
:1090E0002380A9E786883046FFF714FF054600284D
:1090F000A2D008310A30FFF779FF6872DCE700BFC1
:10910000F0AB002020AC0020F8B5064650B3054671
:109110000FCD154F3C460FC495E8070084E80700C3
:109120003068124B3B60B8B1FFF7F0FEC8B9316848
:109130000A681A604A685A600D480E4A4FF6FF7373
:1091400003800D4B40F8043F0021FDF749FC002847
:1091500014BF0320002004E01846FFF7D9FE0028C2
:10916000EAD0F8BD0E20FCE7F0AB002020AC0020D8
:109170000CAC0020398F020028AC0020007800F0F1
:10918000010070476CDF704772DF704774DF704713
:1091900076DF704778DF70477ADF70477CDF704793
:1091A0007FDF704786DF70478ADF70478FDF704749
:1091B000A8DF7047AADF7047B1DF704762DF7047F2
:1091C00033DF704741DF70477047000037B50388D1
:1091D0001D2B044600F0AC801DD8132B7CD00AD880
:1091E000102B3DD0112B5DD0604B13B12046AFF357
:1091F000008003B030BD142B00F08C801B2BF3D10A
:10920000037A012BF0D1FFF7DBFF0028ECD0584A9E
:109210004FF4CC716DE0502B52D00ED8212B00F0C2
:1092200096803B2BE0D113218088FFF7B1FF002807
:10923000DAD04F4A4FF4D0715BE0522B5CD045D36B
:10924000562BD1D18379002BCED14A4B13211888CC
:10925000FFF79EFF0028C7D0454A40F2A71148E01B
:10926000444D818844482980FDF70EFF20B1404AD3
:109270004FF49D71FDF77DF900231A4619462888A1
:10928000FFF79AFF20B13A4A4FF4A171FDF771F947
:109290003A4800F00FFE3A4B002BA5D02046AFF322
:1092A0000080A1E7334B37484FF6FF721A8000F079
:1092B00001FE354B002B97D02046AFF3008093E79B
:1092C000324B002B90D0FCF7F5FF8DE7304B002B95
:1092D0008AD0AFF3008087E7264800231A4685210D
:1092E0000088FFF75DFF00283FF47EAF204A40F280
:1092F0008111FDF73EF977E71E4800231A4619460B
:109300000088FFF759FF00283FF46EAF184A40F27B
:109310008711EEE7174800231A4619460088FFF721
:1093200041FF00283FF460AF114A40F29111E0E79D
:10933000184B0BB1AFF3008017490020FFF734FF43
:1093400000283FF451AF0A4A40F2C711D1E702A901
:10935000002321F8043D8088FFF728FF00283FF410
:1093600043AF034A40F2D111C3E700BF0000000041
:1093700011100300A4AF0020B8AE00203710030086
:10938000000000004710030000000000B56202006A
:109390000000000000000000F098002008B5024A1C
:1093A000B021FDF7E6F808BD1110030008B50378F9
:1093B0004BB9054B3B211888FFF7EAFE18B1034A69
:1093C000BA21FDF7D6F808BDA4AF002011100300A4
:1093D00008B5024AAC21FDF7CCF808BD1110030016
:1093E00038B50D460446044800F064FD2A4621467F
:1093F0000248FDF7BEF838BDEC0F0300EFBEADDE4E
:109400001FB51B4C00230293ADF80030CDF80B3094
:1094100023681B788DF80230E5238DF803309823FC
:109420008DF804300622C02369460DF109008DF83D
:10943000053000F05BFC23685B884FF6FF729342B7
:109440000AD08DF8003006221B0A69460DF109008A
:109450008DF8013000F04AFC02A8FFF793FE20B11E
:10946000044A40F22B21FDF784F804B010BD00BF80
:1094700048AC00201110030013B5FEF743FA20B1E9
:109480000F4A40F23321FDF774F802AC002344F890
:10949000043D01202146FEF7C1FA20B1084A40F2FE
:1094A0003921FDF766F82046FEF78AFB20B1044A11
:1094B00040F26E21FDF75DF8FFF7A2FF02B010BD8C
:1094C000111003007FB51F4C04AD112305F80C3DAE
:1094D00023685E68304600F033FE314682B228468B
:1094E000FFF75CFE20B1184A4FF42071FDF741F8F8
:1094F0004FF47070FFF74EFE20B1134A4FF4217104
:10950000FDF737F808220DEB0200002100F088FC7F
:1095100023685A899B89ADF80A300C4BADF80820B6
:109520001B68ADF80C300A4B02A81B68ADF80E3072
:10953000FFF732FE20B1044A40F28F21FDF719F8FF
:1095400004B070BD48AC002011100300E80F030008
:10955000E00F030000B5ADB0AC22002101A800F07F
:109560005FFC022306228DF804308DF807200123CA
:10957000104A8DF80630ADF8143006928DF8803020
:109580004FF4F07244F25063CDE9232301A90A4B52
:109590000A482A93FFF78AF820B1094A40F2B2211B
:1095A000FCF7E7FF01210548FFF77DF82DB05DF8D6
:1095B00004FB00BFEA980020C99102004CAC0020D7
:1095C0001110030000B589B01C22002101A800F091
:1095D00027FC0F4A0023126801930292ADF8123063
:1095E0004FF470228DF814300A4B03920693032235
:1095F000094B8DF8102001A80793FFF785FD20B1D6
:10960000064A4FF43271FCF7B4FF09B05DF804FB71
:10961000E40F0300AD9302009D93020011100300BC
:1096200007B502A9074B41F8043D0748FDF71AFDAD
:1096300020B1064A40F2D321FCF79BFF03B05DF84E
:1096400004FB00BFD1930200B8AE0020111003004C
:1096500008B5FDF781F920B1024A4FF44971FCF7D2
:1096600088FF08BD1110030008B503210548FFF766
:109670009CF830F0080304D0034A40F23131FCF783
:1096800078FF08BD4CAC00201110030008B5074B53
:1096900093F85400FFF77AFD30F0080304D0044A31
:1096A00040F23B31FCF765FF08BD00BF4CAC002029
:1096B0001110030008B5FFF785FD20B1024A4FF4F1
:1096C0005471FCF756FF08BD1110030008B51A4B82
:1096D0001860FDF7BFFF20B1184A40F25D31FCF77A
:1096E00048FFFFF7B5FFFFF7C7FE154800F0E2FBA4
:1096F000FFF7E8FE134800F0DDFB00211248FDF7FC
:10970000ADFB20B10D4A40F29621FCF732FF0F4825
:1097100000F0D0FBFFF71EFF0D4800F0CBFBFFF77A
:109720007FFF0C4800F0C6FBFFF74CFF0A484FF6DE
:10973000FF73038008BD00BF48AC00201110030078
:10974000591003006A100300A4AE00207510030036
:109750008110030094100300A4AF002010B5038A09
:10976000044623B9027B437B43EA0223038204F1CC
:1097700012012046FFF722FD20B1094A40F28D3147
:10978000FCF7F7FE04F1140204F110010120FFF7C9
:109790000FFD20B1024A40F29231FCF7EAFE10BD03
:1097A000111003002DE9F04F91B0DDE91C459946F9
:1097B000A37C8DF80E3080460F462B88BDF868607C
:1097C000ADF80C300DF10E0120469246FFF7F6FC85
:1097D00020B1364A40F2A131FCF7CBFE1C22002119
:1097E00009A800F01DFB9DF8243068F3410367F3DE
:1097F000C3036AF304130DF1040B4FF0000A0322B4
:10980000514658468DF82430CDF828A0CDE90CAA51
:10981000CDE90EAA00F004FB41F21113ADF80430BB
:109820009DF80630CDF838B001220DF1080B62F337
:1098300042035146032258468DF8063000F0F0FAF4
:10984000B8F1000F02D011238DF8083017B11123A1
:109850008DF809309DF80A30022262F3420303F0CA
:10986000E70369F300031422002104A88DF80A30ED
:1098700000F0D6FA03ABCDE9043B0023ADF81A3073
:109880001B9B089304AAAB1C09A9A08AADF8186019
:10989000ADF81C60FFF78EFC20B1044A4FF47371E1
:1098A000FCF767FE11B0BDE8F08F00BF1110030098
:1098B000C0884B88C31A58425841704700B591B0D0
:1098C000FFF7E4FE3C22002101A800F0A9FA154AA6
:1098D00002238DF80430062302F155018DF807307C
:1098E0001F23C2F83412A2F8383201A802F50E7212
:1098F000FFF713F920B10C4A40F2C341FCF739FEDF
:109900000A4A02F5FC7102F11800FFF73DFC20B194
:10991000054A40F2C741FCF72CFEFFF7A5FE11B047
:109920005DF804FB4CAC00201110030088AC002053
:109930000C4B1B78062B10D10B4B1B681A070CD154
:109940000A4B186800F0F003302B08D000F0E0005C
:10995000A0F1400358425841704700207047012051
:10996000704700BFE00F00F0E40F00F0E80F00F0D8
:10997000094B1B78062B0CD1084B1B681A0708D122
:10998000074B186800F0F000A0F13003584258412E
:1099900070470020704700BFE00F00F0E40F00F0B8
:1099A000E80F00F008B5FFF7C3FF28B17D4B7E4AF2
:1099B0001B68C3F304231360FFF7DAFF10B17B4B7E
:1099C0007B4A1A60FFF7B4FF28B17A4B7A4A1B68CA
:1099D000C3F342331360FFF7CBFF20B1774AD3685C
:1099E00023F08073D360FFF7A3FF40B14FF08043B3
:1099F0000022C3F80C21C3F81021C3F83825FFF763
:109A0000B7FF10B16E4B03221A60FFF7B1FF40B1F0
:109A10006C4B05221A6001229A6700229A603F224D
:109A20005A60694B1B78062B50D1684B1B6819078D
:109A30004CD1674B1B6803F0F003502B46D14FF01D
:109A40008052644BD2F80414C3F82015D2F80814DD
:109A5000C3F82415D2F80C14C3F82815D2F8101442
:109A6000C3F82C15D2F81414C3F83015D2F8181412
:109A7000C3F83415D2F81C14C3F84015D2F82014DA
:109A8000C3F84415D2F82414C3F84815D2F82814A2
:109A9000C3F84C15D2F82C14C3F85015D2F8301472
:109AA000C3F85415D2F83414C3F86015D2F838143A
:109AB000C3F86415D2F83C14C3F86815D2F8401402
:109AC000C3F86C15D2F84424C3F87025FFF730FFB3
:109AD00028B1414B414A1B6803F04F031360FFF765
:109AE00027FF48B14FF08043D3F80024D20744BF8A
:109AF0006FF00102C3F80024394B1B68062B08D114
:109B0000384B1B68062B01BF374A136843F4806348
:109B10001360364AD2F8883043F47003C2F88830B4
:109B2000BFF34F8FBFF36F8F4FF01023D3F8002296
:109B3000002A03DBD3F80432002B2FDA2C4B01224E
:109B4000C3F80425D3F80024002AFBD04FF01022DC
:109B50001521C2F80012D3F80024002AFBD04FF0E0
:109B600010231522C3F80422214B1A46D3F80014FF
:109B70000029FBD00021C3F80415D2F80034002BD3
:109B8000FBD0BFF34F8F19491A4BCA6802F4E06249
:109B90001343CB60BFF34F8F00BFFDE7164B174A4F
:109BA0001A6008BD240300104035014074C007400E
:109BB0000DF0ADBA440200103C050040F0ED00E0AD
:109BC000A005004010560040E00F00F0E40F00F048
:109BD000E80F00F000C0004058020010E40E004002
:109BE00030010010340100103C17004000ED00E08F
:109BF00000E001400400FA05F89800200090D0032E
:109C00000649074A074B9B1A03DD043BC858D0504E
:109C1000FBDCFFF7C7FEFCF713FB0000FC1303009F
:109C2000A8980020B8A20020FEE7FEE7FEE7FEE7C6
:109C3000FEE7FEE7FEE7FEE7FEE7FEE708B50021E8
:109C4000044602F0EBF8044B1868C36B03B1984765
:109C5000204605F09DF900BFA410030070B50D4E1D
:109C60000D4D761BB61006D00024013455F8043B88
:109C70009847A642F9D1094E094D761B05F09EFF83
:109C8000B61006D00024013455F8043B9847A6428C
:109C9000F9D170BDA8A20020A8A20020B4A2002083
:109CA000A8A20020044B054A1B685B6B002B08BF71
:109CB000134693F828017047FC980020289D002047
:109CC00082B049B15AB16BB113780B601278101C95
:109CD00018BF012002B0704701A9002AF3D1104635
:109CE00002B070476FF00100F4E700BF844641EA1C
:109CF000000313F003036DD1403A41D351F8043B04
:109D000040F8043B51F8043B40F8043B51F8043B55
:109D100040F8043B51F8043B40F8043B51F8043B45
:109D200040F8043B51F8043B40F8043B51F8043B35
:109D300040F8043B51F8043B40F8043B51F8043B25
:109D400040F8043B51F8043B40F8043B51F8043B15
:109D500040F8043B51F8043B40F8043B51F8043B05
:109D600040F8043B51F8043B40F8043B51F8043BF5
:109D700040F8043B51F8043B40F8043B403ABDD264
:109D8000303211D351F8043B40F8043B51F8043B06
:109D900040F8043B51F8043B40F8043B51F8043BC5
:109DA00040F8043B103AEDD20C3205D351F8043B95
:109DB00040F8043B043AF9D2043208D0D2071CBF61
:109DC00011F8013B00F8013B01D30B88038060468A
:109DD000704700BF082A13D38B078DD010F0030300
:109DE0008AD0C3F10403D21ADB071CBF11F8013B70
:109DF00000F8013B80D331F8023B20F8023B7BE7BF
:109E0000043AD9D3013A11F8013B00F8013BF9D2E9
:109E10000B7803704B7843708B7883706046704783
:109E2000F0B4860743D0541E002A3ED0CAB203467F
:109E300002E014F1FF3438D303F8012B9D07F8D169
:109E4000032C2BD9CDB245EA05250F2C45EA054553
:109E500016D9A4F110073F0903F1200606EB0716F7
:109E600003F1100242E9045542E902551032B242B0
:109E7000F8D104F00F040137032C03EB07130DD9BD
:109E80001E462246043A032A46F8045BFAD8221FEB
:109E900022F003020432134404F003042CB1C9B2CB
:109EA0001C4403F8011B9C42FBD1F0BC70471446D4
:109EB0000346C5E70FB400B5074983B004AB086893
:109EC00053F8042B8168019300F0AAF903B05DF800
:109ED00004EB04B0704700BFFC98002000290CBFC1
:109EE000022200224FF4806300F000B82DE9F04315
:109EF0005D4C256883B00446884616461F4615B15A
:109F0000AB6B002B7ED0022E05D0012E00F2A98073
:109F1000002FC0F2A680636EDA0735D521462846A9
:109F200003F044F8216B41B104F14003994202D09F
:109F3000284603F039F900232363B4F90C300022DA
:109F40001806A261626061D423F44A6323F003031C
:109F5000022EA3811FD10025616E002004F143026F
:109F600043F00203A060C9074FF00100A381226003
:109F7000C4E9042004D49B0502D4A06D03F046FA82
:109F8000284603B0BDE8F083A3899B05C6D4A06D25
:109F900003F03AFAC2E701AB6A462146284603F0CD
:109FA00037FAA3891843A081002F36D1009F384685
:109FB00003F0A6FA8046002842D0A38943F080032C
:109FC000A381AB6B7BB3009AB4F90C30C4F800806A
:109FD000BA421CBF43F40063A381012E04BF43F0C7
:109FE0000103A3819BB213F00802C4E904871ED1C8
:109FF000A260656E15F00105BDD00025284603B0AE
:10A00000BDE8F083284603F02DF87CE72169284657
:10A0100003F0CAF8B4F90C3096E7B8F1000FC6D0D7
:10A02000AB6B002BCFD1284603F01CF8CBE7DA0747
:10A0300004D57F420022A761A260DAE7A760D8E7D3
:10A04000DDF80090B94504D1B4F90C304FF0FF357C
:10A0500082E7484603F054FA80460028F4D04F4681
:10A06000ABE74FF0FF358BE7FC98002080EA010258
:10A07000844612F0030F4FD111F0030F32D14DF887
:10A08000044D11F0040F51F8043B0BD0A3F1013241
:10A090009A4312F0803F04BF4CF8043B51F8043B54
:10A0A00016D100BF51F8044BA3F101329A4312F0CC
:10A0B000803FA4F101320BD14CF8043BA24312F0D3
:10A0C000803F04BF51F8043B4CF8044BEAD02346D0
:10A0D0000CF8013B13F0FF0F4FEA3323F8D15DF882
:10A0E000044B704711F0010F06D011F8012B0CF84A
:10A0F000012B002A08BF704711F0020FBFD031F8C2
:10A10000022B12F0FF0F16BF2CF8022B8CF8002048
:10A1100012F47F4FB3D1704711F8012B0CF8012BCB
:10A12000002AF9D1704700BF0000000000000000C5
:10A13000000000000000000000000000000000001F
:10A1400090F800F06DE9024520F007016FF0000C77
:10A1500010F0070491F820F040F049804FF000041F
:10A160006FF00700D1E9002391F840F000F10800FA
:10A1700082FA4CF2A4FA8CF283FA4CF3A2FA8CF332
:10A180004BBBD1E9022382FA4CF200F10800A4FA99
:10A190008CF283FA4CF3A2FA8CF3E3B9D1E90423ED
:10A1A00082FA4CF200F10800A4FA8CF283FA4CF324
:10A1B000A2FA8CF37BB9D1E9062301F1200182FADE
:10A1C0004CF200F10800A4FA8CF283FA4CF3A2FAE4
:10A1D0008CF3002BC6D0002A04BF04301A4612BAF2
:10A1E000B2FA82F2FDE8024500EBD2007047D1E9F5
:10A1F000002304F00305C4F100004FEAC50514F084
:10A20000040F91F840F00CFA05F562EA05021CBF54
:10A2100063EA050362464FF00004A9E7000000006E
:10A220002DE9F04FD7B01C468946174605460390E6
:10A2300003F0D8F8036816931846FFF781FF0894D7
:10A2400015901DB1AB6B002B00F00781D9F864109D
:10A25000B9F90C20C80793B202D4990540F11F81C7
:10A260009E040AD4D9F8641042F4005321F400513A
:10A27000A9F80C30C9F864109BB21D0740F1B280F8
:10A28000D9F81020002A00F0AD8003F01A020A2A43
:10A2900000F0C98000239FED867B1093CDE92B331E
:10A2A0001793CDE919331B93189305932DAB2A937C
:10A2B0009B463B78CDF81C908DED127B002B00F077
:10A2C0005982252B3C4602D11DE0252B03D014F8E2
:10A2D000013F002BF9D1E51B8DB1DDE92B320133B4
:10A2E0002A44072BCBF80070CBF80450CDE92B3271
:10A2F00000F3CA800BF1080B059B2B4405932378D0
:10A30000002B00F0378200236678069398468DF87C
:10A310008B3004F1010A4FF0FF392B250AF1010AB5
:10A32000A6F120035A2B00F22A84DFE813F0AA03D7
:10A33000280428049C02280428042804A7022804CE
:10A340002804C602D2022804D702DC022804F6023E
:10A350006D026D026D026D026D026D026D026D0285
:10A360006D0228042804280428042804280428044A
:10A37000FB0228043C03F303FB02FB02FB0228045C
:10A38000280428042804EE03280428049A0028043A
:10A39000280428045003280479032804280490037F
:10A3A000280428042804280428042804280428044D
:10A3B000FB0228043C03C500FB02FB02FB02D103A5
:10A3C000C50070002804B5032804C2039C00DE0306
:10A3D00070002804500372002C02280428047C0218
:10A3E000280472004946039801F0A8FCA0B1D9F8EE
:10A3F0006430D80704D4B9F80C30990540F1B7831C
:10A400004FF0FF330593059857B0BDE8F08F48F043
:10A4100020089AF8006081E7B9F80C3003F01A02BE
:10A420000A2A7FF437AFB9F90E20002AFFF632AFBF
:10A43000D9F86420D20705D49B0503D4D9F8580075
:10A4400002F0E4FF23463A464946039801F026FC11
:10A450000590059857B0BDE8F08F039802F002FE12
:10A46000F4E648F0100818F0200F00F06C83089C08
:10A47000073424F00703D3E9004503F108020892EA
:10A4800028F4806300228CE12AAA0799039803F03C
:10A490004DFF002841F076830DF1B40B2CE7D9F87D
:10A4A000580002F0B1FFB9F90C2093B2D8E600BF12
:10A4B000000000000000000043469F0640F12F838B
:10A4C000089C073424F00704D4E9000104F10802D1
:10A4D000089204460D46002871F1000205DA2D228B
:10A4E000644265EB45058DF88B2056AAB9F1FF3F14
:10A4F000049200F0B284012254EA050123F080089E
:10A5000040F05981B9F1000F40F01986002A40F05F
:10A51000088513F0010356AF099302D0302307F8E2
:10A52000013D00230A930F9314931193099B9DF807
:10A530008B204B45B8BF4B46049312B1049B0133AB
:10A54000049318F002030B9302D0049B023304938C
:10A5500018F084032C9C0E933FD1069B04995D1A3E
:10A56000002D3ADD102D2B9A29DD594620462096E4
:10A570001023039C079EBB4604E0103D102D01F103
:10A58000080118DD0132BA4F1030072ACDE92B201F
:10A59000C1E90073F1DD2AAA314620460C9303F08D
:10A5A000C5FE002840F03D84103D102DDDE92B2034
:10A5B0002DA90C9BE6DC209E5F4604468B460132AB
:10A5C000AB4B2C44072ACDE92B24CBE9003500F313
:10A5D000FF849DF88B200BF1080B72B12B9A01328E
:10A5E00001340DF18B000121072ACDE92B24CBE9A1
:10A5F000000100F318840BF1080B0B9B6BB12B9B34
:10A600000133023423A90222072BCDE92B34CBE9F5
:10A61000001200F315840BF1080B0E9B802B00F049
:10A620003183099BA9EB0305002D37DD102D2B9AF3
:10A63000904B28DD59462046BB464FF0100937465F
:10A640001C46079E04E0103D102D01F1080115DDA8
:10A6500001321030072ACDE92B20C1E90049F2DD93
:10A660002AAA3146039803F061FE002840F0D983FE
:10A67000103D102DDDE92B202DA9E9DC3E462346B7
:10A680005F4604468B4601322C44072ACDE92B2431
:10A69000CBE9003500F3EF830BF1080B18F4807F52
:10A6A00040F080822B9B099ACBF800700133144450
:10A6B000072B2C94CBF804202B9300F392830BF1FF
:10A6C000080B18F0040F3BD0069B049A9D1A002D2E
:10A6D00036DD102D2B9B21DD1026039FDDF81C801D
:10A6E00004E0103D102D0BF1080B17DD0133604A1B
:10A6F0001034072BCDE92B34CBE90026F1DD2AAA53
:10A700004146384603F012FE002840F06C85103DAB
:10A71000102DDDE92B340DF1B40BE7DC0133544A85
:10A720002C44072BCDE92B34CBE9002508DD2AAAE0
:10A730000799039803F0FAFD002840F0E9822C9C69
:10A740000499DDE905328A42ACBF9B185B1805937A
:10A75000002C40F0D58200232B930A9B1BB10A9951
:10A76000039802F021FD0DF1B40B57463B78002B06
:10A770007FF4A7AD2C9BDDF81C90002B41F0E78007
:10A7800000232B93CBE243469A0640F14E81089C6E
:10A79000073424F0070202F10801D2E900450891CC
:10A7A000012200218DF88B10B9F1FF3F56A90491C9
:10A7B0007FF4A2AE9846012A00F05083022A00F0EE
:10A7C0001B8356A900E03946E20842EA4572E808D0
:10A7D00004F0070305461446303354EA050201F835
:10A7E000013C01F1FF37EED118F0010F00F01483A6
:10A7F000302B00F01183049A02393023521A07F8E3
:10A80000013C09920F468CE6A6F1300300221AF8AB
:10A81000016B02EB820203EB4202A6F13003092B2B
:10A82000F5D906927CE5144B179318F0200F00F031
:10A830001481089C073424F00703D3E9004503F191
:10A840000802089218F0010F09D054EA050306D057
:10A8500030238DF88D6048F002088DF88C3028F494
:10A86000806302229DE748F001089AF8006055E5F0
:10A87000FC1003000C110300C8100300039E3046B7
:10A8800002F0B0FD436818931846FFF759FC1B907F
:10A890000446304602F0A6FD83681A93002C3FF46C
:10A8A000B8AD9AF80060002B3FF438AD1B78002B50
:10A8B0003FF434AD48F4806830E5089B9AF80060B6
:10A8C0001A680692002A03F10403C0F297860893DF
:10A8D00024E58DF88B509AF800601FE59AF8006027
:10A8E00048F004081AE59AF800602A2E0AF10102DD
:10A8F00001F0B081A6F13003092B92464FF0000918
:10A900003FF60EAD1AF8016B09EB890903EB490913
:10A91000A6F13003092BF5D902E548F080089AF832
:10A920000060FBE4089C073424F0070494ED007BEE
:10A9300052EC171B22F000431D938DED1C7A083456
:10A94000DDE91C014FF0FF32BA4B08948DED127B0C
:10A9500004F076FF002840F06F844FF0FF32B54BD3
:10A96000DDE91C0104F04EFF002840F06584002260
:10A970000023DDE9120104F03BFF002840F05B8575
:10A980009DF88B20AC4FAD4B0020032104910A9021
:10A9900028F08008472ED8BF1F46099181460F90A6
:10A9A00014901190C9E50898002301688DF88B3048
:10A9B0001A468DF8F4100123011D04930A92914662
:10A9C0000F9214921192CDE908133DAFB9E5089B9F
:10A9D0001F6800258DF88B501C1D002F00F0398654
:10A9E000B9F1FF3F00F011874A462946384603F087
:10A9F0003FF80A90002800F0E7850A9BDB1B0993CB
:10AA0000A94623EAE37308940493CDF82890CDF87F
:10AA10003C90CDF85090CDF844909DF88B208CE57B
:10AA200048F010039A063FF5B2AE089ADF0602F12D
:10AA3000040100F17E835D06089A00F1E4849C0520
:10AA400040F177831478089100250122A9E67C4B18
:10AA5000179318F0200F7FF4ECAE089A18F0100F3F
:10AA600002F1040340F0548318F0400F089A40F0BC
:10AA7000D08418F4007F00F04B83147808930025ED
:10AA8000E0E69DF88B309AF80060002B7FF446AC2E
:10AA900020238DF88B3041E49AF800606C2E03BFC0
:10AAA0009AF8016048F020080AF1010A48F01008FD
:10AAB00034E4089A18F0200F52F8043B089200F092
:10AAC000A183059A1046D117C3E9000157464DE608
:10AAD0009AF80060682E03BF9AF8016048F4007885
:10AAE0000AF1010A48F0400818E40899554B0C682F
:10AAF000179347F630020431ADF88C2048F002037A
:10AB000008910025022278264BE648F008089AF8BA
:10AB1000006003E448F010039F063FF5D1AC0899AC
:10AB2000DD0601F1040200F1FD825C06089900F1E6
:10AB30007584980540F1F68291F900400892E51776
:10AB400020462946C7E4089A18F0100F02F10403C2
:10AB500040F0E38218F0400F089A40F0678418F440
:10AB6000007F00F0DA8214780893002588E4D9F891
:10AB7000580002F04BFC4FF0FF33059343E4002EE6
:10AB80003FF4F8AD002301211A4604918DF8F460DA
:10AB90008DF88B300A9399460F9314931193099172
:10ABA0003DAFCEE4652E40F3CA8000220023DDE9EC
:10ABB000120104F013FE002800F069812B9B224A49
:10ABC000CBF80020013301340122072BCDE92B34CF
:10ABD000CBF8042000F306840BF1080B249B109A99
:10ABE0002C9C934203DB18F0010F3FF46AAD2B9BC2
:10ABF000169ACBF80020159ACBF8042001331444A0
:10AC0000072BCDE92B3400F317850BF1080B109BB4
:10AC10005D1E002D7FF755AD102D2B9A0B4B40F389
:10AC2000E782194610262346039FDDF81C900C4648
:10AC300014E000BFFFFFEF7FBC100300B81003005B
:10AC4000DC100300C8100300F81003000C1103000F
:10AC50000BF1080B103D102D40F3C7820132103369
:10AC6000072ACDE92B23CBE90046F1DD2AAA494684
:10AC7000384603F05BFB00284CD1DDE92B230DF1B6
:10AC8000B40BE7E7069B049A9D1A002D7FF7C9AC29
:10AC9000102D2B9ABC4B27DD59462046BB461C463F
:10ACA0003746079E04E0103D102D01F1080116DD26
:10ACB000013210301023072ACDE92B200C604B60A5
:10ACC000F1DD2AAA3146039803F030FB002840F05A
:10ACD000A880103D102DDDE92B202DA9E8DC3E4693
:10ACE00023465F4604468B4601322C44072ACDE9B1
:10ACF0002B24CBE9003500F392820BF1080B90E492
:10AD00002AAA0799039803F011FB00283FF423AD0A
:10AD1000DDF81C900A9911B1039802F045FAD9F8B0
:10AD20006420B9F80C30D00702D4990540F1D081E5
:10AD30005A063FF565AB059857B0BDE8F08F109AFD
:10AD40002B9B012A04F1010403F101050BF1080614
:10AD500040F31C810123072DCBF80070CDE92B5463
:10AD6000CBF8043000F3BB81159B169A691C1C4478
:10AD700007290B91CDE92B14C6E9002300F3BB8111
:10AD800008360B9A531C1D460995109D0E93002200
:10AD90000023DDE9120105F1FF3906F1080B04F08B
:10ADA0001DFD002840F0C280099DC6F804900137BF
:10ADB0004C44072D37602C942B9500F3F9800B9AA7
:10ADC00006F1100302325E4609929B46199A7260A0
:10ADD0001444099A2C9426AB072A2B9233607FF7F0
:10ADE00070AC2AAA0799039803F0A0FA00288FD123
:10ADF0002C9C0DF1B40B64E4179856AF230904F0B2
:10AE00000F0143EA05732A091C461546435C07F8FF
:10AE1000013D54EA0503F1D1049BDB1B0993FFF7C5
:10AE200080BBB14676E72AAA0799039803F07EFA19
:10AE300000287FF46DAF2C9C0DF1B40BFFF7DDBB48
:10AE40002AAA0799039803F071FA00287FF460AFEB
:10AE50002C9C0DF1B40BFFF7E0BB9846002D08BF0A
:10AE60000A2C80F0708156AF3034012307F8014D71
:10AE70000993FFF756BB2AAA0799039803F056FADD
:10AE800000287FF445AF2C9C0DF1B40B06E4249B05
:10AE9000002B40F37382DDE910239342A8BF1346D1
:10AEA000002B1D460DDD2B9BCBF8007001332C448D
:10AEB000072B2C94CBF804502B9300F3C1820BF199
:10AEC000080B119B002DA8BF5B1B002B1D4640F3F8
:10AED0009980102D2B9A2C4B40F3DB83184621468A
:10AEE0005B461026BB46DDF80C90079C074604E045
:10AEF0000833103D102D40F3C78301321031072A6B
:10AF0000CDE92B21C3E90076F2DD2AAA2146484685
:10AF100003F00CFA002840F0A584DDE92B212DABCD
:10AF2000E7E7CDF8249056AFFFF7FBBAB9F1000F71
:10AF30007FF74CAFB9F1100F134B40F35986194608
:10AF4000224633461027DDF80CB0079C0E9D0E46B6
:10AF500007E00833A9F11009B9F1100F40F353834A
:10AF600001351032072DCDE92B52C3E90067F0DD22
:10AF70002AAA2146584603F0D9F9002840F07284E5
:10AF8000DDE92B522DABE5E70C11030018F0010FA2
:10AF90007FF4E0AE0122072DCBF80070CDE92B54F1
:10AFA000CBF8042004DC023309930BF1100B0DE7FE
:10AFB0002AAA0799039803F0B9F900287FF4A8AEEC
:10AFC000DDE92B34013309930DF1BC0B2DAEFDE609
:10AFD0002AAA0799039803F0A9F900287FF498AEEC
:10AFE0009DF88B202C9C0DF1B40BFFF7F6BA2AAA22
:10AFF0000799039803F09AF900287FF489AE2C9CF6
:10B000000DF1B40B119B18F4806F3B44994640F04E
:10B010005783249B109A934249DB18F0010F46D1C5
:10B02000109ABD18A5EB0905D31A9D42A8BF1D466D
:10B03000002D0DDD2B9ACBF8009001322C44072A0D
:10B040002C94CBF804502B9200F362840BF1080B84
:10B05000002DACBF5D1B1D46002D7FF732AB102DC0
:10B060002B9AC54B40F3C480194610262346039FF4
:10B07000DDF81C900C4605E00BF1080B103D102D7F
:10B0800040F3B38001321033072ACDE92B23CBE9FB
:10B090000046F1DD2AAA4946384603F047F9002860
:10B0A0007FF438AEDDE92B230DF1B40BE6E72B9AE4
:10B0B0001699CBF800101599CBF8041001320C4406
:10B0C000072A2C942B9200F38C820BF1080BA7E734
:10B0D000D9F8580002F09AF9B9F80C3028E62AAAF3
:10B0E0000799039803F022F900287FF411AEDDE9F7
:10B0F0002B542DAE38E62AAA0799039803F016F9C7
:10B1000000287FF405AEDDE92B342DAE0B9338E635
:10B11000146808930025FFF795BB14680893002571
:10B12000FFF7AEB90C680892E51720462946FFF7ED
:10B13000D2B91468089101220025FFF732BB012A19
:10B140007FF43CAB8FE608F480630022CDE909A6CA
:10B15000CDF82C8056AF9246DDF868801E460AE096
:10B160000023204629460A2204F0A8FB04460D4687
:10B1700054EA050329D00A2200232046294604F078
:10B180009DFB303207F8012C0AF1010A013F002E25
:10B19000E6D098F800309A45E2D1BAF1FF0FDFD03F
:10B1A000002D08BF0A2CDBD31B9B1899FF1A1A46E7
:10B1B000384603F04DF898F80130002B00F09684E3
:10B1C00008F101084FF0000ACAE7049BCDF8688037
:10B1D000DB1BCDF840A00A9EDDF824A0DDF82C8012
:10B1E0000993FFF79EB9C14694E521461C460B46DC
:10B1F00001322C44072ACDE92B24CBE900357FF717
:10B200005EAAEEE518F0100F40F0F88018F0400F3D
:10B2100000F05183059A1A805746FFF7A7BA2AAA69
:10B220000799039803F082F800287FF471AD2C9CF5
:10B230000DF1B40BFFF7F5B9DDE9120102460B463B
:10B2400004F0FEFA002840F09184612E00F0118194
:10B25000412E00F0778348F4807326F02002B9F184
:10B26000FF3F0E930492139B00F02D84472A00F0B9
:10B270002484002BC0F2F9829DED127BCDE90A00F7
:10B280008DED1E7B662E00F0EB83462E00F07E8453
:10B29000049B0398452B0CBF09F101054D4628AAD4
:10B2A00025ABCDE90032022124AB2A469DED1E0BD1
:10B2B00000F0C2FE672E074640F09C8418F0010F94
:10B2C00040F0F983289B4046DB1BDDF83880109363
:10B2D000249B1193049B472B00F0E781049B462B92
:10B2E00000F000830499119BF2B2412908BF0F328C
:10B2F00003F1FF3306BFD2B201210021002B2493BA
:10B30000B8BF119B8DF89820BABFC3F101032D225D
:10B310002B22092B8DF8992000F3F983002940F0A6
:10B32000878430228DF89A200DF19B023033137000
:10B33000531C26AA9B1A109A1993012A13440993A5
:10B3400040F34284099B159A1344099300230F93F9
:10B3500014931193099B20F4806023EAE37340F473
:10B36000807804930B9B002B40F0758299469DF8E2
:10B370008B20FFF7E2B800BF0C1103002B9ABD49E8
:10B38000CBF80010013201340121072ACDE92B242A
:10B39000CBF8041060DC0BF1080B2BB9109A1AB92A
:10B3A00018F0010F3FF48DA92B9A1699CBF80010D5
:10B3B0001599CBF8041001320C44072A2C942B92D7
:10B3C00000F382820BF1080B002BC0F2E782109B86
:10B3D00001321C44072ACDE92B24CBE900737FF707
:10B3E0006EA9FEE42AAA0799039802F09FFF00289D
:10B3F0007FF48EAC0DF1B40BFFF7F0BB059A1A6029
:10B400005746FFF7B3B91488089100250122FFF7CA
:10B41000C8B9148808930025FFF714BAB1F90040A1
:10B420000892E51720462946FFF755B81488089377
:10B430000025FFF725B82D228DF88B20FFF7A2BA43
:10B440002AAA0799039802F071FF00287FF460ACE4
:10B450002C9C0DF1B40B34E52AAA0799039802F04D
:10B4600065FF00287FF454AC249B2C9C0DF1B40B99
:10B4700093E730238DF88C307823B9F1630F8DF882
:10B480008D3048F0020400F3B08248F481730E93CB
:10B4900026F0200304930022139B0A92A0463DAF9E
:10B4A000002BC0F2E3819DED127B8DED1E7B00230E
:10B4B0000B93612E00F05582412E7FF4E3AE24A859
:10B4C0009DED1E0B02F03AFE00224FF07F5351EC2F
:10B4D000100B03F01BFF00220023CDE90C0104F048
:10B4E0007DF9002840F00583634B0993CDE90FA651
:10B4F00009F1FF34CDF850902197B946CDF844B00A
:10B50000CDF88080DDF824A0DDE90C6703E004F0CD
:10B5100065F920BBA9460022584B3046394603F056
:10B52000F5FE0F46064604F0A1F9804603F084FEBE
:10B5300002460B463046394603F030FD4D461AF8B8
:10B5400008C005F801CBB4F1FF3FA34606460F46FD
:10B550004FF000024FF0000304F1FF34D7D1304622
:10B5600039460022464BDDF83CA0109ECDF83CB099
:10B570004446CDF84090DDF88080DDF85090DDF84D
:10B5800044B0219FCDE90C0104F050F9002840F0AF
:10B590007681DDE90C010022394B04F01FF910B16E
:10B5A000E20700F16C810F9B002B07DB0F9B01333F
:10B5B0002B44302205F8012BAB42FBD1EB1B40465C
:10B5C0001093DDF8388083E6CDF81090CDF8249004
:10B5D000089481460F90149011909DF88B20FEF7EF
:10B5E000ACBF2AAA0799039802F0A0FE00287FF4B6
:10B5F0008FAB249B2C9C0DF1B40B11E552420692AB
:10B600000893FFF76DB9144632461E4613462A4684
:10B610000132099206F10802C6E90039099B2B9311
:10B620004C44072B2C943FF7C3AC0133099302F130
:10B63000080B1646FFF7CABB2AAA0799039802F01F
:10B6400075FE00287FF464AB2C9C0DF1B40BFFF762
:10B65000DEBA4B46062B28BF0623B9460F97149730
:10B6600011970A973A460493CDE90843054FFEF730
:10B6700064BF00BFF8100300DC100300000030407E
:10B680000000E03FF01003000C4639465F469B4641
:10B690000B4601322C44072ACDE92B24CBE9003597
:10B6A0003FF7A5AC0BF1080BACE4119BDA1C02DBF5
:10B6B000994580F2B580023E26F02003049311E6FE
:10B6C000109BCDF838805A46DDE91A8BFB18CDF86F
:10B6D0002CA00C97AF4EDDF81CA009934F46DDF867
:10B6E0000C902146149B002B5BD00F9B002B54D158
:10B6F000149B013B08F1FF3814932B9B18981060A2
:10B7000001335944072B2C91C2F804B02B9368DC09
:10B710000832099898F80030C51B9D42A8BF1D4605
:10B72000002D0BDD2B9B176001332944072B2C9137
:10B7300055602B935EDC98F800300832002DACBFCA
:10B740005D1B1D46002D26DD102D2B983CDD1024A1
:10B7500003E00832103D102D36DD0130103107288E
:10B76000CDE92B01C2E90064F3DD2AAA514648461F
:10B7700002F0DCFD002850D1DDE92B012DAAE9E71C
:10B780002AAA5146484602F0D1FD002845D198F832
:10B7900000302C992DAA1F44A4E70F9B013B0F9367
:10B7A000ABE70F9B002BF8D1B946109B0C9FCDF84F
:10B7B0006880FB189945DDF82CA0DDF838809346A9
:10B7C0000C4628BF994624E4013029440728CDE9D6
:10B7D0002B01C2E90065D3DC98F8003008321F4421
:10B7E00080E72AAA5146484602F0A0FDA8B92C9944
:10B7F0002DAA8EE72AAA5146484602F097FD60B965
:10B8000098F800302C992DAA98E73846FEF798FC56
:10B81000A94603460990FFF7F4B8D146FFF77ABA74
:10B82000109B1946119B994200F38280C40740F196
:10B830006B81159A13440993410503D5119B002B85
:10B8400000F3E680099B23EAE37304936726002351
:10B850000F93149386E52D228DF88B204FF000096D
:10B86000FEF76CBEA146FFF755BA0A90DDE9121249
:10B8700002F100431F932D231E910B9319E6109B99
:10B880002893099B15F8012CD97B91422B4609D1AD
:10B89000302003F8010C289B5A1E289213F8012C23
:10B8A0009142F6D0392A0BBF099A0132927AD2B26C
:10B8B00003F8012C82E618F4007F3FF49FAD059A4F
:10B8C0001A705746FEF752BF2AAA0799039802F04A
:10B8D0002DFD00287FF41CAA249BDDE92B240DF10B
:10B8E000B40B71E5119B002B40F36481119BB9F1FE
:10B8F000000F40F00381C60700F10081099366261E
:10B90000430500F18680099B23EAE37304939EE7D5
:10B910002AAA0799039802F009FD00287FF4F8A9E4
:10B92000249B109A2C9CD31A0DF1B40BFFF790BBFB
:10B93000109B159A13440993119B002B40F34981E6
:10B940006726DDE730238DF88C30582395E5039882
:10B950002AAA494602F0EAFC00287FF4E0A9FEF793
:10B960000FBF24A89DED1E0B02F0E8FB00224FF054
:10B970007F5351EC100B03F0C9FC00220023CDE9EA
:10B980000C0103F02BFF08B101232493024B099310
:10B99000ACE500BF0C110300C81003005D4210337A
:10B9A000B94B80F29780194610262346DDF80C909B
:10B9B0000C4605E00BF1080B103D102D40F387807D
:10B9C00001321033072ACDE92B23CBE90046F1DD04
:10B9D0002AAA0799484602F0A9FC00287FF498A9F2
:10B9E000DDE92B230DF1B40BE6E709F10101039822
:10B9F00001F096FD0746002800F03B8148F4817372
:10BA00000E9326F020030493A046139B0A9047E56B
:10BA100067261A9800220F9214920378119AFF2B2E
:10BA20000CD093420ADA4178D21AA9B1149B01339F
:10BA300014930B46FF2B00F10100F2D11192149BDD
:10BA40000F9A09991A9013441B9A02FB0313099346
:10BA500023EAE373049385E40F9901310F91DEE744
:10BA600028AA25ABCDE90032032124AB4A469DED3F
:10BA70001E0B039800F0E0FA4D46074600EB090460
:10BA80003B78302B00F0BE80249D2C440022002304
:10BA9000DDE91E0103F0A2FE08B1234613E4289B52
:10BAA000A342BFF410AC30215A1C28921970289B75
:10BAB0009C42F9D807E47C19E8E7B9F1000F00F0DF
:10BAC00092800A90ECE40A904FF00609E8E42146DF
:10BAD0001C460B4601322C44072ACDE92B24CBE926
