:1000000000000420DD320000053300008D0B0000ED
:10001000093300000B3300000D3300000000000026
:100020000000000000000000000000000F3300008E
:1000300011330000000000001333000015330000EE
:100040001D2A00008D8D01008973010079270000B1
:10005000173300001733000001240000B125000011
:100060001527000017330000173300001733000076
:1000700017330000E5670100173300001733000055
:10008000173300008D0600001733000017330000FF
:100090002907000017330000173300001733000052
:1000A0001733000017330000173300001733000028
:1000B00017330000173300000000000000000000AC
:1000C0001733000017330000173300001733000008
:1000D0007D6501001733000017330000173300005F
:1000E00017330000173300001D6F020000000000EE
:1000F000000000001733000000000000173300006C
:1001000000000000000000000000000000000000EF
:1001100000000000000000000000000000000000DF
:1001200000000000000000000000000000000000CF
:1001300000000000000000000000000000000000BF
:1001400000000000000000000000000000000000AF
:10015000000000000000000000000000000000009F
:10016000000000000000000000000000000000008F
:10017000000000000000000000000000000000007F
:10018000000000000000000000000000000000006F
:10019000000000000000000000000000000000005F
:1001A000000000000000000000000000000000004F
:1001B000000000000000000000000000000000003F
:1001C000000000000000000000000000000000002F
:1001D000000000000000000000000000000000001F
:1001E000000000000000000000000000000000000F
:1001F00000000000000000000000000000000000FF
:1002000010B5054C237833B9044B13B10448AFF350
:1002100000800123237010BD380A00200000000078
:10022000C0B9030008B5034B1BB103490348AFF342
:10023000008008BD000000003C0A0020C0B9030097
:10024000154B002B08BF134B9D46A3F5803A0021A8
:100250008B460F461348144A121A28F005F90F4B23
:10026000002B00D098470E4B002B00D09847002061
:10027000002104000D000D48002802D00C482DF08C
:100280006DFC27F0B7FC2000290000F081F827F072
:100290008DFC00BF000008000000042000000000EA
:1002A00000000000380A0020D4EF00205DDB0200CF
:1002B0002DED020030B585B002F042FE154904462E
:1002C000154805F05AFA48B100230093134A144B1D
:1002D0001449204602F0DCFE05B030BD124D062167
:1002E000284628F027FF114B0093CDE901500A4B17
:1002F00010220321204602F04FFE0D4B0D480E49FF
:10030000C01AC008000440F0030005B0BDE830404A
:1003100001F0FABA1D4A0300740A0020344A0300AF
:100320003D0300003F4A03004C4A0300524A0300C9
:10033000C4B90300ECB90300574A030010B50F48D5
:100340000F4BC01A1446C0089DF80820000440F066
:10035000030022B10B49BDE8104001F0D9BA0A49A7
:1003600001F0D2FA094B224604F1100152F8040BB5
:1003700043F8040B8A42F9D110BD00BFECB9030069
:10038000C4B90300E8490300FF490300740A0020D0
:1003900010B54FF08043012286B0C3F878254FF4A2
:1003A0000041002001F0DAF818B1204A352100F0B0
:1003B00042F901F005F84FF0A0430322C3F81827D3
:1003C00040220021C3F8082501A8142228F04CF887
:1003D00019238DF804304FF6CE234FF47A7201249E
:1003E000ADF8063001A82823CDE903238DF8084095
:1003F0008DF8144002F06CFC02F0A2FD02F0B6FD94
:1004000000F0E4FA0A4A0B48214600F023FB0022E0
:100410004FF42031084800F02FFB02F07DFD01F081
:10042000F7F80028F9D102F063FDF6E72D4A030042
:10043000B5020000E4490300540A002038B5054D18
:10044000044645F001054FF47A40A847013CFAD133
:1004500038BD00BFF04A03007FB506460D4614467E
:1004600072B601F0ADFA01F0D3F80028FBD13F4895
:1004700028F050F844F201039E4264D044F2020393
:100480009E426ED122886168394828F043F801F015
:10049000C3FE08B901F08AFE0123002403A9042049
:1004A000ADF80C408DF80E408DF80D3001F0BEFE19
:1004B00003A9052001F0BAFE03A9062001F0B6FE4B
:1004C00003A9204601F0B2FE042001F06BFF0520D5
:1004D00001F068FF062001F065FF002001F062FFD7
:1004E0004FF4FA70FFF7AAFF042001F02DFF05205A
:1004F00001F02AFF062001F027FF002001F024FF71
:100500003220FFF79BFF042001F04CFF052001F093
:1005100049FF062001F046FF002001F043FF4FF4A1
:10052000FA70FFF78BFF042001F00EFF052001F0A9
:100530000BFF062001F008FF002001F005FFFA2064
:10054000FFF77CFFC0E7A668304601F06FFC01951D
:1005500023680093024663680648314627F0DAFFB5
:1005600095E72946044827F0D5FF90E76A4A03003B
:10057000834A03009E4A0300C84A030013B501F0F2
:100580004BFE08B901F012FE0123002401A904204A
:10059000ADF804408DF806408DF8053001F046FEB8
:1005A00001A9052001F042FE01A9062001F03EFE4E
:1005B00001A9204601F03AFE042001F0F3FE0520D7
:1005C00001F0F0FE062001F0EDFE002001F0EAFE51
:1005D0004FF4FA70FFF732FF042001F0B5FE05205A
:1005E00001F0B2FE062001F0AFFE002001F0ACFEEB
:1005F0003220FFF723FF042001F0D4FE052001F094
:10060000D1FE062001F0CEFE002001F0CBFE4FF41B
:10061000FA70FFF713FF042001F096FE052001F0A9
:1006200093FE062001F090FE002001F08DFEFA20DE
:10063000FFF704FFC0E700B583B00290009101927C
:1006400044F2010071466A46FFF706FF03B000BDA1
:10065000094A537891780133DBB2994208BF0023ED
:10066000117899421FBF03705078182303FB0020B4
:1006700014BF043000207047840A0020024B4FF45E
:100680003C6043F001031847004B0300F8B51F49D5
:100690001F4B0025C1F84051C1F84451C1F84851E1
:1006A000C1F84C51C1F80051C1F804511B684BB35B
:1006B000D1F8044517490968641A24F07F442F468D
:1006C0001A68A24209D8A41A15441A7CDE691AB124
:1006D0001F74D3E905209047AEB90F4B0F4A197824
:1006E00013788B4205D10133DBB2022B08BF002304
:1006F000137012780A4B43F822500A4B4FF48012C1
:10070000C3F80021F8BD3346DAE700BF001001400E
:10071000A40B0020A00B00209C0B00209D0B0020B0
:10072000940B002000E100E02DE9F74F9C4A9D4921
:10073000137809789C4D99423CD00133DBB2022BEF
:1007400008BF0023137099491278994B0F6853F82A
:1007500022003B1823F07F4300220B602B681646D3
:100760001446944613B942B12B6006E019688142E1
:100770000ED902B12B60091A19604FF001082B68DD
:10078000DFF834A200930027BEB9DFF834B260E08E
:10079000401A0C44D968C3F800C0D3F81CE031B14A
:1007A0003A1922F07F42C3E90121DE611E4601228F
:1007B0007346D7E70026B046E1E73446F6697B4A40
:1007C00063681268DFF8FCC1A068991A21F07F41C4
:1007D000614500F2A58001442160012222742A684B
:1007E0000023C4E90133E361002A40F0A2802C60B9
:1007F000CAE75A1C9BF80210D2B291428BF8002033
:1008000004BF00228BF80020182202FB03B32A68E1
:1008100019799C68022974D003297ED0012918D146
:10082000217CB1B9DA6862601A69A2605A69E26033
:100830009B69A3615F4B1B78002BC0D06160BEE752
:100840009C4200F090809946DB69002BF8D1002390
:1008500023749BF800309BF801209A42C9D12B6881
:100860002FB9009A934202D1B8F1000F43D0002B68
:1008700041D0D3F800A0504D4C4BD5F804751C68FE
:10088000DFF844813E1B98F8003026F07F4603369F
:100890009BB94FF48033C5F84433C5F80433474B54
:1008A0004FF400324FF00109C3F880211A60C5F8F7
:1008B0000090FFF7E3FE88F80090B2452CBF544447
:1008C000A41924F07F44C5F84045D5F80435DB1B56
:1008D00023F07F43E41B033324F07F44A3420AD96F
:1008E000D5F80435C5F84035FFF7C8FE334B4FF453
:1008F0000032C3F800212F4B00221A7003B0BDE86C
:10090000F08F13469146A0E71174D2690123002AA3
:10091000FAD1002B9DD02A609BE700231946F6E709
:10092000D31A23F07F43834234BFC31A00232360CA
:1009300053E721681368994213D8591A1160E2618C
:1009400055E7091AD8691A4638B10346186888422B
:10095000F7D3401A1860184613462160E061DC6145
:1009600012E71346F2E74C450DD1D3692B6053B91A
:100970000E4801920121CAF8081003600D4B19704E
:10098000FFF77CFE019AE1692368C9F81C1011B1D8
:10099000086803440B602B689A4218BF012756E78A
:1009A0009C0B00209D0B0020A40B0020A00B00201E
:1009B000940B0020900B00200010014000E100E0AB
:1009C000840A0020FEFF7F00910B0020F8B5194E2D
:1009D000194D1A4F4FF40033C6F8803001244FF4FC
:1009E0008033C5F84833C5F808336C60FFF746FE1E
:1009F000AC6000243C60FFF741FE114B1C70114BB2
:100A00000B221C809A70104B1C60104B1C70104BFA
:100A10004FF480121C70E023C6F8802186F814334E
:100A20003260C5F8084586F81133D5F804353B60C7
:100A30002046F8BD00E100E000100140A00B0020BE
:100A4000910B0020840A0020A40B00209C0B0020A6
:100A50009D0B0020074B9B784BB132B128B1036846
:100A6000187C20B959745A617047072070470820D4
:100A7000704700BF840A00202DE9F3411C4EB37873
:100A800004460D4617468BB380B304292CD943691D
:100A900063B3437C0020012B0CBF88464FF0000855
:100AA00000F04CF80DF10700FFF7D2FDD0B10123A3
:100AB0000370104B4460D3F80435C0E90487C0E9E3
:100AC00002359DF8073073700024002000F046F8CE
:100AD00024B9094B4FF48012C3F80021204602B01C
:100AE000BDE8F0810424F0E70724F7E70824F5E7E0
:100AF000840A00200010014000E100E072B6024AC2
:100B00001368013313607047A80B0020034A136871
:100B1000013B136003B962B6704700BFA80B002009
:100B2000EFF30583C3F308032BB9EFF31480C0433D
:100B300000F00100704701207047000008B5FFF782
:100B4000EFFF012803D00449432000F0BBF8BDE8C3
:100B50000840FFF7D3BF00BF064B030008B5FFF7FF
:100B6000DFFF012803D00449512000F0ABF8BDE8B5
:100B70000840FFF7CBBF00BF064B0300024B1B68CA
:100B80000021986827F0C0BE740000201EF0040FFA
:100B90001CBFEFF309800AE0EFF308800549064A1D
:100BA000884201D8904202D88D464FF00000034B96
:100BB000184700000000042000E00320C10B0000E3
:100BC0002DE9F347054600F0FBFE00F021FD00286B
:100BD000FBD12F4B2F4C9F6A2F4BE41AE4082404BF
:100BE00044F00104002D4ED0AA692C49204600F0A3
:100BF0008FFEEB680193AB6800932949D5E9002388
:100C0000204600F0A5FEEB6900932649D5E90423B0
:100C1000204600F091FE1E4BDB6A980703D522495F
:100C2000204600F071FEDFF89490DFF894A00026D3
:100C30004FF0010808FA06F33B4206D059F8262087
:100C40001AB15146204600F063FE01361A2EF1D14A
:100C5000390605D50E4B15495A6B204600F058FE53
:100C60003A0405D50A4B12499A6B204600F050FE13
:100C7000104B1B68DB0700D500BE2846FFF77EFC43
:100C800002B0BDE8F0870C49204600F03DFEC2E707
:100C900000ED00E0FCB90300C4B90300594B0300A8
:100CA0006E4B0300A34B0300FE4B03004D4C0300AF
:100CB0006D4C0300F0ED00E0CB4B0300884C0300CB
:100CC000424C030007B5ADF8000001916A460021CF
:100CD00044F20200FFF7C0FB03B05DF804FB50E8EC
:100CE000002F0B4640E8003C9CF0000FF7D1104667
:100CF000704750E8003F43EA010240E8002C9CF0B6
:100D0000000FF6D11046704750E8002F02EA0103A9
:100D100040E8003C9CF0000FF6D11046704750E8C8
:100D2000003F03EB010240E8002C9CF0000FF6D1DD
:100D30001046704750E8003FA3EB010240E8002C4A
:100D40009CF0000FF6D1104670470121FFF7D1BF8C
:100D50000021FFF7D9BF000010B50446002834D0A9
:100D600003681BB91A49FF20FFF7ACFF636823B97A
:100D700017494FF48070FFF7A5FFA36823B9144902
:100D800040F20110FFF79EFFE36823B910494FF4CA
:100D90008170FFF797FF238A23B90D4940F20310B2
:100DA000FFF790FFD4E9012321689B1ADBB20A60A8
:100DB000013BDBB2FF2B226802D10020107110BD75
:100DC0001168481C10600B70F2E70E20F7E700BFB7
:100DD000B051030038B5044620B912494FF492705F
:100DE000FFF770FF0020FFF7A9FE22686168136813
:100DF0008B4215D9591E116013F8015C228AE368F1
:100E000002FB05352268A36811685B1A1179DBB211
:100E1000994200D213710020FFF7A0FE284638BD8A
:100E20000025F8E7B051030038B50C46054620B957
:100E30000E4940F24710FFF745FF24B90B494FF424
:100E4000A470FFF73FFF0020FFF778FE2A681368C1
:100E5000591C1160EA68A41A2A8AB4FBF2F41C70C7
:100E60000020BDE83840FFF779BE00BFB051030055
:100E700010B5044618B906493120FFF723FFA268D0
:100E80002AB163692168206998470023A36010BDD7
:100E9000FE5103000EB433B5059D044618B912493E
:100EA0004220FFF70FFF63691BB90F494320FFF78B
:100EB00009FF23681BB90C494420FFF703FF63684F
:100EC0001BB909494520FFF7FDFE3DB102AA06AB5B
:100ED00042F8043D2946204600F06EF802B0BDE815
:100EE000304003B0704700BFFE510300826830B449
:100EF0000468551C8560A154D0E901329A4202D39E
:100F000030BCFFF7B5BF30BC704700002DE9F84F8B
:100F10009946DDE90A431746824688460A46012675
:100F2000BA420FD24E4538BF4E4613F0010B01D1E5
:100F300064B900240125B9F1010F1AD909F1FF396B
:100F40007D43F8E7B2FBF7F20136E9E79B070ED5E0
:100F5000B9F1000F0CBF30252025A642EAD2013C92
:100F600029465046FFF7C2FF002CF6D1E1E72025C5
:100F7000F3E7B8FBF5F39F42E2D9DFF83890B8FB0E
:100F8000F5F3504619F8031005FB1388FFF7AEFF81
:100F9000B5FBF7F5002DF2D1BBF1000F02D00CB17B
:100FA000A64201D3BDE8F88F20215046013CFFF74F
:100FB0009DFFF4E7425203002DE9F74F0E4690469D
:100FC000054620B9AC494FF4A270FFF77BFE6B6970
:100FD00023B9A9494FF4A370FFF774FE2B6823B916
:100FE000A54940F24710FFF76DFE6B6823B9A2498F
:100FF0004FF4A470FFF766FE002E00F03A8116F859
:10100000011B002958D0252940F0D180002702E09B
:1010100047F001071646324612F8013B2D2BF7D058
:10102000302B04D02B2B05D147F00407F2E747F013
:101030000207EFE700242A2B06F101021BD1D8F8A2
:101040000030191DC8F800101B6816461C44337880
:101050002E2B1CD101364FF0000A314611F8012B1E
:10106000A2F13000092814D80A2303FB0A23A3F1B4
:10107000300A0E46F1E712F8013CA3F130010929CC
:10108000E5D80A2101FB0434303C1646D3E74FF083
:10109000000A324612F8011B01F0FB0068281646D0
:1010A000F8D0692916D054D8582970D00ED82529DF
:1010B0007DD03378002BA2D12B7B002B00F0D98080
:1010C000284603B0BDE8F04FFFF7D2BE632968D0D1
:1010D0006429EED1D8F80020111DC8F80010D2F80C
:1010E000009089EAE972A2EBE9724FF0010B092A3C
:1010F00061DCD34538BFD3462CB1B9F1000F01DB19
:10110000790700D5013CBA0702D5BAF1000F04D027
:10111000FB0702D4002C54D10024B9F1000F58DA97
:10112000C9F100092D212846FFF7E0FE07F0030270
:10113000022A05D1BAF1000F02D1002C4DD10024B2
:10114000CDE9004753460A2249462846FFF7DEFE0E
:10115000AFE7732954D016D87029AAD1D8F8003037
:101160001A1DC8F80020302128461C68FFF7BEFE73
:1011700078212846FFF7BAFE00220823CDE9003285
:1011800021461022E1E775292FD0782991D1D8F88E
:1011900000100A1DC8F80020CDE900475346102270
:1011A0002CE0D8F800301A1DC8F80020197828461D
:1011B000FFF79CFE7DE70A230BF1010B92FBF3F294
:1011C00095E7A345A9D220212846013CFFF78EFED2
:1011D000A0E77807AAD52B21A5E7A345B0D23021F7
:1011E0002846013CFFF782FEA7E7D8F80010CDE9BA
:1011F00000470A1DC8F8002053460A220968A4E7E0
:10120000D8F800301A1DC8F80020F907D3F800906C
:1012100012D54F46A7EB090B17F8011B41B9A3459F
:10122000BFF447AF20212846013CFFF75FFEF6E7F9
:101230002846FFF75BFEEDE7B9F1000F17D04846EF
:1012400027F0BEFE0746BC4200D954B909F1FF3968
:1012500019F8011F00293FF42CAF2846FFF746FE7E
:10126000F6E720212846013CFFF740FEEBE74F461A
:10127000E9E703B0BDE8F08F525203007047000069
:1012800007B5044B0093044A402300F032F803B042
:101290005DF804FB9D120000AD0B00202DE9F84322
:1012A00089461446B2B10F4B0F4E0325002743F079
:1012B0000108224609EB0701002001F065FC074404
:1012C000241A48B933782BB14FF47A40C047013D16
:1012D00002D13570BDE8F88301233370002CE8D1CA
:1012E000F8E700BFA0520300AC0B0020704701F0EC
:1012F000C9BCF0B595B01C46164608460D4600F030
:101300002AFD1A9B0D93CDE9086400242346082288
:1013100005A928460A948DF82C400C9400F044FD51
:10132000079B0293BDF81830ADF80C30BDF81A30A9
:10133000ADF80E309DF814308DF8114003F0030223
:10134000012A1DD1BDF81440059EC3F3C203C4F3A6
:1013500083148DF81030A20008230EA9284600F04F
:1013600023FDC6F3952608AB0093224602AB0EA9D7
:10137000304600F095FB284600F0F1FC15B0F0BDBA
:10138000022AF8D1BDF81640C3F3C203A4098DF8B0
:1013900010300827082C264628BF08263B46324630
:1013A0000EA9284600F000FDA41B08AB02AA314696
:1013B0000EA8374400F0D8FB002CEBD1DBE700008F
:1013C00008B5FFF794FF0421064800F0CFFA002883
:1013D00003DA05494120FFF775FC044B01225A71DD
:1013E00008BD00BF20BA0300B45203000000002073
:1013F000037813F0040216D003F00303012B03D08B
:10140000022B09D0012070470A6800880232C0F31D
:10141000831002440A60F5E70B684288023303EB4D
:1014200092130B60EEE71046704700002DE9F04F75
:10143000484C87B00D460646871C00200092FFF7F7
:101440007DFB23682B60D4E9012313442268013318
:101450009B1A04F21C4804F5836B04F21449BB4246
:1014600019D3009A0023002A6CD0012262F30103F1
:1014700043F0040366F389132168A2680A4003322B
:101480000F44002044F822302760FFF767FB01205B
:1014900007B0BDE8F08F01214046FFF740FC5846F9
:1014A000FFF753FC0DF1180A4846FFF74EFC606841
:1014B0004AF8100DA5682840033004EB800051461F
:1014C000FFF796FF02460298002AF4D105EA0003CE
:1014D00004EB8303811CDB6803930130054004EBBC
:1014E000850503F00303012B0291ED6823D0022B45
:1014F00008D0194901924FF4BF70FFF7E3FB019A3E
:10150000154607E0BDF80E309B0903332D0C01EBA7
:10151000930302934846FFF71BFC08B1029B6360EC
:1015200029464046FFF7FBFBD4E901231344226818
:1015300001339B1A93E7BDF80C30C3F383132D0CD2
:101540000B44E6E7022262F3010343F0040366F36F
:101550009F5391E7C00C0020215303000B4B0C4814
:10156000FF2210B59A600022C3F81824C3E90022B4
:10157000C3F81424012283F8202400F0A5FB0446BC
:1015800010B9044800F026FC204610BDC00C002015
:101590000CBA03007853030030B50A4C71B10A4A03
:1015A0000A49121BD20800239A4201D1002030BD03
:1015B00031F82350854202D00133F5E7034654F851
:1015C0003300F4E7C4B903000CBA0300340A002066
:1015D000094B013903EBC000032909D8DFE801F00A
:1015E0000A0204060420704700797047407970476A
:1015F0000020704702207047C4B90300034BD3E9B1
:101600000030C31A58425841704700BFC00C002038
:101610002DE9F04385B0FFF7F1FF0646002840F0C2
:10162000F9807D4DC5F81804BFF34F8F6868AC682A
:1016300004AF47F8100D2040033005EB8000394619
:10164000FFF7D6FE009B18B1D5F81824002A5FD00A
:1016500004EA0302991C013305EB8202234005EBE7
:101660008303D268DB68029302F00303022B01922A
:10167000009162D1BDF8063068484FEA9318B8F17E
:10168000500FC14628BF4FF0500969F38F1309F17D
:101690000801ADF8063000F02FFB0746002800F0E7
:1016A000A48000F058FB01A900230822384600F06E
:1016B00065FB009924EA01060136B600B14535D92B
:1016C0005FFA89F97EB3F6B2A9EB0609214003312E
:1016D0005FFA89F4B146524E05EB810108234A4670
:1016E000384600F04BFB36B109F10803224631467B
:1016F000384600F043FB009B08F1030803EB980316
:101700000093D5F81834002B4BD1D5F810445BE08A
:101710002A689A4204D86A60304605B0BDE8F08372
:1017200004EA030088E73E493446D7E72140033105
:1017300008234A4605EB8101DAE7012B55D1BDF8B4
:1017400004303648C3F38311062928BF062161F30C
:10175000891302318900ADF8043000F0CDFA074654
:10176000002842D000F0F7FA0023082201A93846E9
:1017700000F004FB0026BDF80420C2F38312B31C62
:1017800096424FEA8303BCD200994A1C21400331A0
:10179000009205EB81010422384600F0EFFA013691
:1017A000E9E7384600F0DBFAFFF728FF80F0010098
:1017B000C6B2B1E7E3685B7923B1236839461B6899
:1017C00020469847E3681C68002CF3D1384600F0A7
:1017D000C6FA2046FFF7B2F9D5F818340BB9009BCA
:1017E0006B600020FFF7BAF9DEE7D5F8104454B972
:1017F0000C4B0D480D49C01AC008000440F002000F
:1018000000F082F8D0E7236820469B689847E36899
:101810001C68ECE700267FE7C00C00200CBA030030
:10182000CC0C0020C4B90300ECB9030084530300BE
:101830002DE9F74F2F4C80460F46914601A9012212
:1018400018469B46D4F808A0FFF7F0FD00283DD0CD
:10185000019D0026A91C5E4506EB010240D1002136
:101860002548FFF73CFA80F3100B244B244A4FEA3B
:1018700018499B1AB9EBD30F04D3224940F2A310A5
:10188000FFF720FA6B1C03EA0A0304EB830349EA1F
:101890000B42DA6005EA0A030333012114F823201E
:1018A00068F3C50204F8232034F8232066F3891274
:1018B00024F8232054F8232067F39F2244F82320A0
:1018C00061F301026FF3820204F8232094F82034BC
:1018D0001BB1FFF79DFE0028FBD103B0BDE8F08FE0
:1018E0000AEA020204EB820259F82630D36001367C
:1018F000B1E700BFC00C0020DC1000200CBA0300D0
:10190000C4B903002153030000231A46FFF790BF18
:1019100013B502AC012344F8042D2246FFF788FFDB
:1019200002B010BD07B5CDE9002302236A46FFF7D8
:101930007FFF03B05DF804FB1FB5CDE90123069BD3
:10194000039301AA0323FFF773FF05B05DF804FBBF
:101950001FB5CDE90023069B0293079B03936A46BC
:101960000423FFF765FF05B05DF804FB30B5134AAB
:10197000D2F810440023214651B9C4682371D2F82B
:1019800010445CB9C2F81004C2681160184630BD3A
:10199000C9680D799D420AD00968EDE7E468C1681D
:1019A00024680C60D2F81024D2681060EEE701338E
:1019B0000A2BE0D14FF0FF33E8E700BFC00C002056
:1019C00038B5094A0123D2F8104482F820341D4664
:1019D00004B938BDE3685D71236820465B689847A9
:1019E000E3681C68F4E700BFC00C002010B5037A60
:1019F000052B0C460FD0437A23B1084A08492046EC
:101A0000FFF748FA07492046FFF744FA2046BDE8A9
:101A10001040FFF72DBA002AF8D0F3E7CF530300A8
:101A20006B5B03007A5D030073B5C38804460D4603
:101A300033B1144A00921449144A2846FFF72AFA8F
:101A4000217A05291CD0637A4BB1A088FFF7C0FD2D
:101A50000F4B104953F820202846FFF71BFA227A33
:101A60000D4BA08853F822600021FFF795FD0B492C
:101A700003463246284602B0BDE87040FFF70ABA76
:101A800002B070BDCF530300DC530300D4530300F6
:101A90009C5303006B5B030000540300F4530300EA
:101AA0002DE9F04385B01F460C9D002306460C46E9
:101AB000904695F80C902B7329463846FFF7B4FFF3
:101AC000B8F1060F09D8DFE808F00412181F283310
:101AD000400031462846FFF7DDF900222946384606
:101AE000FFF784FF85F80C9005B0BDE8F08322680D
:101AF00031462846FFF7CEF9EFE7D4E90023314617
:101B00002846FFF7C7F9E8E7A36800933146D4E910
:101B100000232846FFF7BEF9DFE7E3680193A368D7
:101B200000933146D4E900232846FFF7B3F9D4E700
:101B300023690293E3680193A36800933146D4E9D3
:101B400000232846FFF7A6F9C7E7636903932369D3
:101B50000293E3680193A36800933146D4E900231C
:101B60002846FFF797F9B8E708292DE9F84F80468E
:101B70000E4617461C4635D8002593F80C901D7369
:101B800019461046FFF750FFDFF88CA0DFF88CB045
:101B9000AE4229D918F8052059462046FFF77AF9B0
:101BA0000135082DF4D11A49DFF874B02046FFF74B
:101BB00071F94FF0000A564524D918F80A507E2DC5
:101BC00017D92E2259462046FFF764F90AF1010A77
:101BD000BAF1080FEFD1012221463846FFF706FF80
:101BE00084F80C90BDE8F88F51462046FFF752F973
:101BF000D6E726F031F82844427812F0970FE0D06B
:101C00002A46DFE703492046FFF744F9DEE700BF35
:101C1000CA530300C8530300C6530300C053030054
:101C2000CC5303002DE9F74F99469DF830300193CE
:101C300088461746054618B92249B620FFF742F8EC
:101C4000EA8895F805B00BFB02FBABF1040BCB4522
:101C500003D81C49C420FFF735F83E68B5F806A044
:101C600006EB09025A4509F1040188BFABEB0906EE
:101C7000B1FBFAF43E600AFB141144B9AAEB010768
:101C8000B74228BF37462EB903B0BDE8F08F2D68A4
:101C9000013CF2E7019A043108EB0403681872B1C1
:101CA00001463A461846F61B26F0E0FAB2453C4497
:101CB0002D6857464FF0000128BF3746E3E73A4604
:101CC0001946F0E768540300FFF746B8F8B54679BF
:101CD0000146721E0546002393422D6803D300245B
:101CE000A64202D8F8BD0133F6E70F682846FFF791
:101CF0009BF801343946F3E72DE9F843CD1C068AF9
:101D00000746FFF767F8043E35440446B5FBF6F591
:101D1000F0B14FF48073EDB28380C680013D07605F
:101D200081464FF00008A84512D23846FFF752F816
:101D3000064648B163790133637108F10108C9F8B7
:101D4000000007608146EEE72046FFF7BFFF3446FC
:101D50002046BDE8F88301210430FEF7E0BF10B54E
:101D6000012104460430FEF7E5FF10F0FF0F04D117
:101D70002046BDE81040FFF7A9BF10BD30B585B0C3
:101D8000144604AA002542F8044D0095FFF74AFFC7
:101D9000039BA34203D00349F620FEF793FF05B04F
:101DA00030BD00BF6854030030B585B0144604AAA6
:101DB000012542F8044D0095FFF734FF039BA34231
:101DC00004D003494FF48070FEF77CFF05B030BDAE
:101DD00068540300826800239360826813618268FC
:101DE00053618268D3608268536082681360704771
:101DF0000D4930B5A1F58C720225914201D8002021
:101E00000EE08B1ADB1093FBF5F302EBC30452F8E0
:101E10003330834205D802D204F10802EDE760684E
:101E200030BD2146E9E700BFE455030008B5FFF7E0
:101E3000DFFF024B002808BF184608BDB654030058
:101E400038B5084C04F108030546002818BF1C46A5
:101E500023682BB11A6822605B6828469847F7E729
:101E600038BD00BF2411002020B9054B01225A7053
:101E7000FFF7E6BF012802D1014A9070F8E77047EA
:101E80001C11002038B5094C23786BB908486360F1
:101E9000A3602361E36000F01BFD054600F02EFD0A
:101EA00001232370284638BD8525FBE71C1100203F
:101EB000691E000038B51A4C237805461BB919492C
:101EC000E920FEF7FFFEA37803F0FF00ABB115B1E8
:101ED0006B68012098470020FEF730FEE368002081
:101EE0000133E360FEF73AFEE368C3B90D4940F2FF
:101EF0000510BDE83840FEF7E5BEFEF71FFE25B130
:101F0000226913463BB92A602561E368002BE5D1BD
:101F100000F012FDE2E79D42F7D01B68F2E738BD02
:101F20001C1100207559030038B50F4C237823B9D4
:101F30000E494FF48570FEF7C5FEE36823B90B49DF
:101F400040F20B10FEF7BEFE0020FEF7F7FDE3683F
:101F5000013BE360E56815B900F00CFDA5700020B9
:101F6000BDE83840FEF7FABD1C110020755903008A
:101F700008B5074B1B7823B906494FF48C70FEF760
:101F8000A1FE4FF08043D3F81804C0F3004008BD11
:101F90001C1100207559030038B51B4C23780546E9
:101FA00023B91A494FF49370FEF78CFE637803F05F
:101FB000FF00ABB115B16B68002098470020FEF719
:101FC000BDFD6368002001336360FEF7C7FD6368F1
:101FD000C3B90E494FF4A170BDE83840FEF772BE98
:101FE000FEF7ACFD25B1A26813463BB92A60A56097
:101FF0006368002BE5D100F0D5FCE2E79D42F7D005
:102000001B68F2E738BD00BF1C11002075590300A2
:1020100038B50F4C237823B90E4940F24710FEF72C
:1020200051FE636823B90B494FF4A470FEF74AFED2
:102030000020FEF783FD6368013B6360656815B9A6
:1020400000F0CEFC65700020BDE83840FEF786BD8C
:102050001C11002075590300024AD2F80034002BED
:10206000FBD0704700E001400A4908B50223C1F8DF
:102070000435BFF36F8FBFF34F8FC1F80805FFF72B
:10208000EBFF0023C1F80435BFF36F8FBFF34F8F11
:1020900008BD00BF00E0014038B520F00305C000D6
:1020A00000F01800FF2303FA00F22B680B4C23EA20
:1020B00002030122C4F80425BFF36F8FBFF34F8FD3
:1020C00001FA00F018442860FFF7C6FF0023C4F8A7
:1020D0000435BFF36F8FBFF34F8F38BD00E0014071
:1020E00070B58D180C46461AAC4200D170BD30193F
:1020F00014F8011BFFF7D0FFF6E700F1804000F570
:10210000C040002382B0036003680193019B02B0CA
:1021100070470000054B4FF0FF32072843F820209E
:1021200084BF1B1883F85820704700BF301100206F
:1021300010B503682F2B044604D907494FF4F370F8
:10214000FEF7C0FD23681F2B83BF03F01F0323602E
:1021500002484FF0A04010BDC859030000030050D2
:1021600013B502AB0C4643F8040D1846FFF7E0FF29
:10217000019B00EB8300D0F8003723F44033C0F814
:102180000037D0F8003743EA0443C0F8003702B004
:1021900010BD00004FF0A043D3F810350360024B90
:1021A000D3F81035436070470003005010B5164C4B
:1021B00094F86A3033BBFF21E2180133302B82F8E8
:1021C0003010F9D10021C8B2FFF7A4FF01310C296A
:1021D000F9D1062200210D4826F046F90C4BE022E9
:1021E00083F8062340221A604FF4BE70FFF785FF84
:1021F000084B4FF00042C3F80423012384F86A30EF
:10220000002010BD0820FCE73011002094110020B0
:1022100000E100E000600040034B93F86A000030EA
:1022200018BF0120704700BF301100202F287FB554
:1022300004460D4604D941494FF49870FEF742FD1B
:102240003F4E96F86A30012B04D03C4940F23110E1
:10225000FEF738FD25B939494FF49970FEF732FD84
:10226000331993F93020013265D1AA78002A54D06D
:10227000002356F8231001314FEA830247D1311968
:1022800002F1804281F83030002102F5C04246F868
:102290002310D2F810052B78697820F499101B04CC
:1022A000090520F4F85001F4801103F44033C2F81A
:1022B00010050B432102D2F8100501F47C510B43A9
:1022C0000343C2F810356D78012D04A829D140F8D8
:1022D0000C4DFFF72DFF019B9D40C0F8085504A849
:1022E00040F8044DFFF724FF039B164903F5E07304
:1022F000032240F8232024FA02F2012304F0070409
:1023000003FA04F48B5C1C438C54002003E001337B
:10231000082BAED1042004B070BDFE2283F830201B
:10232000D1E740F8084DFFF703FF029A01239340DD
:10233000C0F80C35D3E70820EDE700BF095A0300C9
:1023400030110020941100202F2837B5054604D9FC
:1023500012494FF4BE70FEF7B5FC114C621992F9A8
:102360003020013204D10D4940F27D10FEF7AAFC65
:10237000631993F83030072B04D808494FF4BF7025
:10238000FEF7A0FC02A840F8045DFFF7D1FE019A19
:1023900001239340C0F8083503B030BD095A03004B
:1023A000301100202F2837B5054604D912494FF4C3
:1023B000C370FEF787FC114C621992F9302001328C
:1023C00004D10D4940F28710FEF77CFC631993F8A5
:1023D0003030072B04D808494FF4C470FEF772FC64
:1023E00002A840F8045DFFF7A3FE019A0123934081
:1023F000C0F80C3503B030BD095A0300301100207D
:102400002DE9F04F00248DB0CDE904445D4A5E4EC5
:102410005E4D01211368A2F5C040012B80B206D1A8
:10242000D6F804330B4202D0FFF767FE0C430432A8
:10243000AA424FEA4101EDD1554B1B68012B08D14F
:102440004FF4BE70FFF759FE04A844F00044FFF7B4
:10245000A1FE14F0FF0F1AD04E4F00250126344282
:1024600010D0AB0003F1804303F5C043D3F810054F
:10247000D3F8101557F82530C0F30520C1F30141FA
:1024800003B198470135082D4FEA4606E7D1002CE5
:1024900075DA06AF002306937B604FF0FF33CDE97A
:1024A0000833DFF8F0804FF0000A554608EB0A03C6
:1024B00093F96040631C4AD0E4B2012324F0C006C3
:1024C00004F0070B03FA0BFBF1080CAB5A1812F8D7
:1024D000103C13EA0B0F3AD008EB0603A40993F95A
:1024E000303058F82390B9F1000F06D1032C2ED1CB
:1024F000785C40EA0B00785401E0032CF8D003A884
:1025000001920396FFF714FE0399019A01F5E07119
:1025100012F8202C50F8211012EA0B0FC1F30141E0
:1025200005D0022913D1032C0BD1214604E0032945
:102530000DD1032C05D102213046FFF711FE0135E4
:10254000EDB2B9F1000F02D021463046C8470AF17A
:10255000010ABAF1040FA9D18DB10AA8FFF71AFE3A
:10256000049B0A9A9A420B9B02D105998B4206D092
:1025700004920593069A079B0892099393E70DB07E
:10258000BDE8F08F00610040006000402061004025
:102590007C6100403011002000F1804000F5E040F7
:1025A000002382B0036003680193019B02B070476F
:1025B000F0B5514B514C1B6885B0DBB14FF48270C4
:1025C00094F82E20FFF7E8FF12B194F82F30A3B152
:1025D000636802932389ADF80C30E36800218DF81D
:1025E0000410002B44D12374236801A898470023CA
:1025F00084F82F3094F82E3003B3414B1B68EBB1B5
:102600004FF48070FFF7C8FF94F82D20638B91B2D0
:102610008B4238D95B1A21899BB26383CB1A6168DC
:1026200001EB4301374BC3F82C16C3F830264FF4A7
:102630008270FFF7B1FF344B01221A60334B1B68E5
:102640005BB14FF48870FFF7A7FF002304A8237441
:10265000022300F80C3D236898472D4B1B6813B3E9
:102660004FF48A70FFF798FF0023237405B0F0BD84
:10267000208B608363602081E160002AB4D1214B0C
:1026800001221A60B0E7D2D1E368012184F82F104B
:102690003BB1002161831B49C1F82C36C1F83026BB
:1026A000C5E76383C3E766694FF000470125002E45
:1026B000DCD0B6FA86F227FA02F34632920026EA16
:1026C000030602F1804303F5E0431B68002BEED0C4
:1026D0001046FFF761FFA2F58C72D30882F0040266
:1026E000C2F380028DF808308DF804508DF809206F
:1026F000236801A89847DAE7047100409C11002084
:1027000000710040007000400470004010710040F3
:10271000147100402DE9F341104C114F114E00256A
:102720004FF480382368A4F5004080B26BB1D7F82D
:10273000043308FA05F21A4207D000232360236805
:102740000193019BD6E9003198470135042D04F12E
:102750000404E7D102B0BDE8F08100BF4081004031
:1027600000800040CC1100200023435082B0435829
:102770000193019B02B07047F0B5504C236887B0BD
:1027800023B94F4940F24520FEF79CFA4D4AD2F852
:1027900024311546A3B14FF492711046FFF7E4FFC0
:1027A000D2F8043163B9A368C2F808330223A360E6
:1027B000A368C2F8043301231362536107B0F0BD6C
:1027C000D5F80431002B49D03F4F3E484FF4827179
:1027D000FFF7CAFF0FCF01AE0FC63B68336094F816
:1027E0002E307BB1237B012B0CBFD5F83C25D5F8CF
:1027F0004C250292022B334B0CBFD3F83C35D3F857
:102800004C3503934FF4B0712E48FFF7ADFF4FF4F2
:10281000AE712C48FFF7A8FF94F8303013B194F84C
:102820002E303BB1274B0022C3F80022A260274A7A
:10283000C3F80823234AD2F8C434C2F8C4349A0730
:1028400036D501238DF8003094F830300BB984F878
:102850002F30D4E9003168469847AFE74FF4A471B0
:102860001848FFF781FF237B83B9174F0FCF01AEC5
:102870000FC63B68336094F83030002BDAD1C5F8CE
:102880000032A360114BC5F80833D3E74FF400734F
:10289000C5F8003240F20223A36003F1CE73C5F8FD
:1028A0000833A368C5F804330123AB602B6285E7C6
:1028B00013F0040318BF0223C4E700BFD81100209F
:1028C000685A030000300040E411002002029C011D
:1028D00010B5044618B90749A020FEF7F3F9064BD6
:1028E000187920B901221C601A71587110BD852019
:1028F000FCE700BFB75A03000C12002008B50B4BD1
:102900001B791BB90A49B920FEF7DCF9094B1A6893
:10291000D2075FBFE02283F8002301221A604FF044
:1029200080430122C3F8182508BD00BF0C12002007
:10293000B75A030000E100E007B50B4B1B791BB948
:102940000A49E620FEF7BEF9094B00221A601B680F
:102950000193019B4FF080430222C3F8042301221C
:102960009A6003B05DF804FB0C120020B75A030014
:102970000401004008B5084B1B791BB90749F32037
:10298000FEF7A0F9064B01221A604FF08042D2F800
:102990001834DB03FBD408BD0C120020B75A030027
:1029A0000C00004007B50B4B1B791BB90A49FB20F3
:1029B000FEF788F9094B00221A601B680193019BFE
:1029C0004FF080430122C3F804231A6003B05DF87E
:1029D00004FB00BF0C120020B75A030000010040A6
:1029E00010B50B4C227922B90A4940F20310FEF7C8
:1029F00069F9094B01221A604FF08042D2F80C3479
:102A000003F00113B3F1011FF8D00023637110BD6F
:102A10000C120020B75A03000400004007B5154B04
:102A20001A687AB100221A601B680093009B4FF06D
:102A300080430122C3F808230F4B587910B95A710B
:102A40001B6898470D4B1A6882B100221A601B68F8
:102A50000193019B4FF080430222C3F80823064BE9
:102A60001B68012003B05DF804EB184703B05DF864
:102A700004FB00BF000100400C12002004010040D4
:102A80000369C1688B429DBF8268D21802F1FF3290
:102A900003F1FF3394BF501A581A70472DE9F041E3
:102AA000D0E902670446F61B406896428846154600
:102AB000384405D925F0DAFB3D44E560BDE8F081F6
:102AC0003246AD1B25F0D2FB2A4608EB06016068B2
:102AD00025F0CCFBF1E72DE9F843C56806468946A9
:102AE00017464FF000083469B3687068A54228BFE4
:102AF000E418013C621B5C1BBC4228BF3C4694426C
:102B000028BF144649462844224625F0AFFBB36847
:102B10002544AB4208BF00253F1BA044A144F560FB
:102B2000E1D14046BDE8F88310B5114C114AA261CD
:102B30000223C4E90433104BE361A2644FF4007331
:102B40000E4A2362E264002310220D49A362E01DB5
:102B50006362E362A3656365E365226526F0CEF9EF
:102B60000849204626F0CAF92023A37110BD00BFF2
:102B700044CE0020085B0300241200201412002021
:102B8000115B0300155B0300F8B5184C182300FB1C
:102B9000033503FB00402544C46A012C0F4616464A
:102BA00011D003D3022C1BD000240AE02846FFF7E3
:102BB00067FF864205D8324639462846FFF76EFF42
:102BC00034462046F8BD2846FFF75AFF8642344671
:102BD00028BF0446224639462846FFF75FFFF0E744
:102BE0002846BDE8F840FFF776BF00BF44CE00207E
:102BF00070B50B4B1B7804460D4616460BB9FFF714
:102C000093FF0020FDF79AFF324629462046FFF742
:102C1000BBFF04460020FDF7A1FF204670BD00BFAA
:102C200044CE00202DE9F041154C1E462378054680
:102C3000884617460BB9FFF777FF2369AB421BD9CC
:102C40000020FDF77BFF65B1182305FB0332A118B7
:102C500003FB054344F8028000224F601E629A6223
:102C60005A62182303FB0544069BE3620020FDF72C
:102C700075FF0020BDE8F0814FF0FF30FAE700BF9C
:102C800044CE0020FFF750BF10B511461C461A462F
:102C90000020FFF7ADFF204610BD000070B50546CF
:102CA00008460CF0F9F9074C074B0849E41AE40808
:102CB000240403462A4644F00300BDE87040FEF7B2
:102CC00031BE00BFECB90300C4B903001D5C0300B2
:102CD00073B500210646084614F08EFA01F0B6FDE1
:102CE000614C206018B961491B20FDF7EBFF604B78
:102CF000604DED1AED0801F0B3FD2D0445F003051C
:102D000002465D492846FEF703FE20680CF0C0F934
:102D10005A4902462846FEF7FBFD206800F050FDA8
:102D200010B1337C002B35D03178206803F059F88E
:102D300018B14E492520FDF7C5FF206803F046F87D
:102D40004F4902462846FEF7E3FD96F90110206838
:102D500014F018F818B145492920FDF7B3FF01A96F
:102D6000206814F005F847499DF904202846FEF72D
:102D7000CFFD7188206803F05CF818B13B492F2023
:102D8000FDF7A0FF206803F050F83F4902462846AF
:102D9000FEF7BEFD0122002101A825F065FB337975
:102DA000002B5AD09DF80430B168206843F002032C
:102DB0006FF300038DF8043003F054F89DF804100D
:102DC00020680CF04EF918B128494520FDF77AFF2C
:102DD000F16811B120680CF012F90121206802F0AD
:102DE000B8FC18B121494C20FDF76CFF206800F0B9
:102DF000E7FC08B9337C4BB3012120680CF050F993
:102E000018B11A495120FDF75DFF20492846FEF709
:102E10007BFD206802F0DAFF1D4902462846FEF7D6
:102E200077FD206803F001F81A4902462846FEF7AC
:102E30006FFD20680CF0E8F8174B184A184910F09D
:102E4000010F18BF1A462846FEF762FD2268154991
:102E5000104601F001FD02B070BD9DF8043043F052
:102E60000F038DF80430A9E7241400201C5B030035
:102E7000C4B90300ECB90300485B03005B5B0300CB
:102E80006E5B0300815B0300925B0300A65B0300A3
:102E9000C95B0300DE5B0300F75B0300FF5B03001D
:102EA000085C03009D2C000010B50E4C206813F048
:102EB000BDFE01280FD10C4B01221A60F1EE103A31
:102EC00023F09F03E1EE103AF1EE103A074B402257
:102ED000C3F8842110BD206813F0A8FE0028EAD0B2
:102EE000ECE700BF241400201090004000E100E057
:102EF00010B5074C22681AB906497220FDF7E2FEA8
:102F000020680CF071F810B9FFF7CEFF20BF10BD9C
:102F1000241400201C5B030010B5074C23681BB968
:102F200006498420FDF7CEFE20680CF051F8206899
:102F3000BDE8104014F088B9241400201C5B030085
:102F4000014B1868704700BF241400200448054B4B
:102F50000549C01AC008000440F00300FEF7D4BCC5
:102F6000ECB90300C4B90300885C030010B541F25A
:102F70003361044600F0E8F918B105491C20FDF75B
:102F8000A1FE204600220349BDE8104000F0E1B94F
:102F90005E5C03004D2F00002DE9F04106468EB027
:102FA00088461846344914461F4602F0E6FB01469F
:102FB00070B1324B32483349C01AC008000440F0A7
:102FC0000300FEF7A1FC072420460EB0BDE8F08107
:102FD000304600F0A1F9054658B9284B28482A493F
:102FE000C01AC008000440F00300FEF78DFC032463
:102FF000EAE74246214600F09AF90221284600F00D
:1030000098F91499284600F096F9284600F095F9A9
:10301000BDF858201599284606F0DDFB0446002827
:10302000D2D101462C2203A825F01EFA01238DF8E7
:103030003030102241F23363394607A8ADF82E3004
:1030400025F014F92346009603AA2946304600F0DD
:1030500076F904460028B7D0084B09480B49C01A36
:10306000C0080004224640F00300FEF751FC284649
:1030700006F0AFFBA8E700BF4E5C0300C4B9030035
:10308000ECB90300CC5C03000E5D03003C5D030063
:103090002DE9F0418EB003AD0C4606460021904666
:1030A00028462C221F4625F0DFF901238DF8303009
:1030B0002046352307A9ADF82E3002F060FB044608
:1030C00058B98DF80800149B3A4669463046CDE958
:1030D000008500F0EDFF044648B10748074B08495A
:1030E000C01AC008000440F00300FEF70DFC2046A3
:1030F0000EB0BDE8F08100BFECB90300C4B9030015
:103100005E5D0300054B1B68082B01BF044B18686C
:10311000B0FA80F0400918BF00207047300100105D
:103120003401001008B54FF080430022C3F80C2191
:10313000C3F81021C3F838254FF0805203F54043FF
:10314000D2F80414C3F82015D2F80814C3F82415D3
:10315000D2F80C14C3F82815D2F81014C3F82C15A3
:10316000D2F81414C3F83015D2F81814C3F8341573
:10317000D2F81C14C3F84015D2F82014C3F8441533
:10318000D2F82414C3F84815D2F82814C3F84C1503
:10319000D2F82C14C3F85015D2F83014C3F85415D3
:1031A000D2F83414C3F86015D2F83814C3F8641593
:1031B000D2F83C14C3F86815D2F84014C3F86C1563
:1031C000D2F84424C3F87025FFF79CFF10B1384BA8
:1031D000384A1A60FFF796FF18B1374BFB22C3F845
:1031E0001825FFF78FFF48B13449354B0A681B6833
:1031F00022F00F0203F00F0313430B60FFF782FF6F
:1032000018B1304B4FF400721A604FF08043D3F87E
:103210000024D20744BF6FF00102C3F800242A4AF9
:10322000D2F8883043F47003C2F88830BFF34F8F70
:10323000BFF36F8F4FF01023D3F80022002A03DB77
:10324000D3F80432002B2FDA204B0122C3F80425D7
:10325000D3F80024002AFBD04FF010221221C2F82C
:103260000012D3F80024002AFBD04FF010231222C2
:10327000C3F80422154B1A46D3F800140029FBD0DA
:103280000021C3F80415D2F80034002BFBD0BFF3A3
:103290004F8F0D490E4BCA6802F4E0621343CB60B6
:1032A000BFF34F8F00BFFDE70A4B0B4A1A6008BD02
:1032B0008C5600404881030000F00040E40E0040BE
:1032C000580200104096024000ED00E000E001408E
:1032D0000400FA05080000200090D0030649074AC0
:1032E000074B9B1A03DD043BC858D050FBDCFFF7AB
:1032F00019FFFCF7A5FF000038BA0300000000200A
:10330000380A0020FEE7FEE7FEE7FEE7FEE7FEE7FD
:10331000FEE7FEE7FEE7FEE711B14B78022B04D88B
:1033200000F5A74030300DF007BD0020704700F0D9
:1033300031B800F0F9B900F0E2B800F093B900F547
:10334000A74030300EF010B800F5A74030300EF036
:10335000EDB900F5A74030300DF0EBBC38B500F109
:10336000350424F00104054618220021204625F0EA
:103370007BF8237803F03F0343F0400323700021E0
:10338000284605F051FE0421E1822846BDE8384078
:1033900005F007BE70B504460D461646FFF7DEFF82
:1033A00004F1350020F001000178467021F0300171
:1033B0000D43057070BD00F1350323F001030021BA
:1033C0001A7802F00F02043205F0ABBE2DE9F3418A
:1033D00000F1350525F0010514466A8A0F46694655
:1033E0009846BA424FF00003064600930B7173D81B
:1033F000BA1A92B2601C0C2A80B204D9B2F5867F48
:103400008CBF0223012303440C2C9BB22BD9B4F5AF
:10341000867F8CBF02200120B6F81EC003441CFA30
:1034200083F3B3F5007F59DA0C2A1ED812018DF808
:1034300000200DF101020C2C9DF8003030D8234300
:103440008DF80030521A92B2304605F0F5FE224651
:103450004146304605F0F0FE6F82F38BEB82002090
:1034600002B0BDE8F0810020D6E7B2F5867F08D82B
:103470000D3AD0238DF801208DF800300DF10202B5
:10348000D9E76FF48670024492B2E0238DF80030E1
:1034900013128DF802208DF801300DF10302CAE7F6
:1034A000B4F5867F08D843F00D038DF80030A4F101
:1034B0000D0313700132C5E743F00E038DF80030A1
:1034C0006FF48673E3189BB210464FEA232C00F882
:1034D00002CB53700246B5E70720C1E70320BFE7E0
:1034E00070B50546104614460E4625F069FD234684
:1034F00082B231462846BDE87040FFF767BF70B51D
:1035000006460C462F21204625F00EFB054648B105
:10351000021B234692B20B213046FFF757FF40B9FA
:103520006C1CEFE7224630460B21BDE87040FFF7E8
:10353000D7BF70BDF7B500F1350424F00104C38B8B
:10354000218A8B42054602D8002003B0F0BD6B46AD
:10355000052205F094FD9DF80010208A0E11471CED
:1035600001F00F010C2EB2B28BB2278234DD0D2E8A
:103570001DD19DF80120023020820D320DF1020094
:103580000C2906D90D292AD10378218A0D3301315E
:103590002182218AE88B401A83421ADCA589E381C3
:1035A0002A440B4404F10C00A2812382CDE70E2AA9
:1035B0000DD19DF801609DF8022042EA06220330F9
:1035C00002F20D12208292B20DF10300D8E70F290A
:1035D000BAD000202082B8E70DF10100D0E70E2B11
:1035E000F7D10178437843EA0123218A03F20D13CE
:1035F0009BB20231CCE738B500F1350424F0010468
:1036000005460422002104F10C0024F02DFF22784D
:10361000A38AE98B02F00F020432C91A91420ADB35
:1036200013449BB22382EA8B9A4204D92846BDE810
:103630003840FFF77FBF002038BD38B500F13504B2
:1036400024F001040B46258A55B1E289AD1AA9B2CE
:1036500005F015FDE389834214BF0620002038BD24
:103660001720FCE713B5FF238DF80730C38BB3F5A4
:10367000007F04460DD201220DF1070105F0DCFDAB
:10368000353434F8173C24F001040020E38202B002
:1036900010BD0320FBE770B500F1350424F00104F0
:1036A000828B231A1C3B9A42054600D2FEE7182261
:1036B0000021204624F0D8FE298CA18223460C222A
:1036C000284605F0DCFC2846FFF795FF064618B1B2
:1036D0002846FFF72FFFF9E7218A41B1A38AC91ACB
:1036E00089B2E182284605F092FC304670BD062082
:1036F000FCE770B500F1350525F0010506462B788D
:1037000002F00F0023F00F0303432846144600F88D
:10371000043B24F0ABFDE98A214489B2E9823046BA
:10372000BDE8704005F03DBC082973B506460D465E
:1037300000D9FEE70024CDE90044AC4205D00AF0F0
:1037400061FD0DF804000134F7E722466946304672
:10375000FFF7CFFF02B070BD38B544220C462021E0
:103760000546FFF717FE04F1350121F0010105F1CF
:10377000350323F001034A885A8011F8042B2846A8
:1037800002F00F02BDE83840FFF7B3BF38B5054679
:1037900005F0DFFF044648B105F135013530182248
:1037A00021F0010120F0010024F060FD204638BD29
:1037B00021B100F586406C3000F0AAB807207047B0
:1037C00000B59BB06946FFF7F3FF9DF86430C3F383
:1037D000800058B1C3F3C00040B1C3F3001028B15A
:1037E000D8091CBF9DF8650000F001001BB05DF812
:1037F00004FB00BA704738B5437B027300250446CA
:1038000065F30003856043730622294624F02CFEED
:10381000A571E571204638BD10B5017BA1F10E03FD
:1038200059420446594109480AF0AEFD06220021DA
:10383000204624F019FE637B002203F0FE0362F3AE
:103840004103A271E271637310BD00BF74140020C4
:10385000F8B50E46017BA1F10E03594207463246E8
:1038600059411B480AF06EFD054620B10023A6F819
:1038700004312846F8BD3B7B0E2B0CD1332130465A
:103880000EF00AFC342130460EF006FC12F091FDD9
:10389000C6F80001EDE7342130460EF071FA044617
:1038A0000028E6D0BF6812F084FDC71BD4F80200E0
:1038B000FFF79FFF874205D2C01BFFF79AFFC4F8AE
:1038C0000200E3E7A570E57025716571DEE700BFD2
:1038D0007414002070B5437B6FF3000343730446F8
:1038E0000E46FFF7B5FF054680B9637B43F0020340
:1038F000637330460EF04CFB024638B100685168E5
:10390000234603C3637B43F001036373284670BD02
:1039100030B5C3B004460D46017B68460EF004FA8C
:1039200068220021284624F09FFD20466946FFF7C3
:103930008FFF044618B9294668460EF02FFA204634
:1039400043B030BD70B50D46017BB5F80461A1F1FF
:103950000E03594204465941C6B914480AF014FDF1
:10396000637B66F34103637328460EF011FB034645
:10397000B0B159680068224603C2637B43F001037B
:10398000637312F016FDA060002070BD2A46074840
:103990000AF05EFC0028F8D1637B43F00203E2E703
:1039A000627B60F300026273EBE700BF74140020D7
:1039B000437B03F0010309B9584270470BB10BF088
:1039C000D9BD0120704738B50D46044612F0F1FC10
:1039D0002A4601462046BDE838400BF06BBD10B5C5
:1039E00006220446002124F03FFD0023A371E37169
:1039F00010BD000007B5054B01A91B88ADF80430C8
:103A00000DF09AF903B05DF804FB00BF7D5D030083
:103A100038B5044604301D46FFF7EDFE059B227FB6
:103A200023620023636204F120036FF30002C4E900
:103A30000A35049B227704F114002363FFF7CFFFBC
:103A4000204638BD037F13F0010314BF143018461D
:103A50007047000030B5C3B00446017C68460EF0E4
:103A600063F904F120000BF0EFFC237F6FF30003F8
:103A700023776946201DFFF72DFF0546A8B9684644
:103A80000EF086FA024640B10068516804F1140352
:103A900003C3237F43F001032377237C0E2B04D140
:103AA0000022034968460EF006FB284643B030BDAD
:103AB0002814002010B5C2B0017C044668460EF000
:103AC00033F96946201DFFF7C3FE20B902460349BA
:103AD00068460EF0F0FA42B010BD00BF2814002076
:103AE00010B504461430FFF77AFF237F6FF300030D
:103AF000201D2377FFF790FE04F12000BDE8104061
:103B00000BF0A2BCFFF7A6BFF7B50023044608469A
:103B10000E468DF807300EF03BFA054668B9271DB2
:103B200029463846FFF744FF9DF80750DDB131467E
:103B30003846FFF707FF002013E00068696804F1CA
:103B4000140303C3237F43F001032377237C0E2B4D
:103B5000E5D10DF10702094930460EF0ACFA002814
:103B6000DDD003B0F0BD0028E1DCFAD004F1200084
:103B70004FF47A71FFF727FF2846F2E72814002058
:103B800030B5C3B004460D46017C68460EF0CCF853
:103B9000201D6946FFF75CFE044678B9352168466A
:103BA0000EF0EEF848B105F021F938B1054A44F2BB
:103BB000BC43D3581840286000B91724204643B0AE
:103BC00030BD00BF28140020F0B5D1B0044603ADCD
:103BD0002C220021284624F047FC217C0EA80EF060
:103BE000A3F82048FFF706FF0646B8B302220021DB
:103BF000FFF7D0FB02213046FFF796FD216B3046E0
:103C0000FFF77DFC3046FFF72DFD0EA9201DFFF7C5
:103C10001FFEBDF83C210EA9304605F00DFB044601
:103C2000C0B9114F97E80F0085E80F004FF47C42B0
:103C300007A9A7F5C67006F081FA4FF2BF036B849F
:103C40002A46009423463146A7F5E8600DF08CFB28
:103C5000044620B1304605F0A0F900E003242046D8
:103C600051B0F0BD0C5600204C5D002070B50446EC
:103C7000C2B0184805F038FF48B3217F251D11F068
:103C8000010118BF04F114012846FFF791FE002836
:103C90001DDA267C0E2E11D1332168460EF044F831
:103CA00069460D48FFF7D4FD314668460EF068F8C6
:103CB00020B1811C2846FFF77BFE40B12046FFF76C
:103CC00083FF4FF47A7104F12000FFF77CFE42B0CD
:103CD00070BD00BFC05B0020D857002008B500F0C1
:103CE0007DFD00F586406830BDE80840FFF7BEBFA7
:103CF00008B500F073FD00F587402C30BDE80840A2
:103D0000FFF7B4BF2DE9F041C4B004468846017CFA
:103D10009DF8286102A817461D460EF005F802A975
:103D2000201DFFF795FD2D48FFF764FE044600288F
:103D300050D04146FFF710FD2046FFF793FCCEB16F
:103D4000013DDFF89C802E44AE4231D015F8011FB2
:103D5000052903D198F90030002BF5DA02A80EF0FE
:103D60000FF801460028EFD0204605F07DFA002824
:103D7000EAD019E0BDF80C61DFF8648002AB1E44A4
:103D80001D46B54214D22B78052B07D198F9003087
:103D9000002B03DB6B7802331D44F2E729462046F3
:103DA00005F062FA0028F5D0204605F0F6F811E09B
:103DB000E38B218C994204D1013989B2204605F068
:103DC000F0F8002300933A46214604480DF0CCFA5F
:103DD0000028E9D144B0BDE8F08100BF0C560020B6
:103DE000D05800202DE9F04FB1F820B0C5B0804682
:103DF0000D469246EB8B5B450AD80026009604AB35
:103E0000524629464046FFF77DFF45B0BDE8F08F9A
:103E100003AB02225946284605F031F99DF80C30D3
:103E20009DF80D400D2B1ED11FFA84F904AF0BF144
:103E300002013B464A4689B22846264605F01FF94C
:103E4000002CDAD00D49D8F82C0024F0EDFE002823
:103E5000D4D183B299450BD901303B1813F8013CFA
:103E6000342BF6D1CAE70234A3441FFA8BFBC1E717
:103E700001BF661C34233B55F6B2BFE78E5D0300DD
:103E8000FFF7B0BFFFF7AEBF37B50C4B0C4D01933A
:103E90000C4B00930E222B460446FFF7B9FD0A4B4C
:103EA0006563C4E90E340023236404F13401074838
:103EB0000CF021FF204603B030BD00BFDD3C000008
:103EC0007F5D0300845D0300813E00000C560020EE
:103ED000437CC3F3400323B1037FC3F3000383F0A8
:103EE000010318467047F0B5C3B014461F46054697
:103EF0000E46017C68460DF017FF21469DF82031E3
:103F00003A4668460EF04CF8044638B931466846E1
:103F10000EF0A2F869462846FFF7F6FD204643B0AA
:103F2000F0BD000037B50F4B0F4D01930F4B0093C1
:103F300004462B463322FFF76BFD04F13402C4E93B
:103F40000F250B4B0B4A63630023A363C4E91124C1
:103F5000E36404F1400108480CF0CDFE204603B0B4
:103F600030BD00BFF13C00008E5D0300895D0300A1
:103F70009D400000853E00000C56002010B5044610
:103F8000FFF7AEFD04F13400BDE810400BF05CBA61
:103F900010B5C2B00446017C68460DF0C5FE04F1C0
:103FA0001400FFF71CFD237F6FF30003237769469E
:103FB0002046FFF7A9FD42B010BD10B5C2B00446BF
:103FC000017C68460DF0B0FE6946201D3434FFF7D1
:103FD0003FFC20460BF038FA342168460DF0D0FE45
:103FE00058B1D0F80200FFF704FC021EB8BF6FF012
:103FF0000042409920460BF05DFA42B010BDF0B58A
:10400000C3B015461F4604460E46017C68460DF0B7
:104010008BFE29469DF820313A4668460DF0C0FFD8
:10402000054650B9314668460EF016F869462046F6
:10403000FFF76AFD2046FFF7C0FF284643B0F0BDFA
:1040400070B5C2B0017C044668460DF06DFE69464D
:10405000201DFFF7FDFB342168460DF091FE80B175
:10406000D0F80200A66B409DFFF7C3FB751B85428D
:1040700007D2421B314604F134000BF01BFA42B068
:1040800070BD68460EF089F869460348FFF73CFDAD
:104090002046FFF773FFF2E79057002008B500F0C5
:1040A0009DFB00F587402C30BDE80840FFF7C8BFF6
:1040B00000F58540503000F0E9B810B50C46C98BCA
:1040C00033390346332289B2204604F0D8FF33281F
:1040D00000D0FEE710BD000038B5044608490025B1
:1040E0000BF025FB258704F13C0005F04BF9054B4F
:1040F000C4E9103504F14003A364204638BD00BF75
:10410000AC5400202346000010B586B004461422AB
:10411000002101A824F0A8F92246054920460BF009
:104120003BFB18B901A920460BF080FB06B010BD7F
:104130004947000038B500220D460C210BF098FBD2
:10414000044638B129460C2205F03AF800212046F1
:1041500004F06AFF204638BDF8B50C461746054600
:1041600012F027F9E18B0646204605F0F2FA0446E4
:10417000B8B13322394605F05FF8A0B921460122D3
:1041800005F13C0005F0C8F9AB6CF96805F1400099
:10419000984203D06B6C5B1A002B02DD891BFFF782
:1041A00012FC2046F8BD204604F0F7FE0024F8E794
:1041B000F8B5044600F13C0630460F4605F0F1F92B
:1041C000A36C04F140059D4206D0304605F019F974
:1041D00010B928460BF038F93846BDE8F84004F02D
:1041E000DCBE70B504460846C98B333989B2164621
:1041F00005F0AFFA054640B10146324620460BF0C5
:1042000079FB044618B9204670BD0324FBE7284615
:1042100004F0C3FEF7E72DE9F74302AD002405F8EB
:10422000014D0E469046A146E7B29DF8073018F8BA
:1042300007202E2A00D00ABB2BB301222946304684
:1042400004F0FAFFB8B99DF8072008EB09013046E1
:1042500004F0F2FF78B99DF807308DF807000133BC
:104260004B445FFA83F918F8073053B90122294605
:10427000304604F0E1FF03B0BDE8F08301338DF870
:1042800007300134D0E70720F5E70000F0B593B020
:104290000F46164600213322054605A81C4624F089
:1042A000E3F80C22002102A8CDE9066424F0DCF832
:1042B0003D4B01933B68002B71D07B68002B6ED087
:1042C0002B8F5A1C5BBA2A87ADF808309DF80A304C
:1042D0003A7A03F007038DF80A301AB943F0010364
:1042E0008DF80A304FF4807302A92846ADF80C30DF
:1042F000FFF720FF0646002853D001463A682846BB
:10430000FFF789FF0446002847D104220DEB020184
:10431000304604F091FF044600283ED1D7E900342E
:10432000059312F046F800F6B8300890234609AF1E
:1043300004F1100C186859683A4603C20833634503
:104340001746F7D1628CADF844200DAF03F1100C85
:10435000186859683A4603C2083363451746F7D1CF
:10436000002305AA314628468DF84630FFF7F4FEB3
:10437000074688B12246314628460BF0BBFA044670
:1043800038B1304604F009FE1FB139462846FFF720
:104390000FFF204613B0F0BD03240027F1E70724E8
:1043A000F7E70324F5E700BF001C00012DE9F04703
:1043B000D48B158C3F3C641B0C3588B089469046E5
:1043C0001F46A4B2ADB22CB3102C22466B4628BFB8
:1043D00010222946404604F052FE824618B90620B3
:1043E00008B0BDE8F087024604AB3988484604F0BF
:1043F00046FE50450646F2D10246694604A823F01F
:1044000003FF48B93B8835443344A41B3B80ADB21D
:10441000A4B2D8E72046E3E71720E1E7F0B5168815
:10442000CC8BA41B85B00F461546A4B204B36B46D3
:1044300010223146384604F022FEC8B100218AB26B
:10444000B31890429BB20FD91DF8012022B9013355
:104450002B80002005B0F0BD02F0C002C02A01F19F
:104460000101ECD10233F3E7241AA4B21E46DDE7C2
:104470000620EFE773B53C300D46164604F0C1FF49
:104480000446A8B10DF106030222018C04F0F7FDE9
:10449000022800D0FEE72A88BDF8063052BA5BBA7F
:1044A00092B29BB29A4206D121463046FFF705FEF2
:1044B000204602B070BD204604F0E5FFE0E72DE99C
:1044C000F04114461E46069F9DF81C80FFF770FEC3
:1044D00065684DB12168A068CDF818803B4632462A
:1044E000AC46BDE8F0416047BDE8F0812DE9F04100
:1044F000054690B03C3004F084FF3322044600218E
:1045000003A823F0B1FF4FF00B0800278CB1204621
:1045100004F0B9FF2146064603A8FFF7CEFD214669
:10452000CDE90078002303AA2846FFF7C8FF3446E8
:10453000ECE728460BF05AF910B0BDE8F0812DE900
:10454000F04F9BB0074611F034FF33220021804624
:104550000DA823F089FF07F13C0004F052FF02AEE2
:1045600004462C220021304623F07EFF4FF0FF3519
:104570004FF01C0908F6B83B002C48D0204604F048
:1045800082FF214682460DA8FFF797FD109BA8EBFE
:104590000302002A06DAA3EB08039D4228BF1D464A
:1045A0005446E9E79DF86630012B26D801338DF893
:1045B0006630E18BCDF840B033390DAB332289B290
:1045C000204604F0AEFD109BA3EB08039D4228BFDC
:1045D0001D4615AB0FCB0DF1180C8CE80F00BDF884
:1045E0006430ADF82A3011AB0FCB86E80F003246AD
:1045F00021463846FFF7F5FDD2E70023CDF80490B9
:1046000000930DAA21463846FFF759FFC8E76B1CF7
:1046100004D0294607F14000FFF7D5F91BB0BDE8EB
:10462000F08F08B500F0DAF800F585405030BDE8AD
:104630000840FFF784BF2DE9F0410C229AB00D46E7
:10464000064600210DEB020023F00EFF332200216D
:104650000DA823F009FF298C03AB0C22284604F097
:104660000EFD0C28014659D19DF80E30DA0955D0BF
:10467000BDF8104064BAA4B2012C4FD19A074DD4B2
:10468000284604F0C4FC2B8CADF80A300DAA03A90F
:104690003046FFF7EFFE074600283FD09DF80F3069
:1046A0001B074BD102460DF10A0329463046FFF79E
:1046B0007DFE0446002841D18046BDF812305BBA29
:1046C0009BB2434539D90DF10A0229463046FFF71E
:1046D000A5FE044690BBBDF80A10EB8B01F10A025F
:1046E0009A422FD806AB1A22284604F0C8FC1A2892
:1046F00017D1BDF81830B3F5E05F12D1BDF81A300C
:10470000B3F5807F0DD1079B1BBACDE900340DF1C5
:1047100022030DAA39463046FFF7D1FE1AB0BDE894
:10472000F081BDF820305ABABDF80A300A3313447C
:10473000ADF80A3008F10108BFE7172400230194FF
:104740000093E6E70624F9E7FFF775BF38B50025C3
:104750000446C0E9005508300AF0F6FB2146C4E9DA
:104760000455C4E9065504F1200009F0D3FC04F116
:104770004D0003F01DF904F14E0009F031FD04F184
:1047800050000EF093FB04F580402146503000F0BD
:104790007BF804F58240214640300AF0DDFC04F548
:1047A000A740214630300CF0AFFF04F5A8400122AD
:1047B000214630300CF0E8FF04F5B340214640308C
:1047C00004F029FE04F529402146D83001F0F7FB1A
:1047D0004AF6EC132046E55438BD00000048704707
:1047E000281400204AF6EC1370B501250446C55480
:1047F0004C3009F027FD04F58F40183005F05EF8C5
:1048000020460AF069FC80B12946204600F0A1FF4D
:10481000064650B9294620460AF042FC28B13146E6
:104820002046BDE8704000F094BF70BD10B54AF658
:10483000EC13054CE35C2BB92046FFF787FF2046BD
:10484000FFF7D0FF004810BD28140020FFF7EEBF8F
:104850004AF6EC13C05C7047203009F071BC0000D0
:1048600000487047935D0300437C5A0701D400F071
:1048700070BEC3F3C30070478A1E012303704270E9
:104880000021023023F0F0BD38B5002304460D4668
:1048900003704370C0E90133C360103004F0B5FD0C
:1048A00023460E4A294604F120000AF049FB294616
:1048B00004F1280001F04AFA294604F12C000EF018
:1048C0004EFC294604F134000AF046FF294604F163
:1048D000480001F00DF8204638BD00BFD15300005C
:1048E0003031134602488AB2002104F021BF00BFD4
:1048F000E86D0020024B00F03800185C704700BFE4
:10490000D75D030020B102280CBF20200020704793
:1049100008207047102204F0E5BC70B51E4605461D
:104920000C460020114604F0D6FC314604F0D3FCBE
:104930002946FFF7EFFF2146BDE87040FFF7EABFC9
:1049400030B587B0144692798DF8042000230D46C7
:1049500004F1080202A94830ADF80830ADF8103073
:104960008DF8053000F0E4FF9DF8093004335B0753
:1049700015D19DF809200232D2B202A9284604F0CE
:104980001FFCD0B9022201A9284604F019FCA0B9E5
:10499000A388A0715BBA08335BBAA3800DE0022143
:1049A00004A8FFF769FF9DF811200232D2B204A9D2
:1049B000284604F005FC0028DBD007B030BD2DE907
:1049C000F04F0E468FB004AB28220021304604F091
:1049D00056FB9DF816400CB100200FE001AB0222FF
:1049E0002821304604F04BFB9DF80570F38B01370E
:1049F000FF0007F1280A534503D206200FB0BDE897
:104A0000F08FA046A1462A25A34602AB02222946E2
:104A10003046ADF808B004F032FB9DF80830012BA9
:104A200050D04CD36D2B52D1B9F1000FE5D19DF888
:104A30000980B8F1040FE0D82A2D03D19DF8053084
:104A4000002B3AD005F10803534508BF012408F1B3
:104A500002032B44A9469DB25545D6D3CDD1002C97
:104A600048D02037A7F10805ADB202AB082229468D
:104A7000304604F004FB394602AB0822304604F00D
:104A800050FB072D2F46EDD80821304604F0E5FAFB
:104A9000B9F12A0F22D19DF804308DF81630BDF8F7
:104AA00014305BBA083B5BBAADF81430282204AB73
:104AB0000021304604F035FB8EE70124C7E70135BD
:104AC000ADB2C9E79DF8093002331D44F8E79DF8FF
:104AD000093002331D44ADB20024BDE79DF8053016
:104AE000013B8DF80530022201AB2821304604F04D
:104AF00018FBD4E7B9F1000F3FF46EAF08F10201E3
:104B0000C9B202A8ADF80840FFF7B6FE9DF809202B
:104B1000023202ABD2B24946304604F002FB2046D4
:104B20006CE710B50446103004F05CFD04F1200081
:104B3000BDE810400AF026BA2DE9F3410C4698462C
:104B40000023ADF80430098C074616466B46022256
:104B5000204604F094FA0228014640D19DF8015005
:104B60006B1C258C05EBC305E38BADB2AB4236D392
:104B7000204604F04CFA0836218C8D4231D901AB25
:104B80000222204604F07BFA022828D19DF8043046
:104B900023B90121204604F03AFAEDE79DF80520FB
:104BA000218C02320A44AA4219D86D2B0BD198F8F5
:104BB00000303246214607F1480000F0BAFF50B1FC
:104BC00002B0BDE8F08103F0C003802B0BD0C02BF6
:104BD00009D0402B07D09DF805100231DAE70620F6
:104BE000EEE70020ECE70220EAE737B50D466B461A
:104BF000098C0822284604F042FA082801460ED102
:104C0000BDF802305BBA9BB2DA080AD113F0010496
:104C100007D1284604F0FBF9204603B030BD06203A
:104C2000FBE70220F9E72DE9F3419DF824700646E1
:104C30000C4690461D460FB92B7873B901AB022282
:104C4000218C204604F01BFA022821D12B782C2B32
:104C500014D004D83BB12B2B0CD000200BE03B2B05
:104C600008D03C2BF9D108AB424621463046FFF72D
:104C700063FF07E0022002B0BDE8F0812146304624
:104C8000FFF7B3FF0028F6D19DF804302B70D2E770
:104C90000620F0E7112B03D03A2B04D000207047F8
:104CA00034300AF0CFBE2C300EF0FABAF7B51F46FA
:104CB0009DF8203005460E4614460BB1042022E034
:104CC0004368002BFAD04378BBB3104600F0B8FB22
:104CD000D8B1204600F0DAFB0028EFD0112F1AD00F
:104CE0003A2F2AD1214605F12C000EF03FFA20B3CD
:104CF0006B460822318C304604F0C1F99DF8003033
:104D0000802B1AD1022003B0F0BD204600F0ACFB8E
:104D10000028DED1E2E76B460822318C304604F0F1
:104D2000AEF9BDF802305BBA9BB244F64C529342E6
:104D300013D04FF2BF0293421AD0F18B304604F0E9
:104D400008FD0446C8B101462846FFF738FE204654
:104D5000D5E9013198470020D5E7204600F05DFBFA
:104D60000028ABD1204600F00AFC0028E5D0A5E7DA
:104D7000214603480AF0F8FAF7E70320C3E700BF2B
:104D800068550020C3681BB9C160002008617047E6
:104D90008B420AD093F90C0091F90C20904204D078
:104DA0001A69002AF4D11961EFE718207047C36827
:104DB0008BB18B4204D10B69C360172008E0134606
:104DC0001A69002AF9D08A42F9D10A691A610020C9
:104DD00000230B61704717207047C06828B190F915
:104DE0000C308B4201D00069F8E7704738B5C468D1
:104DF0000D4634B12946204608F0EDF810B9246973
:104E0000F7E7204638BD2DE9F04F01F1100A87B0D1
:104E1000044691F9243001915046039300F099FB28
:104E20000026D4F80C90049035463446B9F1000FB2
:104E300000F08780504699F90C7000F0EEFA0028D7
:104E400036D0039BBB4277D1D9F804B0BBF1000F39
:104E500072D05946504600F0D2FB9BF81020824297
:104E600080462BD85846FFF7FFFC0290584600F0CA
:104E7000FBFAD0B9002C5BD05146584600F0C2FB7B
:104E800000285CD15846FFF7EFFC05902046FFF75D
:104E9000EBFC059A8242584613D2FFF7E5FC029BD1
:104EA000984222BF46463D465C46DBF814B0CDE74B
:104EB000504600F0BFFA0028C3D1C5E7049B029317
:104EC000D4E7FFF7D1FC05902046FFF7CDFC059A0B
:104ED0008242204608D9FFF7C7FC029B98423EBF9A
:104EE00046463D465C46E0E7FFF7BEFC03280ED091
:104EF0009BF81120D20718D4019B93F924201AB1F2
:104F0000BA4201D1BD4213D14645CED210E0584637
:104F1000FFF7AAFC0328EBD1204600F091FA002805
:104F20001EBF46463D465C46BFE7627CD307E3D4DE
:104F300046463D465C46B8E7D9F8109076E73D46D0
:104F40005C46019B204683F8245007B0BDE8F08FF3
:104F50002DE9F0411D46074690460E460FCD96B00E
:104F60000BAC0FC40FCD0FC495E8070084E8070011
:104F70000FAC10220021204623F076FA40F2FF33D6
:104F8000ADF83C304FF47C43ADF84A3060230193D8
:104F900040238DF80B30B8F804305BBA28335BBA85
:104FA000ADF8083094E80F0007AD85E80F0029231D
:104FB0000BA938468DF80A30FFF725FFC8B1034624
:104FC00003AC00F1100518685968224603C2083383
:104FD000AB421446F7D101AA31463846FFF7B0FC80
:104FE00020B9282201A9304604F0EAF816B0BDE83D
:104FF000F0811420FAE72DE9F04F074691F83300CD
:10500000B1F81E908BB0984600F003006023144660
:1050100000930D46FFF776FC06461846FEF7E9FBBF
:1050200066F39B50FEF7E5FB99FA99F3ADF804306F
:1050300094F825300090002B08BF402320468DF8BF
:1050400006808DF8073000F0CDF930B121463846A2
:10505000FFF7D9FE50BB142667E0204600F0EAF9BE
:105060000028F3D1234602AE04F1100C18685968E9
:10507000324603C2083363451646F7D104F11003E4
:1050800006AA04F1200C9B469246186859681646F9
:1050900003C6083363453246F7D1504600F0BDF9E8
:1050A00088B194F924309BB902263EE0034602AE53
:1050B00000F1100C18685968324603C20833634582
:1050C0001646F7D1DAE7504600F059FA0028E8D141
:1050D000584600F060FA00BB28226946284604F0D2
:1050E0006FF8064608BB4A464346514602A8FFF7FA
:1050F00014FCB8F1110F02461BD0B8F13A0F1ED0C4
:10510000584600F054FA00BB94F9243085F82F304B
:1051100029463846FFF705FD07E06A462946384626
:10512000FFF70EFC06460028D6D030460BB0BDE88F
:10513000F08F294607F134000AF0C9FCE0E7294660
:1051400007F12C000EF0ECF8DAE723466A46294610
:105150003846FFF7FDFE0028D6D00646E5E770B5D5
:10516000C4680E467CB165685DB13146284600F0E2
:1051700046FA2B7C834202D894F90C0070BD6D690D
:10518000F2E72469EEE74FF0FF30F7E738B5054660
:1051900008460C4600F04EF910B194F9240038BDD1
:1051A000204600F03AF90028F7D121462846FFF7BB
:1051B000D6FF0028F3DC224604F1100105F1280097
:1051C00000F0C8FD20EAE07040B2E8E72DE9F04FBA
:1051D0009DB011AF0C46039205932C229DF89C3094
:1051E000049300210646384623F03EF9214607A8DD
:1051F00000F04EFB0546002840F0C88009AB0FCBFD
:105200000DF1540C0DF134098CE80F0099E80F00F2
:1052100087E80F00059B8DF868309DF823308DF8E6
:1052200069304846269B1B9300F004F9804600280D
:1052300048D0039B002B34D14FF0000B4FF00108F6
:10524000DA46059B84F82F302821204603F0ECFE37
:105250001CAB9DF8222003F8562D2146CDE9008A8B
:1052600007AA3046FFF7DFFC0546002840F08E8095
:10527000BAF1000F5DD09DF81A30292B36D1218C60
:10528000204603F0EAFE049B0193269B0093039AB9
:10529000059B21463046FFF799FF28461DB0BDE823
:1052A000F08F4946039807F0FBFC824640B9039B08
:1052B00093F80DB0484600F07AF94FF00008C0E7C7
:1052C000AB46F7E749463046FFF790FD824658B9AE
:1052D000484600F0A2F80028AED0039BB3FA83F84A
:1052E0004FEA5818D346ACE7C346AAE7049A00929F
:1052F00021463A463046FFF7D9FC9DF81A303A4627
:1053000021463046FFF7C6FC88B9B8F1000F3DD002
:1053100039463046FFF73AFF8046B8B9049A009202
:105320009DF81A303A4621463046FFF7BFFC054645
:105330002CE0BBF1000FE8D0049A00929DF81A30DF
:105340003A4621463046FFF7B1FCDEE7039B33B116
:105350003378DBB19DF82330013B8DF823309DF885
:105360002320BAB11CAB072103F8552D204601229A
:1053700003F0D7FE41463046FFF72FFD60B10368CA
:1053800021461B6898470546002886D0204603F032
:1053900004FE82E70225F9E70425F7E7F7B505469D
:1053A00000F110070026384604F063F8044668B19F
:1053B0000146384604F031F994F92F300022CDE946
:1053C000006621462846FFF701FFECE703B0F0BD79
:1053D00008B5FFF703FA00F580405030BDE80840FB
:1053E000FFF7DCBF026842B9436833B9826822B96B
:1053F000C068B0FA80F0400970470020704702682A
:105400004AB943683BB982682AB9C06800F17F4352
:10541000584258417047002070470378FE2B07D14F
:10542000407800F0C000A0F1800358425841704716
:10543000002070470078A0F1FF03584258417047A0
:105440000346008970B95A89B2F57F4F0BD19A890A
:10545000FE2A08D19B7BFB2B05D883F00200C0F30A
:1054600040007047002070470346008960B95A89A0
:10547000B2F57F4F09D19A89FE2A06D1987BA0F117
:10548000FC035842584170470020704708B5014658
:10549000FFF7EAFF40B1C889A0F587501C38B0F586
:1054A000F85F8CBF0020012008BD836823B9C06865
:1054B000B0FA80F0400970470020704783680333DA
:1054C0000AD182894FF6FF739A4205D1837BFF2B65
:1054D00002D1C07BC00970470020704708B5014663
:1054E000FFF7E3FF40B90846FFF7E8FF20B9084699
:1054F000BDE80840FFF7B8BF08BD08307047083066
:1055000070470822104422F0B1BE10B508220446AC
:10551000104422F0ABFE237A83F00203237210BD05
:1055200010B508220C468118204622F09FFE2378F1
:1055300083F00203237010BD10B50C46002200F169
:105540000801204601F0ADFE237883F002032370AA
:1055500010BD08B50378FF2B024603D1407800F058
:105560000F0008BDFFF759FF38B91046FFF747FF96
:10557000002814BF00200E20F3E70220F1E708B551
:105580000378FF2B05D1FFF7E4FF831E58425841F3
:1055900008BD0020FCE708B50378FF2B05D1FFF715
:1055A000D8FFC31E5842584108BD0020FCE708B58B
:1055B0000378FF2B06D1FFF7CCFF032894BF002010
:1055C000012008BD0020FCE7102A70B528BF10227A
:1055D00006460024E5B2EB00AA42D8B20ED9335DEC
:1055E00001340D1915F8015CAB42F3D06B401A067B
:1055F00004D401305B00C0B2DBB2F8E770BD10220A
:10560000FFF7E2BF08B5102222F0FEFDB0FA80F0ED
:10561000400908BD08B5102222F0F6FD003018BF81
:10562000012008BD2DE9F04710220F460021044655
:1056300000F10F0522F018FF0022661E4FF0010E48
:1056400091461046944617F8013B03F0DF08A8F195
:10565000410ABAF1050F03F00F010BD809310132ED
:10566000D2B241EA0911042A1FFA81F91CD84FF07D
:10567000000EE8E73A2B5FD0B8F1000F16D152B117
:10568000B21CAA4210D84FEA292186F80290717004
:105690004FF000091646EBB1202B1DD038460022F2
:1056A000D1E7BEF1000F4CD106200DE02E2B0DD11D
:1056B00004F10B029642F7D80123BCF1000F12D17E
:1056C0009642F1D1C3B90020BDE8F087303B092BE9
:1056D000C5D9E9E72A46F0E72A460023EDE716F8A0
:1056E000011902F8011966451146F8D800228E42C8
:1056F000E8D201F80129FAE704F10C03002210F8BE
:10570000011B2E2920D009B1202907D1AB42CBD8CB
:10571000591C1034A1421A70C6D1D4E7A1F1300649
:10572000092EC1D802EB820201F00F0101EB420207
:1057300092B2FF2AE3D9B7E7002AA1D1BCF1000F4A
:10574000AFD13846B4467EE7AB42ADD81A700133CC
:10575000D4E738B54AF6D8130C46C55C5DB900F5F8
:105760008240403019B109F081FD284638BD09F06A
:10577000B9FD2046FAE70D20F8E7FFF743BF0B46D7
:1057800001461846FFF74EBF10B5012304460371CA
:105790000422002122F068FE204610BD70B591F869
:1057A0003240E40992B006460D4603D0012420465B
:1057B00012B070BD08AB28222146284603F05FFCDA
:1057C0002828F4D10EA8FFF728FE28B39DF826302C
:1057D000062B27D0112BEAD101AB0822282128461D
:1057E00003F04DFC0828E2D1BDF806305BBA9BB24D
:1057F00044F64C529342D9D032791AB14CF2270276
:105800009342D3D032880AB19342CFD07288002A13
:10581000CDD09342CBD1C9E70EA8FFF7B0FE002848
:10582000D4D1C4E703AB14222821284603F027FC77
:105830001428BCD1BDF80E305BBA9BB2E2E70288F7
:1058400043888A4203D08B4202D0172070470380DE
:10585000002343801846704700230B700B78012B00
:1058600004D830F813200AB10133F6E77047037803
:1058700003F0F003602B09D1808840BA80B2283051
:10588000B0F5A06F8CBF002001207047002070474A
:1058900038B50D460346044628220021284603F069
:1058A000EEFB28280DD12046FFF7E1FF48B1A08884
:1058B000EB8B40BA80B22830984214BF06200020FB
:1058C00038BD0620FCE770B505460E4614463AB1D1
:1058D00008F098FCC0B290FBF4F204FB1202D2B2C2
:1058E0002B7A99191144A41A69602C7270BD0000BA
:1058F00038B50D4B0025C0E90135031DC3600B4BC6
:105900000560C0E9043500F110030446C0E906351E
:10591000A03003F037FD8022294604F1200022F058
:10592000A3FD204638BD00BF395D0000CD5C0000FE
:1059300038B56D230B7004234B7000238B704378B4
:105940000C46591C4170E370C169054659B11046B7
:10595000FFF758FE38B1A37803F03F03A3706378D4
:10596000023B637038BDA37803F03F0343F040036C
:10597000A3706B885BBAA380F4E72DE9F0474FF082
:10598000000C00F120050E46174680462A4600F11D
:10599000A00EA9462C466346614692F803A0104625
:1059A000BAF1000F07D1002908BF1146C278002ABA
:1059B0003BD02BBBFEE71088B4F800A050450BD0BD
:1059C000564503D111B90133DBB21146634584BF9B
:1059D0009C46A1460023144686420AD19078381A84
:1059E00040B2002843D021B90028BEBF0133DBB24A
:1059F0001146043201337245DBB2CED14846D5E7B9
:105A00002288B24203D111B901337146DBB29C4501
:105A100024BF63460446012B29D981B1A94226D966
:105A200031F8043CB34222D1204681420C4616D2C2
:105A3000A94200D2FEE7421A081D22F0B1FC05235C
:105A40002680A770E370D8F80C3008F10400984263
:105A500003D14FF47A71FDF7B6FF002008E0EED9CC
:105A6000A84200D2FEE70C1F221A011DE5E7022022
:105A7000BDE8F0872DE9FF47054699460F46924657
:105A80009DF8308010F095FC0023CDE901338DF8AE
:105A90000C308DF803302B780646002B42D0F98B62
:105AA000384603F056FE044600283BD0B8F1000FFC
:105AB00014D10DF1030301220721384603F0DFFA68
:105AC0009DF803305A1E012B8DF803202DD90DF1BE
:105AD000030301220721204603F023FB4022314625
