:020000022000DC
:1060000000000120C1650200E9650200EB650200A5
:10601000ED650200EF650200F1650200000000007E
:10602000000000000000000000000000F365020016
:10603000F565020000000000F7650200F965020046
:10604000FB650200FB650200FB650200FB650200C8
:10605000FB650200FB650200FB650200FB650200B8
:10606000FB650200FB650200FB650200FB650200A8
:10607000FB650200FB650200FB650200FB65020098
:10608000FB650200FB650200FB650200FB65020088
:10609000FB650200FB650200FB650200FB65020078
:1060A000FB650200FB650200FB650200FB65020068
:1060B000FB650200FB65020000000000000000001C
:1060C000FB650200FB650200FB650200FB65020048
:1060D000FB650200FB650200FB650200000000009A
:1060E00000000000000000000000000000000000B0
:1060F00000000000000000000000000000000000A0
:10610000000000000000000000000000000000008F
:10611000000000000000000000000000000000007F
:10612000000000000000000000000000000000006F
:10613000000000000000000000000000000000005F
:10614000000000000000000000000000000000004F
:10615000000000000000000000000000000000003F
:10616000000000000000000000000000000000002F
:10617000000000000000000000000000000000001F
:10618000000000000000000000000000000000000F
:1061900000000000000000000000000000000000FF
:1061A00000000000000000000000000000000000EF
:1061B00000000000000000000000000000000000DF
:1061C00000000000000000000000000000000000CF
:1061D00000000000000000000000000000000000BF
:1061E00000000000000000000000000000000000AF
:1061F000000000000000000000000000000000009F
:1062000010B5054C237833B9044B13B10448AFF3F0
:1062100000800123237010BDE89C002000000000D6
:106220002C69020008B5034B1BB103490348AFF3C7
:10623000008008BD00000000EC9C00202C690200DA
:10624000154B002B08BF134B9D46A3F5803A002148
:106250008B460F461348144A121A00F003FA0F4BEC
:10626000002B00D098470E4B002B00D09847002001
:10627000002104000D000D48002802D00C4800F059
:10628000B9FA00F0CBF92000290000F013F800F073
:10629000B5F900BF00000800000001200000000068
:1062A00000000000E89C0020289D0020F567020007
:1062B000016802004FF0A0440C4D08B50323C4F858
:1062C000443745F00105D4F80435DA4302F40032CE
:1062D00003F40033C4F808254FF4FA76C4F80C35FB
:1062E0004FF47A40A847013EFAD1ECE7206902005A
:1062F0000C4B1B78062B10D10B4B1B681A070CD1CB
:106300000A4B186800F0F003302B08D000F0E000D2
:10631000A0F14003584258417047002070470120C7
:10632000704700BFE00F00F0E40F00F0E80F00F04E
:10633000094B1B78062B0CD1084B1B681A0708D198
:10634000074B186800F0F000A0F1300358425841A4
:1063500070470020704700BFE00F00F0E40F00F02E
:10636000E80F00F008B5FFF7C3FF28B17D4B7E4A68
:106370001B68C3F304231360FFF7DAFF10B17B4BF4
:106380007B4A1A60FFF7B4FF28B17A4B7A4A1B6840
:10639000C3F342331360FFF7CBFF20B1774AD368D2
:1063A00023F08073D360FFF7A3FF40B14FF0804329
:1063B0000022C3F80C21C3F81021C3F83825FFF7D9
:1063C000B7FF10B16E4B03221A60FFF7B1FF40B167
:1063D0006C4B05221A6001229A6700229A603F22C4
:1063E0005A60694B1B78062B50D1684B1B68190704
:1063F0004CD1674B1B6803F0F003502B46D14FF094
:106400008052644BD2F80414C3F82015D2F8081453
:10641000C3F82415D2F80C14C3F82815D2F81014B8
:10642000C3F82C15D2F81414C3F83015D2F8181488
:10643000C3F83415D2F81C14C3F84015D2F8201450
:10644000C3F84415D2F82414C3F84815D2F8281418
:10645000C3F84C15D2F82C14C3F85015D2F83014E8
:10646000C3F85415D2F83414C3F86015D2F83814B0
:10647000C3F86415D2F83C14C3F86815D2F8401478
:10648000C3F86C15D2F84424C3F87025FFF730FF29
:1064900028B1414B414A1B6803F04F031360FFF7DB
:1064A00027FF48B14FF08043D3F80024D20744BF00
:1064B0006FF00102C3F80024394B1B68062B08D18A
:1064C000384B1B68062B01BF374A136843F48063BF
:1064D0001360364AD2F8883043F47003C2F888302B
:1064E000BFF34F8FBFF36F8F4FF01023D3F800220D
:1064F000002A03DBD3F80432002B2FDA2C4B0122C5
:10650000C3F80425D3F80024002AFBD04FF0102252
:106510001521C2F80012D3F80024002AFBD04FF056
:1065200010231522C3F80422214B1A46D3F8001475
:106530000029FBD00021C3F80415D2F80034002B49
:10654000FBD0BFF34F8F19491A4BCA6802F4E062BF
:106550001343CB60BFF34F8F00BFFDE7164B174AC5
:106560001A6008BD240300104035014074C0074084
:106570000DF0ADBA440200103C050040F0ED00E023
:10658000A005004010560040E00F00F0E40F00F0BE
:10659000E80F00F000C0004058020010E40E004078
:1065A00030010010340100103C17004000ED00E005
:1065B00000E001400400FA05A89800200090D003F4
:1065C0000649074A074B9B1A03DD043BC858D050C5
:1065D000FBDCFFF7C7FEFFF733FE0000386902005F
:1065E000A8980020E89C0020FEE7FEE7FEE7FEE713
:1065F000FEE7FEE7FEE7FEE7FEE7FEE708B500215F
:10660000044600F083F8044B1868C36B03B1984745
:10661000204600F073F900BF2869020070B50D4EE6
:106620000D4D761BB61006D00024013455F8043BFE
:106630009847A642F9D1094E094D761B00F060F942
:10664000B61006D00024013455F8043B9847A64202
:10665000F9D170BDDC9C0020DC9C0020E49C002073
:10666000DC9C0020F0B4860743D0541E002A3ED0A4
:10667000CAB2034602E014F1FF3438D303F8012B09
:106680009D07F8D1032C2BD9CDB245EA05250F2C57
:1066900045EA054516D9A4F110073F0903F1200684
:1066A00006EB071603F1100242E9045542E90255D0
:1066B0001032B242F8D104F00F040137032C03EB7F
:1066C00007130DD91E462246043A032A46F8045BF6
:1066D000FAD8221F22F003020432134404F0030408
:1066E0002CB1C9B21C4403F8011B9C42FBD1F0BC85
:1066F000704714460346C5E7024B13B1024800F049
:1067000079B8704700000000016802002DE9F04FE1
:10671000354B85B00F460390186800F08BF8334B6B
:106720001B68019303F5A4730293B946019BD3F848
:1067300048613EB3DDF808A04FF001087468651E9B
:106740000FD4013406EB84040027B9F1000F20D0E8
:10675000D4F800314B451CD0013D6B1CA4F104045E
:10676000F3D1234B73B1D6E90032002A34D1002B88
:1067700032D03046CAF80030AFF30080DAF800605B
:10678000002EDBD1184B186805B0BDE8F04F00F0C3
:1067900053B873682268013BAB420CBF7560276039
:1067A000002AD9D0D6F88811D6F804B008FA05F333
:1067B0000B4208D1904773685B45B7D1DAF80030D7
:1067C000B342C9D0B2E7D6F88C01D4F880100342A6
:1067D00007D103989047EEE7B2461E46002EADD192
:1067E000D0E708469047E6E7D89C002028690200D9
:1067F00000000000002301461A46184600F01EB8AB
:1068000038B50A4C0A4D641BA4100AD004F1804329
:10681000013B05EB8305013C55F804399847002CF2
:10682000F9D1BDE8384000F071B800BFE89C002005
:10683000E49C0020704700BF704700BF2DE9F8437B
:106840002B4D0646286898460F469146FFF7F2FF03
:10685000284B1C68D4F84831002B3DD05A681F2AB9
:106860000DDC02F1010C16BB0232C3F804C028682B
:1068700043F82270FFF7E0FF0020BDE8F8831E4BCD
:106880007BB34FF4C870AFF30080034648B3D4F82D
:1068900048210021C0E900214FF0010CC4F8480153
:1068A0000A46C0F88811C0F88C11002EDCD003EB2A
:1068B00082010124C1F88890D3F8880194402043D4
:1068C000022EC3F88801C1F80881CDD1D3F88C110C
:1068D0000C43C3F88C41C7E704F5A673C4F84831EC
:1068E000BCE72868FFF7A8FF4FF0FF30C5E700BFFF
:1068F000D89C00202869020000000000FEE700BFCD
:10690000F8B500BFF8BC08BC9E467047F8B500BF9C
:10691000F8BC08BC9E467047000000000000000064
:106920000338FDD870470000B09800200000000038
:0869300010F9FF7F01000000D7
:106938000090D00300000000000000009C9B002095
:10694800049C00206C9C0020000000000000000057
:10695800000000000000000000000000000000002F
:10696800000000000000000000000000000000001F
:10697800000000000000000000000000000000000F
:1069880000000000000000000000000000000000FF
:1069980000000000000000000000000000000000EF
:1069A80000000000000000000000000000000000DF
:1069B80000000000000000000000000000000000CF
:1069C80000000000000000000000000000000000BF
:1069D80000000000000000000000000000000000AF
:1069E80001000000000000000E33CDAB34126DE64C
:1069F800ECDE05000B0000000000000000000000B5
:106A0800000000000000000000000000000000007E
:106A1800000000000000000000000000000000006E
:106A2800000000000000000000000000000000005E
:106A3800000000000000000000000000000000004E
:106D6800049D0020F966020025620200016202000B
:04000003200065C1B3
:00000001FF
