:1010000000000420D12E0000F92E0000CD180000B1
:10101000FD2E0000FF2E0000012F00000000000048
:10102000000000000000000000000000032F00008E
:10103000052F000000000000072F0000092F00000E
:10104000E92A0000C1490000B9360000112900005A
:101050000B2F00000B2F00009925000049270000EE
:10106000AD2800000B2F00000B2F00000B2F0000FD
:101070000B2F00004D3600000B2F00000B2F00003F
:101080000B2F0000FD1400000B2F00000B2F0000A1
:10109000991500000B2F00000B2F00000B2F0000F4
:1010A0000B2F00000B2F00000B2F00000B2F000058
:1010B0000B2F00000B2F00000000000000000000BC
:1010C0000B2F00000B2F00000B2F00000B2F000038
:1010D000353400000B2F00000B2F00000B2F0000F9
:1010E0000B2F00000B2F000099640000000000008F
:1010F000000000000B2F0000000000000B2F00007C
:1011000000000000000000000000000000000000DF
:1011100000000000000000000000000000000000CF
:1011200000000000000000000000000000000000BF
:1011300000000000000000000000000000000000AF
:10114000000000000000000000000000000000009F
:10115000000000000000000000000000000000008F
:10116000000000000000000000000000000000007F
:10117000000000000000000000000000000000006F
:10118000000000000000000000000000000000005F
:10119000000000000000000000000000000000004F
:1011A000000000000000000000000000000000003F
:1011B000000000000000000000000000000000002F
:1011C000000000000000000000000000000000001F
:1011D000000000000000000000000000000000000F
:1011E00000000000000000000000000000000000FF
:1011F00000000000000000000000000000000000EF
:1012000010B5054C237833B9044B13B10448AFF340
:1012100000800123237010BD000A002000000000A0
:10122000ACF5000008B5034B1BB103490348AFF30D
:10123000008008BD00000000040A0020ACF500009A
:10124000154B002B08BF134B9D46A3F5803A002198
:101250008B460F461348144A121A05F0ABFD0F4B8C
:10126000002B00D098470E4B002B00D09847002051
:10127000002104000D000D48002802D00C4808F0A1
:1012800041FF05F06BF92000290000F013F805F08C
:1012900041F900BF00000800000004200000000029
:1012A00000000000000A0020B420002005A100007A
:1012B000D5B200004FF0A0440C4D08B50323C4F88C
:1012C000303745F00105D4F80435DA4302F4805292
:1012D00003F48053C4F808254FF4FA76C4F80C35AB
:1012E0004FF47A40A847013EFAD1ECE730D4000031
:1012F00038B5054D044645F001054FF47A40A8473E
:10130000013CFAD138BD00BFB0D400007FB506461D
:101310000D46144672B600F07DFE00F0DFFC00289A
:10132000FBD13F4805F0FEFD44F201039E4264D02C
:1013300044F202039E426ED122886168394805F06A
:101340008FFD01F035F808B900F0FAFF0123002401
:1013500003A90420ADF80C408DF80E408DF80D3037
:1013600001F030F803A9052001F02CF803A90620AC
:1013700001F028F803A9204601F024F8042001F028
:10138000DDF8052001F0DAF8062001F0D7F800209A
:1013900001F0D4F84FF4FA70FFF7AAFF042001F02F
:1013A0009FF8052001F09CF8062001F099F8002034
:1013B00001F096F83220FFF79BFF042001F0BEF801
:1013C000052001F0BBF8062001F0B8F8002001F07C
:1013D000B5F84FF4FA70FFF78BFF042001F080F8A6
:1013E000052001F07DF8062001F07AF8002001F0D8
:1013F00077F8FA20FFF77CFFC0E7A668304600F0D8
:10140000DDFE019523680093024663680648314675
:1014100005F026FD95E72946044805F021FD90E7F3
:1014200036D400004ED4000069D4000093D40000EC
:1014300013B500F0BDFF08B900F082FF01230024BE
:1014400001A90420ADF804408DF806408DF8053060
:1014500000F0B8FF01A9052000F0B4FF01A90620A3
:1014600000F0B0FF01A9204600F0ACFF042001F01D
:1014700065F8052001F062F8062001F05FF8002011
:1014800001F05CF84FF4FA70FFF732FF042001F02E
:1014900027F8052001F024F8062001F021F80020AB
:1014A00001F01EF83220FFF723FF042001F046F878
:1014B000052001F043F8062001F040F8002001F07B
:1014C0003DF84FF4FA70FFF713FF042001F008F81D
:1014D000052001F005F8062001F002F8002000F0D8
:1014E000FFFFFA20FFF704FFC0E70000024B4FF4B4
:1014F0003C6043F001031847C0D40000F8B51F4B0F
:101500001F491B680025C1F84051C1F84451C1F87A
:101510004851C1F84C51C1F80051C1F804514BB3C6
:10152000D1F8044517490968641A24F07F442F460E
:101530001A68A24209D8A41A15441A7CDE691AB1A5
:101540001F74D3E905209047AEB90F4B0F4A1978A5
:1015500013788B4205D10133DBB2022B08BF002385
:10156000137012780A4B43F822500A4B4FF4801242
:10157000C3F80021F8BD3346DAE700BF3C0B00207A
:1015800000100140380B0020340B0020350B0020E8
:101590002C0B002000E100E02DE9F74F9C4A9D490B
:1015A000137809789C4D99423CD00133DBB2022B71
:1015B00008BF0023137099491278994B0F6853F8AC
:1015C00022003B1823F07F4300220B602B68164655
:1015D0001446944613B942B12B6006E01968814263
:1015E0000ED902B12B60091A19604FF001082B685F
:1015F000DFF834A200930027BEB9DFF834B260E010
:10160000401A0C44D968C3F800C0D3F81CE031B1CB
:101610003A1922F07F42C3E90121DE611E46012210
:101620007346D7E70026B046E1E73446F6697B4AC1
:1016300063681268DFF8FCC1A068991A21F07F4145
:10164000614500F2A58001442160012222742A68CC
:101650000023C4E90133E361002A40F0A2802C603A
:10166000CAE75A1C9BF80210D2B291428BF80020B4
:1016700004BF00228BF80020182202FB03B32A6863
:1016800019799C68022974D003297ED0012918D1C8
:10169000217CB1B9DA6862601A69A2605A699B69F3
:1016A000A361604BE2601B78002BC0D06160BEE795
:1016B0009C4200F090809946DB69002BF8D1002312
:1016C00023749BF800309BF801209A42C9D12B6803
:1016D0002FB9009A934202D1B8F1000F43D0002BEA
:1016E00041D0D3F800A0504D4C4BD5F804751C6880
:1016F000DFF844813E1B98F8003026F07F46033621
:101700009BB94FF48033C5F84433C5F80433474BD5
:101710004FF400324FF00109C3F880211A60C5F878
:101720000090FFF7E3FE88F80090B2452CBF5444C8
:10173000A41924F07F44C5F84045D5F80435DB1BD7
:1017400023F07F43E41B033324F07F44A3420AD9F0
:10175000D5F80435C5F84035FFF7C8FE334B4FF4D4
:101760000032C3F800212F4B00221A7003B0BDE8ED
:10177000F08F13469146A0E71174D2690123002A25
:10178000FAD1002B9DD02A609BE700231946F6E78B
:10179000D31A23F07F43834234BFC31A002323604C
:1017A00053E721681368994213D8591A1160E2610E
:1017B00055E7091AD8691A4638B1034618688842AD
:1017C000F7D3401A1860184613462160E061DC61C7
:1017D00012E71346F2E74C450DD1D3692B6053B99C
:1017E0000E4801920121CAF8081003600D4B1970D0
:1017F000FFF77CFE019AE1692368C9F81C1011B15A
:10180000086803440B602B689A4218BF012756E70B
:10181000340B0020350B00203C0B0020380B00203F
:101820002C0B0020280B00200010014000E100E0FC
:101830001C0A0020FEFF7F00290B002072B6024A1E
:101840001368013313607047400B0020034A13688C
:10185000013B136003B962B6704700BF400B002024
:10186000EFF30583C3F308032BB9EFF31480C043F0
:1018700000F00100704701207047000008B5FFF735
:10188000EFFF012803D00449432000F0BFF8BDE872
:101890000840FFF7D3BF00BFC6D4000008B5FFF76C
:1018A000DFFF012803D00449512000F0AFF8BDE864
:1018B0000840FFF7CBBF00BFC6D40000024B1B6837
:1018C0000021986805F014BD1C0000201EF0040FD4
:1018D0001CBFEFF309800AE0EFF308800549064AD0
:1018E000884201D8904202D88D464FF00000034B49
:1018F000184700000000042000E003200119000048
:101900002DE9F347044600F085FB00F0E7F90028D5
:10191000FBD1334D334E2888A2693349B76A00049E
:1019200040F0010000F052FB2888E36801930004B6
:10193000A36800932D49D4E9002340F0010000F092
:101940005BFB2888E36900930004D4E9042340F09A
:101950000100274900F044FBF36A980706D5288860
:101960002449000440F0010000F02CFBDFF89490C3
:10197000DFF894A000264FF0010808FA06F33B4276
:1019800009D059F8262032B128880004514640F089
:10199000010000F01BFB01361A2EEED1390608D5E6
:1019A0002888104B14495A6B000440F0010000F0E5
:1019B0000DFB3A0408D528880A4B10499A6B00049D
:1019C00040F0010000F002FB0D4B1B68DB0700D567
:1019D00000BE2046FFF72CFD02B0BDE8F08700BF37
:1019E000F809002000ED00E016D500002BD500001E
:1019F00060D5000088D50000D7D50000F7D50000DD
:101A0000F0ED00E014D60000CCD5000007B5ADF82D
:101A1000000001916A46002144F20200FFF776FCC3
:101A200003B05DF804FB50E8002F0B4640E8003C93
:101A30009CF0000FF7D11046704750E8003F43EA92
:101A4000010240E8002C9CF0000FF6D110467047D0
:101A500050E8002F02EA010340E8003C9CF0000F30
:101A6000F6D11046704750E8003F03EB010240E812
:101A7000002C9CF0000FF6D11046704750E8003F54
:101A8000A3EB010240E8002C9CF0000FF6D11046B9
:101A900070470121FFF7D1BF0021FFF7D9BF000038
:101AA00038B5044620B911494FF49270FFF7AEFFE4
:101AB0000020FFF7E3FE226863681168994213D99A
:101AC000481E106011F8015CE368A18A01FB05352E
:101AD000A36811791B1ADBB2994200D2137100205E
:101AE000FFF7DCFE284638BD0025F8E73CDB0000A8
:101AF00038B50C46054620B90E4940F24710FFF7AD
:101B000085FF24B90B494FF4A470FFF77FFF002035
:101B1000FFF7B4FE2A681368591C1160EA68A41A1A
:101B2000AA8AB4FBF2F41C700020BDE83840FFF72D
:101B3000B5BE00BF3CDB000008B5037813F0030F0F
:101B400003F0040202D012B9104608BDDAB103F066
:101B50000303012B07D0022B0ED00E494FF4A470C3
:101B6000FFF754FF06E00A6800880232C0F38310D2
:101B700002440A600120E8E70B684288023303EB65
:101B800092130B60F6E70B684288013303EB921364
:101B90000288F4E787DB00002DE9F04F484C87B05E
:101BA0000D460646871C00200092FFF767FE23685B
:101BB0002B60D4E901231344226801339B1A04F2F9
:101BC0001C4804F5836B04F21449BB4219D3009AF4
:101BD0000023002A6CD0012262F3010343F00403C6
:101BE00066F389132168A2680A4003320F4400207B
:101BF00044F822302760FFF751FE012007B0BDE80E
:101C0000F08F01214046FFF72EFF5846FFF741FFB6
:101C10000DF1180A4846FFF73CFF60684AF8100DBE
:101C2000A5682840033004EB80005146FFF784FF8D
:101C300002460298002AF4D105EA000304EB83036C
:101C4000811CDB6803930130054004EB850503F03C
:101C50000303012B0291ED6823D0022B08D0194910
:101C600001924FF4C270FFF7D1FE019A154607E0CA
:101C7000BDF80E309B0903332D0C01EB9303029347
:101C80004846FFF709FF08B1029B636029464046BA
:101C9000FFF7E9FED4E901231344226801339B1ABC
:101CA00093E7BDF80C30C3F383132D0C0B44E6E728
:101CB000022262F3010343F0040366F39F5391E7AA
:101CC000140C002087DB0000034BD3E90030C31A5B
:101CD00058425841704700BF140C00202DE9F043D2
:101CE00085B0FFF7F1FF0746002840F0F2807A4DFB
:101CF000C5F81804BFF34F8F6868AC680DF1100881
:101D000048F8100D2040033005EB80004146FFF7F6
:101D100013FF009B064600285FD104EA0302991CCA
:101D2000013305EB8202234005EB8303D268DB68B5
:101D3000029302F00303022B0192009162D1BDF8DD
:101D4000063066484FEA9318B8F1500FC14628BFD5
:101D50004FF0500969F38F1309F10801ADF806300F
:101D600000F0C4F90746002800F0A18000F0EDF96A
:101D7000334601A90822384600F0FAF9009924EA0E
:101D800001060136B600B14535D95FFA89F97EB34F
:101D9000F6B2A9EB0609214003315FFA89F4B14696
:101DA0004F4E05EB810108234A46384600F0E0F922
:101DB00036B109F1080322463146384600F0D8F919
:101DC000009B08F1030803EB98030093D5F818343F
:101DD000002B4AD1D5F8104458E02A689A4204D81A
:101DE0006A60384605B0BDE8F08304EA03008AE77C
:101DF0003B493446D7E72140033108234A4605EBE7
:101E00008101DAE7012B52D1BDF804303348C3F326
:101E10008311062928BF062161F389130231890045
:101E2000ADF8043000F062F9074600283FD000F01A
:101E30008CF93346082201A9384600F099F9BDF81B
:101E40000420C2F38312B31C96424FEA8303BDD22F
:101E500000994A1C21400331009205EB81010422C4
:101E6000384600F085F90136E9E7384600F071F9A7
:101E7000FFF72AFF80F00100C7B2B2E7637A23B10F
:101E8000236839461B68204698476468002CF5D1C2
:101E9000384600F05EF92046FFF7F0FCD5F818341C
:101EA0000BB9009B6B600020FFF7F8FCE0E7D5F86A
:101EB000104444B90B4B0C491888000440F0020050
:101EC00000F080F8D4E7236820469B689847646850
:101ED000EFE7002785E700BF140C002000F60000A4
:101EE000200C0020EC090020E6DB00002DE9F74F74
:101EF0002F4C80460F46914601A9012218469B4669
:101F0000D4F808A0FFF748FE00283DD0019D002628
:101F1000A91C5E4506EB010240D100212548FFF7D0
:101F200082FD80F3100B244B244A4FEA18499B1A78
:101F3000B9EBD30F04D3224940F2A910FFF766FD95
:101F40006B1C03EA0A0304EB830349EA0B42DA60E1
:101F500005EA0A030333012114F8232068F3C502BC
:101F600004F8232034F8232066F3891224F8232070
:101F700054F8232067F39F2244F8232061F30102E1
:101F80006FF3820204F8232094F820341BB1FFF78A
:101F9000A5FE0028FBD103B0BDE8F08F0AEA0202DB
:101FA00004EB820259F82630D3600136B1E700BF56
:101FB000140C00203010002000F60000B0F50000E6
:101FC00087DB000000231A46FFF790BF13B502AC71
:101FD000012344F8042D2246FFF788FF02B010BD0C
:101FE0001FB5CDE90123069B039301AA0323FFF745
:101FF0007DFF05B05DF804FB1FB5CDE90023069B0E
:102000000293079B03936A460423FFF76FFF05B013
:102010005DF804FB084A38B50123D2F8104482F871
:1020200020341D4604B938BD2368657220465B68BC
:1020300098476468F6E700BF140C00202DE9F84FBC
:10204000B0F806A09DF82890174603321C1D1344D3
:102050004279B4FBFAF55344B3FBFAF3DBB29A428C
:10206000064688460AFB154403D21449BA20FFF7F6
:10207000CDFC3DB9AAEB040BBB4528BFBB4627B935
:10208000BDE8F88F3668013DF3E7043408EB05003E
:1020900034445A46B9F1000F0DD02146A7EB0B0787
:1020A00004F08AFDBA455D443668D3464FF000041B
:1020B00028BFBB46E3E701462046EFE717DC0000F8
:1020C000F8B546790146721E0546002393422D68F5
:1020D00003D30024A64202D8F8BD0133F6E70F6807
:1020E0002846FFF705FD01343946F3E72DE9F843AB
:1020F000868ACD1C0746FFF7D3FC043E35440446D0
:10210000B5FBF6F5F0B14FF48073EDB28380C68075
:10211000013D076081464FF00008A84512D23846BD
:10212000FFF7BEFC064648B163790133637108F1DD
:102130000108C9F8000007608146EEE72046FFF776
:10214000BFFF34462046BDE8F88301210430FFF785
:102150008ABC10B5012104460430FFF78FFC10F053
:10216000FF0F04D12046BDE81040FFF7A9BF10BD06
:1021700013B500240094FFF761FF02B010BD00000A
:102180000D4930B5A1F58C720225914201D800208D
:102190000EE08B1ADB1093FBF5F302EBC30452F84D
:1021A0003330834205D802D204F10802EDE76068BB
:1021B00030BD2146E9E700BF9CDD000008B5FFF710
:1021C000DFFF024B002808BF184608BD6FDC000087
:1021D00038B51B4C2378054623B91A494FF4927041
:1021E000FFF714FC637803F0FF00ABB115B16B6827
:1021F000002098470020FFF741FB6368002001336F
:102200006360FFF74BFB6368C3B90E494FF4A070DE
:10221000BDE83840FFF7FABBFFF730FB25B1A268F5
:1022200013463BB92A60A5606368002BE5D100F036
:1022300025FCE2E79D42F7D01B68F2E738BD00BFFE
:10224000381000202DE1000038B50F4C237823B959
:102250000E4940F24510FFF7D9FB636823B90B49DB
:102260004FF4A370FFF7D2FB0020FFF707FB636872
:10227000013B6360656815B900F018FC65700020CB
:10228000BDE83840FFF70ABB381000202DE1000000
:1022900000F1804000F5C040002382B00360036875
:1022A0000193019B02B07047054B4FF0FF320728A6
:1022B00043F8202084BF1B1883F85820704700BFC4
:1022C0004C10002003682F2B10B5044604D9074991
:1022D00040F2C710FFF79AFB23681F2B83BF03F060
:1022E0001F03236002484FF0A04010BD7DE10000B5
:1022F0000003005013B502AB0C4643F8040D18461A
:10230000FFF7E0FF019B00EB8300D0F8003723F4D8
:102310004033C0F80037D0F8003743EA0443C0F830
:10232000003702B010BD00004FF0A043D3F81035C5
:102330000360024BD3F81035436070470003005030
:10234000174991F86A3010B53BBBFF20CA1801331A
:10235000302B82F83000F9D10024E0B20134FFF7CD
:10236000A3FF0C2CF9D10F4B00224A669A800E4B2A
:10237000E02083F806034020C3F8800118604FF482
:10238000BE70FFF785FF094B4FF00040C3F8040310
:10239000012381F86A30104610BD0820FCE700BF19
:1023A0004C100020B010002000E100E00060004070
:1023B000034B93F86A00003018BF0120704700BF3C
:1023C0004C1000202F287FB504460D4604D9414902
:1023D00040F22D10FFF71AFB3F4E96F86A30012BA2
:1023E00004D03C494FF49770FFF710FB25B93949E9
:1023F00040F22F10FFF70AFB331993F93020013216
:1024000065D1AA78002A54D0002356F82310013150
:102410004FEA830247D1311902F1804202F5C042EE
:1024200081F830300021D2F8100546F823102B78BF
:10243000697820F499101B04090520F4F85001F480
:10244000801103F44033C2F810050B432102D2F887
:10245000100501F47C510B430343C2F810356D782D
:10246000012D04A829D140F80C4DFFF72BFF019B4B
:102470009D40C0F8085504A840F8044DFFF722FF1E
:10248000039B164903F5E073032240F8232024FA46
:1024900002F2012304F0070403FA04F48B5C1C43EA
:1024A0008C54002003E00133082BAED1042004B08B
:1024B00070BDFE2283F83020D1E740F8084DFFF7C9
:1024C00001FF029A01239340C0F80C35D3E708209E
:1024D000EDE700BFBBE100004C100020B010002071
:1024E0002F2837B5054604D9124940F27910FFF775
:1024F0008DFA114C621992F93020013204D10D4944
:102500004FF4BD70FFF782FA631993F83030072B50
:1025100004D8084940F27B10FFF778FA02A840F887
:10252000045DFFF7CFFE019A01239340C0F8083500
:1025300003B030BDBBE100004C1000202F2837B5A0
:10254000054604D9124940F28310FFF75FFA114C97
:10255000621992F93020013204D10D494FF4C27052
:10256000FFF754FA631993F83030072B04D8084961
:1025700040F28510FFF74AFA02A840F8045DFFF721
:10258000A1FE019A01239340C0F80C3503B030BD81
:10259000BBE100004C1000202DE9F04F00248DB06D
:1025A000CDE904445D4A5E4E5E4D01211368A2F5FB
:1025B000C040012B80B206D1D6F804330B4202D0C2
:1025C000FFF766FE0C430432AA424FEA4101EDD107
:1025D000554B1B68012B08D14FF4BE70FFF758FE16
:1025E00004A844F00044FFF79FFE14F0FF0F1AD038
:1025F0004E4F00250126344210D0AB0003F180433A
:1026000003F5C043D3F81005D3F8101557F825305B
:10261000C0F30520C1F3014103B198470135082DEE
:102620004FEA4606E7D1002C75DA06AF0023069381
:102630007B604FF0FF33CDE90833DFF8F0804FF0D7
:10264000000A554608EB0A0393F96040631C4AD020
:10265000E4B2012324F0C00604F0070B03FA0BFBDD
:10266000F1080CAB5A1812F8103C13EA0B0F3AD0D1
:1026700008EB0603A40993F9303058F82390B9F118
:10268000000F06D1032C2ED1785C40EA0B00785461
:1026900001E0032CF8D003A801920396FFF712FE85
:1026A0000399019A01F5E07112F8202C50F82110DD
:1026B00012EA0B0FC1F3014105D0022913D1032CFB
:1026C0000BD1214604E003290DD1032C05D10221B1
:1026D0003046FFF70FFE0135EDB2B9F1000F02D021
:1026E00021463046C8470AF1010ABAF1040FA9D1C0
:1026F0008DB10AA8FFF718FE049B0A9A9A420B9B19
:1027000002D105998B4206D004920593069A079B45
:102710000892099393E70DB0BDE8F08F0061004087
:1027200000600040206100407C6100404C100020AF
:1027300000F1804000F5E040002382B003600368B0
:102740000193019B02B07047F0B5514B514C1B688F
:1027500085B0DBB14FF4827094F82E20FFF7E8FFCC
:1027600012B194F82F30A3B1636802932389ADF8B6
:102770000C30E36800218DF80410002B44D1237441
:10278000236801A89847002384F82F3094F82E304E
:1027900003B3414B1B68EBB14FF48070FFF7C8FFE8
:1027A00094F82D20638B91B28B4238D95B1A218922
:1027B0009BB26383CB1A616801EB4301374BC3F8CB
:1027C0002C16C3F830264FF48270FFF7B1FF344B5C
:1027D00001221A60334B1B685BB14FF48870FFF71E
:1027E000A7FF002304A82374022300F80C3D2368EC
:1027F00098472D4B1B6813B34FF48A70FFF798FF6F
:102800000023237405B0F0BD208B608363602081BA
:10281000E160002AB4D1214B01221A60B0E7D2D185
:10282000E368012184F82F103BB1002161831B492B
:10283000C1F82C36C1F83026C5E76383C3E7666963
:102840004FF000470125002EDCD0B6FA86F227FAB9
:1028500002F34632920026EA030602F1804303F5B2
:10286000E0431B68002BEED01046FFF761FFA2F596
:102870008C72D30882F00402C2F380028DF8083013
:102880008DF804508DF80920236801A89847DAE7ED
:1028900004710040B810002000710040007000403A
:1028A0000470004010710040147100402DE9F341A4
:1028B000104C114F114E00254FF480382368A4F5B9
:1028C000004080B26BB1D7F8043308FA05F21A421F
:1028D00007D00023236023680193019BD6E90031D0
:1028E00098470135042D04F10404E7D102B0BDE896
:1028F000F08100BF4081004000800040E8100020CF
:102900000023435082B043580193019B02B07047AB
:10291000F0B5504C236887B023B94F4940F22D20C1
:10292000FFF774F84D4AD2F824311546A3B14FF49D
:1029300092711046FFF7E4FFD2F8043163B9A3683F
:10294000C2F808330223A360A368C2F8043301234A
:102950001362536107B0F0BDD5F80431002B49D0A4
:102960003F4F3E484FF48271FFF7CAFF0FCF01AED1
:102970000FC63B68336094F82E307BB1237B012B6C
:102980000CBFD5F83C25D5F84C250292022B334BD1
:102990000CBFD3F83C35D3F84C3503934FF4B071EA
:1029A0002E48FFF7ADFF4FF4AE712C48FFF7A8FF9C
:1029B00094F8303013B194F82E303BB1274B0022FD
:1029C000C3F80022A260274AC3F80823234AD2F89A
:1029D000C434C2F8C4349A0736D501238DF80030C8
:1029E00094F830300BB984F82F30D4E900316846C0
:1029F0009847AFE74FF4A4711848FFF781FF237B96
:102A000083B9174F0FCF01AE0FC63B68336094F800
:102A10003030002BDAD1C5F80032A360114BC5F875
:102A20000833D3E74FF40073C5F8003240F20223B5
:102A3000A36003F1CE73C5F80833A368C5F8043367
:102A40000123AB602B6285E713F0040318BF022358
:102A5000C4E700BFF410002017E20000003000407F
:102A60000011002002029C0100F18040002382B08E
:102A7000036003680193019B02B0704708B5094BDE
:102A80001B791BB90849FA20FEF7C0FF4FF480708C
:102A9000FFF7EAFF4FF080430122C3F804231A60D6
:102AA00008BD00BF2811002063E2000010B50B4CE8
:102AB000227922B90A494FF48170FEF7A7FF094B2A
:102AC00001221A604FF08042D2F80C3403F0011357
:102AD000B3F1011FF8D00023637110BD281100204D
:102AE00063E2000004000040124B1B6810B573B194
:102AF0004FF48070FFF7B8FF4FF080430122C3F816
:102B000008230D4B587910B95A711B6898470B4B25
:102B10001B6873B14FF48270FFF7A6FF4FF080433C
:102B20000222C3F80823044B01201B68BDE81040B3
:102B3000184710BD0001004028110020040100408A
:102B40000369C1688B429DBF8268D21802F1FF32CF
:102B500003F1FF3394BF501A581A70472DE9F04122
:102B6000D0E902670446F61B40689642884615463F
:102B7000384405D904F020F83D44E560BDE8F08113
:102B80003246AD1B04F018F82A4608EB06016068CF
:102B900004F012F8F1E72DE9F843C56806468946C6
:102BA00017464FF000083469B3687068A54228BF23
:102BB000E418013C621B5C1BBC4228BF3C469442AB
:102BC00028BF144649462844224603F0F5FFB3685F
:102BD0002544AB4208BF00253F1BA044A144F5603B
:102BE000E1D14046BDE8F88310B5114C114AA2610D
:102BF0000223C4E90433104BE361A2644FF4007371
:102C00000E4A2362E264002310220D49A362E01DF4
:102C10006362E362A3656365E365226504F030FCEB
:102C20000849204604F02CFC2023A37110BD00BFEE
:102C300004180020B1E200004011002030110020F3
:102C4000BAE20000BEE20000F8B5184C182300FB01
:102C5000033503FB00402544C46A012C0F46164689
:102C600011D003D3022C1BD000240AE02846FFF722
:102C700067FF864205D8324639462846FFF76EFF81
:102C800034462046F8BD2846FFF75AFF86423446B0
:102C900028BF0446224639462846FFF75FFFF0E783
:102CA0002846BDE8F840FFF776BF00BF04180020B3
:102CB00070B50B4B1B7804460D4616460BB9FFF753
:102CC00093FF0020FEF7DAFD324629462046FFF743
:102CD000BBFF04460020FEF7E1FD204670BD00BFAB
:102CE0000418002010B511461C461A460020FFF7B4
:102CF000DFFF204610BD0000054B1B68082B01BFFD
:102D0000044B1868B0FA80F0400918BF00207047E3
:102D1000300100103401001008B54FF0804300224C
:102D2000C3F80C21C3F81021C3F838254FF08052A6
:102D300003F54043D2F80414C3F82015D2F8081460
:102D4000C3F82415D2F80C14C3F82815D2F81014BF
:102D5000C3F82C15D2F81414C3F83015D2F818148F
:102D6000C3F83415D2F81C14C3F84015D2F8201457
:102D7000C3F84415D2F82414C3F84815D2F828141F
:102D8000C3F84C15D2F82C14C3F85015D2F83014EF
:102D9000C3F85415D2F83414C3F86015D2F83814B7
:102DA000C3F86415D2F83C14C3F86815D2F840147F
:102DB000C3F86C15D2F84424C3F87025FFF79CFFC4
:102DC00010B1384B384A1A60FFF796FF18B1374BED
:102DD000FB22C3F81825FFF78FFF48B13449354B64
:102DE0000A681B6822F00F0203F00F0313430B6005
:102DF000FFF782FF18B1304B4FF400721A604FF0AA
:102E00008043D3F80024D20744BF6FF00102C3F817
:102E100000242A4AD2F8883043F47003C2F888307C
:102E2000BFF34F8FBFF36F8F4FF01023D3F8002203
:102E3000002A03DBD3F80432002B2FDA204B0122C7
:102E4000C3F80425D3F80024002AFBD04FF0102249
:102E50001221C2F80012D3F80024002AFBD04FF050
:102E600010231222C3F80422154B1A46D3F800147B
:102E70000029FBD00021C3F80415D2F80034002B40
:102E8000FBD0BFF34F8F0D490E4BCA6802F4E062CE
:102E90001343CB60BFF34F8F00BFFDE70A4B0B4AD4
:102EA0001A6008BD8C5600404881030000F00040C5
:102EB000E40E0040580200104096024000ED00E091
:102EC00000E001400400FA05080000200090D00353
:102ED0000649074A074B9B1A03DD043BC858D050EC
:102EE000FBDCFFF719FFFEF7ABF9000020F600004E
:102EF00008000020000A0020FEE7FEE7FEE7FEE7EC
:102F0000FEE7FEE7FEE7FEE7FEE7FEE7F8B51F4B4C
:102F1000440B44EAC144A4FB03454A0B03FB02559E
:102F20002E0F220F42EA051243F60957750245EAB1
:102F3000D2555402A2FB0723801A07FB063361EB2C
:102F4000030106460F4612480021B94208BFB042AD
:102F500005D2104B104A1148832103F0BDFA1048E6
:102F600040F23141714300FB0711A6FB00674FF0AF
:102F7000FF3032180F4447F6FF7147EB0103DE0BB9
:102F80000027301947EB0501F8BD00BFD07B63086F
:102F9000452C16002BE30000A4E3000039E30000F9
:102FA0007B2DE8BD00F1402000F50030002382B009
:102FB000036003680193019B02B07047274B37B54C
:102FC00019460120D3E84F2FD2B28DF807209DF883
:102FD000072052B1BFF32F8F214B1A68214B002AD3
:102FE00036D018680230400830E0C3E8420F002AAB
:102FF000E8D11D4B0222C3F80823BFF35F8F03F50E
:103000008273184A1B684BB1136801331360BFF316
:103010005F8F4FF48270FFF7C5FF01231068124CD9
:10302000022501304008C4F80453BFF35F8F002429
:103030000C705BB11368D90705D40C4B0C4A0D48D2
:10304000E12103F049FA13680133136003B030BD86
:103050001A68D207C5D41868C5E700BF401300201E
:10306000044102404413002000400240C5E2000039
:10307000BFE30000DDE200002DE9F04180460E468E
:10308000FFF79CFF0746BFF35F8F084DD5F8044557
:10309000BFF35F8FFFF792FFC8F80000874218BFA9
:1030A000D5F804453460BDE8F08100BF004002401F
:1030B00008B5084B0849020113445868C1F8480391
:1030C000D868C1F808031889FFF76CFF034B00218B
:1030D000995408BDD4E3000000400240481300208A
:1030E0002DE9F84F344C354F1501DDE90A8904EB21
:1030F000050C4045DCF80C60C7F80863DCF8046098
:10310000C7F844639246464643D9A0EB0807002F10
:103110003FDA18F1000849F1FF390E184B464FF01D
:1031200000024FF0000949F10007901943EB070135
:10313000BAF1000F06D14FF47A7303FB01F2A0FB42
:1031400003011144FFF7E2FE43F60953A0FB038994
:1031500020F07F4640F2FF1003FB019910EB080BB3
:103160004FF0000141EB090CBAF1000F1BD04FEA00
:103170005B2040EACC504FEA5C21114B0F4A2B44B4
:10318000C3E90201635903F5A87342F82360BDE85F
:10319000F88FB042C1D2361A002EBEDA18F10008FC
:1031A00049F10109B9E74FF4FA2200235846614674
:1031B00009F0B0FFE1E700BFD4E3000000400240A7
:1031C0004813002013B5044601A96846FFF754FFD1
:1031D000019843F6095140F2FF120023E1FB00235E
:1031E000500A40EAC350590A009A054BE3FB02011A
:1031F00024B94FF47A72002309F08CFF02B010BD9D
:103200000080841EF8B5184C05016319064618891C
:103210000F46FFF7C7FE3046FFF7D4FF3FB9134B09
:103220002B44D3E90223994208BF90421AD32C447D
:103230000F4B6268C3F84823022EE268C3F80823E4
:1032400008D0032E0AD0094B01225A55BDE8F84098
:1032500000F030BABDE8F84003F092B8BDE8F8409D
:1032600002F0D4BAF8BD00BFD4E300004813002038
:10327000004002407FB505460E4602A803A9144649
:10328000FFF7FAFE039843F6095140F2FF120023BC
:10329000E1FB0023500A40EAC350590A029A244B2A
:1032A000E3FB020124B94FF47A72002309F032FFE4
:1032B000CDE90001224631462846FFF711FF1D4B9C
:1032C000039AD3F804359A4203D003A902A8FFF762
:1032D000D3FE039B43F60950991C40F2FF120023D2
:1032E000E0FB0123500A40EAC350590A029A104BEE
:1032F000E3FB020124B94FF47A72002309F00AFFBC
:103300000D4A25012A44D2E90223994208BF90427E
:1033100006D301212046FFF775FF40BF04B070BD02
:10332000064B2B44DA68034BC3F80423F6E700BFCF
:103330000080841E0040024048130020D4E30000B7
:103340000120FFF73FBF08B5FFF7FAFF08BD0000F7
:10335000044B4FF48022C3F80823BFF34F8FBFF311
:103360006F8F704700400240024B4FF48022C3F839
:103370000423704700400240FFF7E5BF1F2070475D
:103380000222FFF777BF0220FFF792BE2DE9FF4828
:10339000164F174E40F2FF14002502A903A8FFF7AD
:1033A0006BFE029A43F6095320462946E3FB0201CD
:1033B00002460B46500A40EAC350590A039BE7FBFA
:1033C00003018C4683460322CDE900BC3E215846CA
:1033D000FFF786FE4FF48023C6F80433D6F8043591
:1033E000029A9A42D9D104B0BDE8F0880080841EC8
:1033F0000040024037B5044603200D46FFF7E2FEC9
:103400000322CDE9000129462046FFF769FE034B60
:103410004FF48022C3F8042303B030BD00400240C3
:103420000320FFF745BE0000014B986B704700BFBB
:1034300048130020114B1B6870B52BB1104B0222B2
:10344000C3F80823FFF7BAFD0E4D0D4E002405EB1F
:103450000413D6F80413DA6811420AD01B8903F169
:10346000402303F500331B681BB10021E0B2FFF7D6
:10347000C9FE0134042CEAD170BD00BF04410240F2
:1034800000400240D4E300000123094A82B003FA5D
:1034900000F052E8003F0193019B03430193019B1D
:1034A00042E800310029F4D102B000F003B900BFB6
:1034B000A01300202DE9F8431D4D9146074688468C
:1034C0000023142202FB03F6715931BBAC191422FC
:1034D000204603F06FFC7B1CAB513B78237184F8D2
:1034E0000C8084F80D9000F045F9607100F048F907
:1034F00078B1FFF725FF00234FF47A72054609F0F3
:1035000009FEC0EB4013206100EB8300A5EBC00077
:10351000E081BDE8F84300F0CDB80133102BD1D1E4
:10352000044B054A05484FF42E7102F0D5FF00BF49
:10353000A81300207CE4000014E40000B0E40000C4
:10354000013808B50D4B052811D8DFE800F0030A53
:103550000C0E0E0E12221A700420BDE80840FFF770
:1035600093BF1122F7E71622F5E70122F3E7044B98
:10357000044A054840F2E62102F0AEFFA413002001
:10358000AAE400002CE40000B0E4000010B50E4CEA
:10359000844206D00D4B0E4A0E4840F2EE2102F056
:1035A0009BFF0D4C29B921600120BDE81040FFF7B9
:1035B0006BBF481C2060097821712273637300F08F
:1035C000D9F86071F0E700BFE814002092E4000031
:1035D00046E40000B0E400008813002008B5104B5A
:1035E000834206D00F4B104A40F202310F4802F0DE
:1035F00073FF05290FD8012303FA01F111F02C0FF5
:1036000007D111F0120F06D00220BDE80840FFF7E5
:103610003BBF0320F9E7064B034A40F21231E5E7CE
:10362000E814002092E4000061E40000B0E400002F
:10363000AAE4000008B500F09FF8034B1870BDE83D
:1036400008400620FFF720BF9C130020144B1A6887
:1036500013B51AB3134AD2F80813C9071ED50021AF
:1036600019601B680193019BD2F808450E4B0F4A65
:1036700019681068091A3F2906D81968481C18608B
:1036800001F03F010A4844541B6812689B1A3F2B03
:1036900081BF044A0123C2F80833536002B010BD51
:1036A00000D1004000D00040AC150020A81500203B
:1036B00068150020704700001FB5234A234B11688E
:1036C000F9B10021116012680192019A19601B681A
:1036D0000093009B1E4B1A688AB100221A601B6877
:1036E0001C4A0393039B13881BB31B4801684C1CA3
:1036F000046008781949013BC1F81C05138004B027
:1037000010BD1A68002AE5D019601B68144A02939C
:10371000029B1188114B1348D3F8184500884B1CA5
:10372000DBB29842D6D0104813804454FFF7C2FF52
:10373000D0E70E4A012313700D4A136004B0BDE8B0
:103740001040FFF7B7BF00BF242100400821004010
:103750001C210040BA160020B416002000200040B2
:10376000B0160020B2160020B0150020B8160020B8
:103770000C20004001F088BE80085E3840B27047DF
:1037800001F06ABE7047704770477047704700008D
:103790002DE9F74F01939BB1224C267808274FF073
:1037A000000875B2C6464FF0020CAE450CDD08F1BC
:1037B0000103734508BFF04682F8008000202EE028
:1037C000194C02272678EAE7A5EB0E0494FBFCF4DB
:1037D0007444E4B24FFA84F8B045E8DA019B18FB70
:1037E00007FA01EB0A097BB151F80AA003685345B7
:1037F00010D305D8D9F8049043684B450AD30CD9A7
:1038000001344FFA84FED0E7B0F800B031F80A90E6
:10381000CB45F3E7013C65B2C7E71470012003B064
:10382000BDE8F08FBC160020BD160020134622B163
:103830000A4603490123FFF7ABBF0A460149FAE7ED
:10384000BE1600200E170020144B07B51A7801464B
:103850000AB3837803F00C00082805D00C2815D093
:10386000104603B05DF804FB01F10800497803F04D
:10387000C003490658BF0230802B0AD0C02BEFD1BD
:103880000DF10701FFF7D2FF0246E9E701F10E0053
:10389000ECE70022F4E70122E2E700BF2217002054
:1038A00000F1804000F58050002382B0036003687F
:1038B0000193019B02B07047034B186808B190F860
:1038C000800000F0010070473417002008B5FFF7B2
:1038D000F3FF08B1014B186808BD00BF3417002082
:1038E00000BF00BF00BF00BF00BF00BF70470000A7
:1038F000134B144AC3F8482500F1804000F580506E
:10390000C3F84C0521B102F5FD424832C3F82C2919
:103910000D4AC3F8402502F5AF3202F59672C3F89E
:10392000442529B1D3F8002842F08002C3F80028CA
:10393000034B8022C3F804254022C3F804257047B6
:1039400000F001403C71014010110040034B1B7816
:103950001BB1034B1022C3F8082370473117002016
:103960000010004010B5044601F0C6FEC009022850
:103970000B4A11D9811EE3098B4233BF0021A4EB0E
:10398000C114C31E116028BF1460064AC3F3140398
:10399000C2F86436012010BD14600020FBE700BFB0
:1039A0002C1700200010004013B51F4C01A801F097
:1039B00083FDD4F86C269DF8043022F00702C4F889
:1039C0006C26D4F86C261343C4F86C369DF80500B9
:1039D00001F0DAFED4F86C3623F47F43C4F86C3679
:1039E000D4F86C3643EA0020C4F86C06D4F86C2690
:1039F0009DF8061022F47F02C4F86C26D4F86C36C9
:103A000043EA0143C4F86C36D4F86C269DF80710DD
:103A100022F07F42C4F86C26D4F86C3643EA016386
:103A2000C4F86C3602B010BD0010004070B50446FA
:103A30000D460146012001F067FF2A46214601207C
:103A400001F0FCFF034B044A08210120BDE870404F
:103A500002F02EB8009000403C71014008B5037898
:103A6000184410F8010C01F081FE00B28000FF281C
:103A700028BFFF20C0B208BD10B50446012001F0E8
:103A800085FF2146012001F0F1FF034B4FF48072C6
:103A9000C3F8082510BD00BF00F0014038B5074B42
:103AA0001C6805460146204601F0E6FA28B1294681
:103AB0002046BDE8384002F087BC38BD38170020EA
:103AC00008B502F08BFC034B00221A70BDE80840D9
:103AD00001F080BE3117002010B5044601F062FCF1
:103AE000204602F06CFCBDE8104001F01DBB000058
:103AF00008B5084BD3F8503513F0FF0F07D1FFF787
:103B0000EFFE054B1868003018BF012008BD0120EA
:103B1000FCE700BF001000403C71014008B5A0F177
:103B20000B030F2B06D9074B074A084840F2C71171
:103B300002F0D2FC0A38064B00EB8000C3F80805FF
:103B400008BD00BFC9E5000024E50000E8E500006D
:103B50000010004010B5164C4023C4F808358023EF
:103B6000C4F808354FF48073C4F80835012001F01B
:103B70000DFFD4F800380F4823F08003C4F8003854
:103B80000D4B00210122C4F82C191A60D0F8003224
:103B900023F4A063C0F80032084B1B783BB1084BFC
:103BA0004FF45050C3F80803C3F800121A6110BD57
:103BB00000F00140009000401090004031170020BC
:103BC0000010004010B5144C4023C4F80835802381
:103BD000C4F808354FF48060FFF74EFFD4F8003882
:103BE00023F08003C4F8003800220C4BC4F82C29C1
:103BF0001B7883B10A4B0821C3F808130949C3F89D
:103C0000002201200860BDE81040C3F844264FF4AC
:103C1000AE70FFF745BE10BD00F001403117002027
:103C2000001000401010004010B5124C4023C4F8A2
:103C300008358023C4F808354FF48070FFF71CFF67
:103C4000D4F8003823F08003C4F8003800220A4B6F
:103C5000C4F82C291B785BB1084B4FF40041C3F822
:103C60000813C3F80022064A0123136042F8183CE7
:103C700010BD00BF00F001403117002000100040CF
:103C80002810004010B5124C4023C4F8083580239A
:103C9000C4F808354FF48070FFF7EEFED4F8003812
:103CA00023F08003C4F8003800220A4BC4F82C2902
:103CB0001B785BB1084B4FF4C021C3F80813C3F85D
:103CC0000022064A0123136042F8203C10BD00BFC9
:103CD00000F001403117002000100040301000407B
:103CE000044B002282B01A601B680193019B02B052
:103CF000704700BF3C71014010B50221044600200E
:103D000001F002FE4FF480620221002001F096FED5
:103D100007210020094A01F0BDFEFFF7E1FF002165
:103D20000846FFF7E5FD1CB9054B01221A6010BDDE
:103D3000FFF7DEFE0028F7D0F9E700BF0090004053
:103D400010100040174B1B7810B504461BB3AE2073
:103D500001F0D0FCF8B1144A4FF42053C2F80032FD
:103D60004FF4A470FFF79CFD4FF4A270FFF798FD8D
:103D70004FF4C0234FF480710020C2F80433FFF7E2
:103D800055FEFFF7ADFF01210420FFF7B1FD1CB97F
:103D9000064B01221A6010BDFFF7AAFE0028F7D0DB
:103DA000F9E700BF3117002000100040101000405C
:103DB000144B1B7810B50446F3B1134B1868FFF78A
:103DC000D1FDC8B1114A4FF40041C2F800124FF4BE
:103DD0009E70FFF765FD0020C2F804134FF4807158
:103DE000FFF724FEFFF77CFF01210420FFF780FD91
:103DF0001CB9074B01221A6010BDFFF779FE00289D
:103E0000F7D0F9E7311700202C17002000100040F0
:103E100010100040514B1B7870B50646002B00F087
:103E200094804F4A137803F0FC036FF382031370FE
:103E300001F030FB4B4AC0B2C2F80C05FFF73CFD65
:103E40000546002800F08280FFF740FD464BC2F88F
:103E50000405C2F800321823C2F860354FF49A7096
:103E6000FFF71EFD4FF49470FFF71AFD4FF49870A2
:103E7000FFF716FD4FF45053C2F804330021012020
:103E800001F042FD012001F091FD0446002001F007
:103E90008DFD3649D1F80032204443F4A063C1F8C7
:103EA0000032813004F18103C1F84045C1F8443546
:103EB000C1F84805FFF714FF2D4B2E482E4AC3F8D2
:103EC0004825C3F84C0500F5F030C3F82C09C3F8B9
:103ED0005025C3F85415D3F8002842F08002C3F8E7
:103EE0000028264AC3F8402502F5AF3202F5967243
:103EF000C3F844258022C3F804254FF48072C3F828
:103F00000425A0F5EF304022C3F80425D43801F091
:103F100069FCEEB91A4B01221A60B5B901F03CFCFC
:103F2000184B1860FFF7C8FC78B1FFF7CFFC0D4BBA
:103F30000D4AC3F80405C3F80022D3F85035DBB2AC
:103F4000022B02BF104B01221A6070BD522380E782
:103F5000FFF7CEFD0028DDD0DFE700BF31170020DE
:103F60003017002000100040520008000090004070
:103F700000F00140041000403C710140101100406D
:103F800010100040341700200810004010B501F058
:103F900065F9044648B1064B1B7833B101F0ACFB20
:103FA0003B2802D801F0FCF90024204610BD00BFD8
:103FB000311700201649402310B5C1F8083518B153
:103FC000144B5222C3F80022134B144A01241C60E4
:103FD0008023C1F80435137803F0FC036FF38203E8
:103FE0004FF494701370FFF75BFC0A4B1822C3F870
:103FF0006025FFF775FE4023C1F80435084801F03D
:10400000F1FBFFF775FD08B9064B1C6010BD00BF42
:1040100000F00140001000401090004030170020D8
:10402000301100401010004038B50A4B0546D3F857
:10403000480500F07F0001F092FB04462846FFF798
:104040000DFD614242B249B22846BDE8384002F057
:10405000B3B900BF0010004010B5044601F0A2F94A
:104060002046FFF7E1FFBDE8104001F05DB8000019
:10407000F8B54B4B1B7806460C4615460BB900208D
:10408000F8BD00787378063040009B0648BF363094
:104090000001002962D12E3080B201F02BFB0746CF
:1040A0000028ECD001F0F6F93E4BC0B2C3F80C0585
:1040B000C3F804651E46002C52D001F005FA002812
:1040C00014BF4FF48013022343F48723C6F8003251
:1040D00001F0FAF900284DD04FF4B670FFF7E0FB7D
:1040E0004FF000622CB14FF4A470FFF7D9FB42F4FB
:1040F00080224FF48270FFF7D3FB2B4B19786FF3BC
:10410000C3011970274B42F00202C3F80423002CAC
:1041100036D00021012001F0F7FB4FF4807200211E
:10412000012001F08BFC012300222049092001F02D
:10413000E7FC022008211E4B1E4A01F0B9FCFFF7E4
:10414000CFFD002C14BF042000200121FFF7D0FB7D
:104150000DBB194B01221A60384691E7D6309BE718
:1041600001F0B2F9002814BF4FF48013022343F486
:104170008023ABE74FF48670FFF792FB0822B1E78C
:104180002046012101F0C0FB4FF4007201212046BE
:1041900001F054FCCDE7FFF7ABFC0028D9D06FE766
:1041A000311700200010004030170020441100405B
:1041B000009000403C710140101000402DE9F0419A
:1041C000384CDFF80481384DD8F8006040270020D3
:1041D000C4F8087501F0DAFB0021012001F094FB1E
:1041E0005223C5F800321823C5F8603501F06CF988
:1041F000002814BF4FF00063082343F00203C5F802
:1042000008334FF49A70FFF74BFB4FF49470FFF7AD
:1042100047FB4FF49870FFF743FB4FF45053C5F83A
:104220000433224B01251D604FF40073C4F8083598
:104230008023C4F80435FFF753FD1D48C4F8047506
:1042400001F0D0FAFFF754FC08B91A4B1D60D8F8FA
:104250000030002283F8802001F09EFAC8F80000A8
:10426000FFF72AFB78B1FFF731FB0F4B124AC3F877
:104270000405C3F80022D3F85035DBB2022B02BF8D
:104280000E4B01221A600E4B02221A700D4A13784F
:1042900003F0FC036FF382033046BDE8F041137076
:1042A000FFF7DABE00F0014000100040109000401F
:1042B000301100401010004052000800081000406B
:1042C00032170020301700203417002038B51D4C5D
:1042D0004023C4F808358023C4F80835022001F0D3
:1042E00055FB4FF44071022001F0C0FB0921022070
:1042F00001F0F8FB4FF40073C4F808354FF48073F5
:10430000C4F80835D4F8003823F08003C4F8003826
:1043100000250D4BC4F82C591B7893B101F0D4F84B
:10432000A84214BF4FF000630823084A43F48023D7
:1043300043F00203C2F808330123C2F800521363AA
:10434000136138BD00F0014031170020001000401B
:10435000F8B505460F46164600F078FE044688B1CB
:104360005A4B1B78092B00F2A780DFE803F0050DFC
:10437000102364646E737D86022F03D002F030F840
:1043800001F050F92046F8BDFFF7E0FAFAE7504B8C
:104390001B785B070BD5002D00F09580FFF7DAFB4B
:1043A000002EEFD0062002F00AF83446EAE7FFF7C5
:1043B000D1FBE7E7002D00F08680464D4023C5F88D
:1043C00008358023C5F808354FF48073C5F80835E3
:1043D000002001F0DBFAD5F800383F4A23F08003D3
:1043E000C5F8003800273D4BC5F82C7901251D6024
:1043F000D2F8003223F4A063C2F80032384B1B78A5
:104400007BB101F061F8B842364A14BF4FF0006347
:10441000082343F00203C2F80833334BC2F800729A
:104420001D60002EAED0314B1868002380F880301C
:10443000FFF7FAFDB9E7002D45D0FFF747FF002E43
:10444000A0D00620FFF72AFB9CE7002D3BD0FFF70A
:10445000B9FBF4E7002D36D0FFF7E6FB002E91D034
:10446000012001F0B5FFA0E76DB3FFF70BFC002EB4
:1044700088D0012001F0B0FF97E7164B4022C3F827
:1044800008258022C3F80825002001F07FFA4FF4A8
:104490008061002001F0EAFA0721002001F022FBF0
:1044A0000F4B1B7803F0FF02002B3FF46BAF0E4B5A
:1044B00001211960144665E70D4B0E4A0E4840F283
:1044C0000D5102F009F82C465CE700BF32170020BE
:1044D0003017002000F00140009000401090004094
:1044E0003117002000100040101000403417002049
:1044F000AAE4000030E50000E8E50000F8B5504B04
:104500001B781B0740F184804E4D4F4F2B685C7821
:10451000C4F340142E46002C7BD0FFF7CDF94B4C52
:104520004B4A4C4B051E08BF12234FF04001C2F806
:104530000815C4F8003203D0FFF7C8F9C4F8040521
:10454000454BC4F8083300F0BFFF50B14FF0006393
:10455000C4F808334FF48670FFF7A2F90823C4F8B3
:104560000433022001F012FA4FF440710220384C5B
:1045700001F07CFA0921022001F0B4FA4FF4007333
:10458000C4F808354FF480610220FFF74FFA334B2F
:10459000C4F84835A3F5B033A3F59C73C4F84C3583
:1045A00003F5F033C4F82C39FFF79AFB8023C4F8E5
:1045B00004354023C4F8043506233B70FFF798FA0E
:1045C00010B9274B01221A60B5B901F0E5F8254B67
:1045D0001860FFF771F978B1FFF778F91B4B1D4AA6
:1045E000C3F80405C3F80022D3F85035DBB2022B20
:1045F00002BF1D4B01221A604FF4AE70FFF750F955
:104600003368124ADB781B0643F40073C2F8443661
:10461000F8BDFFF75BFE022301203B70FFF7FAFBBA
:104620002D6800F0BFFE284600F024FD23462246F8
:104630002146284601F0C5FEBDE8F84000F074BDF3
:1046400030170020381700203217002000100040DB
:1046500000F0014012000800020004003C7101401B
:1046600010100040341700200810004070B501F011
:1046700043F83B2840F2B380594C002501260F2314
:10468000C4F8FC5FC4F8FC6FC4F81035D4F81435D6
:1046900023F00F03C4F81435D4F8143543F008039D
:1046A000C4F81435D4F8143523F04073C4F8143525
:1046B000D4F8143543F00073C4F81435D4F8143525
:1046C00023F08063C4F81435D4F8143543F08063C4
:1046D000C4F81435D4F8183523F0FF03C4F818359E
:1046E000D4F8183543F07F03C4F81835D4F85036A1
:1046F00023F00103C4F85036D4F850363343C4F8DD
:104700005036D4F8343523F00303C4F83435D4F8E4
:10471000343543F00203C4F83435D4F8343523F487
:104720004073C4F83435D4F8343543F40073C4F816
:1047300034352C4BC4F83835FFF736F92A4BC4F81A
:104740004456C4F8483600F09FFEFFF7E7F9274BC0
:10475000022283F80153C3F88021D4F8003233B128
:10476000234B244A40F28161234801F0B5FE234CDB
:1047700022781AB1224B1E7001F01EF82378092B03
:1047800028D8DFE803F02C2705270A1227151A1F5F
:104790000020BDE87040FFF73DBB00220121194B0E
:1047A000BDE870401868FFF763BC00221146F6E7C9
:1047B0000020BDE87040FFF7FBBA0020BDE8704064
:1047C000FFF7C0BA0E4B1B784BB10020BDE870401C
:1047D000FFF792BA0C4B074A40F2A961C4E770BDDB
:1047E0000010004021100100000700FF00E100E080
:1047F00077E600004CE50000E8E5000032170020F5
:104800003117002038170020AAE400002E4B70B5A5
:1048100002250024C3F88050C3F8805183F8014377
:10482000BFF34F8FBFF36F8F284B0126C3F8FC4FA8
:10483000C3F8FC6F01F0D4F8254B1C7000F0CAFFE0
:10484000224629463046FFF783FD30B9214B224AE4
:1048500040F2BE61214801F03FFE214B1A78092A3F
:104860002BD8DFE802F02F050B141F1F1F2F2F2F4F
:104870000022BDE870401A70FFF722B9194B1B786F
:104880005B071FD50520BDE87040FFF725B9022260
:104890001A70154B1868002380F88030BDE870400E
:1048A000FFF7DABB02221A7000F07CFD0420FFF74C
:1048B000F5F8BDE8704000F037BC0C4B064A40F2FA
:1048C000E961C7E770BD00BF00E100E000100040F3
:1048D000311700209DE600007BE50000E8E50000C0
:1048E000321700203017002034170020AAE40000FF
:1048F0002DE9F8430746884615469946FFF746FBDB
:104900000446D0B10F4E3378022B11D03378032BED
:104910000ED04A4641463846FFF71AFD044620B1FC
:10492000022301203370FFF775FA0DB12046A84726
:1049300000F036FD2046BDE8F883002DFAD0A847E8
:10494000F8E700BF321700202DE9F047099D9DF8D8
:10495000209006468A4690461F46FFF717FB0446FE
:1049600028B3012251463046FFF7F2FC044640B915
:1049700000240DB12046A84700F012FD2046BDE8F6
:10498000F0870D4E022333700C4B0122394640460E
:10499000C3F80080FFF76CFBB9F1000F01D00028CD
:1049A000E6D0002F14BF042305233370E1E7002D68
:1049B000E4D0A847E2E700BF3217002038170020F4
:1049C0002DE9F74F00F04EFCB44BD3F808339A07AB
:1049D0001CD5B34B1B68CBB14FF48270FEF760FF60
:1049E000B04B1B78DBB2032B30D032D3052B30D841
:1049F000AD4B1C68204600F053FB10B12046FEF77B
:104A0000C2FEAA4A137843F008031370DFF88C82C1
:104A1000D8F808335B0543D5A54B1B68002B3FD066
:104A20004FF49470FEF73CFF9E4B1B78022B40F036
:104A3000CA80D8F86055C5F3C705022D8DF8075018
:104A40000ED89C4B9C4A40F20F7106E0FEF79AFE8E
:104A5000DCE79A4B9A4A40F67F119A4801F03CFDF8
:104A6000994B1B68E3B9914C237813F0010674D07D
:104A7000012623789F0713D496B1944B1B681878AE
:104A80005B78063040009D0648BF2230000100F0F0
:104A900031FE002800F09180237843F00203237058
:104AA0007E4BD3F80833980412D5874B1B687BB133
:104AB0004FF49A70FEF7F4FE7A4B1C78E4B2022CA5
:104AC00040F086800020FFF775FA2046FFF704F8D3
:104AD000724BD3F80833D90440F12A817C4B1B6810
:104AE000002B00F025816F4E4FF49870FEF7D8FE32
:104AF0003378022B40F051816C4D744C2A78D4F8F5
:104B00000090D20769D52B78DB0773D40120FFF71B
:104B100051FA99F8013003F00703022B00F02B81C2
:104B20002368002283F8802000F036FE2060FEF724
:104B3000C3FE002800F0AE80FEF7C8FE574B654A62
:104B4000C3F80405C3F80022D3F85035DBB2022BBA
:104B500002BF614B01221A609CE05C4F43F00403EA
:104B60000DF107013868237001F0C6F9814660B97C
:104B70009DF807309D4203D0DB00C8F8603577E729
:104B8000237843F00103237072E701280FD1FEF769
:104B9000E1FF0120FFF73EF93B685B7803F0070374
:104BA000022B3FF466AF4846FEF796FF61E700F040
:104BB00053FC00287FF45CAFE9E7FEF7CBFF05204C
:104BC00001F0FDFB6CE73D4B3D4A40F6941144E794
:104BD0003A4B3B4A40F6AA113FE700F03DFC002863
:104BE00091D1FEF7B7FF0120FFF714F90420FEF77B
:104BF00073FF9DE023685B789F0687D500F034FC47
:104C0000002883D02368DFF89480344DDB78EB7084
:104C1000C8F8045500F058FC00280CBF02234FF4DC
:104C2000801343F480232E4FC8F800324FF4AA704B
:104C3000FEF736FE4FF4007B2A4BC7F858350120AB
:104C4000C7F85C85C7F804B500F0A0FE022100207B
:104C500000F05AFE244B4FF0010AC3F800A0D3F82D
:104C600000254C3BD3F844359A4241D3FEF738FE39
:104C7000D8F85035DBB2092B3AD01C4B1B68BBBBB4
:104C8000226882F88030C7F808B5FEF763FF504607
:104C9000FFF7C0F84846FFF7DFF949E00010004091
:104CA0000411004032170020381700203017002070
:104CB00028110040FEE40000A8E50000AAE400007E
:104CC000BDE50000E8E50000341100403417002085
:104CD0003011004052000800081000402317002047
:104CE00000F00140449100404C90004054110040BD
:104CF000122320686B70FEF7A7FD08B902236B70C2
:104D00000323AE4C33704FF45053C4F8083300F013
:104D1000DBFB50B34FF4B670FEF7C2FD4FF00062FC
:104D20004FF48270FEF7BCFD42F00202C4F8042387
:104D300000F0CAFB002837D0A04BD3F808331D0180
:104D400032D59F4B1B687BB34FF4B670FEF7A8FDBE
:104D50009C4B1B78DBB2032B24D001D3052B39D914
:104D6000994B9A4A40F6D71177E64FF48670FEF7D2
:104D700097FD0822D4E700F06FFB00287FF4D0AE47
:104D80008E4B934AC3F80022D3F85035DBB2022B86
:104D9000CED1904B01221A60CAE78B4B8B4A40F66A
:104DA000BE115AE6FFF70AFA844BD3F808331C0702
:104DB00018D5894B1B68ABB1824E4FF48670FEF755
:104DC0006FFD3278033A032A00F2A380DFE802F095
:104DD000055D5D64FFF792FBE6E700F075FB08B93F
:104DE000FFF7ECF9754BD3F80833D80611D57B4B98
:104DF0001B6873B14FF48870FEF752FD71490B7850
:104E0000012B40F08B80FEF7A1FD00230B70FEF715
:104E100057FE6A4BD3F80833990318D5704B1B68BB
:104E2000ABB1684C4FF4A270FEF73AFD2378082B23
:104E300079D1FEF727FF022301202370FEF7EAFF56
:104E400000F0B0FA012001F0C5FA00F06DF95B4BFB
:104E5000D3F808335A0378D5624B1B68002B74D003
:104E6000584C4FF4A470FEF71BFD2378DBB2042BE3
:104E700006D3052B4FF002055AD9082B00F08D8080
:104E8000514B524A40F63921E7E500F01DFB00285E
:104E9000A8D1FFF733FBA5E7534B1C688CB3A3F5F0
:104EA000AE730024D3F80034DBB2012B29D14F4A72
:104EB000156885F880401C46FEF784FE0227012015
:104EC0003770FEF7A7FFF4B13C4BD3F8480500F06C
:104ED0007F0000F044FC04462846FEF7BFFD444B2B
:104EE0001E68074600F05EFA304600F0C3F86242E2
:104EF0007BB252B22946304601F063FA00F014F951
:104F000070E72546D8E700F04DFA3846FEF7C6FDB3
:104F1000F4E72D4B2D4A40F6FB119EE52A4B2B4A18
:104F200040F60E2199E5284B284A40F6212194E5C8
:104F3000FFF7CCF901202570FEF76CFF00F032FA84
:104F40000120FEF7ABFD00F0EFF81C4AD2F8083361
:104F50001B041DD5274B1B68D3B11A4D4FF49E700F
:104F6000FEF79EFC2B78072B67D1234CD2F86836CE
:104F70002278DBB2934238BF134623701F4B186868
:104F800000283FD0FEF7EEFC98B11D4B01221A60BD
:104F900000F006FA03B0BDE8F08FFEF773FE0120C3
:104FA0002570FEF737FF00F0FDF9002001F012FA3E
:104FB000C9E74FF48070FEF75FFDE9E7001000409D
:104FC0006C11004032170020AAE40000BDE500008B
:104FD00052000800081000400C1100401011004061
:104FE00044110040481100405C110040341700207B
:104FF000381700203C110040291700202C170020F2
:105000002410004000F040FAFEF788FDFEF70CFE89
:10501000022301202B70FEF7FDFE207800F0ADFB8F
:1050200000B2840000F0BEF9FF2C28BFFF24E0B2DC
:1050300001F0CCF900F078F8AAE7024B024A40F6FA
:105040004C210AE5AAE40000BDE50000F8B5084FD0
:1050500005460E46002457F8243033B13146284621
:10506000984718B10134032CF5D10120F8BD00BFD9
:10507000A4E6000000F006BEF8B5084F05460E464F
:10508000002457F8243033B131462846984718B1E8
:105090000134032CF5D10120F8BD00BFB0E60000BB
:1050A00070B5074E0546002456F824302BB128462B
:1050B000984718B10134032CF6D1012070BD00BF10
:1050C000BCE60000124A10B51446D2E84F3FDBB2EE
:1050D000012B0AD013D3022B0DD1012815D00D4B73
:1050E0000D4A5A210D4801F0F7F902280DD00C4B5A
:1050F000094A5F21F6E70B4B074A6421F2E70346B2
:10510000C4E8413F0029E0D110BD0023F8E700BF0B
:10511000401700200DE90000C8E6000025E9000066
:10512000C0E90000AAE4000008B50B4B1A7812068B
:1051300006D50A4B0A4A40F261110A4801F0CCF93F
:10514000094A127822B9094B054A4FF4B171F4E7C4
:10515000FF221A7008BD00BF3E170020B6E800000D
:1051600072E7000025E900003F170020E6E8000094
:10517000124908B54B68C3F30803DBB10F2B06D8FF
:105180000F4B104A10484FF4BC7101F0A5F9103BC9
:10519000DBB25AB2002ABBBF03F00F03043B02F19B
:1051A00060435B18AABF03F56143187E93F80003C0
:1051B000400908BD4FF0FF30FBE700BF00ED00E005
:1051C0000FE800009BE7000025E9000038B5044621
:1051D0001B4D68B92B785BB1FFF7CAFF194B1B78E1
:1051E000B0F1FF3F08BF7F205BB240B2834224D1C1
:1051F000D5E84F3FDBB2FF2B05D1134B134A1448C0
:10520000D62101F069F90133DBB2C5E8423F002A3B
:10521000EED1FEF79DF8012000F054FA18B10D4BC5
:105220000222C3F88020BFF34F8FBFF36F8F0A4A6B
:1052300013780133DBB213700124204638BD00BF60
:105240003F1700203E170020D2E70000EEE60000E6
:1052500025E9000000E100E03D1700200020FFF7F5
:10526000B5BF000008B50120FFF7B0FF30B9044B0F
:10527000044A05484FF4A37101F02EF908BD00BFA0
:1052800041E800001BE7000025E900002DE9F04798
:10529000364E337803F0FF052BB9354B354AF021F4
:1052A000354801F019F9012D09D1344A0023D2E81B
:1052B0004F4FC2E8413F0029F9D1E4B200E0002499
:1052C000DFF8D8902E4FCA4699F80080012D5FFA7A
:1052D00088F81CD13B781BB12A4B264AFE21DFE718
:1052E000012C3D7006D007D3022C1CD0264B274A38
:1052F0009021D5E7FFF7BAF9012000F0E3F910B1EA
:10530000234B02221A60FEF72FF800233B706A1E1F
:10531000D2B2D6E84F3FDBB29D4207D01D4B154AB3
:105320004FF48671BCE7FFF771FAE5E7C6E8432F53
:10533000002BEED1012D17D1104AD2E84F4FC2E811
:10534000413F0029F9D114F0FF0403D19AF800304D
:10535000434509D00020FFF739FF0028B4D10E4B98
:10536000044A4FF48D719BE7BDE8F0873F1700209A
:10537000E2E7000005E7000025E9000040170020F3
:105380003C170020EAE70000AAE40000DDE6000088
:1053900000E100E0FDE700009DE600003D17002071
:1053A000FFF774BF10B50E4C2378FF2B06D00D4BC2
:1053B0000D4A4FF4AC710D4801F08EF80C4B1B7880
:1053C00023B90C4B084A40F25911F4E7FFF7D0FE1D
:1053D000B0F1FF3F08BF7F2040B2207010BD00BF7A
:1053E0003E1700205AE8000048E7000025E90000C9
:1053F0003F170020E6E8000010B50020FFF7E6FEAA
:10540000044640B1074B1B782BB9FFF72FF9BDE8D5
:105410001040FFF73BBF0120FFF754FE002CF6D1F0
:1054200010BD00BF4017002010B50020FFF7CEFED2
:10543000044640B1074B1B782BB9FFF7E7F9BDE8ED
:105440001040FFF723BF0220FFF73CFE002CF6D1EF
:1054500010BD00BF40170020024B587C00F0010037
:10546000704700BF41170020024B587CC0F340003A
:10547000704700BF41170020024B587CC0F38000EA
:10548000704700BF41170020014B587CC00870478F
:1054900041170020014B93F900007047411700208D
:1054A0000048704742170020004870474617002008
:1054B0000048704744170020024BD3F80D300360BA
:1054C000704700BF4117002008B5064B187810B18F
:1054D000022801D8012008BD034B044A044880215A
:1054E00000F0FAFF0C000020AAE40000D6E900005A
:1054F000FBE9000008B5034A034B04489C2100F077
:10550000EBFF00BF9BEA000004EB000030EB000063
:1055100008B50B4B02221844D0E84F3FDBB2022BF8
:1055200005D1084B084A09485F2100F0D5FF13B99F
:10553000BFF32F8F08BDC0E8432F002BECD1F9E754
:1055400064170020DEEA00008EEA000030EB000065
:10555000F8B51B4D1B4E2F460122D5E84F3F13F0E7
:10556000FF0F07D0BFF32F8F164A13780133DBB23A
:105570001370F8BDC5E8432F002BEED1BFF35F8F4A
:10558000114A347811780229E4B203D153789A1E73
:10559000534253410D4A12783AB10D4A117899425B
:1055A00003D013704BB1FFF727FFBFF35F8F0023CA
:1055B0003B703378A342CFD1DBE7FFF735FFF4E749
:1055C0006217002063170020641700206017002076
:1055D00061170020124B10B501221C46D3E84F1F63
:1055E00011F0FF0F0BD0BFF32F8F0123621CD2E805
:1055F0004F2F12F0FF0F09D0BFF32F8F10BDC3E85C
:10560000412F0029EAD100F0FFFCEEE7611CC1E860
:10561000423F002AEAD1BDE8104000F0EDBE00BFD5
:105620006417002008B5054B01221A70BFF35F8F85
:10563000FFF7D0FFBDE80840FFF78ABF60170020E2
:1056400070B5BFF35F8F194B00221A7000F006FE91
:10565000174B1E68174B05461C6800F001FE164BE1
:105660001B7823B9154C237883B9FFF743FFA4F5C2
:105670009674221A3146284600F0F4FD0028F1D134
:10568000FFF766FF0E4B00221A7070BD00252570D3
:10569000BFF32F8F00F0BEFC6378002BE5D0657060
:1056A000BFF32F8F00F0C0FEEAE700BF60170020B5
:1056B0005C170020541700205817002064170020A2
:1056C00061170020012808B506D9064B064A07488D
:1056D0004FF4B97100F000FF054B185C831E58426F
:1056E000584108BDC9EA0000A8EA000030EB0000FC
:1056F0006417002000F0AEBE00F0C0BE08B5012067
:10570000FFF706FFBDE80840FFF722BF08B50020FD
:10571000FFF7FEFEBDE80840FFF71ABF08B500F02E
:10572000B1FE10F11D0F0FDB10F1090F0EDB0A287F
:105730000EDD1E280EDD32280EDD4728B4BF6FF0C7
:1057400001006FF0020008BD0320FCE70220FAE729
:105750000120F8E70020F6E74FF0FF30F3E710B53F
:105760000446FFF7DBFF2044C0B210BD10B504466D
:10577000FFF7D4FF201AC0B210BD10B50446FFF7E2
:10578000CDFF201AC0B210BD10B50446FFF7C6FF0A
:10579000201AC0B210BD00000649002303EBC3105D
:1057A000084490F880201AB90133102BF6D1104626
:1057B000704700BF7C18002008B5054B00221A7006
:1057C00000F036FC00F054FCBDE80840FDF7DEBDFB
:1057D0007817002008B500F045FCBDE80840FDF74B
:1057E0001FBE000010B5044600F072FC054B064ACF
:1057F000C3F88045C3F88405C3F8482901229A609C
:1058000010BD00BF00F001400CF0014073B501A8CD
:1058100000F040FC002849D0274E284C284DFDF7C9
:1058200003FE3378009023B322686168801A019ADE
:10583000521A121A00F500134FEA935349BF02207F
:1058400002EB530293FBF0F0121A92FBF3F22B7867
:105850001C494BB30B68C3EBC3039B1848BF043B05
:105860004FF0080258BF043393FBF2F30B6001239F
:105870002B7000233370BFF35F8F02AB13E903007B
:1058800084E80300BFF35F8F0123337000F0F0FB67
:105890002B782068002B14BF4FF080514FF480010B
:1058A000FDF7A8FD02B070BD0A60E0E700F0E0FB84
:1058B000FDF76CFDF6E700BF781700207017002099
:1058C0006C17002068170020012808B50A4B08D083
:1058D0000ED3022809D0094B094A0A48482100F092
:1058E000FBFD587800F0010008BD5A78D20701D4BA
:1058F0001878F7E70120F7E779170020AAE40000FD
:10590000BFEB000003EC000038B505460C46FFF77E
:10591000DBFFF0B1154B164AA100DDB1012D1FD1FF
:10592000D8781C795B78114480009B074FEAC40348
:105930004CBF104A104A03F1804303F5F833024488
:10594000C3F81015C3F8142501230C4AA340C2F86C
:10595000043538BD98781C791B7811448000E4E741
:10596000074B084A0848D92100F0B6FD79170020F6
:1059700040910040306000406060004000F0014015
:10598000AAE40000CEEB000003EC000008B5FFF72E
:105990009BFF30B1034B1A7901239340024AC2F8AE
:1059A000083508BD7917002000F0014010B5044605
:1059B000FFF78AFF50B13CB1012C09D0054B064AD4
:1059C0000648F82100F088FD112010BD0120FCE7F9
:1059D0002320FAE7AAE40000E9EB000003EC000052
:1059E00015490A78D00711D58B789B0003F18043C5
:1059F00003F5C04382F00202D3F81005C2F340025F
:105A000020F4801040EA0252C3F810254A78D307E8
:105A100011D5CB789B0003F1804303F5C04382F09E
:105A20000202D3F81015C2F3400221F4801141EABA
:105A30000252C3F8102570477917002070B506464A
:105A40000C461546FFF740FF60B13046FFF7AEFF4A
:105A5000054BD3F8002204F5A8741543C3F800528F
:105A600043F8240070BD00BF0090004010B50C4604
:105A7000FFF72AFF48B1054B01221A60044AD2F809
:105A8000003223EA0403C2F8003210BD1090004037
:105A90000090004038B50C461546FFF715FF20B1C1
:105AA00004F51174014B43F8245038BD00F0014057
:105AB00070B50C4616461D46FFF706FF70B1E000B4
:105AC000012300F1804000F5F83003FA04F4044BA0
:105AD000C0F81065C0F81455C3F8044570BD00BF88
:105AE00000F0014010B50C46FFF7EEFE28B104F5BA
:105AF0001174024B002243F8242010BD00F0014035
:105B000070B51E4D6C7814F0010617D004F0020435
:105B10001AB124B9EC781A4A03E0002CFAD1EC78D7
:105B2000184A02EB84022E7816F0010422D006F007
:105B300002062BB136B9AC78114B05E03246F2E7DC
:105B4000002EF8D1AC780F4B03EB8403C40004F1B2
:105B5000804404F5F834C4F81015C4F8142500F591
:105B60001171094A42F82130012303FA00F0C2F80A
:105B7000040570BD002AFCD02346E7E77917002012
:105B8000606000403060004000F00140034B0022A4
:105B90001A70BFF35F8F024800F0D0BB7F17002060
:105BA0008017002020B1034B0521186800F00CBCC1
:105BB000704700BF9417002010B5104C237843B1F4
:105BC00000230F4A0421012000F00BFC10B1002338
:105BD000237010BD0B480C4A436803F5FA739342D7
:105BE000436005D9094B0A4A0A48582100F074FC61
:105BF0000121BDE8104000F03DBB00BF7F17002031
:105C0000A55B00008017002040420F002AED000035
:105C100096EC000048ED000038B50B4B0B4C1860BB
:105C20000B4BA3600023E36000F018FB094B2060DE
:105C30001B6863600125084B204629461D7000F053
:105C400019FB284638BD00BF94170020801700209C
:105C5000B95B0000100000207F170020084B1B7864
:105C600010B503F0FF0433B1042902D028B1FFF7C7
:105C70008DFF204610BD0124FBE70446F9E700BF75
:105C80007F17002008B5084B1B68834208D0074BDC
:105C90001B782BB1064B074A07489B2100F01CFCE0
:105CA000BDE80840FFF772BF941700207F1700205F
:105CB000F8EC0000AAEC000048ED000008B5084B25
:105CC0001B68834208D0074B1B782BB1064B074A51
:105CD0000748A32100F000FCFFF758FF012008BD92
:105CE000941700207F170020F8EC0000D2EC000091
:105CF00048ED000070B501F01DF90D4B0D4D1A78FF
:105D000001239340002690FBF3F404FB13040A4B99
:105D1000AB60EE6000F0A2FAE3B24FF4A07463430C
:105D200028606B6031462846BDE8704000F0A2BA9A
:105D3000981700209C170020795D000010B50B4AD1
:105D40000B4913780133DBB213700A78042A9CBF25
:105D500001320A70032B4FF0000403D8FFF7CAFF8B
:105D6000204610BD034B01201C70FAE79A17002053
:105D7000981700209917002013B50B4C23788BB18E
:105D80000A4B01930A4A0123009312680321002061
:105D900000F029FB30B9237823B102B0BDE81040F0
:105DA000FFF7CCBF02B010BD99170020B55D000011
:105DB000B017002040B9054B1B78022B04D9044BC7
:105DC0000121186800F000BB704700BF9A1700203F
:105DD000B0170020012910B506D8064C30B106488E
:105DE00000F0ACFA00232370012002E0207880F05C
:105DF000010010BD991700209C170020054B1B685F
:105E0000834204D1044B1B780BB1FFF797BF0120ED
:105E1000704700BFB01700209917002008B5094B44
:105E20001B6883420BD1084800F092FA28B1074B57
:105E3000074A0848F62100F04FFB074B1870012075
:105E400008BD00BFB01700209C170020C5EE000061
:105E5000EBED000026EE00009917002070B5837866
:105E600003F00C03082B05460C46164604D00C2BF9
:105E700011D02BB1012070BD082323700020FAE758
:105E8000FFF7FAFA00B946B9AB7803F0C003802BEC
:105E9000F2D0C02BEED10E23EFE70320EBE700009A
:105EA00073B5061D0546FFF7FBFA02220146304690
:105EB00000F050FE10B9012002B070BD0D4B02225F
:105EC0001C88ADF800406946304600F043FE0028CB
:105ED000F1D06B785B070BD1FFF7E2FA022201A940
:105EE000ADF8044000F036FEB0FA80F04009E3E778
:105EF0000020E1E7F2EE000037B50B78082B0446EE
:105F000044D00E2B67D0032B6FD10378053B7A2B3F
:105F10000FD84278837802F0070203F03003072A93
:105F200007D8DFE802F00404040406081010302B40
:105F300009D1012013E0002BFBD1204603B0BDE8BE
:105F40003040FFF78BBF012000FA02F515F02F0F4C
:105F50003FD0102BF1D0202B03D0002BEDD003B07D
:105F600030BD072AE5D801A353F822F03B5F0000BB
:105F70003B5F00003B5F00003B5F0000335F0000C1
:105F8000335F0000D35F0000D35F0000FFF788FF9E
:105F900008B90320E3E7FFF78BFAA51D01460222AB
:105FA000284600F0D7FDA0B1134B1B88ADF8043094
:105FB000022201A9284600F0CDFD50B163785B07AD
:105FC00007D0A37813F00C0FE3D1FFF755FA0028A0
:105FD000DFD00020C3E7FFF763FF0028D9D0FFF729
:105FE00063FA08220146A01DE5E7044B044A054870
:105FF0004FF4E17100F070FAF2EE0000AAE4000044
:10600000F4EE000011EF00000148FCF7E1B800BF1A
:1060100014000020FCF718B9704708B510B9FFF755
:1060200075FB08BD0128FCD1FFF7F6FFF9E700007A
:106030000B4BD3F8042522F00302C3F80425D3F850
:10604000082542F00302C3F80825D3F8102522F0F2
:106050000F0242F00402C3F8102501221A607047B3
:1060600000800040014B01221A6070471080004000
:10607000054B064901221A60054AD2F84435013B16
:106080000B60C2F84835704744800040B4170020C8
:106090000080004008B5094BD3F8483528B9084BB3
:1060A000084A09487A2100F017FA084A12689A4209
:1060B00016BF03600020012008BD00BF0080004023
:1060C000D1EF0000AFEF0000E5EF0000B4170020B3
:1060D000004870474C80004082B00122D0E84F3F1A
:1060E000DBB28DF807309DF8073023B1BFF32F8F57
:1060F000002002B07047C0E8432F002BEED1BFF361
:106100005F8F0120F5E70000094A82B0D2E84F3FD7
:10611000DBB28DF807309DF807300133DBB2C2E8FF
:10612000413F0029F2D1BFF35F8F02B0704700BF3B
:10613000B91700202DE9F34190B12E4FDFF8C8C008
:106140004FF0000EB8463978CDF804E0C9B2624687
:1061500052E8004F54B1A04230D004F11002F7E7EA
:10616000254B264AB521264800F0B6F9234698F873
:1061700000508D42E7D1984222D103690193DCF8A7
:106180000030834224D1019B002B15BF002501253F
:1061900001260026019B42E800310029D3D1FFF7F8
:1061A000B3FF0CB3034603F1100252E8002F9342F1
:1061B00014D1144B114A40F20511D4E70346D6E737
:1061C000BFF32F8F3CB904F0010002B0BDE8F081AD
:1061D00000252E46DEE700252E46E4E703F11000F9
:1061E00040E800210029DED1002E0CBF2C460124FE
:1061F000E9E700BFB9170020EFF000008AF00000C7
:10620000FFF00000A5F10000BC1700202DE9F041CF
:106210000F4E104FB04635780F483C68EDB2FFF78F
:106220005BFF38B164B9FDF7AEF8BFF35F8F0A4B7F
:1062300000221A7098F80030AB42ECD1BDE8F08132
:106240003B6820686168A342EFD1FDF799F8ECE75D
:10625000B9170020BC170020BA170020FDF78CB832
:10626000FDF78CB8101A08440028D4BF0020012084
:1062700070470000F8B5044630B9284B284A40F270
:106280003111284800F028F9836823B9264B244AA5
:106290004FF49971F5E729B1FDF770F86368013B98
:1062A000034463602046FFF745FF08B1FFF7AEFFE8
:1062B0001E4E1F4DB44630782946C0B251E8003F0B
:1062C0009C4204D11B4B164A40F24D11D9E75BB1F9
:1062D000D4E900273A441F68D21B5F68D21B002A0A
:1062E00002DB03F11001E9E79CF800208242E2D1D1
:1062F000A34204D1104B0A4A4FF4B371C1E72361A2
:1063000041E80043002BD6D1FFF7FEFE2B68A342E5
:1063100003D1BDE8F840FFF779BFF8BDEFF000000A
:1063200097F00000FFF00000B2F00000B917002065
:10633000BC170020CCF00000DDF0000008B5FFF72E
:10634000F9FE18B1BDE80840FFF760BF08BD0000C6
:10635000094B0A4970B51E680D460A783346D2B219
:1063600023B92C789442F8D1184670BD834201D0ED
:106370001B69F5E70123F4E7BC170020B9170020DB
:1063800038B50B48FFF7A8FE70B10A4B186830B15A
:10639000D0E90245FFF7CEFE0CB12846A047BFF377
:1063A0005F8F034B00221A70BDE83840FFF72EBF05
:1063B000B8170020BC170020D2B2FDF77BB8FDF75C
:1063C000BFB8DBB2FDF7E2B8FDF708B9FDF732B9A7
:1063D000FDF7DAB9FDF7D9B9FDF7D8B9FFF730B94C
:1063E0007047FEF785BA10B49DF8044001945DF83B
:1063F000044BFEF7A9BA000008B5074B1A782AB17A
:10640000064B074A07483B2100F066F801221A7044
:10641000BDE80840FFF772B9C017002012F2000073
:10642000BBF1000020F2000008B5064B1A782AB92B
:10643000054B064A0648432100F04EF800221A7028
:1064400008BD00BFC017002013F20000DAF1000001
:1064500020F2000008B5054B1B782BB9044B054A08
:1064600005484C2100F038F8012008BDC017002075
:1064700013F20000F8F1000020F200004FF0FF30AE
:1064800070470000034B1868042390FBF3F040B200
:10649000704700BFC41700200B490C4B0C4A4FF04B
:1064A000FF3008601B68BFF35B8F52E8001F42E8B3
:1064B00000300028F9D1BFF35B8F9942F3D1BFF3CD
:1064C0005F8F044A1360704704BA025000BA02504A
:1064D000C817002008BA025000B50A4C26680546C5
:1064E00085B01C46F06852B1074B0091CDE90132EE
:1064F00006492B46224600F01DF803F0FBFD044B35
:106500001A46F2E71C000020BCF20000CCF20000AA
:10651000C8F2000008B50021044603F077FD044BE3
:106520001868C36B03B19847204606F05DF900BFB9
:10653000FCF200000EB410B583B005AB064C53F866
:10654000042B01930146206801F0AEF803B0BDE8CA
:10655000104003B0704700BF1C00002070B50D4E06
:106560000D4D761BB61006D00024013455F8043BBF
:106570009847A642F9D1094E094D761B06F04AFF0D
:10658000B61006D00024013455F8043B9847A642C3
:10659000F9D170BDC8090020C8090020D409002025
:1065A000C8090020044B054A1B685B6B002B08BF21
:1065B000134693F8280170471C000020480400206F
:1065C000024B0146186800F00BB800BF1C00002009
:1065D000024B0146186804F069BF00BF1C00002090
:1065E0002DE9F04F01F10B05162D83B0064623D897
:1065F000102900F2B98000F027FC10251823022092
:10660000C54F3B44A3F108025C68944200F06681E8
:10661000636823F003032344D4E902515A68E96014
:1066200042F001028D6030465A6000F013FC0834DD
:10663000204603B0BDE8F08F35F0070500F19480E7
:10664000A94200F2918000F0FFFBB5F5FC7FC0F09D
:1066500083816B0A00F08F80042B00F24681AB0926
:1066600003F1390003F1380CC300AB4F3B44A3F1F5
:1066700008015C68A14206D10CE0002A80F21D816D
:10668000E468A14206D0636823F003035A1B0F2A73
:10669000F3DD60463C69DFF894C2644571D06368FD
:1066A00023F003035A1B0F2A00F34481002AC7E991
:1066B00004CC80F22681B3F5007F80F06981DB088D
:1066C000591C7A6857F83180C4F808804FF0010EE1
:1066D0009B100EFA03F307EBC10E1343AEF1080251
:1066E000E2607B6047F83140C8F80C40821001241A
:1066F00094409C424BD81C4206D120F00300640019
:106700001C4200F10400FAD007EBC009CE468046D7
:10671000DEF80C309E4507D122E1002A80F2298163
:10672000DB689E4500F01C81596821F003014A1B7B
:106730000F2AF2DDD3E9028E5C1945F001055D6098
:1067400042F00105C8F80CE03046CEF80880C7E9F1
:106750000444C4E902CC65605A50019300F07AFB0E
:10676000019B03F1080463E700240C2320463360F7
:1067700003B0BDE8F08F4FF4007340204FF03F0CA2
:1067800073E77B688210012494409C42B3D9BC68B3
:10679000636823F00309A94503D3A9EB05030F2B75
:1067A0007BDC5E4BDFF888A11A68DAF80030013331
:1067B00005EB020800F0488108F5805808F10F0841
:1067C00028F47F6828F00F084146304600F07EFD2F
:1067D000B0F1FF3F834600F0048104EB0900584507
:1067E00000F2FD804E4A13684344136000F04D816F
:1067F000DAF8001001311BBFABEB00001B18CAF820
:1068000000B013601BF0070300F03481C3F10801EE
:10681000C3F580538B440833D844C8F30B08A3EB6B
:10682000080841463046019200F050FD431C019A91
:1068300000F04681A0EB0B01414441F001011368D7
:10684000C7F808B04344BC42CBF80410136015D01D
:10685000B9F10F0F40F230816068A9F10C0121F00D
:10686000070100F0010004EB010C08434FF0050E96
:106870000F296060CCE901EE00F23A81294A2A48EA
:106880001168BC688B42016888BF136062688B42E4
:1068900022F0030288BF0360A7E0621943F00103FE
:1068A00045F0010565603046BA60536000F0D2FAE9
:1068B0000834204603B0BDE8F08F2344E1685A68ED
:1068C000A56842F00102E96030468D605A6000F030
:1068D000C1FA0834204603B0BDE8F08FDC68A3425B
:1068E00008BF02303FF4D6AE92E6142B71D9542B78
:1068F00000F2AD802B0B03F16F0003F16E0CC300AF
:10690000B3E6234430465A6842F001025A60083424
:1069100000F0A0FA8CE600BFB4050020FC170020B0
:10692000CC170020F4170020F8170020BC05002029
:10693000BC090020611945F0010E42F00105C4F8C0
:1069400004E03046C7E90411C1E902CC4D60E250D1
:1069500000F080FA08346BE6E80805F108034FE61A
:1069600008F1010818F0030F0EF1080E7FF4D0AE05
:1069700052E019441C464A68DB6854F8085F42F04C
:1069800001024A603046EB609D6000F063FA4FE61A
:106990005A0A042A35D9142A6FD802F15C01C900B9
:1069A0005B3207EB010E7958AEF1080E8E4558D0D8
:1069B0004A6822F003029A4202D989688E45F7D1CB
:1069C000D1F80CE07B68C4E9021ECEF80840CC6028
:1069D0008CE603F15C0003F15B0CC30045E6BC42AE
:1069E00072D0BC68626822F003029542A2EB0503F4
:1069F00002D80F2B3FF751AF304600F02BFA00249E
:106A000016E69A0902F13901C9003832C9E7D9F806
:106A10000090994540F0838010F0030FA9F108031E
:106A200000F1FF30F3D17B6823EA04037B6064004C
:106A30009C423FF6ACAE1CB9A9E6640008F104081C
:106A40001C42FAD040465FE608F11008BCE6B3F5F8
:106A5000AA7F26D8EB0B03F1780003F1770CC30073
:106A600003E67B6892104FF0010808FA02F2134324
:106A70007B60A8E74FF48053CEE6542A29D81A0B3E
:106A800002F16F01C9006E328BE7C0F30B010029E0
:106A90007FF4AEAE09EB0802B96842F001024A6029
:106AA000ECE640F2545293421CD8AB0C03F17D004B
:106AB00003F17C0CC300D8E50123CBF804309BE73D
:106AC00001214FF00008BAE6164A136843441360E8
:106AD0008EE6B2F5AA7F14D8DA0B02F17801C9006C
