:020000022000DC
:1060000000000120B5AC0200DDAC0200216C0200F2
:10601000E1AC0200E3AC0200E5AC020000000000CD
:10602000000000000000000000000000E7AC0200DB
:10603000E9AC020000000000EBAC0200EDAC020095
:106040000DA10200EFAC0200B19102000194020028
:10605000EFAC0200EFAC0200259002003992020082
:106060009D930200EFAC0200EFAC0200EFAC020027
:10607000EFAC0200EFAC0200EFAC0200EFAC0200AC
:10608000EFAC020049670200EFAC0200EFAC020087
:10609000E5670200EFAC0200BD830200EFAC020036
:1060A000EFAC0200EFAC0200EFAC0200EFAC02007C
:1060B000EFAC0200EFAC02000000000000000000A6
:1060C000EFAC0200EFAC0200EFAC0200EFAC02005C
:1060D000EFAC0200EFAC0200EFAC020000000000E9
:1060E00000000000000000000000000000000000B0
:1060F00000000000000000000000000000000000A0
:10610000000000000000000000000000000000008F
:10611000000000000000000000000000000000007F
:10612000000000000000000000000000000000006F
:10613000000000000000000000000000000000005F
:10614000000000000000000000000000000000004F
:10615000000000000000000000000000000000003F
:10616000000000000000000000000000000000002F
:10617000000000000000000000000000000000001F
:10618000000000000000000000000000000000000F
:1061900000000000000000000000000000000000FF
:1061A00000000000000000000000000000000000EF
:1061B00000000000000000000000000000000000DF
:1061C00000000000000000000000000000000000CF
:1061D00000000000000000000000000000000000BF
:1061E00000000000000000000000000000000000AF
:1061F000000000000000000000000000000000009F
:1062000010B5054C237833B9044B13B10448AFF3F0
:1062100000800123237010BDA0A200200000000018
:106220000C25030008B5034B1BB103490348AFF32A
:10623000008008BD00000000A4A200200C2503007F
:10624000154B002B08BF134B9D46A3F5803A002148
:106250008B460F461348144A121A04F049FE0F4B9E
:10626000002B00D098470E4B002B00D09847002001
:10627000002104000D000D48002802D00C4806F053
:10628000A1FE04F045FD2000290000F067F804F0AD
:106290002FFD00BF000008000000012000000000EA
:1062A00000000000A0A20020DCB10020C5CF020049
:1062B00095E102002DE9F743DFF89880DFF8989028
:1062C0001E4F0646002414F80830B3421CD1304655
:1062D00002F092FE14F8093005461846D5B102F0D6
:1062E00043FD174804F08CFF002302460093144935
:1062F000144802F01DFA18B1134A3B2100F0D1F9FD
:106300001248214604F03EFE0134042CDBD103B0D8
:10631000BDE8F08302F056FD384604F071FF0095A9
:1063200002462B463946074802F002FA18B1064ADF
:10633000452100F0B6F921460548E3E7A89800207A
:10634000B19800203C0D0300D60C0300DD0C0300C7
:10635000E80C0300940C0300980C03002DE9FF41A6
:1063600002F06AFC30B902F031FC18B1394A53210D
:1063700000F097F900240123374D364EADF8084060
:106380008DF80A408DF8093002A9285D02F05EFC04
:1063900018B132465A2100F084F90134042CF3D1AB
:1063A000032300242D4E2E4FDFF8A8808DF80E40D9
:1063B0008DF80C308DF80D30A55D3A4603A92846BE
:1063C00002F02EFD18B14246632100F06AF9012166
:1063D0002846013402F0B4FD042CEDD101F070FE2A
:1063E00018B11C4A6B2100F05CF91E4A1E491F4877
:1063F00002F002F918B1174A6F2100F052F91C4857
:1064000004F0FEFE0023024600931949174802F0EB
:106410008FF918B10F4A742100F043F94FF400418D
:10642000002001F0E3FA18B10A4A782100F039F9A6
:1064300001F00AFA0F4B10481049C01AC0080004B6
:1064400040F0030001F0ACFC0D4804F09BFD01F0AE
:106450004DFEFCE7D60C0300980C0300940C0300DF
:10646000B5620200000D03001C0D03003C0D03008B
:10647000B998002018250300582503009C0C030040
:10648000B50C030038B5054D044645F001054FF441
:106490007A40A847013CFAD138BD00BF200E030066
:1064A0007FB505460E46144672B601F0D5FC01F0E4
:1064B000F7FA0028FBD1464804F064FD41F20103DD
:1064C0009D4274D006D8012D12D03146414804F0C7
:1064D00059FD10E044F201039D426AD044F20203E8
:1064E0009D42F2D1228861683B4804F04BFD02E0F6
:1064F0003A4804F047FD02F09FFB08B902F066FB42
:106500000023ADF80C308DF80E3003A901231120C3
:106510008DF80D3002F09AFB03A9122002F096FBD1
:1065200003A9132002F092FB03A9142002F08EFBB2
:10653000112002F047FC122002F044FC132002F06C
:1065400041FC142002F03EFC4FF4FA70FFF79AFF72
:10655000112002F009FC122002F006FC132002F0C8
:1065600003FC142002F000FC3220FFF78BFF112007
:1065700002F028FC122002F025FC132002F022FC7D
:10658000142002F01FFC4FF4FA70FFF77BFF11207C
:1065900002F0EAFB122002F0E7FB132002F0E4FB1A
:1065A000142002F0E1FBFA20FFF76CFFC0E70C4873
:1065B0009FE7A568284602F089F9236801960093B1
:1065C000024663680748294604F0DCFC93E700BFF5
:1065D000640D0300030E0300BE0D03007D0D0300D8
:1065E0009B0D0300D90D030007B502F025FB08B988
:1065F00002F0ECFA0023ADF804308DF8063001A962
:10660000012311208DF8053002F020FB01A9122092
:1066100002F01CFB01A9132002F018FB01A91420B1
:1066200002F014FB112002F0CDFB122002F0CAFB95
:10663000132002F0C7FB142002F0C4FB4FF4FA70E1
:10664000FFF720FF112002F08FFB122002F08CFBDD
:10665000132002F089FB142002F086FB3220FFF7A2
:1066600011FF112002F0AEFB122002F0ABFB132051
:1066700002F0A8FB142002F0A5FB4FF4FA70FFF71C
:1066800001FF112002F070FB122002F06DFB1320BD
:1066900002F06AFB142002F067FBFA20FFF7F2FE1B
:1066A000C0E700B583B002900091019244F201006E
:1066B00071466A46FFF7F4FE03B000BD094A5378FD
:1066C00091780133DBB2994208BF002311789942D7
:1066D0001FBF03705078182303FB002014BF043041
:1066E0000020704734A4002073B5054602A800249A
:1066F00000F8014D0E4600F03BFA0DF10600FFF7E1
:10670000DDFF90B106700A4B9DF8062045605A7077
:106710009DF8070000F05CFA24B9064B4FF4801294
:10672000C3F80021204602B070BD0424F0E700BF8A
:1067300034A4002000E100E0024B4FF43C6043F041
:1067400001031847300E0300F8B51F491F4B002501
:10675000C1F84051C1F84451C1F84851C1F84C51F9
:10676000C1F80051C1F804511B684BB3D1F804457E
:1067700017490968641A24F07F442F461A68A24218
:1067800009D8A41A15441A7CDE691AB11F74D3E91A
:1067900005209047AEB90F4B0F4A197813788B42FA
:1067A00005D10133DBB2022B08BF0023137012782E
:1067B0000A4B43F822500A4B4FF48012C3F80021D1
:1067C000F8BD3346DAE700BF0010014054A50020B1
:1067D00050A500204CA500204DA5002044A5002078
:1067E00000E100E02DE9F74F9C4A9D4913780978B4
:1067F0009C4D99423CD00133DBB2022B08BF0023F1
:10680000137099491278994B0F6853F822003B187E
:1068100023F07F4300220B602B68164614469446F3
:1068200013B942B12B6006E0196881420ED902B15A
:106830002B60091A19604FF001082B68DFF834A2A9
:1068400000930027BEB9DFF834B260E0401A0C4470
:10685000D968C3F800C0D3F81CE031B13A1922F06E
:106860007F42C3E90121DE611E4601227346D7E75C
:106870000026B046E1E73446F6697B4A6368126851
:10688000DFF8FCC1A068991A21F07F41614500F250
:10689000A58001442160012222742A680023C4E9F2
:1068A0000133E361002A40F0A2802C60CAE75A1C41
:1068B0009BF80210D2B291428BF8002004BF002254
:1068C0008BF80020182202FB03B32A6819799C6810
:1068D000022974D003297ED0012918D1217CB1B9B5
:1068E000DA6862601A69A2605A69E2609B69A36112
:1068F0005F4B1B78002BC0D06160BEE79C4200F06C
:1069000090809946DB69002BF8D1002323749BF813
:1069100000309BF801209A42C9D12B682FB9009A08
:10692000934202D1B8F1000F43D0002B41D0D3F8ED
:1069300000A0504D4C4BD5F804751C68DFF844811D
:106940003E1B98F8003026F07F4603369BB94FF483
:106950008033C5F84433C5F80433474B4FF4003255
:106960004FF00109C3F880211A60C5F80090FFF7C5
:10697000E3FE88F80090B2452CBF5444A41924F0DB
:106980007F44C5F84045D5F80435DB1B23F07F4331
:10699000E41B033324F07F44A3420AD9D5F804351D
:1069A000C5F84035FFF7C8FE334B4FF40032C3F84B
:1069B00000212F4B00221A7003B0BDE8F08F134660
:1069C0009146A0E71174D2690123002AFAD1002B65
:1069D0009DD02A609BE700231946F6E7D31A23F0DF
:1069E0007F43834234BFC31A0023236053E72168E7
:1069F0001368994213D8591A1160E26155E7091AD0
:106A0000D8691A4638B1034618688842F7D3401A45
:106A10001860184613462160E061DC6112E71346F6
:106A2000F2E74C450DD1D3692B6053B90E48019262
:106A30000121CAF8081003600D4B1970FFF77CFEA6
:106A4000019AE1692368C9F81C1011B10868034470
:106A50000B602B689A4218BF012756E74CA500200F
:106A60004DA5002054A5002050A5002044A50020DD
:106A700040A500200010014000E100E034A4002007
:106A8000FEFF7F0041A50020074B9B784BB132B140
:106A900028B10368187C20B959745A6170470720DF
:106AA00070470820704700BF34A400202DE9F74349
:106AB0001D4FBB7805460E4690469BB390B3042904
:106AC0002ED9436973B3437C02A80024012B00F83C
:106AD000014D0CBF8946A14600F04AF80DF10600B1
:106AE000FFF7ECFDD0B101230370104B4560D3F8E4
:106AF0000435C0E90498C0E902369DF806307B7081
:106B00009DF8070000F064F824B9094B4FF4801297
:106B1000C3F80021204603B0BDE8F0830424EFE76A
:106B20000724F7E70824F5E734A40020001001400B
:106B300000E100E0064A92783AB130B1426922B1F0
:106B4000002202740221FFF7CFBD0820704700BF6A
:106B500034A40020EFF30583C3F308032BB9EFF34C
:106B60001480C04300F0010070470120704700000E
:106B700070B50446FFF7EEFF012803D0104943200B
:106B800003F020FFEFF3108672B60E4A90680123DF
:106B900098B993600C4B0D4DD3F8801029401160CB
:106BA000C3F88050D3F8841051604FF0FF32C3F81F
:106BB0008420207006B962B670BD2370FAE700BF6A
:106BC000360E030028B1002000E100E0FC06FFBD06
:106BD00010B50446FFF7BEFF012803D00949512034
:106BE00003F0F0FE084B9A685AB154B9EFF31081E4
:106BF00072B6064A18681060586850609C6001B907
:106C000062B610BD360E030028B1002000E100E09E
:106C1000024B1B680021986804F0C8B9E098002076
:106C20001EF0040F1CBFEFF309800AE0EFF30880A9
:106C30000549064A884201D8904202D88D464FF055
:106C40000000034B184700000000012000E0002076
:106C5000556C02002DE9F347054601F0FDF800F000
:106C60001FFF0028FBD12F4B2F4C9F6A2F4BE41A9C
:106C7000E408240444F00104002D4ED0AA692C49F4
:106C8000204601F091F8EB680193AB680093294925
:106C9000D5E90023204601F0A7F8EB6900932649C7
:106CA000D5E90423204601F093F81E4BDB6A9807D0
:106CB00003D52249204601F073F8DFF89490DFF8FD
:106CC00094A000264FF0010808FA06F33B4206D0D4
:106CD00059F826201AB15146204601F065F80136D0
:106CE0001A2EF1D1390605D50E4B15495A6B20469F
:106CF00001F05AF83A0405D50A4B12499A6B20461E
:106D000001F052F8104B1B68DB0700D500BE284687
:106D1000FFF76AFC02B0BDE8F0870C49204601F09D
:106D20003FF8C2E700ED00E06025030018250300EE
:106D30007F0E0300940E0300C90E0300240F03000E
:106D4000730F0300930F0300F0ED00E0F10E03005A
:106D5000B00F0300680F030050E8002F0B4640E817
:106D6000003C9CF0000FF7D11046704750E8003F00
:106D700043EA010240E8002C9CF0000FF6D11046D7
:106D8000704750E8002F02EA010340E8003C9CF005
:106D9000000FF6D11046704750E8003F03EB0102A8
:106DA00040E8002C9CF0000FF6D11046704750E8E8
:106DB000003FA3EB010240E8002C9CF0000FF6D14D
:106DC000104670470121FFF7D1BF0021FFF7D9BF5F
:106DD00010B50446002834D003681BB91A49FF20B7
:106DE00003F0F0FD636823B917494FF4807003F096
:106DF000E9FDA36823B9144940F2011003F0E2FD54
:106E0000E36823B910494FF4817003F0DBFD238A56
:106E100023B90D4940F2031003F0D4FDD4E9012356
:106E200021689B1ADBB20A60013BDBB2FF2B2268B0
:106E300002D10020107110BD1168481C10600B7049
:106E4000F2E70E20F7E700BFD814030037B5054678
:106E500020B914494FF4927003F0B4FD02A8002445
:106E600000F8014DFFF784FE2A68696813688B42B9
:106E700010D9591E116013F8014C2A8AEB6802FBE5
:106E800004342A68AB6811685B1A1179DBB2994245
:106E900038BF13719DF80700FFF79AFE204603B034
:106EA00030BD00BFD814030037B50C46054620B9E5
:106EB000104940F2471003F085FD24B90D494FF405
:106EC000A47003F07FFD02A8002300F8013DFFF746
:106ED0004FFE2A681368591C1160EA68A41A2A8AAE
:106EE000B4FBF2F41C709DF80700FFF771FE03B0CD
:106EF00030BD00BFD814030090DF7047A5DF704796
:106F0000B5DF70477FB50023ADF80810ADF80A1063
:106F10006A4602A9064603930093ADF80430FFF7D2
:106F2000EBFF0546F8B1114B114CE41AE40801F0EF
:106F3000CDFC240444F00104034632460D492046AA
:106F400000F03CFFBDF80020BDF8023002B91BB1D3
:106F50000949204600F032FFBDF804201AB1074964
:106F6000204600F021FF284604B070BD182503001C
:106F7000682503001C15030066150300A515030012
:106F800013B5034680880C46A0B91A88232A00F05E
:106F9000AF8011D8102A25D0112A54D0A37A4BB132
:106FA000E1880020FFF7AAFF002840F0A780012316
:106FB000A072E37202B010BD3A2A4ED0552A68D0B2
:106FC000242AEBD11A7A0B694A73002BE6D04DF6CE
:106FD0007A21ADF80400ADF80010ADF802008DF88C
:106FE000042081E00A790A73DB7B012B13D0022B8A
:106FF00014D0E18823898B4205D20020FFF77EFF61
:1070000070B90123E372217B637B8B42C6D20020DF
:10701000FFF778FFC2E70B88E380EAE74B88FBE7DE
:10702000112802D10123A372EDE701F04FFC3C4A85
:107030003C4B3D499B1ADB081B04024643F0010010
:1070400000F0B2FEDFE7F723CB8017230B8141F678
:10705000FB338872C8728B81A0E75B89CA88934230
:1070600028BF1346172B0A6938BF17230B8162B15B
:10707000C97A51B140F67721ADF80010ADF80200A1
:10708000ADF804306946204690470023E372A372AE
:1070900084E7DB88C988A072172B38BF17238B427F
:1070A00028BF0B462381FFF72BFF60B101F00EFCD8
:1070B0001B4A1C4B1D499B1ADB081B04024643F06C
:1070C000010000F071FEE27A002A7FF467AF2369C5
:1070D000002B3FF463AF40F67721ADF80220228900
:1070E000ADF80010ADF8042069462046984755E7F2
:1070F000197A237B994228BF194689E711283FF462
:1071000059AF01F0E3FB064A064B07499B1ADB081F
:107110001B04024643F0010000F046FE4AE700BFB0
:107120001825030068250300FB1503002C16030037
:10713000B0DF704766DF704710B503460021408816
:10714000FFF7F8FF024608B91A7210BD112801D1E5
:107150000122F9E75B68BDE81040184728B10378C1
:10716000DE2B04D14180002070470E20704708209C
:107170007047F0B5054685B00C46F1B1E8B10B7823
:10718000DE2B1AD182884B889A4204D10B7A13B134
:107190000846FFF7D1FF2B88112B32D0512B0ED090
:1071A000012B0AD12B7A012B07D1A9886288914241
:1071B00003D123722046FFF7BFFF05B0F0BDAE88B4
:1071C0006388B342F9D1AF79022FF6D1AD7B2B1F83
:1071D000022BF2D800211022684603F089FE052D0B
:1071E00014BF4FF4C0730023694630468DF8007019
:1071F000ADF80430FFF79CFF0028DED063689847A5
:10720000DBE76388AA889A4204BF4FF6FF73638066
:10721000D3E700001FB503788DF800304368019371
:1072200083688DF80830C3680393054A054B6846A8
:1072300053F8213052F82110984705B05DF804FB4F
:1072400058A500205CA500201FB503788DF80030FC
:107250004368019383688DF80830C3680393054A37
:10726000054B684653F8213052F82110984705B075
:107270005DF804FB58A500205CA50020F0B5194B73
:10728000067891F81DE043F82620174B94460A69CA
:1072900043F82620154B03F806E00C4607460FCCB2
:1072A00089B06D460FC594E80F0085E80F0004967D
:1072B000BEF1000F0AD0BCF1000F0D4A694608BFAD
:1072C0000022381D02F0FEFC09B0F0BDBCF1000F39
:1072D000084A694608BF002207F10C0002F032FAA2
:1072E000F2E700BF5CA5002058A5002034B10020C3
:1072F000157202004972020010B5044618B9064919
:10730000312003F05FFBA2682AB16369216820691C
:1073100098470023A36010BD681603000EB433B570
:10732000059D044618B91249422003F04BFB6369DE
:107330001BB90F49432003F045FB23681BB90C49D7
:10734000442003F03FFB63681BB90949452003F063
:1073500039FB3DB102AA06AB42F8043D294620465E
:1073600000F06EF802B0BDE8304003B0704700BFD7
:1073700068160300826830B40468551C8560A15407
:10738000D0E901329A4202D330BCFFF7B5BF30BC1E
:10739000704700002DE9F84F9946DDE90A4317468A
:1073A000824688460A460126BA420FD24E4538BF69
:1073B0004E4613F0010B01D164B900240125B9F147
:1073C000010F1AD909F1FF397D43F8E7B2FBF7F253
:1073D0000136E9E79B070ED5B9F1000F0CBF302548
:1073E0002025A642EAD2013C29465046FFF7C2FFBB
:1073F000002CF6D1E1E72025F3E7B8FBF5F39F4237
:10740000E2D9DFF83890B8FBF5F3504619F80310CD
:1074100005FB1388FFF7AEFFB5FBF7F5002DF2D1A2
:10742000BBF1000F02D00CB1A64201D3BDE8F88F2A
:1074300020215046013CFFF79DFFF4E7A216030010
:107440002DE9F74F0E469046054620B9AC494FF45A
:10745000A27003F0B7FA6B6923B9A9494FF4A3707E
:1074600003F0B0FA2B6823B9A54940F2471003F0A6
:10747000A9FA6B6823B9A2494FF4A47003F0A2FAE9
:10748000002E00F03A8116F8011B002958D025295A
:1074900040F0D180002702E047F00107164632464F
:1074A00012F8013B2D2BF7D0302B04D02B2B05D11C
:1074B00047F00407F2E747F00207EFE700242A2B22
:1074C00006F101021BD1D8F80030191DC8F80010D0
:1074D0001B6816461C4433782E2B1CD101364FF006
:1074E000000A314611F8012BA2F13000092814D806
:1074F0000A2303FB0A23A3F1300A0E46F1E712F830
:10750000013CA3F130010929E5D80A2101FB04342B
:10751000303C1646D3E74FF0000A324612F8011B02
:1075200001F0FB0068281646F8D0692916D054D817
:10753000582970D00ED825297DD03378002BA2D1C0
:107540002B7B002B00F0D980284603B0BDE8F04F1C
:10755000FFF7D2BE632968D06429EED1D8F80020A5
:10756000111DC8F80010D2F8009089EAE972A2EB68
:10757000E9724FF0010B092A61DCD34538BFD346CD
:107580002CB1B9F1000F01DB790700D5013CBA0736
:1075900002D5BAF1000F04D0FB0702D4002C54D15D
:1075A0000024B9F1000F58DAC9F100092D2128464D
:1075B000FFF7E0FE07F00302022A05D1BAF1000F3F
:1075C00002D1002C4DD10024CDE9004753460A22B8
:1075D00049462846FFF7DEFEAFE7732954D016D898
:1075E0007029AAD1D8F800301A1DC8F8002030211F
:1075F00028461C68FFF7BEFE78212846FFF7BAFE32
:1076000000220823CDE9003221461022E1E7752946
:107610002FD0782991D1D8F800100A1DC8F8002081
:10762000CDE90047534610222CE0D8F800301A1D4F
:10763000C8F8002019782846FFF79CFE7DE70A234A
:107640000BF1010B92FBF3F295E7A345A9D22021A0
:107650002846013CFFF78EFEA0E77807AAD52B212C
:10766000A5E7A345B0D230212846013CFFF782FEB2
:10767000A7E7D8F80010CDE900470A1DC8F8002098
:1076800053460A220968A4E7D8F800301A1DC8F842
:107690000020F907D3F8009012D54F46A7EB090B4D
:1076A00017F8011B41B9A345BFF447AF2021284675
:1076B000013CFFF75FFEF6E72846FFF75BFEEDE7CC
:1076C000B9F1000F17D0484603F09AFD0746BC42B7
:1076D00000D954B909F1FF3919F8011F00293FF405
:1076E0002CAF2846FFF746FEF6E720212846013C4E
:1076F000FFF740FEEBE74F46E9E703B0BDE8F08F48
:10770000B21603007047000007B5044B0093044A0B
:10771000402300F032F803B05DF804FB2577020047
:1077200061A500202DE9F84389461446B2B10F4BFC
:107730000F4E0325002743F00108224609EB0701FD
:10774000002002F099FD0744241A48B933782BB180
:107750004FF47A40C047013D02D13570BDE8F8834F
:1077600001233370002CE8D1F8E700BF00170300B5
:1077700060A50020704702F0D1BDF0B595B01C4661
:10778000164608460D4600F07EFD1A9B0D93CDE986
:10779000086400242346082205A928460A948DF887
:1077A0002C400C9400F098FD079B0293BDF8183014
:1077B000ADF80C30BDF81A30ADF80E309DF814302D
:1077C0008DF8114003F00302012A1DD1BDF81440C9
:1077D000059EC3F3C203C4F383148DF81030A200D6
:1077E00008230EA9284600F077FDC6F3952608ABBE
:1077F0000093224602AB0EA9304600F09DFB2846BE
:1078000000F045FD15B0F0BD022AF8D1BDF81640D4
:10781000C3F3C203A4098DF810300827082C2646AC
:1078200028BF08263B4632460EA9284600F054FDE4
:10783000A41B08AB02AA31460EA8374400F0E0FBB7
:10784000002CEBD1DBE7000008B5FFF794FF042123
:10785000064800F0D7FA002803DA0549412003F072
:10786000B1F8044B01225A7108BD00BFFC2503008A
:1078700014170300CC980020037813F0040216D0EC
:1078800003F00303012B03D0022B09D00120704722
:107890000A6800880232C0F3831002440A60F5E7E8
:1078A0000B684288023303EB92130B60EEE710463D
:1078B000704700002DE9F04F89B00646871C08A8E4
:1078C000484C009200230D4600F8113DFFF750F997
:1078D00023682B60D4E901231344226801339B1AE7
:1078E00004F21C4804F5836B04F21449BB421AD31A
:1078F000009A0023002A6DD0012262F3010343F0B5
:10790000040366F389132168A2689DF80F000A40FA
:1079100003320F4444F822302760FFF759F9012061
:1079200009B0BDE8F08F01214046FFF735FA58460F
:10793000FFF748FA0DF1200A4846FFF743FA60685E
:107940004AF8100DA5682840033004EB800051462A
:10795000FFF792FF02460498002AF4D105EA0003DB
:1079600004EB8303811CDB6805930130054004EBC5
:10797000850503F00303012B0491ED6823D0022B4E
:1079800008D0194901924FF4BF7003F01BF8019A17
:10799000154607E0BDF816309B0903332D0C01EBAB
:1079A000930304934846FFF710FA08B1049B636001
:1079B00029464046FFF7F0F9D4E901231344226831
:1079C00001339B1A92E7BDF81430C3F383132D0CD7
:1079D0000B44E6E7022262F3010343F0040366F37B
:1079E0009F5390E774A60020771703000B4B0C48B9
:1079F000FF2210B59A600022C3F81824C3E90022C0
:107A0000C3F81424012283F8202400F0F5FB044677
:107A100010B9044800F076FC204610BD74A6002082
:107A200090250300C417030030B50A4C71B10A4A0F
:107A30000A49121BD20800239A4201D1002030BD0E
:107A400031F82350854202D00133F5E7034654F85C
:107A50003300F4E71825030090250300A0A20020BE
:107A6000094B013903EBC000032909D8DFE801F015
:107A70000A02040604207047007970474079704775
:107A8000002070470220704718250300034BD3E9FC
:107A90000030C31A58425841704700BF74A60020F6
:107AA0002DE9F04387B0FFF7F1FF0646002840F0CC
:107AB000FC807F4DC5F81804BFF34F8F6868AC6831
:107AC00006AF47F8100D2040033005EB8000394623
:107AD000FFF7D2FE029B18B1D5F81824002A5FD018
:107AE00004EA0302991C013305EB8202234005EBF3
:107AF0008303D268DB68049302F00303022B039232
:107B0000029162D1BDF80E306A484FEA9318B8F17D
:107B1000500FC14628BF4FF0500969F38F1309F188
:107B20000801ADF80E3000F07FFB0746002800F09A
:107B3000A78000F0A8FB03A900230822384600F024
:107B4000B5FB029924EA01060136B600B14535D9E4
:107B50005FFA89F97EB3F6B2A9EB06092140033139
:107B60005FFA89F4B146544E05EB810108234A4679
:107B7000384600F09BFB36B109F108032246314636
:107B8000384600F093FB029B08F1030803EB9803CF
:107B90000293D5F81834002B4BD1D5F810445BE094
:107BA0002A689A4204D86A60304607B0BDE8F0837C
:107BB00004EA030088E740493446D7E7214003310F
:107BC00008234A4605EB8101DAE7012B58D1BDF8BD
:107BD0000C303848C3F38311062928BF062161F30E
:107BE000891302318900ADF80C3000F01DFB074607
:107BF000002845D000F047FB0023082203A938469F
:107C000000F054FB0026BDF80C20C2F38312B31C15
:107C100096424FEA8303BCD202994A1C21400331A9
:107C2000029205EB81010422384600F03FFB013649
:107C3000E9E7384600F02BFBFFF728FF80F0010052
:107C4000C6B2B1E7E3685B7923B1236839461B68A4
:107C500020469847E3681C68002CF3D1384600F0B2
:107C600016FB06A800F8114DFEF782FFD5F8183470
:107C70000BB9029B6B609DF80700FEF7A9FFDBE7DD
:107C8000D5F8104454B90D4B0D480E49C01AC00820
:107C9000000440F0020000F083F8CDE7236820469E
:107CA0009B689847E3681C68ECE700267CE700BF08
:107CB00074A600209025030080A60020182503004C
:107CC00058250300D01703002DE9F74F2F4C8046AD
:107CD0000F46914601A9012218469B46D4F808A0F8
:107CE000FFF7E8FD00283DD0019D0026A91C5E4558
:107CF00006EB010240D100212548FFF72DF880F363
:107D0000100B244B244A4FEA18499B1AB9EBD30FA6
:107D100004D3224940F2A31002F054FE6B1C03EA84
:107D20000A0304EB830349EA0B42DA6005EA0A031B
:107D30000333012114F8232068F3C50204F823203B
:107D400034F8232066F3891224F8232054F82320E2
:107D500067F39F2244F8232061F301026FF382024C
:107D600004F8232094F820341BB1FFF799FE002873
:107D7000FBD103B0BDE8F08F0AEA020204EB8202F5
:107D800059F82630D3600136B1E700BF74A6002051
:107D900090AA002090250300182503007717030000
:107DA00000231A46FFF790BF13B502AC012344F835
:107DB000042D2246FFF788FF02B010BD07B5CDE9BC
:107DC000002302236A46FFF77FFF03B05DF804FB40
:107DD0001FB5CDE90123069B039301AA0323FFF7F7
:107DE00073FF05B05DF804FB1FB5CDE90023069BCA
:107DF0000293079B03936A460423FFF765FF05B0D0
:107E00005DF804FB30B5134AD2F810440023214634
:107E100051B9C4682371D2F810445CB9C2F8100497
:107E2000C2681160184630BDC9680D799D420AD0FC
:107E30000968EDE7E468C16824680C60D2F8102492
:107E4000D2681060EEE701330A2BE0D14FF0FF3328
:107E5000E8E700BF74A6002038B5094A0123D2F82C
:107E6000104482F820341D4604B938BDE3685D71C2
:107E7000236820465B689847E3681C68F4E700BF06
:107E800074A6002010B5037A052B0C460FD0437A58
:107E900023B1084A08492046FFF740FA074920461F
:107EA000FFF73CFA2046BDE81040FFF725BA002A4C
:107EB000F8D0F3E71B180300201803004018030054
:107EC00073B5C38804460D4633B1144A0092144971
:107ED000144A2846FFF722FA217A05291CD0637A32
:107EE0004BB1A088FFF7BCFD0F4B104953F8202081
:107EF0002846FFF713FA227A0D4BA08853F8226028
:107F00000021FFF791FD0B4903463246284602B097
:107F1000BDE87040FFF702BA02B070BD1B18030045
:107F20002B18030023180300E81703002018030090
:107F300050180300431803002DE9F04385B01F4695
:107F40000C9D002306460C46904695F80C902B732A
:107F500029463846FFF7B4FFB8F1060F09D8DFE825
:107F600008F00412181F2833400031462846FFF756
:107F7000D5F9002229463846FFF784FF85F80C9092
:107F800005B0BDE8F083226831462846FFF7C6F900
:107F9000EFE7D4E9002331462846FFF7BFF9E8E7C9
:107FA000A36800933146D4E900232846FFF7B6F9C9
:107FB000DFE7E3680193A36800933146D4E9002327
:107FC0002846FFF7ABF9D4E723690293E3680193EE
:107FD000A36800933146D4E900232846FFF79EF9B1
:107FE000C7E76369039323690293E3680193A36876
:107FF00000933146D4E900232846FFF78FF9B8E70C
:1080000008292DE9F84F80460E4617461C4635D8FC
:10801000002593F80C901D7319461046FFF750FF8A
:10802000DFF88CA0DFF88CB0AE4229D918F8052013
:1080300059462046FFF772F90135082DF4D11A4947
:10804000DFF874B02046FFF769F94FF0000A564593
:1080500024D918F80A507E2D17D92E2259462046C9
:10806000FFF75CF90AF1010ABAF1080FEFD101221A
:1080700021463846FFF706FF84F80C90BDE8F88FDC
:1080800051462046FFF74AF9D6E702F073FE28442E
:10809000427812F0970FE0D02A46DFE703492046E6
:1080A000FFF73CF9DEE700BF1618030014180300C1
:1080B000121803000C1803001818030041DF704762
:1080C000064B10B500241C70054B1C60BFF35F8F7E
:1080D0000449054800F024F9204610BDD8AA002024
:1080E000DCAA0020F8180300D0AA002013B502A8CB
:1080F000002300F8013DFEF73BFDF1EE104A24F0AD
:108100009F03E1EE103ABFF35F8F104B4022C3F89C
:1081100084219DF80700FEF75BFD630703D00C493F
:108120007D2002F04FFC00F02FF958B1FFF7C6FF99
:1081300030F0020304D006494FF4B07002F042FC64
:1081400002B010BD20BF40BF20BFF9E700E100E052
:10815000AF1803002DE9F74F99469DF83030019391
:1081600088461746054618B92249B62002F02AFC6F
:10817000EA8895F805B00BFB02FBABF1040BCB458D
:1081800003D81C49C42002F01DFC3E68B5F806A0C7
:1081900006EB09025A4509F1040188BFABEB090659
:1081A000B1FBFAF43E600AFB141144B9AAEB0107D3
:1081B000B74228BF37462EB903B0BDE8F08F2D680F
:1081C000013CF2E7019A043108EB0403681872B12C
:1081D00001463A461846F61B02F0F0FDB2453C4413
:1081E0002D6857464FF0000128BF3746E3E73A466F
:1081F0001946F0E70D190300FEF7EABDF8B5467918
:108200000146721E0546002393422D6803D30024C5
:10821000A64202D8F8BD0133F6E70F682846FEF7FC
:1082200043FE01343946F3E72DE9F843CD1C068AB5
:108230000746FEF70BFE043E35440446B5FBF6F553
:10824000F0B14FF48073EDB28380C680013D0760CA
:1082500081464FF00008A84512D23846FEF7F6FDD9
:10826000064648B163790133637108F10108C9F822
:10827000000007608146EEE72046FFF7BFFF344667
:108280002046BDE8F88301210430FEF785BD10B516
:10829000012104460430FEF78AFD10F0FF0F04D1DF
:1082A0002046BDE81040FFF7A9BF10BD30B585B02E
:1082B000144604AA002542F8044D0095FFF74AFF32
:1082C000039BA34203D00349F62002F07BFB05B0D9
:1082D00030BD00BF0D19030030B585B0144604AAA7
:1082E000012542F8044D0095FFF734FF039BA3429C
:1082F00004D003494FF4807002F064FB05B030BD38
:108300000D190300826800239360826813618268FC
:1083100053618268D36082685360826813607047DB
:1083200038B50D46044618B90849502002F04AFBFA
:108330001DB90649512002F045FB25602B6863609A
:108340006A68934204BF0023636038BD511903007B
:1083500010B5044618B90B49632002F033FB2368BB
:108360001BB90849642002F02DFB636843B1226801
:1083700091680B4463605268934204BF00236360BA
:1083800010BD00BF51190300014B1878704700BFA2
:10839000E0AA002007B508496846FFF7C1FF019B26
:1083A00013B903B05DF804FBD3E900209047684699
:1083B000FFF7CEFFF3E700BFB0190300FFF7EABFF6
:1083C00061DF704730B5134DADF5017D4FF4FA74A0
:1083D0000DF1020103A8ADF80240FFF7F1FF70B9FB
:1083E000294601A8FFF79CFF029B002BF0D003A8B1
:1083F000D3E90021904701A8FFF7AAFFF4E7052879
:1084000004D0054A40F23911FEF74BF90DF5017D14
:1084100030BD00BF0C1A0300C4190300024B1B78C7
:108420000BB1FFF7CFBF7047E1AA002043691B687B
:10843000DB6803B1184770470123037070470000E1
:1084400010B5044618B90849922002F0BBFA236817
:10845000012B03D00449932002F0B4FABFF35F8FDD
:108460000023236010BD00BF241A030010B4074C82
:108470000378E35C23B104305DF8044B01F02EBDBA
:108480000C305DF8044B01F061BA00BF34B100203C
:1084900010B4074C0378E35C23B104305DF8044B5F
:1084A00001F09CBD0C305DF8044B01F0CBBA00BF6D
:1084B00034B1002070B50578012D06460C4603D076
:1084C00029D3022D25D070BD4B69027A1B68416803
:1084D0005B68186800F00EFB337A834205D90321EC
:1084E0002046BDE87040FFF7A1BF29462046FFF7B0
:1084F0009DFF63691B689B6820465A7A5968FFF79D
:10850000C7FF0028DFD011499B20BDE8704002F072
:1085100059BA2946E4E74B691B685A689D68566852
:1085200000212046FFF782FF2A7A2968304600F0B2
:1085300027FA0028C7D0C2B229682046FFF796FF65
:108540000028C0D00149B220DFE700BFA61A03000F
:1085500010B5044618B90749852002F033FA012105
:108560002046FEF7F9FBBFF35F8FB0FA80F04009B9
:1085700010BD00BF241A03000378044AD35C13B172
:10858000043001F01FBD0C3001F050BA34B10020AE
:1085900003681A7812B11B6903B1184770470000CD
:1085A0002DE9704304464FF4FA784FF400404FF041
:1085B0000009E0FB0189164600234FF47A72404619
:1085C000494608F0DBF90428054604D80123337036
:1085D0000020BDE87083074A00212046FEF754FAC8
:1085E0000028F6D1324629462068BDE87043FEF7E0
:1085F0005DBA00BF39840200F0B50E4689B0154659
:10860000044608B101B11AB94449BF2002F0DAF9B1
:1086100063691B68002B7ED12B783BB16B680BB173
:10862000AB681BB93D49C92002F0CCF93146202284
:10863000684602F0C3FB2B780494991E4A424A41D3
:10864000002B8DF81D206946354A204608BF0022C0
:10865000FEF714FE0646002838D163691D60636981
:108660001B685B6843B1586800F0B6F963691B6822
:108670005B68186800F0B0F9656915F1080F03D15F
:108680002849722002F09EF90023AB60BFF35F8F90
:1086900067693A1D1D4603D12249722002F092F902
:1086A0007D60BFF35F8F636903221A73009B013300
:1086B00001BF6269137B23F002031373019A63699C
:1086C000013206D11A7B22F001021A73304609B03A
:1086D000F0BD1B681B78022B09D163691B689B687E
:1086E00020465A7A5968FFF7D3FE0646EEE723780C
:1086F0000D4AD35C53B10D4940F25A2002F062F9A1
:1087000063691B681B78002BE7D1DFE704F10C00DD
:1087100001F02EFAF4E78526D8E700BFA61A030079
:10872000B5840200241A030034B10020641A030047
:108730002DE9F04F0F4685B016469B46044620B9FA
:1087400052494FF4A67002F03DF960690368002BAE
:1087500000F09180027B910740F18F80002E5DD068
:1087600007F06042B2F1005F03D01B78022B00F0EB
:1087700086800430FFF7ECFE002800F082800023A2
:108780008DF80C300E9B5A1C0ED003AA1946A06916
:10879000FFF706FF054638B160690430FFF750FE69
:1087A000284605B0BDE8F08FDFF8E09035466369F4
:1087B0001A681378A3BBFF2DA84628BF4FF0FF0807
:1087C0005FFA88F239462046FFF750FE18B1494655
:1087D000692002F0F7F8B5EB0805474406D0606958
:1087E000FFF7D6FE9DF80C30002BE0D0BBF1000F58
:1087F00002D0761BCBF800609DF80C3033B90E9B8D
:10880000013303D0A3691868FEF794F96069043056
:10881000FFF716FE15B19DF80C30A3BB0025BFE78E
:108820005368D2F808A05B68019318462A46394677
:1088300000F060F980462046FFF79EFE019B00286D
:10884000C9D19AF80820DAF80010184600F098F814
:10885000024628B901904946782002F0B3F8019AFF
:10886000DAF80010D2B22046FFF700FE0028B2D09E
:1088700049467A20ADE7802592E7082590E7102544
:108880008EE711258CE70D258AE700BFA61A0300A5
:108890000D4930B5A1F594720225914201D800200E
:1088A0000EE08B1ADB1093FBF5F302EBC30452F8D6
:1088B0003330834205D802D204F10802EDE7606844
:1088C00030BD2146E9E700BF281C030008B5FFF7CB
:1088D000DFFF024B002808BF184608BDEA1A030054
:1088E000026813685268934291BFD01A80680130C1
:1088F000801888BFC01A704738B50C46054618B9AD
:108900000449772002F05EF8AB68A3428CBF601C7C
:10891000002038BDE21F03002DE9F84303681D68FD
:108920005C68A54284BF836801331746884694BFBC
:10893000641B5C1BC2684168BC42064605FB021111
:108940000CD37A43404602F039FAB3683D449D4265
:1089500088BF002533681D60BDE8F88304FB02F979
:108960004A46404602F02AFAF26871683C1B6243AC
:1089700008EB090002F022FA33681C60ECE7000003
:1089800073B50E461446054620B9124940F2D5107B
:1089900002F018F826B90F494FF4EB7002F012F804
:1089A000A4B102A8002300F8013DFEF7E1F8284633
:1089B000FFF796FF844228BF0446224628463146E8
:1089C000FFF7AAFF9DF80700FEF702F9204602B064
:1089D00070BD00BFE21F030037B5044620B90B4944
:1089E00040F2EF1001F0EEFF02A8002500F8015D53
:1089F000FEF7BEF80C222946206802F079FA9DF8AD
:108A00000700FEF7E5F803B030BD00BFE21F03002A
:108A100013B5044620B90B4940F2FD1001F0D2FF16
:108A200002A8002300F8013DFEF7A2F82046FFF758
:108A300057FF04469DF80700FEF7CAF8204602B02B
:108A400010BD00BFE21F030038B5044620B9054938
:108A500040F2122001F0B6FF2046A568FFF7D8FFCC
:108A6000281A38BDE21F03002DE9F84304461646D4
:108A70008846FFF7E9FF2368A5685A680135AD1AF3
:108A80008146E26858686368B54202FB003017D33C
:108A90007243414602F092F92268A1685368334458
:108AA0008B4296BF53680026F61856602046FFF7A3
:108AB00017FF23689A68824238BF9860BDE8F88340
:108AC00005FB02F73A46414602F078F9E268606831
:108AD000751B6A4308EB070102F070F92368B14582
:108AE0005D60E3D2256820466968FFF705FF2860CE
:108AF000DCE7000073B50E461446054620B915495B
:108B00004FF4B47001F05EFF26B9124940F26910CB
:108B100001F058FFA4B102A8002300F8013DFEF7C0
:108B200027F82B7C7BB9AB689C4228BF1C462846A3
:108B300022463146FFF798FF9DF80700FEF748F8F8
:108B4000204602B070BD2846FFF77EFF844228BF52
:108B50000446ECE7E21F030000F1804000F5C0404E
:108B6000002382B0036003680193019B02B0704749
:108B7000054B4FF0FF32072843F8202084BF1B1815
:108B800083F84820704700BFE4AA002002494FF450
:108B9000F37001F017BF00BF242003001F2838B571
:108BA00004460D4601D9FFF7F1FFA00000F1A040F7
:108BB000D0F8003723F44033C0F80037D0F800373E
:108BC00043EA0543C0F8003738BD000010B5164C25
:108BD00094F8583033BBFF21E2180133202B82F880
:108BE0003010F9D10021C8B2FFF7C2FF01310C29C2
:108BF000F9D1042200210D4802F07AF90C4BE02251
:108C000083F8062340221A604FF4BE70FFF7A4FFDA
:108C1000084B4FF00042C3F80423012384F8583076
:108C2000002010BD0820FCE7E4AA002038AB00209B
:108C300000E100E000600040034B93F85800003072
:108C400018BF0120704700BFE4AA00201F2870B59C
:108C500004460D4604D941494FF4987001F0B2FE24
:108C60003F4E96F85830012B04D03C4940F2311069
:108C700001F0A8FE25B939494FF4997001F0A2FE20
:108C8000331993F93020013265D1AA78002A54D0E3
:108C9000002356F8231001314FEA830248D13119DD
:108CA00002F1804281F83030002102F5C04246F8DE
:108CB0002310D2F810052B78697820F498101B0443
:108CC000090520F4F85001F4801103F44033C2F890
:108CD00010050B432102D2F8100501F4F8510B43A3
:108CE0000343C2F810356B78012B4FF0010528D1F2
:108CF0001F2C01D9FFF74AFF4FF0A043A540C3F84E
:108D000008551F2C01D9FFF741FF04F5E0724FF021
:108D1000A043032143F82210E2081249012304F082
:108D2000070403FA04F48B5C1C438C54002003E01A
:108D30000133082BADD1042070BDFE2283F8302012
:108D4000D1E71F2C01D9FFF721FF4FF0A043A54029
:108D5000C3F80C55D5E70820EEE700BF5B20030001
:108D6000E4AA002038AB00201F2838B5054604D9F6
:108D700012494FF4BE7001F025FE114C621992F9B0
:108D80003020013204D10D4940F27D1001F01AFE6D
:108D9000631993F83030072B04D808494FF4BF709B
:108DA00001F010FE1F2D01D9FFF7F0FE012303FA99
:108DB00005F54FF0A043C3F8085538BD5B2003000C
:108DC000E4AA00201F2838B5054604D912494FF4FB
:108DD000C37001F0F7FD114C621992F93020013295
:108DE00004D10D4940F2871001F0ECFD631993F8AE
:108DF0003030072B04D808494FF4C47001F0E2FD6D
:108E00001F2D01D9FFF7C2FE012303FA05F54FF02C
:108E1000A043C3F80C5538BD5B200300E4AA002032
:108E20001F282DE9F84304468846914604D9414954
:108E300040F2072001F0C6FD3F4F3B1993F9303057
:108E4000002B74DA98F80230C3F34003002B0BBFF9
:108E5000082500250C2108218D4202D10420BDE8FF
:108E6000F88357F8252001324FEA850645D13A1993
:108E700047F8259082F8305013B97B1983F84840A1
:108E800098F802305A0717D4D90738D51F2C01D9C2
:108E9000FFF77CFEA30003F1A043D3F8002722F0E4
:108EA0000202C3F800272549E20804F00700012365
:108EB0008340885C03438B5498F8020098F80010B4
:108EC00010F002002AD006F1804303F5C0432402CB
:108ED000D3F8102522F4473222F44072C3F810254B
:108EE0000904D3F8102504F4F85401F440310C437C
:108EF0001443C3F810450020B1E70135ACE71F2C3F
:108F000098F8019001D9FFF741FE04F5E0734FF0A6
:108F1000A0414FEA890241F82320C4E7083D3D44BF
:108F200095F8504044EA811185F8501097E70820E1
:108F300095E700BF5B200300E4AA002038AB0020C7
:108F40001F28F8B505460E4604D9284940F23720B7
:108F500001F038FD264C631993F93030002B04DA08
:108F600022494FF40E7001F02DFD671997F930205A
:108F7000072A1ADD224492F848309B09032B10D1AE
:108F80001F2D01D9FFF702FE4FF0A043D3F8103593
:108F9000EB40DB0707D402212846BDE8F840FFF785
:108FA000FDBD012BF7D00321F6E7D3B2072B1CD868
:108FB000930003F1804303F5C04302F14000D3F86E
:108FC0001015800041F00101C3F8101580B2FFF7C1
:108FD000C3FD56B197F9303054F823302BB101233B
:108FE00003FA02F2034BC3F80423F8BD5B2003002D
:108FF000E4AA0020006000401F2810B5044606D9EE
:1090000007494FF4227001F0DDFCFFF7BFFD4FF080
:10901000A043D3F81005E04000F0010010BD00BFF0
:109020005B2003002DE9F04F87B000245B4A5C4EC3
:109030005C4D039401211368A2F5C040012B80B25E
:1090400006D1D6F804330B4202D0FFF785FD0C435E
:109050000432AA424FEA4101EDD1534B1B68012B68
:109060000AD14FF4BE70FFF777FD4FF0A04344F0F4
:109070000044D3F81035039314F0FF0F1AD04B4F70
:1090800000250126344210D0AB0003F1804303F5E4
:10909000C043D3F81005D3F8101557F82530C0F3A6
:1090A0000420C1F3014103B198470135082D4FEA6F
:1090B0004606E7D1002C6EDA00224FF0FF33CDE9EF
:1090C00004233A4F4FF0000A56464FF0A04907EBF1
:1090D0000A0393F95040631C46D0E4B2012224F005
:1090E000C00504F0070B02FA0BFBEB0806AAD11827
:1090F00011F8042C12EA0B0F36D07A19A40992F950
:10910000302057F82280B8F1000F0AD1032C2BD160
:109110000DF1100C1CF8030040EA0B000CF80300E2
:1091200001E0032CF4D01F2D03D90191FFF72EFD90
:10913000019911F80C1C05F5E07311EA0B0F59F8B1
:109140002330C3F3014320D0022B0DD1032C05D1D2
:1091500021462846FFF722FD0136F6B2B8F1000F8E
:1091600002D021462846C0470AF1010ABAF1040F8D
:10917000ADD186B14FF0A043039AD3F810359A428F
:1091800009D00393049B05939CE7032BECD1032C9C
:10919000E4D10221DDE707B0BDE8F08F00610040B7
:1091A00000600040206100407C610040E4AA002093
:1091B00010B5054C22681AB90449512001F002FC8F
:1091C0002368BDE81040184740AB0020A4200300EE
:1091D00037B50D4630B90F49772001F0F3FB002079
:1091E00003B030BD0C4B9842F9D102A8002300F81F
:1091F000013DFDF7BDFC094B1C7914B901221D602E
:109200001A719DF80700FDF7E3FC002CE7D0112050
:10921000E6E700BFA42003000020004040AB002090
:1092200000F1804000F5E040002382B00360036855
:109230000193019B02B07047F0B5514B514C1B6834
:1092400085B0DBB14FF4827094F82E20FFF7E8FF71
:1092500012B194F82F30A3B1636802932389ADF85B
:109260000C30E36800218DF80410002B44D12374E6
:10927000236801A89847002384F82F3094F82E30F3
:1092800003B3414B1B68EBB14FF48070FFF7C8FF8D
:1092900094F82D20638B91B28B4238D95B1A2189C7
:1092A0009BB26383CB1A616801EB4301374BC3F870
:1092B0002C16C3F830264FF48270FFF7B1FF344B01
:1092C00001221A60334B1B685BB14FF48870FFF7C3
:1092D000A7FF002304A82374022300F80C3D236891
:1092E00098472D4B1B6813B34FF48A70FFF798FF14
:1092F0000023237405B0F0BD208B60836360208160
:10930000E160002AB4D1214B01221A60B0E7D2D12A
:10931000E368012184F82F103BB1002161831B49D0
:10932000C1F82C36C1F83026C5E76383C3E7666908
:109330004FF000470125002EDCD0B6FA86F227FA5E
:1093400002F34632920026EA030602F1804303F557
:10935000E0431B68002BEED01046FFF761FFA2F53B
:109360008C72D30882F00402C2F380028DF80830B8
:109370008DF804508DF80920236801A89847DAE792
:109380000471004048AB00200071004000700040B4
:109390000470004010710040147100402DE9F34149
:1093A000104C114F114E00254FF480382368A4F55E
:1093B000004080B26BB1D7F8043308FA05F21A42C4
:1093C00007D00023236023680193019BD6E9003175
:1093D00098470135042D04F10404E7D102B0BDE83B
:1093E000F08100BF408100400080004078AB002049
:1093F0000023435082B043580193019B02B0704751
:10940000F0B5504C236887B023B94F4940F245204E
:1094100001F0D8FA4D4AD2F824311546A3B14FF4E1
:1094200092711046FFF7E4FFD2F8043163B9A368E4
:10943000C2F808330223A360A368C2F804330123EF
:109440001362536107B0F0BDD5F80431002B49D049
:109450003F4F3E484FF48271FFF7CAFF0FCF01AE76
:109460000FC63B68336094F82E307BB1237B012B11
:109470000CBFD5F83C25D5F84C250292022B334B76
:109480000CBFD3F83C35D3F84C3503934FF4B0718F
:109490002E48FFF7ADFF4FF4AE712C48FFF7A8FF41
:1094A00094F8303013B194F82E303BB1274B0022A2
:1094B000C3F80022A260274AC3F80823234AD2F83F
:1094C000C434C2F8C4349A0736D501238DF800306D
:1094D00094F830300BB984F82F30D4E90031684665
:1094E0009847AFE74FF4A4711848FFF781FF237B3B
:1094F00083B9174F0FCF01AE0FC63B68336094F8A6
:109500003030002BDAD1C5F80032A360114BC5F81A
:109510000833D3E74FF40073C5F8003240F202235A
:10952000A36003F1CE73C5F80833A368C5F804330C
:109530000123AB602B6285E713F0040318BF0223FD
:10954000C4E700BF84AB0020F720030000300040D8
:1095500090AB002002029C010023435082B043588C
:109560000193019B02B070470A4610B54FF48E710B
:10957000FFF7F2FF136A9168C95C136A0133136243
:10958000C0F81C1510BD08B502464FF49271006872
:10959000FFF7E2FF4FF484711068FFF7DDFF1368F7
:1095A00001221A6008BD10B58B690A464FF4847118
:1095B00023B9FFF7D1FFD0F8183510BDFFF7CCFF66
:1095C000536AD168D0F81805C854536A01335362FE
:1095D000F3E7000002494FF4F37001F0F3B900BF64
:1095E000242003001FB501238DF80030044BCDE982
:1095F0000110D3E900126846904705B05DF804FBFE
:10960000B8AB002030B54D4AD2F8043313F4007FD4
:1096100085B015464FD0D2F82431002B4BD04FF4F3
:1096200092711046FFF798FF4FF40173C2F80833A8
:10963000434B93F8291009B9012151603F49022297
:109640008DF80020D1F88024C1F8802403929A6913
:109650000292DA6801920022C3E906226846D3E941
:10966000001290473548D0F81C315BB134490A6A82
:109670004B699A420A464CD291F82830002B48D1C7
:10968000FFF772FF2D4AD2F8443193B14FF4A27123
:109690001046FFF761FF2A4B93F8291009B1012109
:1096A00011609A692AB100229A61586AD968FFF755
:1096B00099FF05B030BDD5F804335B07D2D5D5F896
:1096C0000831002BCED01E4C1C482146FFF76BFF03
:1096D000636AA2699A422346C4D1E26952B12369FE
:1096E000E168E3600023606AA261E3616362FFF7FF
:1096F00079FFB7E794F829200AB901226A600F4A76
:109700004FF40171C2F8081300229A61586AD968AF
:10971000EDE74FF48E710948FFF71EFF51690029EC
:10972000B0D00023029191688DF80030019153610F
:109730006846D2E900139847A4E700BF0020004024
:10974000B8AB00202DE9F84F054692460C4619B9F2
:109750007749AA2001F036F9764B2E792C2202FBAC
:109760000632984692F82A20002A40F0DD8072499D
:109770002868FFF72DFD0746002840F0D780D4F871
:109780000090B9F1FF3F18D0B9F11F0F01D9FFF7D1
:1097900021FF4FF0A043012202FA09F2C3F8082585
:1097A000D4F800B0BBF11F0F994601D9FFF712FFA3
:1097B0000BF5E07B032349F82B30D4F80490B9F182
:1097C000FF3F0BD0B9F11F0F01D9FFF703FF09F5D8
:1097D000E0794FF0A043002243F829202B68A269CA
:1097E000C3F82425217D637D2A680B43C2F86C35BC
:1097F000D4E900212B68C3F81415C3F80C25237D88
:10980000012B35D1D4F80890B9F1FF3F0BD0B9F155
:109810001F0F01D9FFF7DEFE09F5E0794FF0A043F5
:10982000002243F82920D4F80C90B9F1FF3F18D05A
:10983000B9F11F0F01D9FFF7CDFE4FF0A043012270
:1098400002FA09F2C3F80825D4F80CB0BBF11F0FD7
:10985000994601D9FFF7BEFE0BF5E07B032349F8DB
:109860002B30D4E902212B68C3F80815C3F8102562
:109870002C23734308EB0302C2F804A0226948F8C2
:109880000320BAF1000F3CD04FF48E712868247F7A
:10989000FFF762FE4FF4A2712868FFF75DFE2B68A8
:1098A000264AC3F804232B684FEA133AA31E012B60
:1098B0004FFA8AF906D9631F022B03D920496B207E
:1098C00001F080F8B9F1000FACBF09F160431D4B06
:1098D0004FEA4414B8BF0AF00F0AE4B2AABF03F576
:1098E000614303F80A4083F800432B681B0B5AB20C
:1098F000012103F01F0301FA03F35209124941F851
:1099000022302B680422C3F800252C2303FB068396
:109910000022C3E9062283F829205A61012283F834
:109920002A203846BDE8F88F0827FAE71127F8E71C
:109930003C210300B8AB0020059602008000020025
:109940007C21030014ED00E000E100E02DE9F84F78
:10995000344E90F804802C2303FB0863074693F8E9
:109960002A30012B8A46934604D02F4940F2151025
:1099700001F028F8BAF1000F04D12B494FF48B7095
:1099800001F020F8BBF1000F04D1274940F2171075
:1099900001F018F83B792C2404FB03635D69002D6A
:1099A0003BD108FB04694FF48E71C9F82050C9F807
:1099B00014B0C9F808A089F828503868FFF7CCFD22
:1099C0003B6801229A6049463868FFF7CDFDD9F817
:1099D00004304C461BBB3D68226A63699A4211D32E
:1099E0003B68D3F81C21002AFBD00122DA6000205A
:1099F0002C2303FB086600237361BDE8F88F94F8FD
:109A0000283043B9D5F81C31002BF8D049462846F8
:109A1000FFF7AAFDE0E70F20EAE71120EDE728466F
:109A2000EBE700BFB8AB00203C2103000379044AF8
:109A30002C2101FB03235869003018BF0120704717
:109A4000B8AB00202DE9F843474E05792C2303FBE2
:109A50000563074693F82A30012B8846144604D044
:109A6000424940F2691000F0ADFFB8F1000F04D197
:109A70003E494FF4B57000F0A5FF24B93B4940F2D0
:109A80006B1000F09FFF2C2303FB0563596821B185
:109A90003B684FF40172C3F808232C2303FB0563D2
:109AA0009A6952B1DA69002A3FD021B13B684FF47C
:109AB0000172C3F80423112035E09C61C3F80C80C7
:109AC0005A62DA612C2303FB056393F829301BB932
:109AD00012B93846FFF757FD4FF02C0909FB05680E
:109AE0003868D8F80430002B35D14FF4A271FFF755
:109AF00033FDC1463868D0F82431D0F80821D0F8B9
:109B00004441BAB90CB9002BF4D02C2202FB0565F4
:109B10000022AA6123BB2CBB95F829103B680122C7
:109B2000B9B11A600020BDE8F883C3F81080DC6189
:109B30000122C7E7002BE8D1002CE6D14946FFF708
:109B400032FDD8F82430D8F818209A42D2D82346CB
:109B5000DBE75A60E6E74FF40173C0F80433E1E74E
:109B60000320E0E70F20DEE7B8AB00203C21030034
:109B700070B50279084C2C2505FB0242064692F886
:109B800029303BB9FFF7FFFC337905FB0343012282
:109B900083F8292070BD00BFB8AB002000234350DC
:109BA00082B043580193019B02B0704702494FF4C1
:109BB000F37000F007BF00BF242003001FB501238E
:109BC0008DF80030044BCDE90110D3E9001268464E
:109BD000904705B05DF804FBE4AB00207FB5374A41
:109BE000D2F82461002E48D010464FF49271FFF74E
:109BF000D5FF02238DF80030D2F88034C2F88034CB
:109C00000393D2F83C3502932D4BDA68019200227F
:109C1000C3E906226846D3E900129047274AD2F8E2
:109C200044317BB14FF4A2711046FFF7B7FF244BCC
:109C3000996939B10021C3E90611D968D2F83C0508
:109C4000FFF7BCFF1D4AD2F82031A3B14FF4907149
:109C50001046FFF7A3FF1A4B596961B1D2F84C15B2
:109C60000291002299688DF8002001915A6168469E
:109C7000D3E90012904704B070BDD2F81031002B28
:109C8000CCD04FF488711046FFF788FF0C4BD2F808
:109C90003C0599698842C1D1DC69D96864B1D2F8C0
:109CA000005225F02005C2F800521A699C61DA6062
:109CB000DE61FFF783FFB1E79C61FAE70020004017
:109CC000E4AB00202DE9F84F054692460C4619B941
:109CD0007B49CD2000F076FE7A4B2E79242202FBC0
:109CE0000632984692F82020002A40F0E580764916
:109CF0002868FFF76DFA0746002840F0DF80D4F8A7
:109D00000090B9F1FF3F18D0B9F11F0F01D9FFF74B
:109D10004DFF4FF0A043012202FA09F2C3F80825D3
:109D2000D4F800B0BBF11F0F994601D9FFF73EFFF1
:109D30000BF5E07B032349F82B30D4F80490B9F1FC
:109D4000FF3F0BD0B9F11F0F01D9FFF72FFF09F526
:109D5000E0794FF0A043002243F829202B68A26944
:109D6000C3F82425217D637D2A680B43C2F86C3536
:109D7000D4E900122B68C3F80C15C3F81425237D11
:109D8000012B35D1D4F80890B9F1FF3F0BD0B9F1D0
:109D90001F0F01D9FFF70AFF09F5E0794FF0A04343
:109DA000002243F82920D4F80C90B9F1FF3F18D0D5
:109DB000B9F11F0F01D9FFF7F9FE4FF0A0430122BF
:109DC00002FA09F2C3F80825D4F80CB0BBF11F0F52
:109DD000994601D9FFF7EAFE0BF5E07B032349F82A
:109DE0002B30D4E902212B68C3F80815C3F81025DD
:109DF0002423734308EB0302C2F804A0226948F845
:109E00000320BAF1000F46D04FF488712868247FF0
:109E1000FFF7C4FE4FF490712868FFF7BFFE4FF4C0
:109E200092712868FFF7BAFE4FF4A2712868FFF715
:109E3000B5FE2B68254AC3F804232B684FEA133A72
:109E4000A31E012B4FFA8AF906D9631F022B03D9EF
:109E50001F496B2000F0B6FDB9F1000FACBF09F14E
:109E600060431C4B4FEA4414B8BF0AF00F0AE4B237
:109E7000AABF03F5614303F80A4083F800432B6847
:109E80001B0B5AB2012103F01F0301FA03F352091D
:109E9000114941F822302B680822C3F800252423F9
:109EA00003FB06830022C3E906225A61012283F8DC
:109EB00020203846BDE8F88F0827FAE71127F8E791
:109EC000B9210300E4AB0020DD9B02001003020077
:109ED0007C21030014ED00E000E100E02DE9F843EF
:109EE000364E0779242303FB0763044693F820309A
:109EF000012B8846914604D031494FF4927000F00E
:109F000061FDB8F1000F04D12D4940F2251000F099
:109F100059FDB9F1000F04D129494FF4937000F0B5
:109F200051FD237913B9B9F1FF0F04D9244940F247
:109F3000271000F047FD08F06043B3F1005F37D110
:109F40002379242505FB03635A69002A32D105FBD6
:109F500007654FF49071C5F81490C5F80880206823
:109F6000FFF71CFE4FF4AC712068FFF717FE236863
:109F70006969A868C3F84405C3F848152368012136
:109F800099606B68C3B92268D2F82011D2F85831B1
:109F900049B9002BF8D00F20242303FB07660023C8
:109FA0007361BDE8F883002B14BF0F200020F3E796
:109FB0001020F6E71120F4E71046F2E7E4AB0020AA
:109FC000B92103000379044A242101FB03235869C2
:109FD000003018BF01207047E4AB00202DE9F041AC
:109FE000484E0479242303FB0463054693F820308C
:109FF000012B8846174604D043494FF4B77000F050
:10A00000E1FCB8F1000F04D13F4940F26F1000F0BD
:10A01000D9FC27B93C494FF4B87000F0D3FC2B7938
:10A020000BB9FF2F04D9384940F2711000F0CAFC77
:10A0300008F06043B3F1005F61D1242303FB0463A4
:10A04000596821B12B684FF40472C3F80823242304
:10A0500003FB04639A6952B1DA69002A3DD021B149
:10A060002B684FF40472C3F80423112033E09F617E
:10A07000C3F80C80DA614FF488712868FFF78EFD11
:10A080004FF4A2712868FFF789FD2B68C3F8348567
:10A09000C3F838752B682ABB01221A602A792B680D
:10A0A000242101FB0261496819BBD3F81041D3F8A0
:10A0B0004411D3F8240114B909B90028F5D0242398
:10A0C00003FB02660023984214BF032018469942FE
:10A0D000B36118BF0F20BDE8F081C3F81080DF61C5
:10A0E0000122C8E7D3F8002242F02002C3F8002280
:10A0F000D4E74FF40472C3F804230020EBE71020E8
:10A10000E9E700BFE4AB0020B921030007B5154B18
:10A110001A687AB100221A601B680093009B4FF006
:10A1200080430122C3F808230F4B587910B95A71A4
:10A130001B6898470D4B1A6882B100221A601B6891
:10A140000193019B4FF080430222C3F80823064B82
:10A150001B68012003B05DF804EB184703B05DF8FD
:10A1600004FB00BF0001004008AC002004010040D7
:10A170000369C1688B429DBF8268D21802F1FF3229
:10A1800003F1FF3394BF501A581A70472DE9F0417C
:10A19000D0E902670446F61B406896428846154699
:10A1A000384405D900F00AFE3D44E560BDE8F08181
:10A1B0003246AD1B00F002FE2A4608EB060160683D
:10A1C00000F0FCFDF1E72DE9F843C5680646894635
:10A1D00017464FF000083469B3687068A54228BF7D
:10A1E000E418013C621B5C1BBC4228BF3C46944205
:10A1F00028BF144649462844224600F0DFFDB368D4
:10A200002544AB4208BF00253F1BA044A144F56094
:10A21000E1D14046BDE8F88310B5114C114AA26166
:10A220000223C4E90433104BE361A2644FF40073CA
:10A230000E4A2362E264002310220D49A362E01D4E
:10A240006362E362A3656365E365226500F076FF00
:10A250000849204600F072FF2023A37110BD00BF03
:10A2600038B100200622030020AC002010AC0020F2
:10A270000F22030013220300F8B5184C182300FB2B
:10A28000033503FB00402544C46A012C0F461646E3
:10A2900011D003D3022C1BD000240AE02846FFF77C
:10A2A00067FF864205D8324639462846FFF76EFFDB
:10A2B00034462046F8BD2846FFF75AFF864234460A
:10A2C00028BF0446224639462846FFF75FFFF0E7DD
:10A2D0002846BDE8F840FFF776BF00BF38B1002040
:10A2E00073B50D4B1B7804460D4616460BB9FFF7A8
:10A2F00093FF02A8002300F8013DFCF739FC324629
:10A3000029462046FFF7B8FF04469DF80700FCF7F2
:10A310005FFC204602B070BD38B10020FFF77CBF63
:10A3200010B511461C461A460020FFF7D9FF2046FB
:10A3300010BD72DF704773DF704738B501220446E5
:10A340000D46B0F83812D0F8340200F06CF900B1C4
:10A35000057004F13C0204F50D7104F15400BDE8F0
:10A360003840FFF7E6BFF8B5077804460D46002FE2
:10A3700000F0058100F24A26A17007220021304634
:10A3800000F0B6FDE38813B1A378012B04D0E37984
:10A390004BB1A378022B06D1636BA3B1012284F8E1
:10A3A000512208209847334604F5147113F8012F01
:10A3B00012B99942FAD117466B1E032B53D8DFE826
:10A3C00003F0050B0F1284F85132ECE7A3791BB1AF
:10A3D00094F8243003B95FB9E3790BB1002F44D16D
:10A3E000237A002B43D1637A002B0CBF0025042570
:10A3F000636BA570002B3CD0033D012D39D86279E9
:10A40000002A36D094F85222002A32D184F85422FD
:10A41000012284F853220720984704F13C051822B2
:10A420000021284600F064FDE36A94F8242001210D
:10A43000581E884288BF0B4684F83C1084F851307F
:10A4400032B1884296BFA36A84F8521084F8523021
:10A45000A178002384F8503004291BD8DFE801F0EC
:10A46000770D223559000025C2E70225C0E70325F4
:10A47000BEE7002384F85332CFE7C4F84432C4E97E
:10A4800010630223012284F83C30802384F83120B9
:10A49000A4F84830A378002B5CD1636B002B6AD101
:10A4A000002067E0022384F8313062B1072384F88A
:10A4B0003C302369A4F848300023C4F84432E368F0
:10A4C00026646364E6E70323F1E763696364A369D1
:10A4D000A4F8483012B1062384F83C306379B3B154
:10A4E00094F852329BB994F8543283B1022384F821
:10A4F000503004212046FFF720FF0028CAD1052351
:10A5000084F8313004F50D73C4F84432C2E70323F4
:10A51000F6E7E3696364236AA4F8483012B10623BE
:10A5200084F83C30637983B194F852326BB994F873
:10A53000543253B1022384F8503004212046FFF7EF
:10A54000FCFE0028A6D10623DAE70423D8E784F826
:10A5500031309FE72A46D4F8441204F15400FFF743
:10A56000E8FE38B994F8301094F85400FFF7E3FE91
:10A57000002892D0F8BD94F83100984790E7082061
:10A58000F8E710B50388112B0C460AD0262B1FD0F4
:10A59000102B05D1C37B012B02D18388A1F848324F
:10A5A00010BD002381F852328288B1F848329A42B5
:10A5B000F6D10B79002BF3D101212046FFF7D3FE12
:10A5C0000028EDD0A36B002BEAD0BDE8104018475F
:10A5D000037A013B012BE3D889780523013191FBF4
:10A5E000F3F303EB8303C91AC9B2E6E7704770B50A
:10A5F000C0B14AB116880024B44203D305196D785E
:10A600009D4208D0A14201D800200BE0055D013534
:10A610002C44A4B2F0E7A142F6D9A31C1380005D3C
:10A62000013880B270BD37B502AC002324F8023D7A
:10A63000134622460546FFF7DAFF10B1BDF80600C3
:10A64000284403B030BD0000034B1A8882420CBF7F
:10A6500018460020704700BF3CAE0020024B9B69AB
:10A6600003B11847704700BF20AE002013B50B465A
:10A67000497A0F4C024669B9D4E901101C7A002CC2
:10A6800018BF01465868FCF711FA08B1FFF7E6FF5A
:10A6900002B010BD002119726369002BF8D00121AE
:10A6A000ADF806008DF8041001A89847F0E700BF48
:10A6B00020AE002030B583880588B3F5FA7F24BF2B
:10A6C0006FF4F9729C184A8838BF002495420CD860
:10A6D0004088904209D38A88A24206D303F2F3103D
:10A6E000904234BF0020012030BD0020FCE7000074
:10A6F00070B50388112B014648D002D8102B1ED00C
:10A7000070BD122B52D0502BFAD12F4BC288DB894F
:10A710009A42F5D1038A022BF2D186883046FFF7A0
:10A7200093FF05460028EBD001F1120000F050F82D
:10A7300030BB6868FCF7FEF90028E1D009E0C37B74
:10A74000012BDDD14FF6FF70FFF77EFF054620B9E4
:10A750000420BDE87040FFF781BF8E881B4A068049
:10A76000002303721368C5F80A300A305368436047
:10A770001031FFF79FFF144B6872DB89002BBFD1AC
:10A7800029463046BDE87040FFF770BF8088FFF76C
:10A790005BFF04460028B3D04068FCF7CBF908B152
:10A7A000FFF75CFF4FF6FF732380A9E786883046EA
:10A7B000FFF74AFF05460028A2D008310A30FFF70C
:10A7C00079FF6872DCE700BF20AE002050AE0020A9
:10A7D000007800F00100704776DF70477FDF704738
:10A7E00086DF70478ADF70478FDF7047B1DF7047C1
:10A7F00033DF704737B503881D2B044600F0AC806B
:10A800001DD8132B7CD00AD8102B3DD0112B5DD036
:10A81000604B13B12046AFF3008003B030BD142B62
:10A8200000F08C801B2BF3D1037A012BF0D1FFF7C2
:10A83000DFFF0028ECD0584A4FF4CC716DE0502B6C
:10A8400052D00ED8212B00F096803B2BE0D1132163
:10A850008088FFF7C1FF0028DAD04F4A4FF4D0714B
:10A860005BE0522B5CD045D3562BD1D18379002BA2
:10A87000CED14A4B13211888FFF7AEFF0028C7D06E
:10A88000454A40F2A71148E0444D81884448298058
:10A89000FCF764FC20B1404A4FF49D71FBF701FFC7
:10A8A00000231A4619462888FFF7A0FF20B13A4A2C
:10A8B0004FF4A171FBF7F5FE3A4800F063FB3A4B09
:10A8C000002BA5D02046AFF30080A1E7334B3748DB
:10A8D0004FF6FF721A8000F055FB354B002B97D0D6
:10A8E0002046AFF3008093E7324B002B90D0AFF3BC
:10A8F00000808DE7304B002B8AD0AFF3008087E7D4
:10A90000264800231A4685210088FFF767FF0028A4
:10A910003FF47EAF204A40F28111FBF7C2FE77E799
:10A920001E4800231A4619460088FFF75FFF0028DB
:10A930003FF46EAF184A40F28711EEE71748002344
:10A940001A4619460088FFF74BFF00283FF460AF16
:10A95000114A40F29111E0E7184B0BB1AFF30080C0
:10A9600017490020FFF73EFF00283FF451AF0A4A85
:10A9700040F2C711D1E702A9002321F8043D8088E5
:10A98000FFF732FF00283FF443AF034A40F2D111F2
:10A99000C3E700BF000000003F220300B0B1002069
:10A9A000C4B00020622203000000000072220300F5
:10A9B0000000000000000000000000000000000097
:10A9C000D498002038B50D460446044800F0DAFA61
:10A9D0002A4621460248FBF764FE38BD1A220300CE
:10A9E000EFBEADDE0C4B1B78062B10D10B4B1B685A
:10A9F0001A070CD10A4B186800F0F003302B08D06E
:10AA000000F0E000A0F14003584258417047002098
:10AA100070470120704700BFE00F00F0E40F00F026
:10AA2000E80F00F0094B1B78062B0CD1084B1B6874
:10AA30001A0708D1074B186800F0F000A0F13003A6
:10AA40005842584170470020704700BFE00F00F0A7
:10AA5000E40F00F0E80F00F008B5FFF7C3FF28B1DE
:10AA60007D4B7E4A1B68C3F304231360FFF7DAFFB4
:10AA700010B17B4B7B4A1A60FFF7B4FF28B17A4BC9
:10AA80007A4A1B68C3F342331360FFF7CBFF20B150
:10AA9000774AD36823F08073D360FFF7A3FF40B1F8
:10AAA0004FF080430022C3F80C21C3F81021C3F8F3
:10AAB0003825FFF7B7FF10B16E4B03221A60FFF77E
:10AAC000B1FF40B16C4B05221A6001229A67002247
:10AAD0009A603F225A60694B1B78062B50D1684B15
:10AAE0001B6819074CD1674B1B6803F0F003502B10
:10AAF00046D14FF08052644BD2F80414C3F82015AD
:10AB0000D2F80814C3F82415D2F80C14C3F8281589
:10AB1000D2F81014C3F82C15D2F81414C3F8301559
:10AB2000D2F81814C3F83415D2F81C14C3F8401521
:10AB3000D2F82014C3F84415D2F82414C3F84815E9
:10AB4000D2F82814C3F84C15D2F82C14C3F85015B9
:10AB5000D2F83014C3F85415D2F83414C3F8601581
:10AB6000D2F83814C3F86415D2F83C14C3F8681549
:10AB7000D2F84014C3F86C15D2F84424C3F87025F9
:10AB8000FFF730FF28B1414B414A1B6803F04F03E8
:10AB90001360FFF727FF48B14FF08043D3F800243C
:10ABA000D20744BF6FF00102C3F80024394B1B6881
:10ABB000062B08D1384B1B68062B01BF374A136898
:10ABC00043F480631360364AD2F8883043F470034C
:10ABD000C2F88830BFF34F8FBFF36F8F4FF0102351
:10ABE000D3F80022002A03DBD3F80432002B2FDA3B
:10ABF0002C4B0122C3F80425D3F80024002AFBD0F3
:10AC00004FF010221521C2F80012D3F80024002AB8
:10AC1000FBD04FF010231522C3F80422214B1A4613
:10AC2000D3F800140029FBD00021C3F80415D2F892
:10AC30000034002BFBD0BFF34F8F19491A4BCA6861
:10AC400002F4E0621343CB60BFF34F8F00BFFDE718
:10AC5000164B174A1A6008BD240300104035014006
:10AC600074C007400DF0ADBA440200103C0500402E
:10AC7000F0ED00E0A005004010560040E00F00F0AD
:10AC8000E40F00F0E80F00F000C000405802001090
:10AC9000E40E004030010010340100103C17004069
:10ACA00000ED00E000E001400400FA05DC9800201F
:10ACB0000090D0030649074A074B9B1A03DD043B6B
:10ACC000C858D050FBDCFFF7C7FEFBF7B9FA00000D
:10ACD00014260300A8980020A0A20020FEE7FEE7AB
:10ACE000FEE7FEE7FEE7FEE7FEE7FEE7FEE7FEE73C
:10ACF00008B50021044602F0F1F8044B1868C36B54
:10AD000003B19847204605F0A3F900BF8422030051
:10AD100070B50D4E0D4D761BB61006D000240134D3
:10AD200055F8043B9847A642F9D1094E094D761BC8
:10AD300005F0A4FFB61006D00024013455F8043BFA
:10AD40009847A642F9D170BD90A2002090A20020A1
:10AD50009CA2002090A20020044B054A1B685B6B5C
:10AD6000002B08BF134693F828017047E098002095
:10AD7000109D0020044B054A1B685B6B002B08BF2D
:10AD80001346D3F8EC007047E0980020109D002097
:10AD900082B049B15AB16BB113780B601278101CB4
:10ADA00018BF012002B0704701A9002AF3D1104654
:10ADB00002B070476FF00100F4E700BF844641EA3B
:10ADC000000313F003036DD1403A41D351F8043B23
:10ADD00040F8043B51F8043B40F8043B51F8043B75
:10ADE00040F8043B51F8043B40F8043B51F8043B65
:10ADF00040F8043B51F8043B40F8043B51F8043B55
:10AE000040F8043B51F8043B40F8043B51F8043B44
:10AE100040F8043B51F8043B40F8043B51F8043B34
:10AE200040F8043B51F8043B40F8043B51F8043B24
:10AE300040F8043B51F8043B40F8043B51F8043B14
:10AE400040F8043B51F8043B40F8043B403ABDD283
:10AE5000303211D351F8043B40F8043B51F8043B25
:10AE600040F8043B51F8043B40F8043B51F8043BE4
:10AE700040F8043B103AEDD20C3205D351F8043BB4
:10AE800040F8043B043AF9D2043208D0D2071CBF80
:10AE900011F8013B00F8013B01D30B8803806046A9
:10AEA000704700BF082A13D38B078DD010F003031F
:10AEB0008AD0C3F10403D21ADB071CBF11F8013B8F
:10AEC00000F8013B80D331F8023B20F8023B7BE7DE
:10AED000043AD9D3013A11F8013B00F8013BF9D209
:10AEE0000B7803704B7843708B78837060467047A3
:10AEF000F0B4860743D0541E002A3ED0CAB203469F
:10AF000002E014F1FF3438D303F8012B9D07F8D188
:10AF1000032C2BD9CDB245EA05250F2C45EA054572
:10AF200016D9A4F110073F0903F1200606EB071616
:10AF300003F1100242E9045542E902551032B242CF
:10AF4000F8D104F00F040137032C03EB07130DD9DC
:10AF50001E462246043A032A46F8045BFAD8221F0A
:10AF600022F003020432134404F003042CB1C9B2EA
:10AF70001C4403F8011B9C42FBD1F0BC70471446F3
:10AF80000346C5E70FB400B5074983B004AB0868B2
:10AF900053F8042B8168019300F0A2F903B05DF827
:10AFA00004EB04B0704700BFE098002000290CBFFC
:10AFB000022200224FF4806300F000B82DE9F04334
:10AFC0005D4C256883B00446884616461F4615B179
:10AFD000AB6B002B7ED0022E05D0012E00F2A98093
:10AFE000002FC0F2A680636EDA0735D521462846C9
:10AFF00003F03CF8216B41B104F14003994202D0C7
:10B00000284603F031F900232363B4F90C30002201
:10B010001806A261626061D423F44A6323F003033B
:10B02000022EA3811FD10025616E002004F143028E
:10B0300043F00203A060C9074FF00100A381226022
:10B04000C4E9042004D49B0502D4A06D03F03EFAA9
:10B05000284603B0BDE8F083A3899B05C6D4A06D44
:10B0600003F032FAC2E701AB6A462146284603F0F4
:10B070002FFAA3891843A081002F36D1009F3846AC
:10B0800003F09EFA8046002842D0A38943F0800353
:10B09000A381AB6B7BB3009AB4F90C30C4F8008089
:10B0A000BA421CBF43F40063A381012E04BF43F0E6
:10B0B0000103A3819BB213F00802C4E904871ED1E7
:10B0C000A260656E15F00105BDD00025284603B0CD
:10B0D000BDE8F083284603F025F87CE7216928467F
:10B0E00003F0C2F8B4F90C3096E7B8F1000FC6D0FF
:10B0F000AB6B002BCFD1284603F014F8CBE7DA076F
:10B1000004D57F420022A761A260DAE7A760D8E7F2
:10B11000DDF80090B94504D1B4F90C304FF0FF359B
:10B1200082E7484603F04CFA80460028F4D04F46A8
:10B13000ABE74FF0FF358BE7E098002080EA010293
:10B14000844612F0030F4FD111F0030F32D14DF8A6
:10B15000044D11F0040F51F8043B0BD0A3F1013260
:10B160009A4312F0803F04BF4CF8043B51F8043B73
:10B1700016D100BF51F8044BA3F101329A4312F0EB
:10B18000803FA4F101320BD14CF8043BA24312F0F2
:10B19000803F04BF51F8043B4CF8044BEAD02346EF
:10B1A0000CF8013B13F0FF0F4FEA3323F8D15DF8A1
:10B1B000044B704711F0010F06D011F8012B0CF869
:10B1C000012B002A08BF704711F0020FBFD031F8E1
:10B1D000022B12F0FF0F16BF2CF8022B8CF8002068
:10B1E00012F47F4FB3D1704711F8012B0CF8012BEB
:10B1F000002AF9D1704700BF0000000000000000E5
:10B2000090F800F06DE9024520F007016FF0000CA6
:10B2100010F0070491F820F040F049804FF000044E
:10B220006FF00700D1E9002391F840F000F1080029
:10B2300082FA4CF2A4FA8CF283FA4CF3A2FA8CF361
:10B240004BBBD1E9022382FA4CF200F10800A4FAC8
:10B250008CF283FA4CF3A2FA8CF3E3B9D1E904231C
:10B2600082FA4CF200F10800A4FA8CF283FA4CF353
:10B27000A2FA8CF37BB9D1E9062301F1200182FA0D
:10B280004CF200F10800A4FA8CF283FA4CF3A2FA13
:10B290008CF3002BC6D0002A04BF04301A4612BA21
:10B2A000B2FA82F2FDE8024500EBD2007047D1E924
:10B2B000002304F00305C4F100004FEAC50514F0B3
:10B2C000040F91F840F00CFA05F562EA05021CBF84
:10B2D00063EA050362464FF00004A9E7000000009E
:10B2E0002DE9F04FD7B01C46894617460546039016
:10B2F00003F0D8F8036816931846FFF781FF089407
:10B3000015901DB1AB6B002B00F00781D9F86410CC
:10B31000B9F90C20C80793B202D4990540F11F81F6
:10B320009E040AD4D9F8641042F4005321F4005169
:10B33000A9F80C30C9F864109BB21D0740F1B28027
:10B34000D9F81020002A00F0AD8003F01A020A2A72
:10B3500000F0C98000239FED867B1093CDE92B334D
:10B360001793CDE919331B93189305932DAB2A93AB
:10B370009B463B78CDF81C908DED127B002B00F0A6
:10B380005982252B3C4602D11DE0252B03D014F811
:10B39000013F002BF9D1E51B8DB1DDE92B320133E3
:10B3A0002A44072BCBF80070CBF80450CDE92B32A0
:10B3B00000F3CA800BF1080B059B2B4405932378FF
:10B3C000002B00F0378200236678069398468DF8AC
:10B3D0008B3004F1010A4FF0FF392B250AF1010AE5
:10B3E000A6F120035A2B00F22A84DFE813F0AA0307
:10B3F000280428049C02280428042804A7022804FE
:10B400002804C602D2022804D702DC022804F6026D
:10B410006D026D026D026D026D026D026D026D02B4
:10B420006D02280428042804280428042804280479
:10B43000FB0228043C03F303FB02FB02FB0228048B
:10B44000280428042804EE03280428049A00280469
:10B4500028042804500328047903280428049003AE
:10B46000280428042804280428042804280428047C
:10B47000FB0228043C03C500FB02FB02FB02D103D4
:10B48000C50070002804B5032804C2039C00DE0335
:10B4900070002804500372002C02280428047C0247
:10B4A000280472004946039801F0A8FCA0B1D9F81D
:10B4B0006430D80704D4B9F80C30990540F1B7834B
:10B4C0004FF0FF330593059857B0BDE8F08F48F073
:10B4D00020089AF8006081E7B9F80C3003F01A02EE
:10B4E0000A2A7FF437AFB9F90E20002AFFF632AFEF
:10B4F000D9F86420D20705D49B0503D4D9F85800A5
:10B5000002F0E4FF23463A464946039801F026FC40
:10B510000590059857B0BDE8F08F039802F002FE41
:10B52000F4E648F0100818F0200F00F06C83089C37
:10B53000073424F00703D3E9004503F10802089219
:10B5400028F4806300228CE12AAA0799039803F06B
:10B550004DFF002841F076830DF1B40B2CE7D9F8AC
:10B56000580002F0B1FFB9F90C2093B2D8E600BF41
:10B57000000000000000000043469F0640F12F83BA
:10B58000089C073424F00704D4E9000104F1080200
:10B59000089204460D46002871F1000205DA2D22BA
:10B5A000644265EB45058DF88B2056AAB9F1FF3F43
:10B5B000049200F0B284012254EA050123F08008CD
:10B5C00040F05981B9F1000F40F01986002A40F08F
:10B5D000088513F0010356AF099302D0302307F812
:10B5E000013D00230A930F9314931193099B9DF837
:10B5F0008B204B45B8BF4B46049312B1049B0133DB
:10B60000049318F002030B9302D0049B02330493BB
:10B6100018F084032C9C0E933FD1069B04995D1A6D
:10B62000002D3ADD102D2B9A29DD59462046209613
:10B630001023039C079EBB4604E0103D102D01F132
:10B64000080118DD0132BA4F1030072ACDE92B204E
:10B65000C1E90073F1DD2AAA314620460C9303F0BC
:10B66000C5FE002840F03D84103D102DDDE92B2063
:10B670002DA90C9BE6DC209E5F4604468B460132DA
:10B68000AB4B2C44072ACDE92B24CBE9003500F342
:10B69000FF849DF88B200BF1080B72B12B9A0132BD
:10B6A00001340DF18B000121072ACDE92B24CBE9D0
:10B6B000000100F318840BF1080B0B9B6BB12B9B63
:10B6C0000133023423A90222072BCDE92B34CBE925
:10B6D000001200F315840BF1080B0E9B802B00F079
:10B6E0003183099BA9EB0305002D37DD102D2B9A23
:10B6F000904B28DD59462046BB464FF0100937468F
:10B700001C46079E04E0103D102D01F1080115DDD7
:10B7100001321030072ACDE92B20C1E90049F2DDC2
:10B720002AAA3146039803F061FE002840F0D9832D
:10B73000103D102DDDE92B202DA9E9DC3E462346E6
:10B740005F4604468B4601322C44072ACDE92B2460
:10B75000CBE9003500F3EF830BF1080B18F4807F81
:10B7600040F080822B9B099ACBF80070013314447F
:10B77000072B2C94CBF804202B9300F392830BF12E
:10B78000080B18F0040F3BD0069B049A9D1A002D5D
:10B7900036DD102D2B9B21DD1026039FDDF81C804C
:10B7A00004E0103D102D0BF1080B17DD0133604A4A
:10B7B0001034072BCDE92B34CBE90026F1DD2AAA82
:10B7C0004146384603F012FE002840F06C85103DDB
:10B7D000102DDDE92B340DF1B40BE7DC0133544AB5
:10B7E0002C44072BCDE92B34CBE9002508DD2AAA10
:10B7F0000799039803F0FAFD002840F0E9822C9C99
:10B800000499DDE905328A42ACBF9B185B180593A9
:10B81000002C40F0D58200232B930A9B1BB10A9980
:10B82000039802F021FD0DF1B40B57463B78002B35
:10B830007FF4A7AD2C9BDDF81C90002B41F0E78036
:10B8400000232B93CBE243469A0640F14E81089C9D
:10B85000073424F0070202F10801D2E900450891FB
:10B86000012200218DF88B10B9F1FF3F56A90491F8
:10B870007FF4A2AE9846012A00F05083022A00F01D
:10B880001B8356A900E03946E20842EA4572E808FF
:10B8900004F0070305461446303354EA050201F864
:10B8A000013C01F1FF37EED118F0010F00F01483D5
:10B8B000302B00F01183049A02393023521A07F812
:10B8C000013C09920F468CE6A6F1300300221AF8DB
:10B8D000016B02EB820203EB4202A6F13003092B5B
:10B8E000F5D906927CE5144B179318F0200F00F061
:10B8F0001481089C073424F00703D3E9004503F1C1
:10B900000802089218F0010F09D054EA050306D086
:10B9100030238DF88D6048F002088DF88C3028F4C3
:10B92000806302229DE748F001089AF8006055E51F
:10B93000DC220300EC220300A8220300039E304611
:10B9400002F0B0FD436818931846FFF759FC1B90AE
:10B950000446304602F0A6FD83681A93002C3FF49B
:10B96000B8AD9AF80060002B3FF438AD1B78002B7F
:10B970003FF434AD48F4806830E5089B9AF80060E5
:10B980001A680692002A03F10403C0F2978608930E
:10B9900024E58DF88B509AF800601FE59AF8006056
:10B9A00048F004081AE59AF800602A2E0AF101020C
:10B9B00001F0B081A6F13003092B92464FF0000947
:10B9C0003FF60EAD1AF8016B09EB890903EB490943
:10B9D000A6F13003092BF5D902E548F080089AF862
:10B9E0000060FBE4089C073424F0070494ED007B1E
:10B9F00052EC171B22F000431D938DED1C7A083486
:10BA0000DDE91C014FF0FF32BA4B08948DED127B3B
:10BA100004F076FF002840F06F844FF0FF32B54B02
:10BA2000DDE91C0104F04EFF002840F0658400228F
:10BA30000023DDE9120104F03BFF002840F05B85A4
:10BA40009DF88B20AC4FAD4B0020032104910A9050
:10BA500028F08008472ED8BF1F46099181460F90D5
:10BA600014901190C9E50898002301688DF88B3077
:10BA70001A468DF8F4100123011D04930A92914691
:10BA80000F9214921192CDE908133DAFB9E5089BCE
:10BA90001F6800258DF88B501C1D002F00F0398683
:10BAA000B9F1FF3F00F011874A462946384603F0B6
:10BAB0003FF80A90002800F0E7850A9BDB1B0993FA
:10BAC000A94623EAE37308940493CDF82890CDF8AF
:10BAD0003C90CDF85090CDF844909DF88B208CE5AB
